{
	"contracts/AQ.sol": {
		"ApprovalQueue": {
			"abi": [
				{
					"inputs": [],
					"stateMutability": "nonpayable",
					"type": "constructor"
				},
				{
					"inputs": [
						{
							"internalType": "string",
							"name": "id",
							"type": "string"
						},
						{
							"internalType": "string[]",
							"name": "citations",
							"type": "string[]"
						},
						{
							"internalType": "address[]",
							"name": "addresses",
							"type": "address[]"
						}
					],
					"name": "addEntry",
					"outputs": [],
					"stateMutability": "nonpayable",
					"type": "function"
				},
				{
					"inputs": [
						{
							"internalType": "uint256",
							"name": "",
							"type": "uint256"
						}
					],
					"name": "entries",
					"outputs": [
						{
							"internalType": "string",
							"name": "id",
							"type": "string"
						},
						{
							"internalType": "uint256",
							"name": "upvotes",
							"type": "uint256"
						},
						{
							"internalType": "uint256",
							"name": "downvotes",
							"type": "uint256"
						}
					],
					"stateMutability": "view",
					"type": "function"
				},
				{
					"inputs": [],
					"name": "getEntries",
					"outputs": [
						{
							"components": [
								{
									"internalType": "string",
									"name": "id",
									"type": "string"
								},
								{
									"internalType": "string[]",
									"name": "citations",
									"type": "string[]"
								},
								{
									"internalType": "address[]",
									"name": "addresses",
									"type": "address[]"
								},
								{
									"internalType": "uint256",
									"name": "upvotes",
									"type": "uint256"
								},
								{
									"internalType": "uint256",
									"name": "downvotes",
									"type": "uint256"
								}
							],
							"internalType": "struct ApprovalQueue.Entry[]",
							"name": "",
							"type": "tuple[]"
						}
					],
					"stateMutability": "view",
					"type": "function"
				},
				{
					"inputs": [],
					"name": "getLeastVotedEntryId",
					"outputs": [
						{
							"internalType": "uint256",
							"name": "",
							"type": "uint256"
						}
					],
					"stateMutability": "view",
					"type": "function"
				},
				{
					"inputs": [],
					"name": "owner",
					"outputs": [
						{
							"internalType": "address",
							"name": "",
							"type": "address"
						}
					],
					"stateMutability": "view",
					"type": "function"
				},
				{
					"inputs": [],
					"name": "paperPool",
					"outputs": [
						{
							"internalType": "contract pp",
							"name": "",
							"type": "address"
						}
					],
					"stateMutability": "view",
					"type": "function"
				},
				{
					"inputs": [
						{
							"internalType": "address",
							"name": "newPaperPool",
							"type": "address"
						}
					],
					"name": "updatePaperPool",
					"outputs": [],
					"stateMutability": "nonpayable",
					"type": "function"
				},
				{
					"inputs": [
						{
							"internalType": "uint256",
							"name": "id",
							"type": "uint256"
						},
						{
							"internalType": "bool",
							"name": "upvote",
							"type": "bool"
						}
					],
					"name": "vote",
					"outputs": [],
					"stateMutability": "nonpayable",
					"type": "function"
				}
			],
			"devdoc": {
				"kind": "dev",
				"methods": {},
				"version": 1
			},
			"evm": {
				"assembly": "    /* \"contracts/AQ.sol\":180:2874  contract ApprovalQueue {... */\n  mstore(0x40, 0x80)\n    /* \"contracts/AQ.sol\":432:481  constructor() {... */\n  callvalue\n  dup1\n  iszero\n  tag_1\n  jumpi\n  0x00\n  dup1\n  revert\ntag_1:\n  pop\n    /* \"contracts/AQ.sol\":464:474  msg.sender */\n  caller\n    /* \"contracts/AQ.sol\":456:461  owner */\n  0x01\n  0x00\n    /* \"contracts/AQ.sol\":456:474  owner = msg.sender */\n  0x0100\n  exp\n  dup2\n  sload\n  dup2\n  0xffffffffffffffffffffffffffffffffffffffff\n  mul\n  not\n  and\n  swap1\n  dup4\n  0xffffffffffffffffffffffffffffffffffffffff\n  and\n  mul\n  or\n  swap1\n  sstore\n  pop\n    /* \"contracts/AQ.sol\":180:2874  contract ApprovalQueue {... */\n  dataSize(sub_0)\n  dup1\n  dataOffset(sub_0)\n  0x00\n  codecopy\n  0x00\n  return\nstop\n\nsub_0: assembly {\n        /* \"contracts/AQ.sol\":180:2874  contract ApprovalQueue {... */\n      mstore(0x40, 0x80)\n      callvalue\n      dup1\n      iszero\n      tag_1\n      jumpi\n      0x00\n      dup1\n      revert\n    tag_1:\n      pop\n      jumpi(tag_2, lt(calldatasize, 0x04))\n      shr(0xe0, calldataload(0x00))\n      dup1\n      0xa0a0a815\n      gt\n      tag_11\n      jumpi\n      dup1\n      0xa0a0a815\n      eq\n      tag_7\n      jumpi\n      dup1\n      0xa302de16\n      eq\n      tag_8\n      jumpi\n      dup1\n      0xb30906d4\n      eq\n      tag_9\n      jumpi\n      dup1\n      0xc9d27afe\n      eq\n      tag_10\n      jumpi\n      jump(tag_2)\n    tag_11:\n      dup1\n      0x17be85c3\n      eq\n      tag_3\n      jumpi\n      dup1\n      0x22fae27d\n      eq\n      tag_4\n      jumpi\n      dup1\n      0x2dcc4387\n      eq\n      tag_5\n      jumpi\n      dup1\n      0x8da5cb5b\n      eq\n      tag_6\n      jumpi\n    tag_2:\n      0x00\n      dup1\n      revert\n        /* \"contracts/AQ.sol\":911:1001  function getEntries() public view returns (Entry[] memory) {... */\n    tag_3:\n      tag_12\n      tag_13\n      jump\t// in\n    tag_12:\n      mload(0x40)\n      tag_14\n      swap2\n      swap1\n      tag_15\n      jump\t// in\n    tag_14:\n      mload(0x40)\n      dup1\n      swap2\n      sub\n      swap1\n      return\n        /* \"contracts/AQ.sol\":1056:1284  function addEntry(string memory id, string[] memory citations, address[] memory addresses) public {... */\n    tag_4:\n      tag_16\n      0x04\n      dup1\n      calldatasize\n      sub\n      dup2\n      add\n      swap1\n      tag_17\n      swap2\n      swap1\n      tag_18\n      jump\t// in\n    tag_17:\n      tag_19\n      jump\t// in\n    tag_16:\n      stop\n        /* \"contracts/AQ.sol\":487:680  function updatePaperPool(address newPaperPool) public onlyOwner {... */\n    tag_5:\n      tag_20\n      0x04\n      dup1\n      calldatasize\n      sub\n      dup2\n      add\n      swap1\n      tag_21\n      swap2\n      swap1\n      tag_22\n      jump\t// in\n    tag_21:\n      tag_23\n      jump\t// in\n    tag_20:\n      stop\n        /* \"contracts/AQ.sol\":234:254  address public owner */\n    tag_6:\n      tag_24\n      tag_25\n      jump\t// in\n    tag_24:\n      mload(0x40)\n      tag_26\n      swap2\n      swap1\n      tag_27\n      jump\t// in\n    tag_26:\n      mload(0x40)\n      dup1\n      swap2\n      sub\n      swap1\n      return\n        /* \"contracts/AQ.sol\":2381:2872  function getLeastVotedEntryId() public view returns (uint) {... */\n    tag_7:\n      tag_28\n      tag_29\n      jump\t// in\n    tag_28:\n      mload(0x40)\n      tag_30\n      swap2\n      swap1\n      tag_31\n      jump\t// in\n    tag_30:\n      mload(0x40)\n      dup1\n      swap2\n      sub\n      swap1\n      return\n        /* \"contracts/AQ.sol\":209:228  pp public paperPool */\n    tag_8:\n      tag_32\n      tag_33\n      jump\t// in\n    tag_32:\n      mload(0x40)\n      tag_34\n      swap2\n      swap1\n      tag_35\n      jump\t// in\n    tag_34:\n      mload(0x40)\n      dup1\n      swap2\n      sub\n      swap1\n      return\n        /* \"contracts/AQ.sol\":882:904  Entry[] public entries */\n    tag_9:\n      tag_36\n      0x04\n      dup1\n      calldatasize\n      sub\n      dup2\n      add\n      swap1\n      tag_37\n      swap2\n      swap1\n      tag_38\n      jump\t// in\n    tag_37:\n      tag_39\n      jump\t// in\n    tag_36:\n      mload(0x40)\n      tag_40\n      swap4\n      swap3\n      swap2\n      swap1\n      tag_41\n      jump\t// in\n    tag_40:\n      mload(0x40)\n      dup1\n      swap2\n      sub\n      swap1\n      return\n        /* \"contracts/AQ.sol\":1697:2300  function vote(uint id, bool upvote) public {... */\n    tag_10:\n      tag_42\n      0x04\n      dup1\n      calldatasize\n      sub\n      dup2\n      add\n      swap1\n      tag_43\n      swap2\n      swap1\n      tag_44\n      jump\t// in\n    tag_43:\n      tag_45\n      jump\t// in\n    tag_42:\n      stop\n        /* \"contracts/AQ.sol\":911:1001  function getEntries() public view returns (Entry[] memory) {... */\n    tag_13:\n        /* \"contracts/AQ.sol\":954:968  Entry[] memory */\n      0x60\n        /* \"contracts/AQ.sol\":987:994  entries */\n      0x02\n        /* \"contracts/AQ.sol\":980:994  return entries */\n      dup1\n      sload\n      dup1\n      0x20\n      mul\n      0x20\n      add\n      mload(0x40)\n      swap1\n      dup2\n      add\n      0x40\n      mstore\n      dup1\n      swap3\n      swap2\n      swap1\n      dup2\n      dup2\n      mstore\n      0x20\n      add\n      0x00\n      swap1\n    tag_47:\n      dup3\n      dup3\n      lt\n      iszero\n      tag_48\n      jumpi\n      dup4\n      dup3\n      swap1\n      0x00\n      mstore\n      keccak256(0x00, 0x20)\n      swap1\n      0x05\n      mul\n      add\n      mload(0x40)\n      dup1\n      0xa0\n      add\n      0x40\n      mstore\n      swap1\n      dup2\n      0x00\n      dup3\n      add\n      dup1\n      sload\n      tag_50\n      swap1\n      tag_51\n      jump\t// in\n    tag_50:\n      dup1\n      0x1f\n      add\n      0x20\n      dup1\n      swap2\n      div\n      mul\n      0x20\n      add\n      mload(0x40)\n      swap1\n      dup2\n      add\n      0x40\n      mstore\n      dup1\n      swap3\n      swap2\n      swap1\n      dup2\n      dup2\n      mstore\n      0x20\n      add\n      dup3\n      dup1\n      sload\n      tag_52\n      swap1\n      tag_51\n      jump\t// in\n    tag_52:\n      dup1\n      iszero\n      tag_53\n      jumpi\n      dup1\n      0x1f\n      lt\n      tag_54\n      jumpi\n      0x0100\n      dup1\n      dup4\n      sload\n      div\n      mul\n      dup4\n      mstore\n      swap2\n      0x20\n      add\n      swap2\n      jump(tag_53)\n    tag_54:\n      dup3\n      add\n      swap2\n      swap1\n      0x00\n      mstore\n      keccak256(0x00, 0x20)\n      swap1\n    tag_55:\n      dup2\n      sload\n      dup2\n      mstore\n      swap1\n      0x01\n      add\n      swap1\n      0x20\n      add\n      dup1\n      dup4\n      gt\n      tag_55\n      jumpi\n      dup3\n      swap1\n      sub\n      0x1f\n      and\n      dup3\n      add\n      swap2\n    tag_53:\n      pop\n      pop\n      pop\n      pop\n      pop\n      dup2\n      mstore\n      0x20\n      add\n      0x01\n      dup3\n      add\n      dup1\n      sload\n      dup1\n      0x20\n      mul\n      0x20\n      add\n      mload(0x40)\n      swap1\n      dup2\n      add\n      0x40\n      mstore\n      dup1\n      swap3\n      swap2\n      swap1\n      dup2\n      dup2\n      mstore\n      0x20\n      add\n      0x00\n      swap1\n    tag_56:\n      dup3\n      dup3\n      lt\n      iszero\n      tag_57\n      jumpi\n      dup4\n      dup3\n      swap1\n      0x00\n      mstore\n      keccak256(0x00, 0x20)\n      add\n      dup1\n      sload\n      tag_59\n      swap1\n      tag_51\n      jump\t// in\n    tag_59:\n      dup1\n      0x1f\n      add\n      0x20\n      dup1\n      swap2\n      div\n      mul\n      0x20\n      add\n      mload(0x40)\n      swap1\n      dup2\n      add\n      0x40\n      mstore\n      dup1\n      swap3\n      swap2\n      swap1\n      dup2\n      dup2\n      mstore\n      0x20\n      add\n      dup3\n      dup1\n      sload\n      tag_60\n      swap1\n      tag_51\n      jump\t// in\n    tag_60:\n      dup1\n      iszero\n      tag_61\n      jumpi\n      dup1\n      0x1f\n      lt\n      tag_62\n      jumpi\n      0x0100\n      dup1\n      dup4\n      sload\n      div\n      mul\n      dup4\n      mstore\n      swap2\n      0x20\n      add\n      swap2\n      jump(tag_61)\n    tag_62:\n      dup3\n      add\n      swap2\n      swap1\n      0x00\n      mstore\n      keccak256(0x00, 0x20)\n      swap1\n    tag_63:\n      dup2\n      sload\n      dup2\n      mstore\n      swap1\n      0x01\n      add\n      swap1\n      0x20\n      add\n      dup1\n      dup4\n      gt\n      tag_63\n      jumpi\n      dup3\n      swap1\n      sub\n      0x1f\n      and\n      dup3\n      add\n      swap2\n    tag_61:\n      pop\n      pop\n      pop\n      pop\n      pop\n      dup2\n      mstore\n      0x20\n      add\n      swap1\n      0x01\n      add\n      swap1\n      jump(tag_56)\n    tag_57:\n      pop\n      pop\n      pop\n      pop\n      dup2\n      mstore\n      0x20\n      add\n      0x02\n      dup3\n      add\n      dup1\n      sload\n      dup1\n      0x20\n      mul\n      0x20\n      add\n      mload(0x40)\n      swap1\n      dup2\n      add\n      0x40\n      mstore\n      dup1\n      swap3\n      swap2\n      swap1\n      dup2\n      dup2\n      mstore\n      0x20\n      add\n      dup3\n      dup1\n      sload\n      dup1\n      iszero\n      tag_64\n      jumpi\n      0x20\n      mul\n      dup3\n      add\n      swap2\n      swap1\n      0x00\n      mstore\n      keccak256(0x00, 0x20)\n      swap1\n    tag_65:\n      dup2\n      0x00\n      swap1\n      sload\n      swap1\n      0x0100\n      exp\n      swap1\n      div\n      0xffffffffffffffffffffffffffffffffffffffff\n      and\n      0xffffffffffffffffffffffffffffffffffffffff\n      and\n      dup2\n      mstore\n      0x20\n      add\n      swap1\n      0x01\n      add\n      swap1\n      dup1\n      dup4\n      gt\n      tag_65\n      jumpi\n    tag_64:\n      pop\n      pop\n      pop\n      pop\n      pop\n      dup2\n      mstore\n      0x20\n      add\n      0x03\n      dup3\n      add\n      sload\n      dup2\n      mstore\n      0x20\n      add\n      0x04\n      dup3\n      add\n      sload\n      dup2\n      mstore\n      pop\n      pop\n      dup2\n      mstore\n      0x20\n      add\n      swap1\n      0x01\n      add\n      swap1\n      jump(tag_47)\n    tag_48:\n      pop\n      pop\n      pop\n      pop\n      swap1\n      pop\n        /* \"contracts/AQ.sol\":911:1001  function getEntries() public view returns (Entry[] memory) {... */\n      swap1\n      jump\t// out\n        /* \"contracts/AQ.sol\":1056:1284  function addEntry(string memory id, string[] memory citations, address[] memory addresses) public {... */\n    tag_19:\n        /* \"contracts/AQ.sol\":1173:1188  entryExists(id) */\n      tag_67\n        /* \"contracts/AQ.sol\":1185:1187  id */\n      dup4\n        /* \"contracts/AQ.sol\":1173:1184  entryExists */\n      tag_68\n        /* \"contracts/AQ.sol\":1173:1188  entryExists(id) */\n      jump\t// in\n    tag_67:\n        /* \"contracts/AQ.sol\":1172:1188  !entryExists(id) */\n      iszero\n        /* \"contracts/AQ.sol\":1164:1216  require(!entryExists(id), \"Entry ID must be unique\") */\n      tag_69\n      jumpi\n      mload(0x40)\n      0x08c379a000000000000000000000000000000000000000000000000000000000\n      dup2\n      mstore\n      0x04\n      add\n      tag_70\n      swap1\n      tag_71\n      jump\t// in\n    tag_70:\n      mload(0x40)\n      dup1\n      swap2\n      sub\n      swap1\n      revert\n    tag_69:\n        /* \"contracts/AQ.sol\":1226:1233  entries */\n      0x02\n        /* \"contracts/AQ.sol\":1239:1276  Entry(id, citations, addresses, 0, 0) */\n      mload(0x40)\n      dup1\n      0xa0\n      add\n      0x40\n      mstore\n      dup1\n        /* \"contracts/AQ.sol\":1245:1247  id */\n      dup6\n        /* \"contracts/AQ.sol\":1239:1276  Entry(id, citations, addresses, 0, 0) */\n      dup2\n      mstore\n      0x20\n      add\n        /* \"contracts/AQ.sol\":1249:1258  citations */\n      dup5\n        /* \"contracts/AQ.sol\":1239:1276  Entry(id, citations, addresses, 0, 0) */\n      dup2\n      mstore\n      0x20\n      add\n        /* \"contracts/AQ.sol\":1260:1269  addresses */\n      dup4\n        /* \"contracts/AQ.sol\":1239:1276  Entry(id, citations, addresses, 0, 0) */\n      dup2\n      mstore\n      0x20\n      add\n        /* \"contracts/AQ.sol\":1271:1272  0 */\n      0x00\n        /* \"contracts/AQ.sol\":1239:1276  Entry(id, citations, addresses, 0, 0) */\n      dup2\n      mstore\n      0x20\n      add\n        /* \"contracts/AQ.sol\":1274:1275  0 */\n      0x00\n        /* \"contracts/AQ.sol\":1239:1276  Entry(id, citations, addresses, 0, 0) */\n      dup2\n      mstore\n      pop\n        /* \"contracts/AQ.sol\":1226:1277  entries.push(Entry(id, citations, addresses, 0, 0)) */\n      swap1\n      dup1\n      0x01\n      dup2\n      sload\n      add\n      dup1\n      dup3\n      sstore\n      dup1\n      swap2\n      pop\n      pop\n      0x01\n      swap1\n      sub\n      swap1\n      0x00\n      mstore\n      keccak256(0x00, 0x20)\n      swap1\n      0x05\n      mul\n      add\n      0x00\n      swap1\n      swap2\n      swap1\n      swap2\n      swap1\n      swap2\n      pop\n      0x00\n      dup3\n      add\n      mload\n      dup2\n      0x00\n      add\n      swap1\n      dup2\n      tag_73\n      swap2\n      swap1\n      tag_74\n      jump\t// in\n    tag_73:\n      pop\n      0x20\n      dup3\n      add\n      mload\n      dup2\n      0x01\n      add\n      swap1\n      dup1\n      mload\n      swap1\n      0x20\n      add\n      swap1\n      tag_75\n      swap3\n      swap2\n      swap1\n      tag_76\n      jump\t// in\n    tag_75:\n      pop\n      0x40\n      dup3\n      add\n      mload\n      dup2\n      0x02\n      add\n      swap1\n      dup1\n      mload\n      swap1\n      0x20\n      add\n      swap1\n      tag_77\n      swap3\n      swap2\n      swap1\n      tag_78\n      jump\t// in\n    tag_77:\n      pop\n      0x60\n      dup3\n      add\n      mload\n      dup2\n      0x03\n      add\n      sstore\n      0x80\n      dup3\n      add\n      mload\n      dup2\n      0x04\n      add\n      sstore\n      pop\n      pop\n        /* \"contracts/AQ.sol\":1056:1284  function addEntry(string memory id, string[] memory citations, address[] memory addresses) public {... */\n      pop\n      pop\n      pop\n      jump\t// out\n        /* \"contracts/AQ.sol\":487:680  function updatePaperPool(address newPaperPool) public onlyOwner {... */\n    tag_23:\n        /* \"contracts/AQ.sol\":376:381  owner */\n      0x01\n      0x00\n      swap1\n      sload\n      swap1\n      0x0100\n      exp\n      swap1\n      div\n      0xffffffffffffffffffffffffffffffffffffffff\n      and\n        /* \"contracts/AQ.sol\":362:381  msg.sender == owner */\n      0xffffffffffffffffffffffffffffffffffffffff\n      and\n        /* \"contracts/AQ.sol\":362:372  msg.sender */\n      caller\n        /* \"contracts/AQ.sol\":362:381  msg.sender == owner */\n      0xffffffffffffffffffffffffffffffffffffffff\n      and\n      eq\n        /* \"contracts/AQ.sol\":354:408  require(msg.sender == owner, \"You are not the owner.\") */\n      tag_80\n      jumpi\n      mload(0x40)\n      0x08c379a000000000000000000000000000000000000000000000000000000000\n      dup2\n      mstore\n      0x04\n      add\n      tag_81\n      swap1\n      tag_82\n      jump\t// in\n    tag_81:\n      mload(0x40)\n      dup1\n      swap2\n      sub\n      swap1\n      revert\n    tag_80:\n        /* \"contracts/AQ.sol\":660:672  newPaperPool */\n      dup1\n        /* \"contracts/AQ.sol\":645:654  paperPool */\n      0x00\n      dup1\n        /* \"contracts/AQ.sol\":645:673  paperPool = pp(newPaperPool) */\n      0x0100\n      exp\n      dup2\n      sload\n      dup2\n      0xffffffffffffffffffffffffffffffffffffffff\n      mul\n      not\n      and\n      swap1\n      dup4\n      0xffffffffffffffffffffffffffffffffffffffff\n      and\n      mul\n      or\n      swap1\n      sstore\n      pop\n        /* \"contracts/AQ.sol\":487:680  function updatePaperPool(address newPaperPool) public onlyOwner {... */\n      pop\n      jump\t// out\n        /* \"contracts/AQ.sol\":234:254  address public owner */\n    tag_25:\n      0x01\n      0x00\n      swap1\n      sload\n      swap1\n      0x0100\n      exp\n      swap1\n      div\n      0xffffffffffffffffffffffffffffffffffffffff\n      and\n      dup2\n      jump\t// out\n        /* \"contracts/AQ.sol\":2381:2872  function getLeastVotedEntryId() public view returns (uint) {... */\n    tag_29:\n        /* \"contracts/AQ.sol\":2434:2438  uint */\n      0x00\n        /* \"contracts/AQ.sol\":2472:2473  0 */\n      dup1\n        /* \"contracts/AQ.sol\":2454:2461  entries */\n      0x02\n        /* \"contracts/AQ.sol\":2454:2468  entries.length */\n      dup1\n      sload\n      swap1\n      pop\n        /* \"contracts/AQ.sol\":2454:2473  entries.length == 0 */\n      sub\n        /* \"contracts/AQ.sol\":2450:2487  if (entries.length == 0) return 99999 */\n      tag_85\n      jumpi\n        /* \"contracts/AQ.sol\":2482:2487  99999 */\n      0x01869f\n        /* \"contracts/AQ.sol\":2475:2487  return 99999 */\n      swap1\n      pop\n      jump(tag_84)\n        /* \"contracts/AQ.sol\":2450:2487  if (entries.length == 0) return 99999 */\n    tag_85:\n        /* \"contracts/AQ.sol\":2506:2518  uint votedId */\n      0x00\n        /* \"contracts/AQ.sol\":2532:2546  uint threshold */\n      dup1\n        /* \"contracts/AQ.sol\":2570:2577  entries */\n      0x02\n        /* \"contracts/AQ.sol\":2578:2579  0 */\n      0x00\n        /* \"contracts/AQ.sol\":2570:2580  entries[0] */\n      dup2\n      sload\n      dup2\n      lt\n      tag_86\n      jumpi\n      tag_87\n      tag_88\n      jump\t// in\n    tag_87:\n    tag_86:\n      swap1\n      0x00\n      mstore\n      keccak256(0x00, 0x20)\n      swap1\n      0x05\n      mul\n      add\n        /* \"contracts/AQ.sol\":2570:2590  entries[0].downvotes */\n      0x04\n      add\n      sload\n        /* \"contracts/AQ.sol\":2549:2556  entries */\n      0x02\n        /* \"contracts/AQ.sol\":2557:2558  0 */\n      0x00\n        /* \"contracts/AQ.sol\":2549:2559  entries[0] */\n      dup2\n      sload\n      dup2\n      lt\n      tag_90\n      jumpi\n      tag_91\n      tag_88\n      jump\t// in\n    tag_91:\n    tag_90:\n      swap1\n      0x00\n      mstore\n      keccak256(0x00, 0x20)\n      swap1\n      0x05\n      mul\n      add\n        /* \"contracts/AQ.sol\":2549:2567  entries[0].upvotes */\n      0x03\n      add\n      sload\n        /* \"contracts/AQ.sol\":2549:2590  entries[0].upvotes + entries[0].downvotes */\n      tag_93\n      swap2\n      swap1\n      tag_94\n      jump\t// in\n    tag_93:\n        /* \"contracts/AQ.sol\":2532:2590  uint threshold = entries[0].upvotes + entries[0].downvotes */\n      swap1\n      pop\n        /* \"contracts/AQ.sol\":2606:2612  uint i */\n      0x00\n        /* \"contracts/AQ.sol\":2615:2616  1 */\n      0x01\n        /* \"contracts/AQ.sol\":2606:2616  uint i = 1 */\n      swap1\n      pop\n        /* \"contracts/AQ.sol\":2601:2841  for (uint i = 1; i < entries.length; i++) {... */\n    tag_95:\n        /* \"contracts/AQ.sol\":2622:2629  entries */\n      0x02\n        /* \"contracts/AQ.sol\":2622:2636  entries.length */\n      dup1\n      sload\n      swap1\n      pop\n        /* \"contracts/AQ.sol\":2618:2619  i */\n      dup2\n        /* \"contracts/AQ.sol\":2618:2636  i < entries.length */\n      lt\n        /* \"contracts/AQ.sol\":2601:2841  for (uint i = 1; i < entries.length; i++) {... */\n      iszero\n      tag_96\n      jumpi\n        /* \"contracts/AQ.sol\":2705:2714  threshold */\n      dup2\n        /* \"contracts/AQ.sol\":2682:2689  entries */\n      0x02\n        /* \"contracts/AQ.sol\":2690:2691  i */\n      dup3\n        /* \"contracts/AQ.sol\":2682:2692  entries[i] */\n      dup2\n      sload\n      dup2\n      lt\n      tag_98\n      jumpi\n      tag_99\n      tag_88\n      jump\t// in\n    tag_99:\n    tag_98:\n      swap1\n      0x00\n      mstore\n      keccak256(0x00, 0x20)\n      swap1\n      0x05\n      mul\n      add\n        /* \"contracts/AQ.sol\":2682:2702  entries[i].downvotes */\n      0x04\n      add\n      sload\n        /* \"contracts/AQ.sol\":2661:2668  entries */\n      0x02\n        /* \"contracts/AQ.sol\":2669:2670  i */\n      dup4\n        /* \"contracts/AQ.sol\":2661:2671  entries[i] */\n      dup2\n      sload\n      dup2\n      lt\n      tag_101\n      jumpi\n      tag_102\n      tag_88\n      jump\t// in\n    tag_102:\n    tag_101:\n      swap1\n      0x00\n      mstore\n      keccak256(0x00, 0x20)\n      swap1\n      0x05\n      mul\n      add\n        /* \"contracts/AQ.sol\":2661:2679  entries[i].upvotes */\n      0x03\n      add\n      sload\n        /* \"contracts/AQ.sol\":2661:2702  entries[i].upvotes + entries[i].downvotes */\n      tag_104\n      swap2\n      swap1\n      tag_94\n      jump\t// in\n    tag_104:\n        /* \"contracts/AQ.sol\":2661:2714  entries[i].upvotes + entries[i].downvotes < threshold */\n      lt\n        /* \"contracts/AQ.sol\":2657:2831  if (entries[i].upvotes + entries[i].downvotes < threshold) {... */\n      iszero\n      tag_105\n      jumpi\n        /* \"contracts/AQ.sol\":2744:2745  i */\n      dup1\n        /* \"contracts/AQ.sol\":2734:2745  votedId = i */\n      swap3\n      pop\n        /* \"contracts/AQ.sol\":2796:2803  entries */\n      0x02\n        /* \"contracts/AQ.sol\":2804:2805  i */\n      dup2\n        /* \"contracts/AQ.sol\":2796:2806  entries[i] */\n      dup2\n      sload\n      dup2\n      lt\n      tag_106\n      jumpi\n      tag_107\n      tag_88\n      jump\t// in\n    tag_107:\n    tag_106:\n      swap1\n      0x00\n      mstore\n      keccak256(0x00, 0x20)\n      swap1\n      0x05\n      mul\n      add\n        /* \"contracts/AQ.sol\":2796:2816  entries[i].downvotes */\n      0x04\n      add\n      sload\n        /* \"contracts/AQ.sol\":2775:2782  entries */\n      0x02\n        /* \"contracts/AQ.sol\":2783:2784  i */\n      dup3\n        /* \"contracts/AQ.sol\":2775:2785  entries[i] */\n      dup2\n      sload\n      dup2\n      lt\n      tag_109\n      jumpi\n      tag_110\n      tag_88\n      jump\t// in\n    tag_110:\n    tag_109:\n      swap1\n      0x00\n      mstore\n      keccak256(0x00, 0x20)\n      swap1\n      0x05\n      mul\n      add\n        /* \"contracts/AQ.sol\":2775:2793  entries[i].upvotes */\n      0x03\n      add\n      sload\n        /* \"contracts/AQ.sol\":2775:2816  entries[i].upvotes + entries[i].downvotes */\n      tag_112\n      swap2\n      swap1\n      tag_94\n      jump\t// in\n    tag_112:\n        /* \"contracts/AQ.sol\":2763:2816  threshold = entries[i].upvotes + entries[i].downvotes */\n      swap2\n      pop\n        /* \"contracts/AQ.sol\":2657:2831  if (entries[i].upvotes + entries[i].downvotes < threshold) {... */\n    tag_105:\n        /* \"contracts/AQ.sol\":2638:2641  i++ */\n      dup1\n      dup1\n      0x01\n      add\n      swap2\n      pop\n      pop\n        /* \"contracts/AQ.sol\":2601:2841  for (uint i = 1; i < entries.length; i++) {... */\n      jump(tag_95)\n    tag_96:\n      pop\n        /* \"contracts/AQ.sol\":2858:2865  votedId */\n      dup2\n        /* \"contracts/AQ.sol\":2851:2865  return votedId */\n      swap3\n      pop\n      pop\n      pop\n        /* \"contracts/AQ.sol\":2381:2872  function getLeastVotedEntryId() public view returns (uint) {... */\n    tag_84:\n      swap1\n      jump\t// out\n        /* \"contracts/AQ.sol\":209:228  pp public paperPool */\n    tag_33:\n      0x00\n      dup1\n      sload\n      swap1\n      0x0100\n      exp\n      swap1\n      div\n      0xffffffffffffffffffffffffffffffffffffffff\n      and\n      dup2\n      jump\t// out\n        /* \"contracts/AQ.sol\":882:904  Entry[] public entries */\n    tag_39:\n      0x02\n      dup2\n      dup2\n      sload\n      dup2\n      lt\n      tag_113\n      jumpi\n      0x00\n      dup1\n      revert\n    tag_113:\n      swap1\n      0x00\n      mstore\n      keccak256(0x00, 0x20)\n      swap1\n      0x05\n      mul\n      add\n      0x00\n      swap2\n      pop\n      swap1\n      pop\n      dup1\n      0x00\n      add\n      dup1\n      sload\n      tag_115\n      swap1\n      tag_51\n      jump\t// in\n    tag_115:\n      dup1\n      0x1f\n      add\n      0x20\n      dup1\n      swap2\n      div\n      mul\n      0x20\n      add\n      mload(0x40)\n      swap1\n      dup2\n      add\n      0x40\n      mstore\n      dup1\n      swap3\n      swap2\n      swap1\n      dup2\n      dup2\n      mstore\n      0x20\n      add\n      dup3\n      dup1\n      sload\n      tag_116\n      swap1\n      tag_51\n      jump\t// in\n    tag_116:\n      dup1\n      iszero\n      tag_117\n      jumpi\n      dup1\n      0x1f\n      lt\n      tag_118\n      jumpi\n      0x0100\n      dup1\n      dup4\n      sload\n      div\n      mul\n      dup4\n      mstore\n      swap2\n      0x20\n      add\n      swap2\n      jump(tag_117)\n    tag_118:\n      dup3\n      add\n      swap2\n      swap1\n      0x00\n      mstore\n      keccak256(0x00, 0x20)\n      swap1\n    tag_119:\n      dup2\n      sload\n      dup2\n      mstore\n      swap1\n      0x01\n      add\n      swap1\n      0x20\n      add\n      dup1\n      dup4\n      gt\n      tag_119\n      jumpi\n      dup3\n      swap1\n      sub\n      0x1f\n      and\n      dup3\n      add\n      swap2\n    tag_117:\n      pop\n      pop\n      pop\n      pop\n      pop\n      swap1\n      dup1\n      0x03\n      add\n      sload\n      swap1\n      dup1\n      0x04\n      add\n      sload\n      swap1\n      pop\n      dup4\n      jump\t// out\n        /* \"contracts/AQ.sol\":1697:2300  function vote(uint id, bool upvote) public {... */\n    tag_45:\n        /* \"contracts/AQ.sol\":1775:1777  id */\n      dup2\n        /* \"contracts/AQ.sol\":1758:1765  entries */\n      0x02\n        /* \"contracts/AQ.sol\":1758:1772  entries.length */\n      dup1\n      sload\n      swap1\n      pop\n        /* \"contracts/AQ.sol\":1758:1777  entries.length > id */\n      gt\n        /* \"contracts/AQ.sol\":1750:1802  require(entries.length > id, \"Entry does not exist\") */\n      tag_121\n      jumpi\n      mload(0x40)\n      0x08c379a000000000000000000000000000000000000000000000000000000000\n      dup2\n      mstore\n      0x04\n      add\n      tag_122\n      swap1\n      tag_123\n      jump\t// in\n    tag_122:\n      mload(0x40)\n      dup1\n      swap2\n      sub\n      swap1\n      revert\n    tag_121:\n        /* \"contracts/AQ.sol\":1812:1831  Entry storage entry */\n      0x00\n        /* \"contracts/AQ.sol\":1834:1841  entries */\n      0x02\n        /* \"contracts/AQ.sol\":1842:1844  id */\n      dup4\n        /* \"contracts/AQ.sol\":1834:1845  entries[id] */\n      dup2\n      sload\n      dup2\n      lt\n      tag_124\n      jumpi\n      tag_125\n      tag_88\n      jump\t// in\n    tag_125:\n    tag_124:\n      swap1\n      0x00\n      mstore\n      keccak256(0x00, 0x20)\n      swap1\n      0x05\n      mul\n      add\n        /* \"contracts/AQ.sol\":1812:1845  Entry storage entry = entries[id] */\n      swap1\n      pop\n        /* \"contracts/AQ.sol\":1860:1866  upvote */\n      dup2\n        /* \"contracts/AQ.sol\":1856:1956  if (upvote) {... */\n      iszero\n      tag_127\n      jumpi\n        /* \"contracts/AQ.sol\":1882:1887  entry */\n      dup1\n        /* \"contracts/AQ.sol\":1882:1895  entry.upvotes */\n      0x03\n      add\n      0x00\n        /* \"contracts/AQ.sol\":1882:1897  entry.upvotes++ */\n      dup2\n      sload\n      dup1\n      swap3\n      swap2\n      swap1\n      tag_128\n      swap1\n      tag_129\n      jump\t// in\n    tag_128:\n      swap2\n      swap1\n      pop\n      sstore\n      pop\n        /* \"contracts/AQ.sol\":1856:1956  if (upvote) {... */\n      jump(tag_130)\n    tag_127:\n        /* \"contracts/AQ.sol\":1928:1933  entry */\n      dup1\n        /* \"contracts/AQ.sol\":1928:1943  entry.downvotes */\n      0x04\n      add\n      0x00\n        /* \"contracts/AQ.sol\":1928:1945  entry.downvotes++ */\n      dup2\n      sload\n      dup1\n      swap3\n      swap2\n      swap1\n      tag_131\n      swap1\n      tag_129\n      jump\t// in\n    tag_131:\n      swap2\n      swap1\n      pop\n      sstore\n      pop\n        /* \"contracts/AQ.sol\":1856:1956  if (upvote) {... */\n    tag_130:\n        /* \"contracts/AQ.sol\":2070:2071  5 */\n      0x05\n        /* \"contracts/AQ.sol\":2051:2056  entry */\n      dup2\n        /* \"contracts/AQ.sol\":2051:2066  entry.downvotes */\n      0x04\n      add\n      sload\n        /* \"contracts/AQ.sol\":2035:2040  entry */\n      dup3\n        /* \"contracts/AQ.sol\":2035:2048  entry.upvotes */\n      0x03\n      add\n      sload\n        /* \"contracts/AQ.sol\":2035:2066  entry.upvotes + entry.downvotes */\n      tag_132\n      swap2\n      swap1\n      tag_94\n      jump\t// in\n    tag_132:\n        /* \"contracts/AQ.sol\":2035:2071  entry.upvotes + entry.downvotes == 5 */\n      sub\n        /* \"contracts/AQ.sol\":2031:2294  if (entry.upvotes + entry.downvotes == 5) {... */\n      tag_133\n      jumpi\n        /* \"contracts/AQ.sol\":2087:2098  uint lastId */\n      0x00\n        /* \"contracts/AQ.sol\":2118:2119  1 */\n      0x01\n        /* \"contracts/AQ.sol\":2101:2108  entries */\n      0x02\n        /* \"contracts/AQ.sol\":2101:2115  entries.length */\n      dup1\n      sload\n      swap1\n      pop\n        /* \"contracts/AQ.sol\":2101:2119  entries.length - 1 */\n      tag_134\n      swap2\n      swap1\n      tag_135\n      jump\t// in\n    tag_134:\n        /* \"contracts/AQ.sol\":2087:2119  uint lastId = entries.length - 1 */\n      swap1\n      pop\n        /* \"contracts/AQ.sol\":2133:2142  paperPool */\n      0x00\n      dup1\n      sload\n      swap1\n      0x0100\n      exp\n      swap1\n      div\n      0xffffffffffffffffffffffffffffffffffffffff\n      and\n        /* \"contracts/AQ.sol\":2133:2151  paperPool.addPaper */\n      0xffffffffffffffffffffffffffffffffffffffff\n      and\n      0xfd3cbf95\n        /* \"contracts/AQ.sol\":2152:2159  entries */\n      0x02\n        /* \"contracts/AQ.sol\":2160:2162  id */\n      dup7\n        /* \"contracts/AQ.sol\":2152:2163  entries[id] */\n      dup2\n      sload\n      dup2\n      lt\n      tag_136\n      jumpi\n      tag_137\n      tag_88\n      jump\t// in\n    tag_137:\n    tag_136:\n      swap1\n      0x00\n      mstore\n      keccak256(0x00, 0x20)\n      swap1\n      0x05\n      mul\n      add\n        /* \"contracts/AQ.sol\":2152:2166  entries[id].id */\n      0x00\n      add\n        /* \"contracts/AQ.sol\":2168:2175  entries */\n      0x02\n        /* \"contracts/AQ.sol\":2176:2178  id */\n      dup8\n        /* \"contracts/AQ.sol\":2168:2179  entries[id] */\n      dup2\n      sload\n      dup2\n      lt\n      tag_139\n      jumpi\n      tag_140\n      tag_88\n      jump\t// in\n    tag_140:\n    tag_139:\n      swap1\n      0x00\n      mstore\n      keccak256(0x00, 0x20)\n      swap1\n      0x05\n      mul\n      add\n        /* \"contracts/AQ.sol\":2168:2189  entries[id].citations */\n      0x01\n      add\n        /* \"contracts/AQ.sol\":2191:2198  entries */\n      0x02\n        /* \"contracts/AQ.sol\":2199:2201  id */\n      dup9\n        /* \"contracts/AQ.sol\":2191:2202  entries[id] */\n      dup2\n      sload\n      dup2\n      lt\n      tag_142\n      jumpi\n      tag_143\n      tag_88\n      jump\t// in\n    tag_143:\n    tag_142:\n      swap1\n      0x00\n      mstore\n      keccak256(0x00, 0x20)\n      swap1\n      0x05\n      mul\n      add\n        /* \"contracts/AQ.sol\":2191:2212  entries[id].addresses */\n      0x02\n      add\n        /* \"contracts/AQ.sol\":2133:2213  paperPool.addPaper(entries[id].id, entries[id].citations, entries[id].addresses) */\n      mload(0x40)\n      dup5\n      0xffffffff\n      and\n      0xe0\n      shl\n      dup2\n      mstore\n      0x04\n      add\n      tag_145\n      swap4\n      swap3\n      swap2\n      swap1\n      tag_146\n      jump\t// in\n    tag_145:\n      0x00\n      mload(0x40)\n      dup1\n      dup4\n      sub\n      dup2\n      0x00\n      dup8\n      dup1\n      extcodesize\n      iszero\n      dup1\n      iszero\n      tag_147\n      jumpi\n      0x00\n      dup1\n      revert\n    tag_147:\n      pop\n      gas\n      call\n      iszero\n      dup1\n      iszero\n      tag_149\n      jumpi\n      returndatasize\n      0x00\n      dup1\n      returndatacopy\n      revert(0x00, returndatasize)\n    tag_149:\n      pop\n      pop\n      pop\n      pop\n        /* \"contracts/AQ.sol\":2241:2248  entries */\n      0x02\n        /* \"contracts/AQ.sol\":2249:2255  lastId */\n      dup2\n        /* \"contracts/AQ.sol\":2241:2256  entries[lastId] */\n      dup2\n      sload\n      dup2\n      lt\n      tag_150\n      jumpi\n      tag_151\n      tag_88\n      jump\t// in\n    tag_151:\n    tag_150:\n      swap1\n      0x00\n      mstore\n      keccak256(0x00, 0x20)\n      swap1\n      0x05\n      mul\n      add\n        /* \"contracts/AQ.sol\":2227:2234  entries */\n      0x02\n        /* \"contracts/AQ.sol\":2235:2237  id */\n      dup6\n        /* \"contracts/AQ.sol\":2227:2238  entries[id] */\n      dup2\n      sload\n      dup2\n      lt\n      tag_153\n      jumpi\n      tag_154\n      tag_88\n      jump\t// in\n    tag_154:\n    tag_153:\n      swap1\n      0x00\n      mstore\n      keccak256(0x00, 0x20)\n      swap1\n      0x05\n      mul\n      add\n        /* \"contracts/AQ.sol\":2227:2256  entries[id] = entries[lastId] */\n      0x00\n      dup3\n      add\n      dup2\n      0x00\n      add\n      swap1\n      dup2\n      tag_156\n      swap2\n      swap1\n      tag_157\n      jump\t// in\n    tag_156:\n      pop\n      0x01\n      dup3\n      add\n      dup2\n      0x01\n      add\n      swap1\n      dup1\n      sload\n      tag_158\n      swap3\n      swap2\n      swap1\n      tag_159\n      jump\t// in\n    tag_158:\n      pop\n      0x02\n      dup3\n      add\n      dup2\n      0x02\n      add\n      swap1\n      dup1\n      sload\n      tag_160\n      swap3\n      swap2\n      swap1\n      tag_161\n      jump\t// in\n    tag_160:\n      pop\n      0x03\n      dup3\n      add\n      sload\n      dup2\n      0x03\n      add\n      sstore\n      0x04\n      dup3\n      add\n      sload\n      dup2\n      0x04\n      add\n      sstore\n      swap1\n      pop\n      pop\n        /* \"contracts/AQ.sol\":2270:2277  entries */\n      0x02\n        /* \"contracts/AQ.sol\":2270:2283  entries.pop() */\n      dup1\n      sload\n      dup1\n      tag_162\n      jumpi\n      tag_163\n      tag_164\n      jump\t// in\n    tag_163:\n    tag_162:\n      0x01\n      swap1\n      sub\n      dup2\n      dup2\n      swap1\n      0x00\n      mstore\n      keccak256(0x00, 0x20)\n      swap1\n      0x05\n      mul\n      add\n      0x00\n      dup1\n      dup3\n      add\n      0x00\n      tag_166\n      swap2\n      swap1\n      tag_167\n      jump\t// in\n    tag_166:\n      0x01\n      dup3\n      add\n      0x00\n      tag_168\n      swap2\n      swap1\n      tag_169\n      jump\t// in\n    tag_168:\n      0x02\n      dup3\n      add\n      0x00\n      tag_170\n      swap2\n      swap1\n      tag_171\n      jump\t// in\n    tag_170:\n      0x03\n      dup3\n      add\n      0x00\n      swap1\n      sstore\n      0x04\n      dup3\n      add\n      0x00\n      swap1\n      sstore\n      pop\n      pop\n      swap1\n      sstore\n        /* \"contracts/AQ.sol\":2073:2294  {... */\n      pop\n        /* \"contracts/AQ.sol\":2031:2294  if (entry.upvotes + entry.downvotes == 5) {... */\n    tag_133:\n        /* \"contracts/AQ.sol\":1740:2300  {... */\n      pop\n        /* \"contracts/AQ.sol\":1697:2300  function vote(uint id, bool upvote) public {... */\n      pop\n      pop\n      jump\t// out\n        /* \"contracts/AQ.sol\":1334:1649  function entryExists(string memory id) private view returns (bool) {... */\n    tag_68:\n        /* \"contracts/AQ.sol\":1395:1399  bool */\n      0x00\n        /* \"contracts/AQ.sol\":1411:1431  bytes memory idBytes */\n      dup1\n        /* \"contracts/AQ.sol\":1440:1442  id */\n      dup3\n        /* \"contracts/AQ.sol\":1411:1443  bytes memory idBytes = bytes(id) */\n      swap1\n      pop\n        /* \"contracts/AQ.sol\":1457:1463  uint i */\n      0x00\n        /* \"contracts/AQ.sol\":1453:1621  for(uint i = 0; i < entries.length; i++) {... */\n    tag_173:\n        /* \"contracts/AQ.sol\":1473:1480  entries */\n      0x02\n        /* \"contracts/AQ.sol\":1473:1487  entries.length */\n      dup1\n      sload\n      swap1\n      pop\n        /* \"contracts/AQ.sol\":1469:1470  i */\n      dup2\n        /* \"contracts/AQ.sol\":1469:1487  i < entries.length */\n      lt\n        /* \"contracts/AQ.sol\":1453:1621  for(uint i = 0; i < entries.length; i++) {... */\n      iszero\n      tag_174\n      jumpi\n        /* \"contracts/AQ.sol\":1557:1564  idBytes */\n      dup2\n        /* \"contracts/AQ.sol\":1547:1565  keccak256(idBytes) */\n      dup1\n      mload\n      swap1\n      0x20\n      add\n      keccak256\n        /* \"contracts/AQ.sol\":1528:1535  entries */\n      0x02\n        /* \"contracts/AQ.sol\":1536:1537  i */\n      dup3\n        /* \"contracts/AQ.sol\":1528:1538  entries[i] */\n      dup2\n      sload\n      dup2\n      lt\n      tag_176\n      jumpi\n      tag_177\n      tag_88\n      jump\t// in\n    tag_177:\n    tag_176:\n      swap1\n      0x00\n      mstore\n      keccak256(0x00, 0x20)\n      swap1\n      0x05\n      mul\n      add\n        /* \"contracts/AQ.sol\":1528:1541  entries[i].id */\n      0x00\n      add\n        /* \"contracts/AQ.sol\":1512:1543  keccak256(bytes(entries[i].id)) */\n      mload(0x40)\n      tag_179\n      swap2\n      swap1\n      tag_180\n      jump\t// in\n    tag_179:\n      mload(0x40)\n      dup1\n      swap2\n      sub\n      swap1\n      keccak256\n        /* \"contracts/AQ.sol\":1512:1565  keccak256(bytes(entries[i].id)) == keccak256(idBytes) */\n      sub\n        /* \"contracts/AQ.sol\":1508:1611  if (keccak256(bytes(entries[i].id)) == keccak256(idBytes)) {... */\n      tag_181\n      jumpi\n        /* \"contracts/AQ.sol\":1592:1596  true */\n      0x01\n        /* \"contracts/AQ.sol\":1585:1596  return true */\n      swap3\n      pop\n      pop\n      pop\n      jump(tag_172)\n        /* \"contracts/AQ.sol\":1508:1611  if (keccak256(bytes(entries[i].id)) == keccak256(idBytes)) {... */\n    tag_181:\n        /* \"contracts/AQ.sol\":1489:1492  i++ */\n      dup1\n      dup1\n      0x01\n      add\n      swap2\n      pop\n      pop\n        /* \"contracts/AQ.sol\":1453:1621  for(uint i = 0; i < entries.length; i++) {... */\n      jump(tag_173)\n    tag_174:\n      pop\n        /* \"contracts/AQ.sol\":1637:1642  false */\n      0x00\n        /* \"contracts/AQ.sol\":1630:1642  return false */\n      swap2\n      pop\n      pop\n        /* \"contracts/AQ.sol\":1334:1649  function entryExists(string memory id) private view returns (bool) {... */\n    tag_172:\n      swap2\n      swap1\n      pop\n      jump\t// out\n    tag_76:\n      dup3\n      dup1\n      sload\n      dup3\n      dup3\n      sstore\n      swap1\n      0x00\n      mstore\n      keccak256(0x00, 0x20)\n      swap1\n      dup2\n      add\n      swap3\n      dup3\n      iszero\n      tag_182\n      jumpi\n      swap2\n      0x20\n      mul\n      dup3\n      add\n    tag_183:\n      dup3\n      dup2\n      gt\n      iszero\n      tag_184\n      jumpi\n      dup3\n      mload\n      dup3\n      swap1\n      dup2\n      tag_185\n      swap2\n      swap1\n      tag_74\n      jump\t// in\n    tag_185:\n      pop\n      swap2\n      0x20\n      add\n      swap2\n      swap1\n      0x01\n      add\n      swap1\n      jump(tag_183)\n    tag_184:\n    tag_182:\n      pop\n      swap1\n      pop\n      tag_186\n      swap2\n      swap1\n      tag_187\n      jump\t// in\n    tag_186:\n      pop\n      swap1\n      jump\t// out\n    tag_78:\n      dup3\n      dup1\n      sload\n      dup3\n      dup3\n      sstore\n      swap1\n      0x00\n      mstore\n      keccak256(0x00, 0x20)\n      swap1\n      dup2\n      add\n      swap3\n      dup3\n      iszero\n      tag_188\n      jumpi\n      swap2\n      0x20\n      mul\n      dup3\n      add\n    tag_189:\n      dup3\n      dup2\n      gt\n      iszero\n      tag_190\n      jumpi\n      dup3\n      mload\n      dup3\n      exp(0x0100, 0x00)\n      dup2\n      sload\n      dup2\n      0xffffffffffffffffffffffffffffffffffffffff\n      mul\n      not\n      and\n      swap1\n      dup4\n      0xffffffffffffffffffffffffffffffffffffffff\n      and\n      mul\n      or\n      swap1\n      sstore\n      pop\n      swap2\n      0x20\n      add\n      swap2\n      swap1\n      0x01\n      add\n      swap1\n      jump(tag_189)\n    tag_190:\n    tag_188:\n      pop\n      swap1\n      pop\n      tag_191\n      swap2\n      swap1\n      tag_192\n      jump\t// in\n    tag_191:\n      pop\n      swap1\n      jump\t// out\n    tag_159:\n      dup3\n      dup1\n      sload\n      dup3\n      dup3\n      sstore\n      swap1\n      0x00\n      mstore\n      keccak256(0x00, 0x20)\n      swap1\n      dup2\n      add\n      swap3\n      dup3\n      iszero\n      tag_193\n      jumpi\n      0x00\n      mstore\n      keccak256(0x00, 0x20)\n      swap2\n      dup3\n      add\n    tag_194:\n      dup3\n      dup2\n      gt\n      iszero\n      tag_195\n      jumpi\n      dup3\n      dup3\n      swap1\n      dup2\n      tag_196\n      swap2\n      swap1\n      tag_157\n      jump\t// in\n    tag_196:\n      pop\n      swap2\n      0x01\n      add\n      swap2\n      swap1\n      0x01\n      add\n      swap1\n      jump(tag_194)\n    tag_195:\n    tag_193:\n      pop\n      swap1\n      pop\n      tag_197\n      swap2\n      swap1\n      tag_187\n      jump\t// in\n    tag_197:\n      pop\n      swap1\n      jump\t// out\n    tag_161:\n      dup3\n      dup1\n      sload\n      dup3\n      dup3\n      sstore\n      swap1\n      0x00\n      mstore\n      keccak256(0x00, 0x20)\n      swap1\n      dup2\n      add\n      swap3\n      dup3\n      iszero\n      tag_198\n      jumpi\n      0x00\n      mstore\n      keccak256(0x00, 0x20)\n      swap2\n      dup3\n      add\n    tag_199:\n      dup3\n      dup2\n      gt\n      iszero\n      tag_200\n      jumpi\n      dup3\n      sload\n      dup3\n      sstore\n      swap2\n      0x01\n      add\n      swap2\n      swap1\n      0x01\n      add\n      swap1\n      jump(tag_199)\n    tag_200:\n    tag_198:\n      pop\n      swap1\n      pop\n      tag_201\n      swap2\n      swap1\n      tag_192\n      jump\t// in\n    tag_201:\n      pop\n      swap1\n      jump\t// out\n    tag_167:\n      pop\n      dup1\n      sload\n      tag_202\n      swap1\n      tag_51\n      jump\t// in\n    tag_202:\n      0x00\n      dup3\n      sstore\n      dup1\n      0x1f\n      lt\n      tag_204\n      jumpi\n      pop\n      jump(tag_203)\n    tag_204:\n      0x1f\n      add\n      0x20\n      swap1\n      div\n      swap1\n      0x00\n      mstore\n      keccak256(0x00, 0x20)\n      swap1\n      dup2\n      add\n      swap1\n      tag_205\n      swap2\n      swap1\n      tag_192\n      jump\t// in\n    tag_205:\n    tag_203:\n      pop\n      jump\t// out\n    tag_169:\n      pop\n      dup1\n      sload\n      0x00\n      dup3\n      sstore\n      swap1\n      0x00\n      mstore\n      keccak256(0x00, 0x20)\n      swap1\n      dup2\n      add\n      swap1\n      tag_207\n      swap2\n      swap1\n      tag_187\n      jump\t// in\n    tag_207:\n      pop\n      jump\t// out\n    tag_171:\n      pop\n      dup1\n      sload\n      0x00\n      dup3\n      sstore\n      swap1\n      0x00\n      mstore\n      keccak256(0x00, 0x20)\n      swap1\n      dup2\n      add\n      swap1\n      tag_209\n      swap2\n      swap1\n      tag_192\n      jump\t// in\n    tag_209:\n      pop\n      jump\t// out\n    tag_187:\n    tag_210:\n      dup1\n      dup3\n      gt\n      iszero\n      tag_211\n      jumpi\n      0x00\n      dup2\n      dup2\n      tag_212\n      swap2\n      swap1\n      tag_167\n      jump\t// in\n    tag_212:\n      pop\n      0x01\n      add\n      jump(tag_210)\n    tag_211:\n      pop\n      swap1\n      jump\t// out\n    tag_192:\n    tag_213:\n      dup1\n      dup3\n      gt\n      iszero\n      tag_214\n      jumpi\n      0x00\n      dup2\n      0x00\n      swap1\n      sstore\n      pop\n      0x01\n      add\n      jump(tag_213)\n    tag_214:\n      pop\n      swap1\n      jump\t// out\n        /* \"#utility.yul\":7:142   */\n    tag_215:\n        /* \"#utility.yul\":95:101   */\n      0x00\n        /* \"#utility.yul\":129:134   */\n      dup2\n        /* \"#utility.yul\":123:135   */\n      mload\n        /* \"#utility.yul\":113:135   */\n      swap1\n      pop\n        /* \"#utility.yul\":7:142   */\n      swap2\n      swap1\n      pop\n      jump\t// out\n        /* \"#utility.yul\":148:353   */\n    tag_216:\n        /* \"#utility.yul\":268:279   */\n      0x00\n        /* \"#utility.yul\":302:308   */\n      dup3\n        /* \"#utility.yul\":297:300   */\n      dup3\n        /* \"#utility.yul\":290:309   */\n      mstore\n        /* \"#utility.yul\":342:346   */\n      0x20\n        /* \"#utility.yul\":337:340   */\n      dup3\n        /* \"#utility.yul\":333:347   */\n      add\n        /* \"#utility.yul\":318:347   */\n      swap1\n      pop\n        /* \"#utility.yul\":148:353   */\n      swap3\n      swap2\n      pop\n      pop\n      jump\t// out\n        /* \"#utility.yul\":359:512   */\n    tag_217:\n        /* \"#utility.yul\":447:451   */\n      0x00\n        /* \"#utility.yul\":470:473   */\n      dup2\n        /* \"#utility.yul\":462:473   */\n      swap1\n      pop\n        /* \"#utility.yul\":500:504   */\n      0x20\n        /* \"#utility.yul\":495:498   */\n      dup3\n        /* \"#utility.yul\":491:505   */\n      add\n        /* \"#utility.yul\":483:505   */\n      swap1\n      pop\n        /* \"#utility.yul\":359:512   */\n      swap2\n      swap1\n      pop\n      jump\t// out\n        /* \"#utility.yul\":518:617   */\n    tag_218:\n        /* \"#utility.yul\":570:576   */\n      0x00\n        /* \"#utility.yul\":604:609   */\n      dup2\n        /* \"#utility.yul\":598:610   */\n      mload\n        /* \"#utility.yul\":588:610   */\n      swap1\n      pop\n        /* \"#utility.yul\":518:617   */\n      swap2\n      swap1\n      pop\n      jump\t// out\n        /* \"#utility.yul\":623:782   */\n    tag_219:\n        /* \"#utility.yul\":697:708   */\n      0x00\n        /* \"#utility.yul\":731:737   */\n      dup3\n        /* \"#utility.yul\":726:729   */\n      dup3\n        /* \"#utility.yul\":719:738   */\n      mstore\n        /* \"#utility.yul\":771:775   */\n      0x20\n        /* \"#utility.yul\":766:769   */\n      dup3\n        /* \"#utility.yul\":762:776   */\n      add\n        /* \"#utility.yul\":747:776   */\n      swap1\n      pop\n        /* \"#utility.yul\":623:782   */\n      swap3\n      swap2\n      pop\n      pop\n      jump\t// out\n        /* \"#utility.yul\":788:927   */\n    tag_220:\n        /* \"#utility.yul\":877:883   */\n      dup3\n        /* \"#utility.yul\":872:875   */\n      dup2\n        /* \"#utility.yul\":867:870   */\n      dup4\n        /* \"#utility.yul\":861:884   */\n      mcopy\n        /* \"#utility.yul\":918:919   */\n      0x00\n        /* \"#utility.yul\":909:915   */\n      dup4\n        /* \"#utility.yul\":904:907   */\n      dup4\n        /* \"#utility.yul\":900:916   */\n      add\n        /* \"#utility.yul\":893:920   */\n      mstore\n        /* \"#utility.yul\":788:927   */\n      pop\n      pop\n      pop\n      jump\t// out\n        /* \"#utility.yul\":933:1035   */\n    tag_221:\n        /* \"#utility.yul\":974:980   */\n      0x00\n        /* \"#utility.yul\":1025:1027   */\n      0x1f\n        /* \"#utility.yul\":1021:1028   */\n      not\n        /* \"#utility.yul\":1016:1018   */\n      0x1f\n        /* \"#utility.yul\":1009:1014   */\n      dup4\n        /* \"#utility.yul\":1005:1019   */\n      add\n        /* \"#utility.yul\":1001:1029   */\n      and\n        /* \"#utility.yul\":991:1029   */\n      swap1\n      pop\n        /* \"#utility.yul\":933:1035   */\n      swap2\n      swap1\n      pop\n      jump\t// out\n        /* \"#utility.yul\":1041:1398   */\n    tag_222:\n        /* \"#utility.yul\":1119:1122   */\n      0x00\n        /* \"#utility.yul\":1147:1186   */\n      tag_331\n        /* \"#utility.yul\":1180:1185   */\n      dup3\n        /* \"#utility.yul\":1147:1186   */\n      tag_218\n      jump\t// in\n    tag_331:\n        /* \"#utility.yul\":1202:1263   */\n      tag_332\n        /* \"#utility.yul\":1256:1262   */\n      dup2\n        /* \"#utility.yul\":1251:1254   */\n      dup6\n        /* \"#utility.yul\":1202:1263   */\n      tag_219\n      jump\t// in\n    tag_332:\n        /* \"#utility.yul\":1195:1263   */\n      swap4\n      pop\n        /* \"#utility.yul\":1272:1337   */\n      tag_333\n        /* \"#utility.yul\":1330:1336   */\n      dup2\n        /* \"#utility.yul\":1325:1328   */\n      dup6\n        /* \"#utility.yul\":1318:1322   */\n      0x20\n        /* \"#utility.yul\":1311:1316   */\n      dup7\n        /* \"#utility.yul\":1307:1323   */\n      add\n        /* \"#utility.yul\":1272:1337   */\n      tag_220\n      jump\t// in\n    tag_333:\n        /* \"#utility.yul\":1362:1391   */\n      tag_334\n        /* \"#utility.yul\":1384:1390   */\n      dup2\n        /* \"#utility.yul\":1362:1391   */\n      tag_221\n      jump\t// in\n    tag_334:\n        /* \"#utility.yul\":1357:1360   */\n      dup5\n        /* \"#utility.yul\":1353:1392   */\n      add\n        /* \"#utility.yul\":1346:1392   */\n      swap2\n      pop\n        /* \"#utility.yul\":1123:1398   */\n      pop\n        /* \"#utility.yul\":1041:1398   */\n      swap3\n      swap2\n      pop\n      pop\n      jump\t// out\n        /* \"#utility.yul\":1404:1528   */\n    tag_223:\n        /* \"#utility.yul\":1481:1487   */\n      0x00\n        /* \"#utility.yul\":1515:1520   */\n      dup2\n        /* \"#utility.yul\":1509:1521   */\n      mload\n        /* \"#utility.yul\":1499:1521   */\n      swap1\n      pop\n        /* \"#utility.yul\":1404:1528   */\n      swap2\n      swap1\n      pop\n      jump\t// out\n        /* \"#utility.yul\":1534:1718   */\n    tag_224:\n        /* \"#utility.yul\":1633:1644   */\n      0x00\n        /* \"#utility.yul\":1667:1673   */\n      dup3\n        /* \"#utility.yul\":1662:1665   */\n      dup3\n        /* \"#utility.yul\":1655:1674   */\n      mstore\n        /* \"#utility.yul\":1707:1711   */\n      0x20\n        /* \"#utility.yul\":1702:1705   */\n      dup3\n        /* \"#utility.yul\":1698:1712   */\n      add\n        /* \"#utility.yul\":1683:1712   */\n      swap1\n      pop\n        /* \"#utility.yul\":1534:1718   */\n      swap3\n      swap2\n      pop\n      pop\n      jump\t// out\n        /* \"#utility.yul\":1724:1866   */\n    tag_225:\n        /* \"#utility.yul\":1801:1805   */\n      0x00\n        /* \"#utility.yul\":1824:1827   */\n      dup2\n        /* \"#utility.yul\":1816:1827   */\n      swap1\n      pop\n        /* \"#utility.yul\":1854:1858   */\n      0x20\n        /* \"#utility.yul\":1849:1852   */\n      dup3\n        /* \"#utility.yul\":1845:1859   */\n      add\n        /* \"#utility.yul\":1837:1859   */\n      swap1\n      pop\n        /* \"#utility.yul\":1724:1866   */\n      swap2\n      swap1\n      pop\n      jump\t// out\n        /* \"#utility.yul\":1872:2068   */\n    tag_226:\n        /* \"#utility.yul\":1961:1971   */\n      0x00\n        /* \"#utility.yul\":1996:2062   */\n      tag_339\n        /* \"#utility.yul\":2058:2061   */\n      dup4\n        /* \"#utility.yul\":2050:2056   */\n      dup4\n        /* \"#utility.yul\":1996:2062   */\n      tag_222\n      jump\t// in\n    tag_339:\n        /* \"#utility.yul\":1982:2062   */\n      swap1\n      pop\n        /* \"#utility.yul\":1872:2068   */\n      swap3\n      swap2\n      pop\n      pop\n      jump\t// out\n        /* \"#utility.yul\":2074:2197   */\n    tag_227:\n        /* \"#utility.yul\":2154:2158   */\n      0x00\n        /* \"#utility.yul\":2186:2190   */\n      0x20\n        /* \"#utility.yul\":2181:2184   */\n      dup3\n        /* \"#utility.yul\":2177:2191   */\n      add\n        /* \"#utility.yul\":2169:2191   */\n      swap1\n      pop\n        /* \"#utility.yul\":2074:2197   */\n      swap2\n      swap1\n      pop\n      jump\t// out\n        /* \"#utility.yul\":2231:3202   */\n    tag_228:\n        /* \"#utility.yul\":2360:2363   */\n      0x00\n        /* \"#utility.yul\":2389:2453   */\n      tag_342\n        /* \"#utility.yul\":2447:2452   */\n      dup3\n        /* \"#utility.yul\":2389:2453   */\n      tag_223\n      jump\t// in\n    tag_342:\n        /* \"#utility.yul\":2469:2555   */\n      tag_343\n        /* \"#utility.yul\":2548:2554   */\n      dup2\n        /* \"#utility.yul\":2543:2546   */\n      dup6\n        /* \"#utility.yul\":2469:2555   */\n      tag_224\n      jump\t// in\n    tag_343:\n        /* \"#utility.yul\":2462:2555   */\n      swap4\n      pop\n        /* \"#utility.yul\":2581:2584   */\n      dup4\n        /* \"#utility.yul\":2626:2630   */\n      0x20\n        /* \"#utility.yul\":2618:2624   */\n      dup3\n        /* \"#utility.yul\":2614:2631   */\n      mul\n        /* \"#utility.yul\":2609:2612   */\n      dup6\n        /* \"#utility.yul\":2605:2632   */\n      add\n        /* \"#utility.yul\":2656:2722   */\n      tag_344\n        /* \"#utility.yul\":2716:2721   */\n      dup6\n        /* \"#utility.yul\":2656:2722   */\n      tag_225\n      jump\t// in\n    tag_344:\n        /* \"#utility.yul\":2745:2752   */\n      dup1\n        /* \"#utility.yul\":2776:2777   */\n      0x00\n        /* \"#utility.yul\":2761:3157   */\n    tag_345:\n        /* \"#utility.yul\":2786:2792   */\n      dup6\n        /* \"#utility.yul\":2783:2784   */\n      dup2\n        /* \"#utility.yul\":2780:2793   */\n      lt\n        /* \"#utility.yul\":2761:3157   */\n      iszero\n      tag_347\n      jumpi\n        /* \"#utility.yul\":2857:2866   */\n      dup5\n        /* \"#utility.yul\":2851:2855   */\n      dup5\n        /* \"#utility.yul\":2847:2867   */\n      sub\n        /* \"#utility.yul\":2842:2845   */\n      dup10\n        /* \"#utility.yul\":2835:2868   */\n      mstore\n        /* \"#utility.yul\":2908:2914   */\n      dup2\n        /* \"#utility.yul\":2902:2915   */\n      mload\n        /* \"#utility.yul\":2936:3020   */\n      tag_348\n        /* \"#utility.yul\":3015:3019   */\n      dup6\n        /* \"#utility.yul\":3000:3013   */\n      dup3\n        /* \"#utility.yul\":2936:3020   */\n      tag_226\n      jump\t// in\n    tag_348:\n        /* \"#utility.yul\":2928:3020   */\n      swap5\n      pop\n        /* \"#utility.yul\":3043:3113   */\n      tag_349\n        /* \"#utility.yul\":3106:3112   */\n      dup4\n        /* \"#utility.yul\":3043:3113   */\n      tag_227\n      jump\t// in\n    tag_349:\n        /* \"#utility.yul\":3033:3113   */\n      swap3\n      pop\n        /* \"#utility.yul\":3142:3146   */\n      0x20\n        /* \"#utility.yul\":3137:3140   */\n      dup11\n        /* \"#utility.yul\":3133:3147   */\n      add\n        /* \"#utility.yul\":3126:3147   */\n      swap10\n      pop\n        /* \"#utility.yul\":2821:3157   */\n      pop\n        /* \"#utility.yul\":2808:2809   */\n      0x01\n        /* \"#utility.yul\":2805:2806   */\n      dup2\n        /* \"#utility.yul\":2801:2810   */\n      add\n        /* \"#utility.yul\":2796:2810   */\n      swap1\n      pop\n        /* \"#utility.yul\":2761:3157   */\n      jump(tag_345)\n    tag_347:\n        /* \"#utility.yul\":2765:2779   */\n      pop\n        /* \"#utility.yul\":3173:3177   */\n      dup3\n        /* \"#utility.yul\":3166:3177   */\n      swap8\n      pop\n        /* \"#utility.yul\":3193:3196   */\n      dup8\n        /* \"#utility.yul\":3186:3196   */\n      swap6\n      pop\n        /* \"#utility.yul\":2365:3202   */\n      pop\n      pop\n      pop\n      pop\n      pop\n        /* \"#utility.yul\":2231:3202   */\n      swap3\n      swap2\n      pop\n      pop\n      jump\t// out\n        /* \"#utility.yul\":3208:3322   */\n    tag_229:\n        /* \"#utility.yul\":3275:3281   */\n      0x00\n        /* \"#utility.yul\":3309:3314   */\n      dup2\n        /* \"#utility.yul\":3303:3315   */\n      mload\n        /* \"#utility.yul\":3293:3315   */\n      swap1\n      pop\n        /* \"#utility.yul\":3208:3322   */\n      swap2\n      swap1\n      pop\n      jump\t// out\n        /* \"#utility.yul\":3328:3502   */\n    tag_230:\n        /* \"#utility.yul\":3417:3428   */\n      0x00\n        /* \"#utility.yul\":3451:3457   */\n      dup3\n        /* \"#utility.yul\":3446:3449   */\n      dup3\n        /* \"#utility.yul\":3439:3458   */\n      mstore\n        /* \"#utility.yul\":3491:3495   */\n      0x20\n        /* \"#utility.yul\":3486:3489   */\n      dup3\n        /* \"#utility.yul\":3482:3496   */\n      add\n        /* \"#utility.yul\":3467:3496   */\n      swap1\n      pop\n        /* \"#utility.yul\":3328:3502   */\n      swap3\n      swap2\n      pop\n      pop\n      jump\t// out\n        /* \"#utility.yul\":3508:3640   */\n    tag_231:\n        /* \"#utility.yul\":3575:3579   */\n      0x00\n        /* \"#utility.yul\":3598:3601   */\n      dup2\n        /* \"#utility.yul\":3590:3601   */\n      swap1\n      pop\n        /* \"#utility.yul\":3628:3632   */\n      0x20\n        /* \"#utility.yul\":3623:3626   */\n      dup3\n        /* \"#utility.yul\":3619:3633   */\n      add\n        /* \"#utility.yul\":3611:3633   */\n      swap1\n      pop\n        /* \"#utility.yul\":3508:3640   */\n      swap2\n      swap1\n      pop\n      jump\t// out\n        /* \"#utility.yul\":3646:3772   */\n    tag_232:\n        /* \"#utility.yul\":3683:3690   */\n      0x00\n        /* \"#utility.yul\":3723:3765   */\n      0xffffffffffffffffffffffffffffffffffffffff\n        /* \"#utility.yul\":3716:3721   */\n      dup3\n        /* \"#utility.yul\":3712:3766   */\n      and\n        /* \"#utility.yul\":3701:3766   */\n      swap1\n      pop\n        /* \"#utility.yul\":3646:3772   */\n      swap2\n      swap1\n      pop\n      jump\t// out\n        /* \"#utility.yul\":3778:3874   */\n    tag_233:\n        /* \"#utility.yul\":3815:3822   */\n      0x00\n        /* \"#utility.yul\":3844:3868   */\n      tag_355\n        /* \"#utility.yul\":3862:3867   */\n      dup3\n        /* \"#utility.yul\":3844:3868   */\n      tag_232\n      jump\t// in\n    tag_355:\n        /* \"#utility.yul\":3833:3868   */\n      swap1\n      pop\n        /* \"#utility.yul\":3778:3874   */\n      swap2\n      swap1\n      pop\n      jump\t// out\n        /* \"#utility.yul\":3880:3988   */\n    tag_234:\n        /* \"#utility.yul\":3957:3981   */\n      tag_357\n        /* \"#utility.yul\":3975:3980   */\n      dup2\n        /* \"#utility.yul\":3957:3981   */\n      tag_233\n      jump\t// in\n    tag_357:\n        /* \"#utility.yul\":3952:3955   */\n      dup3\n        /* \"#utility.yul\":3945:3982   */\n      mstore\n        /* \"#utility.yul\":3880:3988   */\n      pop\n      pop\n      jump\t// out\n        /* \"#utility.yul\":3994:4173   */\n    tag_235:\n        /* \"#utility.yul\":4063:4073   */\n      0x00\n        /* \"#utility.yul\":4084:4130   */\n      tag_359\n        /* \"#utility.yul\":4126:4129   */\n      dup4\n        /* \"#utility.yul\":4118:4124   */\n      dup4\n        /* \"#utility.yul\":4084:4130   */\n      tag_234\n      jump\t// in\n    tag_359:\n        /* \"#utility.yul\":4162:4166   */\n      0x20\n        /* \"#utility.yul\":4157:4160   */\n      dup4\n        /* \"#utility.yul\":4153:4167   */\n      add\n        /* \"#utility.yul\":4139:4167   */\n      swap1\n      pop\n        /* \"#utility.yul\":3994:4173   */\n      swap3\n      swap2\n      pop\n      pop\n      jump\t// out\n        /* \"#utility.yul\":4179:4292   */\n    tag_236:\n        /* \"#utility.yul\":4249:4253   */\n      0x00\n        /* \"#utility.yul\":4281:4285   */\n      0x20\n        /* \"#utility.yul\":4276:4279   */\n      dup3\n        /* \"#utility.yul\":4272:4286   */\n      add\n        /* \"#utility.yul\":4264:4286   */\n      swap1\n      pop\n        /* \"#utility.yul\":4179:4292   */\n      swap2\n      swap1\n      pop\n      jump\t// out\n        /* \"#utility.yul\":4328:5040   */\n    tag_237:\n        /* \"#utility.yul\":4437:4440   */\n      0x00\n        /* \"#utility.yul\":4466:4520   */\n      tag_362\n        /* \"#utility.yul\":4514:4519   */\n      dup3\n        /* \"#utility.yul\":4466:4520   */\n      tag_229\n      jump\t// in\n    tag_362:\n        /* \"#utility.yul\":4536:4612   */\n      tag_363\n        /* \"#utility.yul\":4605:4611   */\n      dup2\n        /* \"#utility.yul\":4600:4603   */\n      dup6\n        /* \"#utility.yul\":4536:4612   */\n      tag_230\n      jump\t// in\n    tag_363:\n        /* \"#utility.yul\":4529:4612   */\n      swap4\n      pop\n        /* \"#utility.yul\":4636:4692   */\n      tag_364\n        /* \"#utility.yul\":4686:4691   */\n      dup4\n        /* \"#utility.yul\":4636:4692   */\n      tag_231\n      jump\t// in\n    tag_364:\n        /* \"#utility.yul\":4715:4722   */\n      dup1\n        /* \"#utility.yul\":4746:4747   */\n      0x00\n        /* \"#utility.yul\":4731:5015   */\n    tag_365:\n        /* \"#utility.yul\":4756:4762   */\n      dup4\n        /* \"#utility.yul\":4753:4754   */\n      dup2\n        /* \"#utility.yul\":4750:4763   */\n      lt\n        /* \"#utility.yul\":4731:5015   */\n      iszero\n      tag_367\n      jumpi\n        /* \"#utility.yul\":4832:4838   */\n      dup2\n        /* \"#utility.yul\":4826:4839   */\n      mload\n        /* \"#utility.yul\":4859:4922   */\n      tag_368\n        /* \"#utility.yul\":4918:4921   */\n      dup9\n        /* \"#utility.yul\":4903:4916   */\n      dup3\n        /* \"#utility.yul\":4859:4922   */\n      tag_235\n      jump\t// in\n    tag_368:\n        /* \"#utility.yul\":4852:4922   */\n      swap8\n      pop\n        /* \"#utility.yul\":4945:5005   */\n      tag_369\n        /* \"#utility.yul\":4998:5004   */\n      dup4\n        /* \"#utility.yul\":4945:5005   */\n      tag_236\n      jump\t// in\n    tag_369:\n        /* \"#utility.yul\":4935:5005   */\n      swap3\n      pop\n        /* \"#utility.yul\":4791:5015   */\n      pop\n        /* \"#utility.yul\":4778:4779   */\n      0x01\n        /* \"#utility.yul\":4775:4776   */\n      dup2\n        /* \"#utility.yul\":4771:4780   */\n      add\n        /* \"#utility.yul\":4766:4780   */\n      swap1\n      pop\n        /* \"#utility.yul\":4731:5015   */\n      jump(tag_365)\n    tag_367:\n        /* \"#utility.yul\":4735:4749   */\n      pop\n        /* \"#utility.yul\":5031:5034   */\n      dup6\n        /* \"#utility.yul\":5024:5034   */\n      swap4\n      pop\n        /* \"#utility.yul\":4442:5040   */\n      pop\n      pop\n      pop\n        /* \"#utility.yul\":4328:5040   */\n      swap3\n      swap2\n      pop\n      pop\n      jump\t// out\n        /* \"#utility.yul\":5046:5123   */\n    tag_238:\n        /* \"#utility.yul\":5083:5090   */\n      0x00\n        /* \"#utility.yul\":5112:5117   */\n      dup2\n        /* \"#utility.yul\":5101:5117   */\n      swap1\n      pop\n        /* \"#utility.yul\":5046:5123   */\n      swap2\n      swap1\n      pop\n      jump\t// out\n        /* \"#utility.yul\":5129:5237   */\n    tag_239:\n        /* \"#utility.yul\":5206:5230   */\n      tag_372\n        /* \"#utility.yul\":5224:5229   */\n      dup2\n        /* \"#utility.yul\":5206:5230   */\n      tag_238\n      jump\t// in\n    tag_372:\n        /* \"#utility.yul\":5201:5204   */\n      dup3\n        /* \"#utility.yul\":5194:5231   */\n      mstore\n        /* \"#utility.yul\":5129:5237   */\n      pop\n      pop\n      jump\t// out\n        /* \"#utility.yul\":5307:6655   */\n    tag_240:\n        /* \"#utility.yul\":5408:5411   */\n      0x00\n        /* \"#utility.yul\":5444:5448   */\n      0xa0\n        /* \"#utility.yul\":5439:5442   */\n      dup4\n        /* \"#utility.yul\":5435:5449   */\n      add\n        /* \"#utility.yul\":5529:5533   */\n      0x00\n        /* \"#utility.yul\":5522:5527   */\n      dup4\n        /* \"#utility.yul\":5518:5534   */\n      add\n        /* \"#utility.yul\":5512:5535   */\n      mload\n        /* \"#utility.yul\":5582:5585   */\n      dup5\n        /* \"#utility.yul\":5576:5580   */\n      dup3\n        /* \"#utility.yul\":5572:5586   */\n      sub\n        /* \"#utility.yul\":5565:5569   */\n      0x00\n        /* \"#utility.yul\":5560:5563   */\n      dup7\n        /* \"#utility.yul\":5556:5570   */\n      add\n        /* \"#utility.yul\":5549:5587   */\n      mstore\n        /* \"#utility.yul\":5608:5681   */\n      tag_374\n        /* \"#utility.yul\":5676:5680   */\n      dup3\n        /* \"#utility.yul\":5662:5674   */\n      dup3\n        /* \"#utility.yul\":5608:5681   */\n      tag_222\n      jump\t// in\n    tag_374:\n        /* \"#utility.yul\":5600:5681   */\n      swap2\n      pop\n        /* \"#utility.yul\":5459:5692   */\n      pop\n        /* \"#utility.yul\":5779:5783   */\n      0x20\n        /* \"#utility.yul\":5772:5777   */\n      dup4\n        /* \"#utility.yul\":5768:5784   */\n      add\n        /* \"#utility.yul\":5762:5785   */\n      mload\n        /* \"#utility.yul\":5832:5835   */\n      dup5\n        /* \"#utility.yul\":5826:5830   */\n      dup3\n        /* \"#utility.yul\":5822:5836   */\n      sub\n        /* \"#utility.yul\":5815:5819   */\n      0x20\n        /* \"#utility.yul\":5810:5813   */\n      dup7\n        /* \"#utility.yul\":5806:5820   */\n      add\n        /* \"#utility.yul\":5799:5837   */\n      mstore\n        /* \"#utility.yul\":5858:5981   */\n      tag_375\n        /* \"#utility.yul\":5976:5980   */\n      dup3\n        /* \"#utility.yul\":5962:5974   */\n      dup3\n        /* \"#utility.yul\":5858:5981   */\n      tag_228\n      jump\t// in\n    tag_375:\n        /* \"#utility.yul\":5850:5981   */\n      swap2\n      pop\n        /* \"#utility.yul\":5702:5992   */\n      pop\n        /* \"#utility.yul\":6079:6083   */\n      0x40\n        /* \"#utility.yul\":6072:6077   */\n      dup4\n        /* \"#utility.yul\":6068:6084   */\n      add\n        /* \"#utility.yul\":6062:6085   */\n      mload\n        /* \"#utility.yul\":6132:6135   */\n      dup5\n        /* \"#utility.yul\":6126:6130   */\n      dup3\n        /* \"#utility.yul\":6122:6136   */\n      sub\n        /* \"#utility.yul\":6115:6119   */\n      0x40\n        /* \"#utility.yul\":6110:6113   */\n      dup7\n        /* \"#utility.yul\":6106:6120   */\n      add\n        /* \"#utility.yul\":6099:6137   */\n      mstore\n        /* \"#utility.yul\":6158:6261   */\n      tag_376\n        /* \"#utility.yul\":6256:6260   */\n      dup3\n        /* \"#utility.yul\":6242:6254   */\n      dup3\n        /* \"#utility.yul\":6158:6261   */\n      tag_237\n      jump\t// in\n    tag_376:\n        /* \"#utility.yul\":6150:6261   */\n      swap2\n      pop\n        /* \"#utility.yul\":6002:6272   */\n      pop\n        /* \"#utility.yul\":6357:6361   */\n      0x60\n        /* \"#utility.yul\":6350:6355   */\n      dup4\n        /* \"#utility.yul\":6346:6362   */\n      add\n        /* \"#utility.yul\":6340:6363   */\n      mload\n        /* \"#utility.yul\":6376:6439   */\n      tag_377\n        /* \"#utility.yul\":6433:6437   */\n      0x60\n        /* \"#utility.yul\":6428:6431   */\n      dup7\n        /* \"#utility.yul\":6424:6438   */\n      add\n        /* \"#utility.yul\":6410:6422   */\n      dup3\n        /* \"#utility.yul\":6376:6439   */\n      tag_239\n      jump\t// in\n    tag_377:\n        /* \"#utility.yul\":6282:6449   */\n      pop\n        /* \"#utility.yul\":6536:6540   */\n      0x80\n        /* \"#utility.yul\":6529:6534   */\n      dup4\n        /* \"#utility.yul\":6525:6541   */\n      add\n        /* \"#utility.yul\":6519:6542   */\n      mload\n        /* \"#utility.yul\":6555:6618   */\n      tag_378\n        /* \"#utility.yul\":6612:6616   */\n      0x80\n        /* \"#utility.yul\":6607:6610   */\n      dup7\n        /* \"#utility.yul\":6603:6617   */\n      add\n        /* \"#utility.yul\":6589:6601   */\n      dup3\n        /* \"#utility.yul\":6555:6618   */\n      tag_239\n      jump\t// in\n    tag_378:\n        /* \"#utility.yul\":6459:6628   */\n      pop\n        /* \"#utility.yul\":6645:6649   */\n      dup1\n        /* \"#utility.yul\":6638:6649   */\n      swap2\n      pop\n        /* \"#utility.yul\":5413:6655   */\n      pop\n        /* \"#utility.yul\":5307:6655   */\n      swap3\n      swap2\n      pop\n      pop\n      jump\t// out\n        /* \"#utility.yul\":6661:6901   */\n    tag_241:\n        /* \"#utility.yul\":6772:6782   */\n      0x00\n        /* \"#utility.yul\":6807:6895   */\n      tag_380\n        /* \"#utility.yul\":6891:6894   */\n      dup4\n        /* \"#utility.yul\":6883:6889   */\n      dup4\n        /* \"#utility.yul\":6807:6895   */\n      tag_240\n      jump\t// in\n    tag_380:\n        /* \"#utility.yul\":6793:6895   */\n      swap1\n      pop\n        /* \"#utility.yul\":6661:6901   */\n      swap3\n      swap2\n      pop\n      pop\n      jump\t// out\n        /* \"#utility.yul\":6907:7041   */\n    tag_242:\n        /* \"#utility.yul\":6998:7002   */\n      0x00\n        /* \"#utility.yul\":7030:7034   */\n      0x20\n        /* \"#utility.yul\":7025:7028   */\n      dup3\n        /* \"#utility.yul\":7021:7035   */\n      add\n        /* \"#utility.yul\":7013:7035   */\n      swap1\n      pop\n        /* \"#utility.yul\":6907:7041   */\n      swap2\n      swap1\n      pop\n      jump\t// out\n        /* \"#utility.yul\":7115:8194   */\n    tag_243:\n        /* \"#utility.yul\":7276:7279   */\n      0x00\n        /* \"#utility.yul\":7305:7380   */\n      tag_383\n        /* \"#utility.yul\":7374:7379   */\n      dup3\n        /* \"#utility.yul\":7305:7380   */\n      tag_215\n      jump\t// in\n    tag_383:\n        /* \"#utility.yul\":7396:7503   */\n      tag_384\n        /* \"#utility.yul\":7496:7502   */\n      dup2\n        /* \"#utility.yul\":7491:7494   */\n      dup6\n        /* \"#utility.yul\":7396:7503   */\n      tag_216\n      jump\t// in\n    tag_384:\n        /* \"#utility.yul\":7389:7503   */\n      swap4\n      pop\n        /* \"#utility.yul\":7529:7532   */\n      dup4\n        /* \"#utility.yul\":7574:7578   */\n      0x20\n        /* \"#utility.yul\":7566:7572   */\n      dup3\n        /* \"#utility.yul\":7562:7579   */\n      mul\n        /* \"#utility.yul\":7557:7560   */\n      dup6\n        /* \"#utility.yul\":7553:7580   */\n      add\n        /* \"#utility.yul\":7604:7681   */\n      tag_385\n        /* \"#utility.yul\":7675:7680   */\n      dup6\n        /* \"#utility.yul\":7604:7681   */\n      tag_217\n      jump\t// in\n    tag_385:\n        /* \"#utility.yul\":7704:7711   */\n      dup1\n        /* \"#utility.yul\":7735:7736   */\n      0x00\n        /* \"#utility.yul\":7720:8149   */\n    tag_386:\n        /* \"#utility.yul\":7745:7751   */\n      dup6\n        /* \"#utility.yul\":7742:7743   */\n      dup2\n        /* \"#utility.yul\":7739:7752   */\n      lt\n        /* \"#utility.yul\":7720:8149   */\n      iszero\n      tag_388\n      jumpi\n        /* \"#utility.yul\":7816:7825   */\n      dup5\n        /* \"#utility.yul\":7810:7814   */\n      dup5\n        /* \"#utility.yul\":7806:7826   */\n      sub\n        /* \"#utility.yul\":7801:7804   */\n      dup10\n        /* \"#utility.yul\":7794:7827   */\n      mstore\n        /* \"#utility.yul\":7867:7873   */\n      dup2\n        /* \"#utility.yul\":7861:7874   */\n      mload\n        /* \"#utility.yul\":7895:8001   */\n      tag_389\n        /* \"#utility.yul\":7996:8000   */\n      dup6\n        /* \"#utility.yul\":7981:7994   */\n      dup3\n        /* \"#utility.yul\":7895:8001   */\n      tag_241\n      jump\t// in\n    tag_389:\n        /* \"#utility.yul\":7887:8001   */\n      swap5\n      pop\n        /* \"#utility.yul\":8024:8105   */\n      tag_390\n        /* \"#utility.yul\":8098:8104   */\n      dup4\n        /* \"#utility.yul\":8024:8105   */\n      tag_242\n      jump\t// in\n    tag_390:\n        /* \"#utility.yul\":8014:8105   */\n      swap3\n      pop\n        /* \"#utility.yul\":8134:8138   */\n      0x20\n        /* \"#utility.yul\":8129:8132   */\n      dup11\n        /* \"#utility.yul\":8125:8139   */\n      add\n        /* \"#utility.yul\":8118:8139   */\n      swap10\n      pop\n        /* \"#utility.yul\":7780:8149   */\n      pop\n        /* \"#utility.yul\":7767:7768   */\n      0x01\n        /* \"#utility.yul\":7764:7765   */\n      dup2\n        /* \"#utility.yul\":7760:7769   */\n      add\n        /* \"#utility.yul\":7755:7769   */\n      swap1\n      pop\n        /* \"#utility.yul\":7720:8149   */\n      jump(tag_386)\n    tag_388:\n        /* \"#utility.yul\":7724:7738   */\n      pop\n        /* \"#utility.yul\":8165:8169   */\n      dup3\n        /* \"#utility.yul\":8158:8169   */\n      swap8\n      pop\n        /* \"#utility.yul\":8185:8188   */\n      dup8\n        /* \"#utility.yul\":8178:8188   */\n      swap6\n      pop\n        /* \"#utility.yul\":7281:8194   */\n      pop\n      pop\n      pop\n      pop\n      pop\n        /* \"#utility.yul\":7115:8194   */\n      swap3\n      swap2\n      pop\n      pop\n      jump\t// out\n        /* \"#utility.yul\":8200:8657   */\n    tag_15:\n        /* \"#utility.yul\":8385:8389   */\n      0x00\n        /* \"#utility.yul\":8423:8425   */\n      0x20\n        /* \"#utility.yul\":8412:8421   */\n      dup3\n        /* \"#utility.yul\":8408:8426   */\n      add\n        /* \"#utility.yul\":8400:8426   */\n      swap1\n      pop\n        /* \"#utility.yul\":8472:8481   */\n      dup2\n        /* \"#utility.yul\":8466:8470   */\n      dup2\n        /* \"#utility.yul\":8462:8482   */\n      sub\n        /* \"#utility.yul\":8458:8459   */\n      0x00\n        /* \"#utility.yul\":8447:8456   */\n      dup4\n        /* \"#utility.yul\":8443:8460   */\n      add\n        /* \"#utility.yul\":8436:8483   */\n      mstore\n        /* \"#utility.yul\":8500:8650   */\n      tag_392\n        /* \"#utility.yul\":8645:8649   */\n      dup2\n        /* \"#utility.yul\":8636:8642   */\n      dup5\n        /* \"#utility.yul\":8500:8650   */\n      tag_243\n      jump\t// in\n    tag_392:\n        /* \"#utility.yul\":8492:8650   */\n      swap1\n      pop\n        /* \"#utility.yul\":8200:8657   */\n      swap3\n      swap2\n      pop\n      pop\n      jump\t// out\n        /* \"#utility.yul\":8663:8738   */\n    tag_244:\n        /* \"#utility.yul\":8696:8702   */\n      0x00\n        /* \"#utility.yul\":8729:8731   */\n      0x40\n        /* \"#utility.yul\":8723:8732   */\n      mload\n        /* \"#utility.yul\":8713:8732   */\n      swap1\n      pop\n        /* \"#utility.yul\":8663:8738   */\n      swap1\n      jump\t// out\n        /* \"#utility.yul\":8744:8861   */\n    tag_245:\n        /* \"#utility.yul\":8853:8854   */\n      0x00\n        /* \"#utility.yul\":8850:8851   */\n      dup1\n        /* \"#utility.yul\":8843:8855   */\n      revert\n        /* \"#utility.yul\":8867:8984   */\n    tag_246:\n        /* \"#utility.yul\":8976:8977   */\n      0x00\n        /* \"#utility.yul\":8973:8974   */\n      dup1\n        /* \"#utility.yul\":8966:8978   */\n      revert\n        /* \"#utility.yul\":8990:9107   */\n    tag_247:\n        /* \"#utility.yul\":9099:9100   */\n      0x00\n        /* \"#utility.yul\":9096:9097   */\n      dup1\n        /* \"#utility.yul\":9089:9101   */\n      revert\n        /* \"#utility.yul\":9113:9230   */\n    tag_248:\n        /* \"#utility.yul\":9222:9223   */\n      0x00\n        /* \"#utility.yul\":9219:9220   */\n      dup1\n        /* \"#utility.yul\":9212:9224   */\n      revert\n        /* \"#utility.yul\":9236:9416   */\n    tag_249:\n        /* \"#utility.yul\":9284:9361   */\n      0x4e487b7100000000000000000000000000000000000000000000000000000000\n        /* \"#utility.yul\":9281:9282   */\n      0x00\n        /* \"#utility.yul\":9274:9362   */\n      mstore\n        /* \"#utility.yul\":9381:9385   */\n      0x41\n        /* \"#utility.yul\":9378:9379   */\n      0x04\n        /* \"#utility.yul\":9371:9386   */\n      mstore\n        /* \"#utility.yul\":9405:9409   */\n      0x24\n        /* \"#utility.yul\":9402:9403   */\n      0x00\n        /* \"#utility.yul\":9395:9410   */\n      revert\n        /* \"#utility.yul\":9422:9703   */\n    tag_250:\n        /* \"#utility.yul\":9505:9532   */\n      tag_400\n        /* \"#utility.yul\":9527:9531   */\n      dup3\n        /* \"#utility.yul\":9505:9532   */\n      tag_221\n      jump\t// in\n    tag_400:\n        /* \"#utility.yul\":9497:9503   */\n      dup2\n        /* \"#utility.yul\":9493:9533   */\n      add\n        /* \"#utility.yul\":9635:9641   */\n      dup2\n        /* \"#utility.yul\":9623:9633   */\n      dup2\n        /* \"#utility.yul\":9620:9642   */\n      lt\n        /* \"#utility.yul\":9599:9617   */\n      0xffffffffffffffff\n        /* \"#utility.yul\":9587:9597   */\n      dup3\n        /* \"#utility.yul\":9584:9618   */\n      gt\n        /* \"#utility.yul\":9581:9643   */\n      or\n        /* \"#utility.yul\":9578:9666   */\n      iszero\n      tag_401\n      jumpi\n        /* \"#utility.yul\":9646:9664   */\n      tag_402\n      tag_249\n      jump\t// in\n    tag_402:\n        /* \"#utility.yul\":9578:9666   */\n    tag_401:\n        /* \"#utility.yul\":9686:9696   */\n      dup1\n        /* \"#utility.yul\":9682:9684   */\n      0x40\n        /* \"#utility.yul\":9675:9697   */\n      mstore\n        /* \"#utility.yul\":9465:9703   */\n      pop\n        /* \"#utility.yul\":9422:9703   */\n      pop\n      pop\n      jump\t// out\n        /* \"#utility.yul\":9709:9838   */\n    tag_251:\n        /* \"#utility.yul\":9743:9749   */\n      0x00\n        /* \"#utility.yul\":9770:9790   */\n      tag_404\n      tag_244\n      jump\t// in\n    tag_404:\n        /* \"#utility.yul\":9760:9790   */\n      swap1\n      pop\n        /* \"#utility.yul\":9799:9832   */\n      tag_405\n        /* \"#utility.yul\":9827:9831   */\n      dup3\n        /* \"#utility.yul\":9819:9825   */\n      dup3\n        /* \"#utility.yul\":9799:9832   */\n      tag_250\n      jump\t// in\n    tag_405:\n        /* \"#utility.yul\":9709:9838   */\n      swap2\n      swap1\n      pop\n      jump\t// out\n        /* \"#utility.yul\":9844:10152   */\n    tag_252:\n        /* \"#utility.yul\":9906:9910   */\n      0x00\n        /* \"#utility.yul\":9996:10014   */\n      0xffffffffffffffff\n        /* \"#utility.yul\":9988:9994   */\n      dup3\n        /* \"#utility.yul\":9985:10015   */\n      gt\n        /* \"#utility.yul\":9982:10038   */\n      iszero\n      tag_407\n      jumpi\n        /* \"#utility.yul\":10018:10036   */\n      tag_408\n      tag_249\n      jump\t// in\n    tag_408:\n        /* \"#utility.yul\":9982:10038   */\n    tag_407:\n        /* \"#utility.yul\":10056:10085   */\n      tag_409\n        /* \"#utility.yul\":10078:10084   */\n      dup3\n        /* \"#utility.yul\":10056:10085   */\n      tag_221\n      jump\t// in\n    tag_409:\n        /* \"#utility.yul\":10048:10085   */\n      swap1\n      pop\n        /* \"#utility.yul\":10140:10144   */\n      0x20\n        /* \"#utility.yul\":10134:10138   */\n      dup2\n        /* \"#utility.yul\":10130:10145   */\n      add\n        /* \"#utility.yul\":10122:10145   */\n      swap1\n      pop\n        /* \"#utility.yul\":9844:10152   */\n      swap2\n      swap1\n      pop\n      jump\t// out\n        /* \"#utility.yul\":10158:10306   */\n    tag_253:\n        /* \"#utility.yul\":10256:10262   */\n      dup3\n        /* \"#utility.yul\":10251:10254   */\n      dup2\n        /* \"#utility.yul\":10246:10249   */\n      dup4\n        /* \"#utility.yul\":10233:10263   */\n      calldatacopy\n        /* \"#utility.yul\":10297:10298   */\n      0x00\n        /* \"#utility.yul\":10288:10294   */\n      dup4\n        /* \"#utility.yul\":10283:10286   */\n      dup4\n        /* \"#utility.yul\":10279:10295   */\n      add\n        /* \"#utility.yul\":10272:10299   */\n      mstore\n        /* \"#utility.yul\":10158:10306   */\n      pop\n      pop\n      pop\n      jump\t// out\n        /* \"#utility.yul\":10312:10737   */\n    tag_254:\n        /* \"#utility.yul\":10390:10395   */\n      0x00\n        /* \"#utility.yul\":10415:10481   */\n      tag_412\n        /* \"#utility.yul\":10431:10480   */\n      tag_413\n        /* \"#utility.yul\":10473:10479   */\n      dup5\n        /* \"#utility.yul\":10431:10480   */\n      tag_252\n      jump\t// in\n    tag_413:\n        /* \"#utility.yul\":10415:10481   */\n      tag_251\n      jump\t// in\n    tag_412:\n        /* \"#utility.yul\":10406:10481   */\n      swap1\n      pop\n        /* \"#utility.yul\":10504:10510   */\n      dup3\n        /* \"#utility.yul\":10497:10502   */\n      dup2\n        /* \"#utility.yul\":10490:10511   */\n      mstore\n        /* \"#utility.yul\":10542:10546   */\n      0x20\n        /* \"#utility.yul\":10535:10540   */\n      dup2\n        /* \"#utility.yul\":10531:10547   */\n      add\n        /* \"#utility.yul\":10580:10583   */\n      dup5\n        /* \"#utility.yul\":10571:10577   */\n      dup5\n        /* \"#utility.yul\":10566:10569   */\n      dup5\n        /* \"#utility.yul\":10562:10578   */\n      add\n        /* \"#utility.yul\":10559:10584   */\n      gt\n        /* \"#utility.yul\":10556:10668   */\n      iszero\n      tag_414\n      jumpi\n        /* \"#utility.yul\":10587:10666   */\n      tag_415\n      tag_248\n      jump\t// in\n    tag_415:\n        /* \"#utility.yul\":10556:10668   */\n    tag_414:\n        /* \"#utility.yul\":10677:10731   */\n      tag_416\n        /* \"#utility.yul\":10724:10730   */\n      dup5\n        /* \"#utility.yul\":10719:10722   */\n      dup3\n        /* \"#utility.yul\":10714:10717   */\n      dup6\n        /* \"#utility.yul\":10677:10731   */\n      tag_253\n      jump\t// in\n    tag_416:\n        /* \"#utility.yul\":10396:10737   */\n      pop\n        /* \"#utility.yul\":10312:10737   */\n      swap4\n      swap3\n      pop\n      pop\n      pop\n      jump\t// out\n        /* \"#utility.yul\":10757:11097   */\n    tag_255:\n        /* \"#utility.yul\":10813:10818   */\n      0x00\n        /* \"#utility.yul\":10862:10865   */\n      dup3\n        /* \"#utility.yul\":10855:10859   */\n      0x1f\n        /* \"#utility.yul\":10847:10853   */\n      dup4\n        /* \"#utility.yul\":10843:10860   */\n      add\n        /* \"#utility.yul\":10839:10866   */\n      slt\n        /* \"#utility.yul\":10829:10951   */\n      tag_418\n      jumpi\n        /* \"#utility.yul\":10870:10949   */\n      tag_419\n      tag_247\n      jump\t// in\n    tag_419:\n        /* \"#utility.yul\":10829:10951   */\n    tag_418:\n        /* \"#utility.yul\":10987:10993   */\n      dup2\n        /* \"#utility.yul\":10974:10994   */\n      calldataload\n        /* \"#utility.yul\":11012:11091   */\n      tag_420\n        /* \"#utility.yul\":11087:11090   */\n      dup5\n        /* \"#utility.yul\":11079:11085   */\n      dup3\n        /* \"#utility.yul\":11072:11076   */\n      0x20\n        /* \"#utility.yul\":11064:11070   */\n      dup7\n        /* \"#utility.yul\":11060:11077   */\n      add\n        /* \"#utility.yul\":11012:11091   */\n      tag_254\n      jump\t// in\n    tag_420:\n        /* \"#utility.yul\":11003:11091   */\n      swap2\n      pop\n        /* \"#utility.yul\":10819:11097   */\n      pop\n        /* \"#utility.yul\":10757:11097   */\n      swap3\n      swap2\n      pop\n      pop\n      jump\t// out\n        /* \"#utility.yul\":11103:11424   */\n    tag_256:\n        /* \"#utility.yul\":11190:11194   */\n      0x00\n        /* \"#utility.yul\":11280:11298   */\n      0xffffffffffffffff\n        /* \"#utility.yul\":11272:11278   */\n      dup3\n        /* \"#utility.yul\":11269:11299   */\n      gt\n        /* \"#utility.yul\":11266:11322   */\n      iszero\n      tag_422\n      jumpi\n        /* \"#utility.yul\":11302:11320   */\n      tag_423\n      tag_249\n      jump\t// in\n    tag_423:\n        /* \"#utility.yul\":11266:11322   */\n    tag_422:\n        /* \"#utility.yul\":11352:11356   */\n      0x20\n        /* \"#utility.yul\":11344:11350   */\n      dup3\n        /* \"#utility.yul\":11340:11357   */\n      mul\n        /* \"#utility.yul\":11332:11357   */\n      swap1\n      pop\n        /* \"#utility.yul\":11412:11416   */\n      0x20\n        /* \"#utility.yul\":11406:11410   */\n      dup2\n        /* \"#utility.yul\":11402:11417   */\n      add\n        /* \"#utility.yul\":11394:11417   */\n      swap1\n      pop\n        /* \"#utility.yul\":11103:11424   */\n      swap2\n      swap1\n      pop\n      jump\t// out\n        /* \"#utility.yul\":11430:11547   */\n    tag_257:\n        /* \"#utility.yul\":11539:11540   */\n      0x00\n        /* \"#utility.yul\":11536:11537   */\n      dup1\n        /* \"#utility.yul\":11529:11541   */\n      revert\n        /* \"#utility.yul\":11569:12514   */\n    tag_258:\n        /* \"#utility.yul\":11675:11680   */\n      0x00\n        /* \"#utility.yul\":11700:11791   */\n      tag_426\n        /* \"#utility.yul\":11716:11790   */\n      tag_427\n        /* \"#utility.yul\":11783:11789   */\n      dup5\n        /* \"#utility.yul\":11716:11790   */\n      tag_256\n      jump\t// in\n    tag_427:\n        /* \"#utility.yul\":11700:11791   */\n      tag_251\n      jump\t// in\n    tag_426:\n        /* \"#utility.yul\":11691:11791   */\n      swap1\n      pop\n        /* \"#utility.yul\":11811:11816   */\n      dup1\n        /* \"#utility.yul\":11840:11846   */\n      dup4\n        /* \"#utility.yul\":11833:11838   */\n      dup3\n        /* \"#utility.yul\":11826:11847   */\n      mstore\n        /* \"#utility.yul\":11874:11878   */\n      0x20\n        /* \"#utility.yul\":11867:11872   */\n      dup3\n        /* \"#utility.yul\":11863:11879   */\n      add\n        /* \"#utility.yul\":11856:11879   */\n      swap1\n      pop\n        /* \"#utility.yul\":11927:11931   */\n      0x20\n        /* \"#utility.yul\":11919:11925   */\n      dup5\n        /* \"#utility.yul\":11915:11932   */\n      mul\n        /* \"#utility.yul\":11907:11913   */\n      dup4\n        /* \"#utility.yul\":11903:11933   */\n      add\n        /* \"#utility.yul\":11956:11959   */\n      dup6\n        /* \"#utility.yul\":11948:11954   */\n      dup2\n        /* \"#utility.yul\":11945:11960   */\n      gt\n        /* \"#utility.yul\":11942:12064   */\n      iszero\n      tag_428\n      jumpi\n        /* \"#utility.yul\":11975:12054   */\n      tag_429\n      tag_257\n      jump\t// in\n    tag_429:\n        /* \"#utility.yul\":11942:12064   */\n    tag_428:\n        /* \"#utility.yul\":12090:12096   */\n      dup4\n        /* \"#utility.yul\":12073:12508   */\n    tag_430:\n        /* \"#utility.yul\":12107:12113   */\n      dup2\n        /* \"#utility.yul\":12102:12105   */\n      dup2\n        /* \"#utility.yul\":12099:12114   */\n      lt\n        /* \"#utility.yul\":12073:12508   */\n      iszero\n      tag_432\n      jumpi\n        /* \"#utility.yul\":12196:12199   */\n      dup1\n        /* \"#utility.yul\":12183:12200   */\n      calldataload\n        /* \"#utility.yul\":12232:12250   */\n      0xffffffffffffffff\n        /* \"#utility.yul\":12219:12230   */\n      dup2\n        /* \"#utility.yul\":12216:12251   */\n      gt\n        /* \"#utility.yul\":12213:12335   */\n      iszero\n      tag_433\n      jumpi\n        /* \"#utility.yul\":12254:12333   */\n      tag_434\n      tag_247\n      jump\t// in\n    tag_434:\n        /* \"#utility.yul\":12213:12335   */\n    tag_433:\n        /* \"#utility.yul\":12378:12389   */\n      dup1\n        /* \"#utility.yul\":12370:12376   */\n      dup7\n        /* \"#utility.yul\":12366:12390   */\n      add\n        /* \"#utility.yul\":12416:12463   */\n      tag_435\n        /* \"#utility.yul\":12459:12462   */\n      dup10\n        /* \"#utility.yul\":12447:12457   */\n      dup3\n        /* \"#utility.yul\":12416:12463   */\n      tag_255\n      jump\t// in\n    tag_435:\n        /* \"#utility.yul\":12411:12414   */\n      dup6\n        /* \"#utility.yul\":12404:12464   */\n      mstore\n        /* \"#utility.yul\":12493:12497   */\n      0x20\n        /* \"#utility.yul\":12488:12491   */\n      dup6\n        /* \"#utility.yul\":12484:12498   */\n      add\n        /* \"#utility.yul\":12477:12498   */\n      swap5\n      pop\n        /* \"#utility.yul\":12149:12508   */\n      pop\n      pop\n        /* \"#utility.yul\":12133:12137   */\n      0x20\n        /* \"#utility.yul\":12128:12131   */\n      dup2\n        /* \"#utility.yul\":12124:12138   */\n      add\n        /* \"#utility.yul\":12117:12138   */\n      swap1\n      pop\n        /* \"#utility.yul\":12073:12508   */\n      jump(tag_430)\n    tag_432:\n        /* \"#utility.yul\":12077:12098   */\n      pop\n        /* \"#utility.yul\":11681:12514   */\n      pop\n      pop\n        /* \"#utility.yul\":11569:12514   */\n      swap4\n      swap3\n      pop\n      pop\n      pop\n      jump\t// out\n        /* \"#utility.yul\":12536:12926   */\n    tag_259:\n        /* \"#utility.yul\":12617:12622   */\n      0x00\n        /* \"#utility.yul\":12666:12669   */\n      dup3\n        /* \"#utility.yul\":12659:12663   */\n      0x1f\n        /* \"#utility.yul\":12651:12657   */\n      dup4\n        /* \"#utility.yul\":12647:12664   */\n      add\n        /* \"#utility.yul\":12643:12670   */\n      slt\n        /* \"#utility.yul\":12633:12755   */\n      tag_437\n      jumpi\n        /* \"#utility.yul\":12674:12753   */\n      tag_438\n      tag_247\n      jump\t// in\n    tag_438:\n        /* \"#utility.yul\":12633:12755   */\n    tag_437:\n        /* \"#utility.yul\":12791:12797   */\n      dup2\n        /* \"#utility.yul\":12778:12798   */\n      calldataload\n        /* \"#utility.yul\":12816:12920   */\n      tag_439\n        /* \"#utility.yul\":12916:12919   */\n      dup5\n        /* \"#utility.yul\":12908:12914   */\n      dup3\n        /* \"#utility.yul\":12901:12905   */\n      0x20\n        /* \"#utility.yul\":12893:12899   */\n      dup7\n        /* \"#utility.yul\":12889:12906   */\n      add\n        /* \"#utility.yul\":12816:12920   */\n      tag_258\n      jump\t// in\n    tag_439:\n        /* \"#utility.yul\":12807:12920   */\n      swap2\n      pop\n        /* \"#utility.yul\":12623:12926   */\n      pop\n        /* \"#utility.yul\":12536:12926   */\n      swap3\n      swap2\n      pop\n      pop\n      jump\t// out\n        /* \"#utility.yul\":12932:13243   */\n    tag_260:\n        /* \"#utility.yul\":13009:13013   */\n      0x00\n        /* \"#utility.yul\":13099:13117   */\n      0xffffffffffffffff\n        /* \"#utility.yul\":13091:13097   */\n      dup3\n        /* \"#utility.yul\":13088:13118   */\n      gt\n        /* \"#utility.yul\":13085:13141   */\n      iszero\n      tag_441\n      jumpi\n        /* \"#utility.yul\":13121:13139   */\n      tag_442\n      tag_249\n      jump\t// in\n    tag_442:\n        /* \"#utility.yul\":13085:13141   */\n    tag_441:\n        /* \"#utility.yul\":13171:13175   */\n      0x20\n        /* \"#utility.yul\":13163:13169   */\n      dup3\n        /* \"#utility.yul\":13159:13176   */\n      mul\n        /* \"#utility.yul\":13151:13176   */\n      swap1\n      pop\n        /* \"#utility.yul\":13231:13235   */\n      0x20\n        /* \"#utility.yul\":13225:13229   */\n      dup2\n        /* \"#utility.yul\":13221:13236   */\n      add\n        /* \"#utility.yul\":13213:13236   */\n      swap1\n      pop\n        /* \"#utility.yul\":12932:13243   */\n      swap2\n      swap1\n      pop\n      jump\t// out\n        /* \"#utility.yul\":13249:13371   */\n    tag_261:\n        /* \"#utility.yul\":13322:13346   */\n      tag_444\n        /* \"#utility.yul\":13340:13345   */\n      dup2\n        /* \"#utility.yul\":13322:13346   */\n      tag_233\n      jump\t// in\n    tag_444:\n        /* \"#utility.yul\":13315:13320   */\n      dup2\n        /* \"#utility.yul\":13312:13347   */\n      eq\n        /* \"#utility.yul\":13302:13365   */\n      tag_445\n      jumpi\n        /* \"#utility.yul\":13361:13362   */\n      0x00\n        /* \"#utility.yul\":13358:13359   */\n      dup1\n        /* \"#utility.yul\":13351:13363   */\n      revert\n        /* \"#utility.yul\":13302:13365   */\n    tag_445:\n        /* \"#utility.yul\":13249:13371   */\n      pop\n      jump\t// out\n        /* \"#utility.yul\":13377:13516   */\n    tag_262:\n        /* \"#utility.yul\":13423:13428   */\n      0x00\n        /* \"#utility.yul\":13461:13467   */\n      dup2\n        /* \"#utility.yul\":13448:13468   */\n      calldataload\n        /* \"#utility.yul\":13439:13468   */\n      swap1\n      pop\n        /* \"#utility.yul\":13477:13510   */\n      tag_447\n        /* \"#utility.yul\":13504:13509   */\n      dup2\n        /* \"#utility.yul\":13477:13510   */\n      tag_261\n      jump\t// in\n    tag_447:\n        /* \"#utility.yul\":13377:13516   */\n      swap3\n      swap2\n      pop\n      pop\n      jump\t// out\n        /* \"#utility.yul\":13539:14249   */\n    tag_263:\n        /* \"#utility.yul\":13635:13640   */\n      0x00\n        /* \"#utility.yul\":13660:13741   */\n      tag_449\n        /* \"#utility.yul\":13676:13740   */\n      tag_450\n        /* \"#utility.yul\":13733:13739   */\n      dup5\n        /* \"#utility.yul\":13676:13740   */\n      tag_260\n      jump\t// in\n    tag_450:\n        /* \"#utility.yul\":13660:13741   */\n      tag_251\n      jump\t// in\n    tag_449:\n        /* \"#utility.yul\":13651:13741   */\n      swap1\n      pop\n        /* \"#utility.yul\":13761:13766   */\n      dup1\n        /* \"#utility.yul\":13790:13796   */\n      dup4\n        /* \"#utility.yul\":13783:13788   */\n      dup3\n        /* \"#utility.yul\":13776:13797   */\n      mstore\n        /* \"#utility.yul\":13824:13828   */\n      0x20\n        /* \"#utility.yul\":13817:13822   */\n      dup3\n        /* \"#utility.yul\":13813:13829   */\n      add\n        /* \"#utility.yul\":13806:13829   */\n      swap1\n      pop\n        /* \"#utility.yul\":13877:13881   */\n      0x20\n        /* \"#utility.yul\":13869:13875   */\n      dup5\n        /* \"#utility.yul\":13865:13882   */\n      mul\n        /* \"#utility.yul\":13857:13863   */\n      dup4\n        /* \"#utility.yul\":13853:13883   */\n      add\n        /* \"#utility.yul\":13906:13909   */\n      dup6\n        /* \"#utility.yul\":13898:13904   */\n      dup2\n        /* \"#utility.yul\":13895:13910   */\n      gt\n        /* \"#utility.yul\":13892:14014   */\n      iszero\n      tag_451\n      jumpi\n        /* \"#utility.yul\":13925:14004   */\n      tag_452\n      tag_257\n      jump\t// in\n    tag_452:\n        /* \"#utility.yul\":13892:14014   */\n    tag_451:\n        /* \"#utility.yul\":14040:14046   */\n      dup4\n        /* \"#utility.yul\":14023:14243   */\n    tag_453:\n        /* \"#utility.yul\":14057:14063   */\n      dup2\n        /* \"#utility.yul\":14052:14055   */\n      dup2\n        /* \"#utility.yul\":14049:14064   */\n      lt\n        /* \"#utility.yul\":14023:14243   */\n      iszero\n      tag_455\n      jumpi\n        /* \"#utility.yul\":14132:14135   */\n      dup1\n        /* \"#utility.yul\":14161:14198   */\n      tag_456\n        /* \"#utility.yul\":14194:14197   */\n      dup9\n        /* \"#utility.yul\":14182:14192   */\n      dup3\n        /* \"#utility.yul\":14161:14198   */\n      tag_262\n      jump\t// in\n    tag_456:\n        /* \"#utility.yul\":14156:14159   */\n      dup5\n        /* \"#utility.yul\":14149:14199   */\n      mstore\n        /* \"#utility.yul\":14228:14232   */\n      0x20\n        /* \"#utility.yul\":14223:14226   */\n      dup5\n        /* \"#utility.yul\":14219:14233   */\n      add\n        /* \"#utility.yul\":14212:14233   */\n      swap4\n      pop\n        /* \"#utility.yul\":14099:14243   */\n      pop\n        /* \"#utility.yul\":14083:14087   */\n      0x20\n        /* \"#utility.yul\":14078:14081   */\n      dup2\n        /* \"#utility.yul\":14074:14088   */\n      add\n        /* \"#utility.yul\":14067:14088   */\n      swap1\n      pop\n        /* \"#utility.yul\":14023:14243   */\n      jump(tag_453)\n    tag_455:\n        /* \"#utility.yul\":14027:14048   */\n      pop\n        /* \"#utility.yul\":13641:14249   */\n      pop\n      pop\n        /* \"#utility.yul\":13539:14249   */\n      swap4\n      swap3\n      pop\n      pop\n      pop\n      jump\t// out\n        /* \"#utility.yul\":14272:14642   */\n    tag_264:\n        /* \"#utility.yul\":14343:14348   */\n      0x00\n        /* \"#utility.yul\":14392:14395   */\n      dup3\n        /* \"#utility.yul\":14385:14389   */\n      0x1f\n        /* \"#utility.yul\":14377:14383   */\n      dup4\n        /* \"#utility.yul\":14373:14390   */\n      add\n        /* \"#utility.yul\":14369:14396   */\n      slt\n        /* \"#utility.yul\":14359:14481   */\n      tag_458\n      jumpi\n        /* \"#utility.yul\":14400:14479   */\n      tag_459\n      tag_247\n      jump\t// in\n    tag_459:\n        /* \"#utility.yul\":14359:14481   */\n    tag_458:\n        /* \"#utility.yul\":14517:14523   */\n      dup2\n        /* \"#utility.yul\":14504:14524   */\n      calldataload\n        /* \"#utility.yul\":14542:14636   */\n      tag_460\n        /* \"#utility.yul\":14632:14635   */\n      dup5\n        /* \"#utility.yul\":14624:14630   */\n      dup3\n        /* \"#utility.yul\":14617:14621   */\n      0x20\n        /* \"#utility.yul\":14609:14615   */\n      dup7\n        /* \"#utility.yul\":14605:14622   */\n      add\n        /* \"#utility.yul\":14542:14636   */\n      tag_263\n      jump\t// in\n    tag_460:\n        /* \"#utility.yul\":14533:14636   */\n      swap2\n      pop\n        /* \"#utility.yul\":14349:14642   */\n      pop\n        /* \"#utility.yul\":14272:14642   */\n      swap3\n      swap2\n      pop\n      pop\n      jump\t// out\n        /* \"#utility.yul\":14648:15887   */\n    tag_18:\n        /* \"#utility.yul\":14795:14801   */\n      0x00\n        /* \"#utility.yul\":14803:14809   */\n      dup1\n        /* \"#utility.yul\":14811:14817   */\n      0x00\n        /* \"#utility.yul\":14860:14862   */\n      0x60\n        /* \"#utility.yul\":14848:14857   */\n      dup5\n        /* \"#utility.yul\":14839:14846   */\n      dup7\n        /* \"#utility.yul\":14835:14858   */\n      sub\n        /* \"#utility.yul\":14831:14863   */\n      slt\n        /* \"#utility.yul\":14828:14947   */\n      iszero\n      tag_462\n      jumpi\n        /* \"#utility.yul\":14866:14945   */\n      tag_463\n      tag_245\n      jump\t// in\n    tag_463:\n        /* \"#utility.yul\":14828:14947   */\n    tag_462:\n        /* \"#utility.yul\":15014:15015   */\n      0x00\n        /* \"#utility.yul\":15003:15012   */\n      dup5\n        /* \"#utility.yul\":14999:15016   */\n      add\n        /* \"#utility.yul\":14986:15017   */\n      calldataload\n        /* \"#utility.yul\":15044:15062   */\n      0xffffffffffffffff\n        /* \"#utility.yul\":15036:15042   */\n      dup2\n        /* \"#utility.yul\":15033:15063   */\n      gt\n        /* \"#utility.yul\":15030:15147   */\n      iszero\n      tag_464\n      jumpi\n        /* \"#utility.yul\":15066:15145   */\n      tag_465\n      tag_246\n      jump\t// in\n    tag_465:\n        /* \"#utility.yul\":15030:15147   */\n    tag_464:\n        /* \"#utility.yul\":15171:15234   */\n      tag_466\n        /* \"#utility.yul\":15226:15233   */\n      dup7\n        /* \"#utility.yul\":15217:15223   */\n      dup3\n        /* \"#utility.yul\":15206:15215   */\n      dup8\n        /* \"#utility.yul\":15202:15224   */\n      add\n        /* \"#utility.yul\":15171:15234   */\n      tag_255\n      jump\t// in\n    tag_466:\n        /* \"#utility.yul\":15161:15234   */\n      swap4\n      pop\n        /* \"#utility.yul\":14957:15244   */\n      pop\n        /* \"#utility.yul\":15311:15313   */\n      0x20\n        /* \"#utility.yul\":15300:15309   */\n      dup5\n        /* \"#utility.yul\":15296:15314   */\n      add\n        /* \"#utility.yul\":15283:15315   */\n      calldataload\n        /* \"#utility.yul\":15342:15360   */\n      0xffffffffffffffff\n        /* \"#utility.yul\":15334:15340   */\n      dup2\n        /* \"#utility.yul\":15331:15361   */\n      gt\n        /* \"#utility.yul\":15328:15445   */\n      iszero\n      tag_467\n      jumpi\n        /* \"#utility.yul\":15364:15443   */\n      tag_468\n      tag_246\n      jump\t// in\n    tag_468:\n        /* \"#utility.yul\":15328:15445   */\n    tag_467:\n        /* \"#utility.yul\":15469:15557   */\n      tag_469\n        /* \"#utility.yul\":15549:15556   */\n      dup7\n        /* \"#utility.yul\":15540:15546   */\n      dup3\n        /* \"#utility.yul\":15529:15538   */\n      dup8\n        /* \"#utility.yul\":15525:15547   */\n      add\n        /* \"#utility.yul\":15469:15557   */\n      tag_259\n      jump\t// in\n    tag_469:\n        /* \"#utility.yul\":15459:15557   */\n      swap3\n      pop\n        /* \"#utility.yul\":15254:15567   */\n      pop\n        /* \"#utility.yul\":15634:15636   */\n      0x40\n        /* \"#utility.yul\":15623:15632   */\n      dup5\n        /* \"#utility.yul\":15619:15637   */\n      add\n        /* \"#utility.yul\":15606:15638   */\n      calldataload\n        /* \"#utility.yul\":15665:15683   */\n      0xffffffffffffffff\n        /* \"#utility.yul\":15657:15663   */\n      dup2\n        /* \"#utility.yul\":15654:15684   */\n      gt\n        /* \"#utility.yul\":15651:15768   */\n      iszero\n      tag_470\n      jumpi\n        /* \"#utility.yul\":15687:15766   */\n      tag_471\n      tag_246\n      jump\t// in\n    tag_471:\n        /* \"#utility.yul\":15651:15768   */\n    tag_470:\n        /* \"#utility.yul\":15792:15870   */\n      tag_472\n        /* \"#utility.yul\":15862:15869   */\n      dup7\n        /* \"#utility.yul\":15853:15859   */\n      dup3\n        /* \"#utility.yul\":15842:15851   */\n      dup8\n        /* \"#utility.yul\":15838:15860   */\n      add\n        /* \"#utility.yul\":15792:15870   */\n      tag_264\n      jump\t// in\n    tag_472:\n        /* \"#utility.yul\":15782:15870   */\n      swap2\n      pop\n        /* \"#utility.yul\":15577:15880   */\n      pop\n        /* \"#utility.yul\":14648:15887   */\n      swap3\n      pop\n      swap3\n      pop\n      swap3\n      jump\t// out\n        /* \"#utility.yul\":15893:16222   */\n    tag_22:\n        /* \"#utility.yul\":15952:15958   */\n      0x00\n        /* \"#utility.yul\":16001:16003   */\n      0x20\n        /* \"#utility.yul\":15989:15998   */\n      dup3\n        /* \"#utility.yul\":15980:15987   */\n      dup5\n        /* \"#utility.yul\":15976:15999   */\n      sub\n        /* \"#utility.yul\":15972:16004   */\n      slt\n        /* \"#utility.yul\":15969:16088   */\n      iszero\n      tag_474\n      jumpi\n        /* \"#utility.yul\":16007:16086   */\n      tag_475\n      tag_245\n      jump\t// in\n    tag_475:\n        /* \"#utility.yul\":15969:16088   */\n    tag_474:\n        /* \"#utility.yul\":16127:16128   */\n      0x00\n        /* \"#utility.yul\":16152:16205   */\n      tag_476\n        /* \"#utility.yul\":16197:16204   */\n      dup5\n        /* \"#utility.yul\":16188:16194   */\n      dup3\n        /* \"#utility.yul\":16177:16186   */\n      dup6\n        /* \"#utility.yul\":16173:16195   */\n      add\n        /* \"#utility.yul\":16152:16205   */\n      tag_262\n      jump\t// in\n    tag_476:\n        /* \"#utility.yul\":16142:16205   */\n      swap2\n      pop\n        /* \"#utility.yul\":16098:16215   */\n      pop\n        /* \"#utility.yul\":15893:16222   */\n      swap3\n      swap2\n      pop\n      pop\n      jump\t// out\n        /* \"#utility.yul\":16228:16346   */\n    tag_265:\n        /* \"#utility.yul\":16315:16339   */\n      tag_478\n        /* \"#utility.yul\":16333:16338   */\n      dup2\n        /* \"#utility.yul\":16315:16339   */\n      tag_233\n      jump\t// in\n    tag_478:\n        /* \"#utility.yul\":16310:16313   */\n      dup3\n        /* \"#utility.yul\":16303:16340   */\n      mstore\n        /* \"#utility.yul\":16228:16346   */\n      pop\n      pop\n      jump\t// out\n        /* \"#utility.yul\":16352:16574   */\n    tag_27:\n        /* \"#utility.yul\":16445:16449   */\n      0x00\n        /* \"#utility.yul\":16483:16485   */\n      0x20\n        /* \"#utility.yul\":16472:16481   */\n      dup3\n        /* \"#utility.yul\":16468:16486   */\n      add\n        /* \"#utility.yul\":16460:16486   */\n      swap1\n      pop\n        /* \"#utility.yul\":16496:16567   */\n      tag_480\n        /* \"#utility.yul\":16564:16565   */\n      0x00\n        /* \"#utility.yul\":16553:16562   */\n      dup4\n        /* \"#utility.yul\":16549:16566   */\n      add\n        /* \"#utility.yul\":16540:16546   */\n      dup5\n        /* \"#utility.yul\":16496:16567   */\n      tag_265\n      jump\t// in\n    tag_480:\n        /* \"#utility.yul\":16352:16574   */\n      swap3\n      swap2\n      pop\n      pop\n      jump\t// out\n        /* \"#utility.yul\":16580:16698   */\n    tag_266:\n        /* \"#utility.yul\":16667:16691   */\n      tag_482\n        /* \"#utility.yul\":16685:16690   */\n      dup2\n        /* \"#utility.yul\":16667:16691   */\n      tag_238\n      jump\t// in\n    tag_482:\n        /* \"#utility.yul\":16662:16665   */\n      dup3\n        /* \"#utility.yul\":16655:16692   */\n      mstore\n        /* \"#utility.yul\":16580:16698   */\n      pop\n      pop\n      jump\t// out\n        /* \"#utility.yul\":16704:16926   */\n    tag_31:\n        /* \"#utility.yul\":16797:16801   */\n      0x00\n        /* \"#utility.yul\":16835:16837   */\n      0x20\n        /* \"#utility.yul\":16824:16833   */\n      dup3\n        /* \"#utility.yul\":16820:16838   */\n      add\n        /* \"#utility.yul\":16812:16838   */\n      swap1\n      pop\n        /* \"#utility.yul\":16848:16919   */\n      tag_484\n        /* \"#utility.yul\":16916:16917   */\n      0x00\n        /* \"#utility.yul\":16905:16914   */\n      dup4\n        /* \"#utility.yul\":16901:16918   */\n      add\n        /* \"#utility.yul\":16892:16898   */\n      dup5\n        /* \"#utility.yul\":16848:16919   */\n      tag_266\n      jump\t// in\n    tag_484:\n        /* \"#utility.yul\":16704:16926   */\n      swap3\n      swap2\n      pop\n      pop\n      jump\t// out\n        /* \"#utility.yul\":16932:16992   */\n    tag_267:\n        /* \"#utility.yul\":16960:16963   */\n      0x00\n        /* \"#utility.yul\":16981:16986   */\n      dup2\n        /* \"#utility.yul\":16974:16986   */\n      swap1\n      pop\n        /* \"#utility.yul\":16932:16992   */\n      swap2\n      swap1\n      pop\n      jump\t// out\n        /* \"#utility.yul\":16998:17140   */\n    tag_268:\n        /* \"#utility.yul\":17048:17057   */\n      0x00\n        /* \"#utility.yul\":17081:17134   */\n      tag_487\n        /* \"#utility.yul\":17099:17133   */\n      tag_488\n        /* \"#utility.yul\":17108:17132   */\n      tag_489\n        /* \"#utility.yul\":17126:17131   */\n      dup5\n        /* \"#utility.yul\":17108:17132   */\n      tag_232\n      jump\t// in\n    tag_489:\n        /* \"#utility.yul\":17099:17133   */\n      tag_267\n      jump\t// in\n    tag_488:\n        /* \"#utility.yul\":17081:17134   */\n      tag_232\n      jump\t// in\n    tag_487:\n        /* \"#utility.yul\":17068:17134   */\n      swap1\n      pop\n        /* \"#utility.yul\":16998:17140   */\n      swap2\n      swap1\n      pop\n      jump\t// out\n        /* \"#utility.yul\":17146:17272   */\n    tag_269:\n        /* \"#utility.yul\":17196:17205   */\n      0x00\n        /* \"#utility.yul\":17229:17266   */\n      tag_491\n        /* \"#utility.yul\":17260:17265   */\n      dup3\n        /* \"#utility.yul\":17229:17266   */\n      tag_268\n      jump\t// in\n    tag_491:\n        /* \"#utility.yul\":17216:17266   */\n      swap1\n      pop\n        /* \"#utility.yul\":17146:17272   */\n      swap2\n      swap1\n      pop\n      jump\t// out\n        /* \"#utility.yul\":17278:17413   */\n    tag_270:\n        /* \"#utility.yul\":17337:17346   */\n      0x00\n        /* \"#utility.yul\":17370:17407   */\n      tag_493\n        /* \"#utility.yul\":17401:17406   */\n      dup3\n        /* \"#utility.yul\":17370:17407   */\n      tag_269\n      jump\t// in\n    tag_493:\n        /* \"#utility.yul\":17357:17407   */\n      swap1\n      pop\n        /* \"#utility.yul\":17278:17413   */\n      swap2\n      swap1\n      pop\n      jump\t// out\n        /* \"#utility.yul\":17419:17568   */\n    tag_271:\n        /* \"#utility.yul\":17515:17561   */\n      tag_495\n        /* \"#utility.yul\":17555:17560   */\n      dup2\n        /* \"#utility.yul\":17515:17561   */\n      tag_270\n      jump\t// in\n    tag_495:\n        /* \"#utility.yul\":17510:17513   */\n      dup3\n        /* \"#utility.yul\":17503:17562   */\n      mstore\n        /* \"#utility.yul\":17419:17568   */\n      pop\n      pop\n      jump\t// out\n        /* \"#utility.yul\":17574:17814   */\n    tag_35:\n        /* \"#utility.yul\":17676:17680   */\n      0x00\n        /* \"#utility.yul\":17714:17716   */\n      0x20\n        /* \"#utility.yul\":17703:17712   */\n      dup3\n        /* \"#utility.yul\":17699:17717   */\n      add\n        /* \"#utility.yul\":17691:17717   */\n      swap1\n      pop\n        /* \"#utility.yul\":17727:17807   */\n      tag_497\n        /* \"#utility.yul\":17804:17805   */\n      0x00\n        /* \"#utility.yul\":17793:17802   */\n      dup4\n        /* \"#utility.yul\":17789:17806   */\n      add\n        /* \"#utility.yul\":17780:17786   */\n      dup5\n        /* \"#utility.yul\":17727:17807   */\n      tag_271\n      jump\t// in\n    tag_497:\n        /* \"#utility.yul\":17574:17814   */\n      swap3\n      swap2\n      pop\n      pop\n      jump\t// out\n        /* \"#utility.yul\":17820:17942   */\n    tag_272:\n        /* \"#utility.yul\":17893:17917   */\n      tag_499\n        /* \"#utility.yul\":17911:17916   */\n      dup2\n        /* \"#utility.yul\":17893:17917   */\n      tag_238\n      jump\t// in\n    tag_499:\n        /* \"#utility.yul\":17886:17891   */\n      dup2\n        /* \"#utility.yul\":17883:17918   */\n      eq\n        /* \"#utility.yul\":17873:17936   */\n      tag_500\n      jumpi\n        /* \"#utility.yul\":17932:17933   */\n      0x00\n        /* \"#utility.yul\":17929:17930   */\n      dup1\n        /* \"#utility.yul\":17922:17934   */\n      revert\n        /* \"#utility.yul\":17873:17936   */\n    tag_500:\n        /* \"#utility.yul\":17820:17942   */\n      pop\n      jump\t// out\n        /* \"#utility.yul\":17948:18087   */\n    tag_273:\n        /* \"#utility.yul\":17994:17999   */\n      0x00\n        /* \"#utility.yul\":18032:18038   */\n      dup2\n        /* \"#utility.yul\":18019:18039   */\n      calldataload\n        /* \"#utility.yul\":18010:18039   */\n      swap1\n      pop\n        /* \"#utility.yul\":18048:18081   */\n      tag_502\n        /* \"#utility.yul\":18075:18080   */\n      dup2\n        /* \"#utility.yul\":18048:18081   */\n      tag_272\n      jump\t// in\n    tag_502:\n        /* \"#utility.yul\":17948:18087   */\n      swap3\n      swap2\n      pop\n      pop\n      jump\t// out\n        /* \"#utility.yul\":18093:18422   */\n    tag_38:\n        /* \"#utility.yul\":18152:18158   */\n      0x00\n        /* \"#utility.yul\":18201:18203   */\n      0x20\n        /* \"#utility.yul\":18189:18198   */\n      dup3\n        /* \"#utility.yul\":18180:18187   */\n      dup5\n        /* \"#utility.yul\":18176:18199   */\n      sub\n        /* \"#utility.yul\":18172:18204   */\n      slt\n        /* \"#utility.yul\":18169:18288   */\n      iszero\n      tag_504\n      jumpi\n        /* \"#utility.yul\":18207:18286   */\n      tag_505\n      tag_245\n      jump\t// in\n    tag_505:\n        /* \"#utility.yul\":18169:18288   */\n    tag_504:\n        /* \"#utility.yul\":18327:18328   */\n      0x00\n        /* \"#utility.yul\":18352:18405   */\n      tag_506\n        /* \"#utility.yul\":18397:18404   */\n      dup5\n        /* \"#utility.yul\":18388:18394   */\n      dup3\n        /* \"#utility.yul\":18377:18386   */\n      dup6\n        /* \"#utility.yul\":18373:18395   */\n      add\n        /* \"#utility.yul\":18352:18405   */\n      tag_273\n      jump\t// in\n    tag_506:\n        /* \"#utility.yul\":18342:18405   */\n      swap2\n      pop\n        /* \"#utility.yul\":18298:18415   */\n      pop\n        /* \"#utility.yul\":18093:18422   */\n      swap3\n      swap2\n      pop\n      pop\n      jump\t// out\n        /* \"#utility.yul\":18428:18597   */\n    tag_274:\n        /* \"#utility.yul\":18512:18523   */\n      0x00\n        /* \"#utility.yul\":18546:18552   */\n      dup3\n        /* \"#utility.yul\":18541:18544   */\n      dup3\n        /* \"#utility.yul\":18534:18553   */\n      mstore\n        /* \"#utility.yul\":18586:18590   */\n      0x20\n        /* \"#utility.yul\":18581:18584   */\n      dup3\n        /* \"#utility.yul\":18577:18591   */\n      add\n        /* \"#utility.yul\":18562:18591   */\n      swap1\n      pop\n        /* \"#utility.yul\":18428:18597   */\n      swap3\n      swap2\n      pop\n      pop\n      jump\t// out\n        /* \"#utility.yul\":18603:18980   */\n    tag_275:\n        /* \"#utility.yul\":18691:18694   */\n      0x00\n        /* \"#utility.yul\":18719:18758   */\n      tag_509\n        /* \"#utility.yul\":18752:18757   */\n      dup3\n        /* \"#utility.yul\":18719:18758   */\n      tag_218\n      jump\t// in\n    tag_509:\n        /* \"#utility.yul\":18774:18845   */\n      tag_510\n        /* \"#utility.yul\":18838:18844   */\n      dup2\n        /* \"#utility.yul\":18833:18836   */\n      dup6\n        /* \"#utility.yul\":18774:18845   */\n      tag_274\n      jump\t// in\n    tag_510:\n        /* \"#utility.yul\":18767:18845   */\n      swap4\n      pop\n        /* \"#utility.yul\":18854:18919   */\n      tag_511\n        /* \"#utility.yul\":18912:18918   */\n      dup2\n        /* \"#utility.yul\":18907:18910   */\n      dup6\n        /* \"#utility.yul\":18900:18904   */\n      0x20\n        /* \"#utility.yul\":18893:18898   */\n      dup7\n        /* \"#utility.yul\":18889:18905   */\n      add\n        /* \"#utility.yul\":18854:18919   */\n      tag_220\n      jump\t// in\n    tag_511:\n        /* \"#utility.yul\":18944:18973   */\n      tag_512\n        /* \"#utility.yul\":18966:18972   */\n      dup2\n        /* \"#utility.yul\":18944:18973   */\n      tag_221\n      jump\t// in\n    tag_512:\n        /* \"#utility.yul\":18939:18942   */\n      dup5\n        /* \"#utility.yul\":18935:18974   */\n      add\n        /* \"#utility.yul\":18928:18974   */\n      swap2\n      pop\n        /* \"#utility.yul\":18695:18980   */\n      pop\n        /* \"#utility.yul\":18603:18980   */\n      swap3\n      swap2\n      pop\n      pop\n      jump\t// out\n        /* \"#utility.yul\":18986:19519   */\n    tag_41:\n        /* \"#utility.yul\":19155:19159   */\n      0x00\n        /* \"#utility.yul\":19193:19195   */\n      0x60\n        /* \"#utility.yul\":19182:19191   */\n      dup3\n        /* \"#utility.yul\":19178:19196   */\n      add\n        /* \"#utility.yul\":19170:19196   */\n      swap1\n      pop\n        /* \"#utility.yul\":19242:19251   */\n      dup2\n        /* \"#utility.yul\":19236:19240   */\n      dup2\n        /* \"#utility.yul\":19232:19252   */\n      sub\n        /* \"#utility.yul\":19228:19229   */\n      0x00\n        /* \"#utility.yul\":19217:19226   */\n      dup4\n        /* \"#utility.yul\":19213:19230   */\n      add\n        /* \"#utility.yul\":19206:19253   */\n      mstore\n        /* \"#utility.yul\":19270:19348   */\n      tag_514\n        /* \"#utility.yul\":19343:19347   */\n      dup2\n        /* \"#utility.yul\":19334:19340   */\n      dup7\n        /* \"#utility.yul\":19270:19348   */\n      tag_275\n      jump\t// in\n    tag_514:\n        /* \"#utility.yul\":19262:19348   */\n      swap1\n      pop\n        /* \"#utility.yul\":19358:19430   */\n      tag_515\n        /* \"#utility.yul\":19426:19428   */\n      0x20\n        /* \"#utility.yul\":19415:19424   */\n      dup4\n        /* \"#utility.yul\":19411:19429   */\n      add\n        /* \"#utility.yul\":19402:19408   */\n      dup6\n        /* \"#utility.yul\":19358:19430   */\n      tag_266\n      jump\t// in\n    tag_515:\n        /* \"#utility.yul\":19440:19512   */\n      tag_516\n        /* \"#utility.yul\":19508:19510   */\n      0x40\n        /* \"#utility.yul\":19497:19506   */\n      dup4\n        /* \"#utility.yul\":19493:19511   */\n      add\n        /* \"#utility.yul\":19484:19490   */\n      dup5\n        /* \"#utility.yul\":19440:19512   */\n      tag_266\n      jump\t// in\n    tag_516:\n        /* \"#utility.yul\":18986:19519   */\n      swap5\n      swap4\n      pop\n      pop\n      pop\n      pop\n      jump\t// out\n        /* \"#utility.yul\":19525:19615   */\n    tag_276:\n        /* \"#utility.yul\":19559:19566   */\n      0x00\n        /* \"#utility.yul\":19602:19607   */\n      dup2\n        /* \"#utility.yul\":19595:19608   */\n      iszero\n        /* \"#utility.yul\":19588:19609   */\n      iszero\n        /* \"#utility.yul\":19577:19609   */\n      swap1\n      pop\n        /* \"#utility.yul\":19525:19615   */\n      swap2\n      swap1\n      pop\n      jump\t// out\n        /* \"#utility.yul\":19621:19737   */\n    tag_277:\n        /* \"#utility.yul\":19691:19712   */\n      tag_519\n        /* \"#utility.yul\":19706:19711   */\n      dup2\n        /* \"#utility.yul\":19691:19712   */\n      tag_276\n      jump\t// in\n    tag_519:\n        /* \"#utility.yul\":19684:19689   */\n      dup2\n        /* \"#utility.yul\":19681:19713   */\n      eq\n        /* \"#utility.yul\":19671:19731   */\n      tag_520\n      jumpi\n        /* \"#utility.yul\":19727:19728   */\n      0x00\n        /* \"#utility.yul\":19724:19725   */\n      dup1\n        /* \"#utility.yul\":19717:19729   */\n      revert\n        /* \"#utility.yul\":19671:19731   */\n    tag_520:\n        /* \"#utility.yul\":19621:19737   */\n      pop\n      jump\t// out\n        /* \"#utility.yul\":19743:19876   */\n    tag_278:\n        /* \"#utility.yul\":19786:19791   */\n      0x00\n        /* \"#utility.yul\":19824:19830   */\n      dup2\n        /* \"#utility.yul\":19811:19831   */\n      calldataload\n        /* \"#utility.yul\":19802:19831   */\n      swap1\n      pop\n        /* \"#utility.yul\":19840:19870   */\n      tag_522\n        /* \"#utility.yul\":19864:19869   */\n      dup2\n        /* \"#utility.yul\":19840:19870   */\n      tag_277\n      jump\t// in\n    tag_522:\n        /* \"#utility.yul\":19743:19876   */\n      swap3\n      swap2\n      pop\n      pop\n      jump\t// out\n        /* \"#utility.yul\":19882:20350   */\n    tag_44:\n        /* \"#utility.yul\":19947:19953   */\n      0x00\n        /* \"#utility.yul\":19955:19961   */\n      dup1\n        /* \"#utility.yul\":20004:20006   */\n      0x40\n        /* \"#utility.yul\":19992:20001   */\n      dup4\n        /* \"#utility.yul\":19983:19990   */\n      dup6\n        /* \"#utility.yul\":19979:20002   */\n      sub\n        /* \"#utility.yul\":19975:20007   */\n      slt\n        /* \"#utility.yul\":19972:20091   */\n      iszero\n      tag_524\n      jumpi\n        /* \"#utility.yul\":20010:20089   */\n      tag_525\n      tag_245\n      jump\t// in\n    tag_525:\n        /* \"#utility.yul\":19972:20091   */\n    tag_524:\n        /* \"#utility.yul\":20130:20131   */\n      0x00\n        /* \"#utility.yul\":20155:20208   */\n      tag_526\n        /* \"#utility.yul\":20200:20207   */\n      dup6\n        /* \"#utility.yul\":20191:20197   */\n      dup3\n        /* \"#utility.yul\":20180:20189   */\n      dup7\n        /* \"#utility.yul\":20176:20198   */\n      add\n        /* \"#utility.yul\":20155:20208   */\n      tag_273\n      jump\t// in\n    tag_526:\n        /* \"#utility.yul\":20145:20208   */\n      swap3\n      pop\n        /* \"#utility.yul\":20101:20218   */\n      pop\n        /* \"#utility.yul\":20257:20259   */\n      0x20\n        /* \"#utility.yul\":20283:20333   */\n      tag_527\n        /* \"#utility.yul\":20325:20332   */\n      dup6\n        /* \"#utility.yul\":20316:20322   */\n      dup3\n        /* \"#utility.yul\":20305:20314   */\n      dup7\n        /* \"#utility.yul\":20301:20323   */\n      add\n        /* \"#utility.yul\":20283:20333   */\n      tag_278\n      jump\t// in\n    tag_527:\n        /* \"#utility.yul\":20273:20333   */\n      swap2\n      pop\n        /* \"#utility.yul\":20228:20343   */\n      pop\n        /* \"#utility.yul\":19882:20350   */\n      swap3\n      pop\n      swap3\n      swap1\n      pop\n      jump\t// out\n        /* \"#utility.yul\":20356:20536   */\n    tag_279:\n        /* \"#utility.yul\":20404:20481   */\n      0x4e487b7100000000000000000000000000000000000000000000000000000000\n        /* \"#utility.yul\":20401:20402   */\n      0x00\n        /* \"#utility.yul\":20394:20482   */\n      mstore\n        /* \"#utility.yul\":20501:20505   */\n      0x22\n        /* \"#utility.yul\":20498:20499   */\n      0x04\n        /* \"#utility.yul\":20491:20506   */\n      mstore\n        /* \"#utility.yul\":20525:20529   */\n      0x24\n        /* \"#utility.yul\":20522:20523   */\n      0x00\n        /* \"#utility.yul\":20515:20530   */\n      revert\n        /* \"#utility.yul\":20542:20862   */\n    tag_51:\n        /* \"#utility.yul\":20586:20592   */\n      0x00\n        /* \"#utility.yul\":20623:20624   */\n      0x02\n        /* \"#utility.yul\":20617:20621   */\n      dup3\n        /* \"#utility.yul\":20613:20625   */\n      div\n        /* \"#utility.yul\":20603:20625   */\n      swap1\n      pop\n        /* \"#utility.yul\":20670:20671   */\n      0x01\n        /* \"#utility.yul\":20664:20668   */\n      dup3\n        /* \"#utility.yul\":20660:20672   */\n      and\n        /* \"#utility.yul\":20691:20709   */\n      dup1\n        /* \"#utility.yul\":20681:20762   */\n      tag_530\n      jumpi\n        /* \"#utility.yul\":20747:20751   */\n      0x7f\n        /* \"#utility.yul\":20739:20745   */\n      dup3\n        /* \"#utility.yul\":20735:20752   */\n      and\n        /* \"#utility.yul\":20725:20752   */\n      swap2\n      pop\n        /* \"#utility.yul\":20681:20762   */\n    tag_530:\n        /* \"#utility.yul\":20809:20811   */\n      0x20\n        /* \"#utility.yul\":20801:20807   */\n      dup3\n        /* \"#utility.yul\":20798:20812   */\n      lt\n        /* \"#utility.yul\":20778:20796   */\n      dup2\n        /* \"#utility.yul\":20775:20813   */\n      sub\n        /* \"#utility.yul\":20772:20856   */\n      tag_531\n      jumpi\n        /* \"#utility.yul\":20828:20846   */\n      tag_532\n      tag_279\n      jump\t// in\n    tag_532:\n        /* \"#utility.yul\":20772:20856   */\n    tag_531:\n        /* \"#utility.yul\":20593:20862   */\n      pop\n        /* \"#utility.yul\":20542:20862   */\n      swap2\n      swap1\n      pop\n      jump\t// out\n        /* \"#utility.yul\":20868:21041   */\n    tag_280:\n        /* \"#utility.yul\":21008:21033   */\n      0x456e747279204944206d75737420626520756e69717565000000000000000000\n        /* \"#utility.yul\":21004:21005   */\n      0x00\n        /* \"#utility.yul\":20996:21002   */\n      dup3\n        /* \"#utility.yul\":20992:21006   */\n      add\n        /* \"#utility.yul\":20985:21034   */\n      mstore\n        /* \"#utility.yul\":20868:21041   */\n      pop\n      jump\t// out\n        /* \"#utility.yul\":21047:21413   */\n    tag_281:\n        /* \"#utility.yul\":21189:21192   */\n      0x00\n        /* \"#utility.yul\":21210:21277   */\n      tag_535\n        /* \"#utility.yul\":21274:21276   */\n      0x17\n        /* \"#utility.yul\":21269:21272   */\n      dup4\n        /* \"#utility.yul\":21210:21277   */\n      tag_274\n      jump\t// in\n    tag_535:\n        /* \"#utility.yul\":21203:21277   */\n      swap2\n      pop\n        /* \"#utility.yul\":21286:21379   */\n      tag_536\n        /* \"#utility.yul\":21375:21378   */\n      dup3\n        /* \"#utility.yul\":21286:21379   */\n      tag_280\n      jump\t// in\n    tag_536:\n        /* \"#utility.yul\":21404:21406   */\n      0x20\n        /* \"#utility.yul\":21399:21402   */\n      dup3\n        /* \"#utility.yul\":21395:21407   */\n      add\n        /* \"#utility.yul\":21388:21407   */\n      swap1\n      pop\n        /* \"#utility.yul\":21047:21413   */\n      swap2\n      swap1\n      pop\n      jump\t// out\n        /* \"#utility.yul\":21419:21838   */\n    tag_71:\n        /* \"#utility.yul\":21585:21589   */\n      0x00\n        /* \"#utility.yul\":21623:21625   */\n      0x20\n        /* \"#utility.yul\":21612:21621   */\n      dup3\n        /* \"#utility.yul\":21608:21626   */\n      add\n        /* \"#utility.yul\":21600:21626   */\n      swap1\n      pop\n        /* \"#utility.yul\":21672:21681   */\n      dup2\n        /* \"#utility.yul\":21666:21670   */\n      dup2\n        /* \"#utility.yul\":21662:21682   */\n      sub\n        /* \"#utility.yul\":21658:21659   */\n      0x00\n        /* \"#utility.yul\":21647:21656   */\n      dup4\n        /* \"#utility.yul\":21643:21660   */\n      add\n        /* \"#utility.yul\":21636:21683   */\n      mstore\n        /* \"#utility.yul\":21700:21831   */\n      tag_538\n        /* \"#utility.yul\":21826:21830   */\n      dup2\n        /* \"#utility.yul\":21700:21831   */\n      tag_281\n      jump\t// in\n    tag_538:\n        /* \"#utility.yul\":21692:21831   */\n      swap1\n      pop\n        /* \"#utility.yul\":21419:21838   */\n      swap2\n      swap1\n      pop\n      jump\t// out\n        /* \"#utility.yul\":21844:21985   */\n    tag_282:\n        /* \"#utility.yul\":21893:21897   */\n      0x00\n        /* \"#utility.yul\":21916:21919   */\n      dup2\n        /* \"#utility.yul\":21908:21919   */\n      swap1\n      pop\n        /* \"#utility.yul\":21939:21942   */\n      dup2\n        /* \"#utility.yul\":21936:21937   */\n      0x00\n        /* \"#utility.yul\":21929:21943   */\n      mstore\n        /* \"#utility.yul\":21973:21977   */\n      0x20\n        /* \"#utility.yul\":21970:21971   */\n      0x00\n        /* \"#utility.yul\":21960:21978   */\n      keccak256\n        /* \"#utility.yul\":21952:21978   */\n      swap1\n      pop\n        /* \"#utility.yul\":21844:21985   */\n      swap2\n      swap1\n      pop\n      jump\t// out\n        /* \"#utility.yul\":21991:22084   */\n    tag_283:\n        /* \"#utility.yul\":22028:22034   */\n      0x00\n        /* \"#utility.yul\":22075:22077   */\n      0x20\n        /* \"#utility.yul\":22070:22072   */\n      0x1f\n        /* \"#utility.yul\":22063:22068   */\n      dup4\n        /* \"#utility.yul\":22059:22073   */\n      add\n        /* \"#utility.yul\":22055:22078   */\n      div\n        /* \"#utility.yul\":22045:22078   */\n      swap1\n      pop\n        /* \"#utility.yul\":21991:22084   */\n      swap2\n      swap1\n      pop\n      jump\t// out\n        /* \"#utility.yul\":22090:22197   */\n    tag_284:\n        /* \"#utility.yul\":22134:22142   */\n      0x00\n        /* \"#utility.yul\":22184:22189   */\n      dup3\n        /* \"#utility.yul\":22178:22182   */\n      dup3\n        /* \"#utility.yul\":22174:22190   */\n      shl\n        /* \"#utility.yul\":22153:22190   */\n      swap1\n      pop\n        /* \"#utility.yul\":22090:22197   */\n      swap3\n      swap2\n      pop\n      pop\n      jump\t// out\n        /* \"#utility.yul\":22203:22596   */\n    tag_285:\n        /* \"#utility.yul\":22272:22278   */\n      0x00\n        /* \"#utility.yul\":22322:22323   */\n      0x08\n        /* \"#utility.yul\":22310:22320   */\n      dup4\n        /* \"#utility.yul\":22306:22324   */\n      mul\n        /* \"#utility.yul\":22345:22442   */\n      tag_543\n        /* \"#utility.yul\":22375:22441   */\n      0xffffffffffffffffffffffffffffffffffffffffffffffffffffffffffffffff\n        /* \"#utility.yul\":22364:22373   */\n      dup3\n        /* \"#utility.yul\":22345:22442   */\n      tag_284\n      jump\t// in\n    tag_543:\n        /* \"#utility.yul\":22463:22502   */\n      tag_544\n        /* \"#utility.yul\":22493:22501   */\n      dup7\n        /* \"#utility.yul\":22482:22491   */\n      dup4\n        /* \"#utility.yul\":22463:22502   */\n      tag_284\n      jump\t// in\n    tag_544:\n        /* \"#utility.yul\":22451:22502   */\n      swap6\n      pop\n        /* \"#utility.yul\":22535:22539   */\n      dup1\n        /* \"#utility.yul\":22531:22540   */\n      not\n        /* \"#utility.yul\":22524:22529   */\n      dup5\n        /* \"#utility.yul\":22520:22541   */\n      and\n        /* \"#utility.yul\":22511:22541   */\n      swap4\n      pop\n        /* \"#utility.yul\":22584:22588   */\n      dup1\n        /* \"#utility.yul\":22574:22582   */\n      dup7\n        /* \"#utility.yul\":22570:22589   */\n      and\n        /* \"#utility.yul\":22563:22568   */\n      dup5\n        /* \"#utility.yul\":22560:22590   */\n      or\n        /* \"#utility.yul\":22550:22590   */\n      swap3\n      pop\n        /* \"#utility.yul\":22279:22596   */\n      pop\n      pop\n        /* \"#utility.yul\":22203:22596   */\n      swap4\n      swap3\n      pop\n      pop\n      pop\n      jump\t// out\n        /* \"#utility.yul\":22602:22744   */\n    tag_286:\n        /* \"#utility.yul\":22652:22661   */\n      0x00\n        /* \"#utility.yul\":22685:22738   */\n      tag_546\n        /* \"#utility.yul\":22703:22737   */\n      tag_547\n        /* \"#utility.yul\":22712:22736   */\n      tag_548\n        /* \"#utility.yul\":22730:22735   */\n      dup5\n        /* \"#utility.yul\":22712:22736   */\n      tag_238\n      jump\t// in\n    tag_548:\n        /* \"#utility.yul\":22703:22737   */\n      tag_267\n      jump\t// in\n    tag_547:\n        /* \"#utility.yul\":22685:22738   */\n      tag_238\n      jump\t// in\n    tag_546:\n        /* \"#utility.yul\":22672:22738   */\n      swap1\n      pop\n        /* \"#utility.yul\":22602:22744   */\n      swap2\n      swap1\n      pop\n      jump\t// out\n        /* \"#utility.yul\":22750:22825   */\n    tag_287:\n        /* \"#utility.yul\":22793:22796   */\n      0x00\n        /* \"#utility.yul\":22814:22819   */\n      dup2\n        /* \"#utility.yul\":22807:22819   */\n      swap1\n      pop\n        /* \"#utility.yul\":22750:22825   */\n      swap2\n      swap1\n      pop\n      jump\t// out\n        /* \"#utility.yul\":22831:23100   */\n    tag_288:\n        /* \"#utility.yul\":22941:22980   */\n      tag_551\n        /* \"#utility.yul\":22972:22979   */\n      dup4\n        /* \"#utility.yul\":22941:22980   */\n      tag_286\n      jump\t// in\n    tag_551:\n        /* \"#utility.yul\":23002:23093   */\n      tag_552\n        /* \"#utility.yul\":23051:23092   */\n      tag_553\n        /* \"#utility.yul\":23075:23091   */\n      dup3\n        /* \"#utility.yul\":23051:23092   */\n      tag_287\n      jump\t// in\n    tag_553:\n        /* \"#utility.yul\":23043:23049   */\n      dup5\n        /* \"#utility.yul\":23036:23040   */\n      dup5\n        /* \"#utility.yul\":23030:23041   */\n      sload\n        /* \"#utility.yul\":23002:23093   */\n      tag_285\n      jump\t// in\n    tag_552:\n        /* \"#utility.yul\":22996:23000   */\n      dup3\n        /* \"#utility.yul\":22989:23094   */\n      sstore\n        /* \"#utility.yul\":22907:23100   */\n      pop\n        /* \"#utility.yul\":22831:23100   */\n      pop\n      pop\n      pop\n      jump\t// out\n        /* \"#utility.yul\":23106:23179   */\n    tag_289:\n        /* \"#utility.yul\":23151:23154   */\n      0x00\n        /* \"#utility.yul\":23106:23179   */\n      swap1\n      jump\t// out\n        /* \"#utility.yul\":23185:23374   */\n    tag_290:\n        /* \"#utility.yul\":23262:23294   */\n      tag_556\n      tag_289\n      jump\t// in\n    tag_556:\n        /* \"#utility.yul\":23303:23368   */\n      tag_557\n        /* \"#utility.yul\":23361:23367   */\n      dup2\n        /* \"#utility.yul\":23353:23359   */\n      dup5\n        /* \"#utility.yul\":23347:23351   */\n      dup5\n        /* \"#utility.yul\":23303:23368   */\n      tag_288\n      jump\t// in\n    tag_557:\n        /* \"#utility.yul\":23238:23374   */\n      pop\n        /* \"#utility.yul\":23185:23374   */\n      pop\n      pop\n      jump\t// out\n        /* \"#utility.yul\":23380:23566   */\n    tag_291:\n        /* \"#utility.yul\":23440:23560   */\n    tag_559:\n        /* \"#utility.yul\":23457:23460   */\n      dup2\n        /* \"#utility.yul\":23450:23455   */\n      dup2\n        /* \"#utility.yul\":23447:23461   */\n      lt\n        /* \"#utility.yul\":23440:23560   */\n      iszero\n      tag_561\n      jumpi\n        /* \"#utility.yul\":23511:23550   */\n      tag_562\n        /* \"#utility.yul\":23548:23549   */\n      0x00\n        /* \"#utility.yul\":23541:23546   */\n      dup3\n        /* \"#utility.yul\":23511:23550   */\n      tag_290\n      jump\t// in\n    tag_562:\n        /* \"#utility.yul\":23484:23485   */\n      0x01\n        /* \"#utility.yul\":23477:23482   */\n      dup2\n        /* \"#utility.yul\":23473:23486   */\n      add\n        /* \"#utility.yul\":23464:23486   */\n      swap1\n      pop\n        /* \"#utility.yul\":23440:23560   */\n      jump(tag_559)\n    tag_561:\n        /* \"#utility.yul\":23380:23566   */\n      pop\n      pop\n      jump\t// out\n        /* \"#utility.yul\":23572:24115   */\n    tag_292:\n        /* \"#utility.yul\":23673:23675   */\n      0x1f\n        /* \"#utility.yul\":23668:23671   */\n      dup3\n        /* \"#utility.yul\":23665:23676   */\n      gt\n        /* \"#utility.yul\":23662:24108   */\n      iszero\n      tag_564\n      jumpi\n        /* \"#utility.yul\":23707:23745   */\n      tag_565\n        /* \"#utility.yul\":23739:23744   */\n      dup2\n        /* \"#utility.yul\":23707:23745   */\n      tag_282\n      jump\t// in\n    tag_565:\n        /* \"#utility.yul\":23791:23820   */\n      tag_566\n        /* \"#utility.yul\":23809:23819   */\n      dup5\n        /* \"#utility.yul\":23791:23820   */\n      tag_283\n      jump\t// in\n    tag_566:\n        /* \"#utility.yul\":23781:23789   */\n      dup2\n        /* \"#utility.yul\":23777:23821   */\n      add\n        /* \"#utility.yul\":23974:23976   */\n      0x20\n        /* \"#utility.yul\":23962:23972   */\n      dup6\n        /* \"#utility.yul\":23959:23977   */\n      lt\n        /* \"#utility.yul\":23956:24005   */\n      iszero\n      tag_567\n      jumpi\n        /* \"#utility.yul\":23995:24003   */\n      dup2\n        /* \"#utility.yul\":23980:24003   */\n      swap1\n      pop\n        /* \"#utility.yul\":23956:24005   */\n    tag_567:\n        /* \"#utility.yul\":24018:24098   */\n      tag_568\n        /* \"#utility.yul\":24074:24096   */\n      tag_569\n        /* \"#utility.yul\":24092:24095   */\n      dup6\n        /* \"#utility.yul\":24074:24096   */\n      tag_283\n      jump\t// in\n    tag_569:\n        /* \"#utility.yul\":24064:24072   */\n      dup4\n        /* \"#utility.yul\":24060:24097   */\n      add\n        /* \"#utility.yul\":24047:24058   */\n      dup3\n        /* \"#utility.yul\":24018:24098   */\n      tag_291\n      jump\t// in\n    tag_568:\n        /* \"#utility.yul\":23677:24108   */\n      pop\n      pop\n        /* \"#utility.yul\":23662:24108   */\n    tag_564:\n        /* \"#utility.yul\":23572:24115   */\n      pop\n      pop\n      pop\n      jump\t// out\n        /* \"#utility.yul\":24121:24238   */\n    tag_293:\n        /* \"#utility.yul\":24175:24183   */\n      0x00\n        /* \"#utility.yul\":24225:24230   */\n      dup3\n        /* \"#utility.yul\":24219:24223   */\n      dup3\n        /* \"#utility.yul\":24215:24231   */\n      shr\n        /* \"#utility.yul\":24194:24231   */\n      swap1\n      pop\n        /* \"#utility.yul\":24121:24238   */\n      swap3\n      swap2\n      pop\n      pop\n      jump\t// out\n        /* \"#utility.yul\":24244:24413   */\n    tag_294:\n        /* \"#utility.yul\":24288:24294   */\n      0x00\n        /* \"#utility.yul\":24321:24372   */\n      tag_572\n        /* \"#utility.yul\":24369:24370   */\n      0x00\n        /* \"#utility.yul\":24365:24371   */\n      not\n        /* \"#utility.yul\":24357:24362   */\n      dup5\n        /* \"#utility.yul\":24354:24355   */\n      0x08\n        /* \"#utility.yul\":24350:24363   */\n      mul\n        /* \"#utility.yul\":24321:24372   */\n      tag_293\n      jump\t// in\n    tag_572:\n        /* \"#utility.yul\":24317:24373   */\n      not\n        /* \"#utility.yul\":24402:24406   */\n      dup1\n        /* \"#utility.yul\":24396:24400   */\n      dup4\n        /* \"#utility.yul\":24392:24407   */\n      and\n        /* \"#utility.yul\":24382:24407   */\n      swap2\n      pop\n        /* \"#utility.yul\":24295:24413   */\n      pop\n        /* \"#utility.yul\":24244:24413   */\n      swap3\n      swap2\n      pop\n      pop\n      jump\t// out\n        /* \"#utility.yul\":24418:24713   */\n    tag_295:\n        /* \"#utility.yul\":24494:24498   */\n      0x00\n        /* \"#utility.yul\":24640:24669   */\n      tag_574\n        /* \"#utility.yul\":24665:24668   */\n      dup4\n        /* \"#utility.yul\":24659:24663   */\n      dup4\n        /* \"#utility.yul\":24640:24669   */\n      tag_294\n      jump\t// in\n    tag_574:\n        /* \"#utility.yul\":24632:24669   */\n      swap2\n      pop\n        /* \"#utility.yul\":24702:24705   */\n      dup3\n        /* \"#utility.yul\":24699:24700   */\n      0x02\n        /* \"#utility.yul\":24695:24706   */\n      mul\n        /* \"#utility.yul\":24689:24693   */\n      dup3\n        /* \"#utility.yul\":24686:24707   */\n      or\n        /* \"#utility.yul\":24678:24707   */\n      swap1\n      pop\n        /* \"#utility.yul\":24418:24713   */\n      swap3\n      swap2\n      pop\n      pop\n      jump\t// out\n        /* \"#utility.yul\":24718:26113   */\n    tag_74:\n        /* \"#utility.yul\":24835:24872   */\n      tag_576\n        /* \"#utility.yul\":24868:24871   */\n      dup3\n        /* \"#utility.yul\":24835:24872   */\n      tag_218\n      jump\t// in\n    tag_576:\n        /* \"#utility.yul\":24937:24955   */\n      0xffffffffffffffff\n        /* \"#utility.yul\":24929:24935   */\n      dup2\n        /* \"#utility.yul\":24926:24956   */\n      gt\n        /* \"#utility.yul\":24923:24979   */\n      iszero\n      tag_577\n      jumpi\n        /* \"#utility.yul\":24959:24977   */\n      tag_578\n      tag_249\n      jump\t// in\n    tag_578:\n        /* \"#utility.yul\":24923:24979   */\n    tag_577:\n        /* \"#utility.yul\":25003:25041   */\n      tag_579\n        /* \"#utility.yul\":25035:25039   */\n      dup3\n        /* \"#utility.yul\":25029:25040   */\n      sload\n        /* \"#utility.yul\":25003:25041   */\n      tag_51\n      jump\t// in\n    tag_579:\n        /* \"#utility.yul\":25088:25155   */\n      tag_580\n        /* \"#utility.yul\":25148:25154   */\n      dup3\n        /* \"#utility.yul\":25140:25146   */\n      dup3\n        /* \"#utility.yul\":25134:25138   */\n      dup6\n        /* \"#utility.yul\":25088:25155   */\n      tag_292\n      jump\t// in\n    tag_580:\n        /* \"#utility.yul\":25182:25183   */\n      0x00\n        /* \"#utility.yul\":25206:25210   */\n      0x20\n        /* \"#utility.yul\":25193:25210   */\n      swap1\n      pop\n        /* \"#utility.yul\":25238:25240   */\n      0x1f\n        /* \"#utility.yul\":25230:25236   */\n      dup4\n        /* \"#utility.yul\":25227:25241   */\n      gt\n        /* \"#utility.yul\":25255:25256   */\n      0x01\n        /* \"#utility.yul\":25250:25868   */\n      dup2\n      eq\n      tag_582\n      jumpi\n        /* \"#utility.yul\":25912:25913   */\n      0x00\n        /* \"#utility.yul\":25929:25935   */\n      dup5\n        /* \"#utility.yul\":25926:26003   */\n      iszero\n      tag_583\n      jumpi\n        /* \"#utility.yul\":25978:25987   */\n      dup3\n        /* \"#utility.yul\":25973:25976   */\n      dup8\n        /* \"#utility.yul\":25969:25988   */\n      add\n        /* \"#utility.yul\":25963:25989   */\n      mload\n        /* \"#utility.yul\":25954:25989   */\n      swap1\n      pop\n        /* \"#utility.yul\":25926:26003   */\n    tag_583:\n        /* \"#utility.yul\":26029:26096   */\n      tag_584\n        /* \"#utility.yul\":26089:26095   */\n      dup6\n        /* \"#utility.yul\":26082:26087   */\n      dup3\n        /* \"#utility.yul\":26029:26096   */\n      tag_295\n      jump\t// in\n    tag_584:\n        /* \"#utility.yul\":26023:26027   */\n      dup7\n        /* \"#utility.yul\":26016:26097   */\n      sstore\n        /* \"#utility.yul\":25885:26107   */\n      pop\n        /* \"#utility.yul\":25220:26107   */\n      jump(tag_581)\n        /* \"#utility.yul\":25250:25868   */\n    tag_582:\n        /* \"#utility.yul\":25302:25306   */\n      0x1f\n        /* \"#utility.yul\":25298:25307   */\n      not\n        /* \"#utility.yul\":25290:25296   */\n      dup5\n        /* \"#utility.yul\":25286:25308   */\n      and\n        /* \"#utility.yul\":25336:25373   */\n      tag_585\n        /* \"#utility.yul\":25368:25372   */\n      dup7\n        /* \"#utility.yul\":25336:25373   */\n      tag_282\n      jump\t// in\n    tag_585:\n        /* \"#utility.yul\":25395:25396   */\n      0x00\n        /* \"#utility.yul\":25409:25617   */\n    tag_586:\n        /* \"#utility.yul\":25423:25430   */\n      dup3\n        /* \"#utility.yul\":25420:25421   */\n      dup2\n        /* \"#utility.yul\":25417:25431   */\n      lt\n        /* \"#utility.yul\":25409:25617   */\n      iszero\n      tag_588\n      jumpi\n        /* \"#utility.yul\":25502:25511   */\n      dup5\n        /* \"#utility.yul\":25497:25500   */\n      dup10\n        /* \"#utility.yul\":25493:25512   */\n      add\n        /* \"#utility.yul\":25487:25513   */\n      mload\n        /* \"#utility.yul\":25479:25485   */\n      dup3\n        /* \"#utility.yul\":25472:25514   */\n      sstore\n        /* \"#utility.yul\":25553:25554   */\n      0x01\n        /* \"#utility.yul\":25545:25551   */\n      dup3\n        /* \"#utility.yul\":25541:25555   */\n      add\n        /* \"#utility.yul\":25531:25555   */\n      swap2\n      pop\n        /* \"#utility.yul\":25600:25602   */\n      0x20\n        /* \"#utility.yul\":25589:25598   */\n      dup6\n        /* \"#utility.yul\":25585:25603   */\n      add\n        /* \"#utility.yul\":25572:25603   */\n      swap5\n      pop\n        /* \"#utility.yul\":25446:25450   */\n      0x20\n        /* \"#utility.yul\":25443:25444   */\n      dup2\n        /* \"#utility.yul\":25439:25451   */\n      add\n        /* \"#utility.yul\":25434:25451   */\n      swap1\n      pop\n        /* \"#utility.yul\":25409:25617   */\n      jump(tag_586)\n    tag_588:\n        /* \"#utility.yul\":25645:25651   */\n      dup7\n        /* \"#utility.yul\":25636:25643   */\n      dup4\n        /* \"#utility.yul\":25633:25652   */\n      lt\n        /* \"#utility.yul\":25630:25809   */\n      iszero\n      tag_589\n      jumpi\n        /* \"#utility.yul\":25703:25712   */\n      dup5\n        /* \"#utility.yul\":25698:25701   */\n      dup10\n        /* \"#utility.yul\":25694:25713   */\n      add\n        /* \"#utility.yul\":25688:25714   */\n      mload\n        /* \"#utility.yul\":25746:25794   */\n      tag_590\n        /* \"#utility.yul\":25788:25792   */\n      0x1f\n        /* \"#utility.yul\":25780:25786   */\n      dup10\n        /* \"#utility.yul\":25776:25793   */\n      and\n        /* \"#utility.yul\":25765:25774   */\n      dup3\n        /* \"#utility.yul\":25746:25794   */\n      tag_294\n      jump\t// in\n    tag_590:\n        /* \"#utility.yul\":25738:25744   */\n      dup4\n        /* \"#utility.yul\":25731:25795   */\n      sstore\n        /* \"#utility.yul\":25653:25809   */\n      pop\n        /* \"#utility.yul\":25630:25809   */\n    tag_589:\n        /* \"#utility.yul\":25855:25856   */\n      0x01\n        /* \"#utility.yul\":25851:25852   */\n      0x02\n        /* \"#utility.yul\":25843:25849   */\n      dup9\n        /* \"#utility.yul\":25839:25853   */\n      mul\n        /* \"#utility.yul\":25835:25857   */\n      add\n        /* \"#utility.yul\":25829:25833   */\n      dup9\n        /* \"#utility.yul\":25822:25858   */\n      sstore\n        /* \"#utility.yul\":25257:25868   */\n      pop\n      pop\n      pop\n        /* \"#utility.yul\":25220:26107   */\n    tag_581:\n      pop\n        /* \"#utility.yul\":24810:26113   */\n      pop\n      pop\n      pop\n        /* \"#utility.yul\":24718:26113   */\n      pop\n      pop\n      jump\t// out\n        /* \"#utility.yul\":26119:26291   */\n    tag_296:\n        /* \"#utility.yul\":26259:26283   */\n      0x596f7520617265206e6f7420746865206f776e65722e00000000000000000000\n        /* \"#utility.yul\":26255:26256   */\n      0x00\n        /* \"#utility.yul\":26247:26253   */\n      dup3\n        /* \"#utility.yul\":26243:26257   */\n      add\n        /* \"#utility.yul\":26236:26284   */\n      mstore\n        /* \"#utility.yul\":26119:26291   */\n      pop\n      jump\t// out\n        /* \"#utility.yul\":26297:26663   */\n    tag_297:\n        /* \"#utility.yul\":26439:26442   */\n      0x00\n        /* \"#utility.yul\":26460:26527   */\n      tag_593\n        /* \"#utility.yul\":26524:26526   */\n      0x16\n        /* \"#utility.yul\":26519:26522   */\n      dup4\n        /* \"#utility.yul\":26460:26527   */\n      tag_274\n      jump\t// in\n    tag_593:\n        /* \"#utility.yul\":26453:26527   */\n      swap2\n      pop\n        /* \"#utility.yul\":26536:26629   */\n      tag_594\n        /* \"#utility.yul\":26625:26628   */\n      dup3\n        /* \"#utility.yul\":26536:26629   */\n      tag_296\n      jump\t// in\n    tag_594:\n        /* \"#utility.yul\":26654:26656   */\n      0x20\n        /* \"#utility.yul\":26649:26652   */\n      dup3\n        /* \"#utility.yul\":26645:26657   */\n      add\n        /* \"#utility.yul\":26638:26657   */\n      swap1\n      pop\n        /* \"#utility.yul\":26297:26663   */\n      swap2\n      swap1\n      pop\n      jump\t// out\n        /* \"#utility.yul\":26669:27088   */\n    tag_82:\n        /* \"#utility.yul\":26835:26839   */\n      0x00\n        /* \"#utility.yul\":26873:26875   */\n      0x20\n        /* \"#utility.yul\":26862:26871   */\n      dup3\n        /* \"#utility.yul\":26858:26876   */\n      add\n        /* \"#utility.yul\":26850:26876   */\n      swap1\n      pop\n        /* \"#utility.yul\":26922:26931   */\n      dup2\n        /* \"#utility.yul\":26916:26920   */\n      dup2\n        /* \"#utility.yul\":26912:26932   */\n      sub\n        /* \"#utility.yul\":26908:26909   */\n      0x00\n        /* \"#utility.yul\":26897:26906   */\n      dup4\n        /* \"#utility.yul\":26893:26910   */\n      add\n        /* \"#utility.yul\":26886:26933   */\n      mstore\n        /* \"#utility.yul\":26950:27081   */\n      tag_596\n        /* \"#utility.yul\":27076:27080   */\n      dup2\n        /* \"#utility.yul\":26950:27081   */\n      tag_297\n      jump\t// in\n    tag_596:\n        /* \"#utility.yul\":26942:27081   */\n      swap1\n      pop\n        /* \"#utility.yul\":26669:27088   */\n      swap2\n      swap1\n      pop\n      jump\t// out\n        /* \"#utility.yul\":27094:27274   */\n    tag_88:\n        /* \"#utility.yul\":27142:27219   */\n      0x4e487b7100000000000000000000000000000000000000000000000000000000\n        /* \"#utility.yul\":27139:27140   */\n      0x00\n        /* \"#utility.yul\":27132:27220   */\n      mstore\n        /* \"#utility.yul\":27239:27243   */\n      0x32\n        /* \"#utility.yul\":27236:27237   */\n      0x04\n        /* \"#utility.yul\":27229:27244   */\n      mstore\n        /* \"#utility.yul\":27263:27267   */\n      0x24\n        /* \"#utility.yul\":27260:27261   */\n      0x00\n        /* \"#utility.yul\":27253:27268   */\n      revert\n        /* \"#utility.yul\":27280:27460   */\n    tag_298:\n        /* \"#utility.yul\":27328:27405   */\n      0x4e487b7100000000000000000000000000000000000000000000000000000000\n        /* \"#utility.yul\":27325:27326   */\n      0x00\n        /* \"#utility.yul\":27318:27406   */\n      mstore\n        /* \"#utility.yul\":27425:27429   */\n      0x11\n        /* \"#utility.yul\":27422:27423   */\n      0x04\n        /* \"#utility.yul\":27415:27430   */\n      mstore\n        /* \"#utility.yul\":27449:27453   */\n      0x24\n        /* \"#utility.yul\":27446:27447   */\n      0x00\n        /* \"#utility.yul\":27439:27454   */\n      revert\n        /* \"#utility.yul\":27466:27657   */\n    tag_94:\n        /* \"#utility.yul\":27506:27509   */\n      0x00\n        /* \"#utility.yul\":27525:27545   */\n      tag_600\n        /* \"#utility.yul\":27543:27544   */\n      dup3\n        /* \"#utility.yul\":27525:27545   */\n      tag_238\n      jump\t// in\n    tag_600:\n        /* \"#utility.yul\":27520:27545   */\n      swap2\n      pop\n        /* \"#utility.yul\":27559:27579   */\n      tag_601\n        /* \"#utility.yul\":27577:27578   */\n      dup4\n        /* \"#utility.yul\":27559:27579   */\n      tag_238\n      jump\t// in\n    tag_601:\n        /* \"#utility.yul\":27554:27579   */\n      swap3\n      pop\n        /* \"#utility.yul\":27602:27603   */\n      dup3\n        /* \"#utility.yul\":27599:27600   */\n      dup3\n        /* \"#utility.yul\":27595:27604   */\n      add\n        /* \"#utility.yul\":27588:27604   */\n      swap1\n      pop\n        /* \"#utility.yul\":27623:27626   */\n      dup1\n        /* \"#utility.yul\":27620:27621   */\n      dup3\n        /* \"#utility.yul\":27617:27627   */\n      gt\n        /* \"#utility.yul\":27614:27650   */\n      iszero\n      tag_602\n      jumpi\n        /* \"#utility.yul\":27630:27648   */\n      tag_603\n      tag_298\n      jump\t// in\n    tag_603:\n        /* \"#utility.yul\":27614:27650   */\n    tag_602:\n        /* \"#utility.yul\":27466:27657   */\n      swap3\n      swap2\n      pop\n      pop\n      jump\t// out\n        /* \"#utility.yul\":27663:27833   */\n    tag_299:\n        /* \"#utility.yul\":27803:27825   */\n      0x456e74727920646f6573206e6f74206578697374000000000000000000000000\n        /* \"#utility.yul\":27799:27800   */\n      0x00\n        /* \"#utility.yul\":27791:27797   */\n      dup3\n        /* \"#utility.yul\":27787:27801   */\n      add\n        /* \"#utility.yul\":27780:27826   */\n      mstore\n        /* \"#utility.yul\":27663:27833   */\n      pop\n      jump\t// out\n        /* \"#utility.yul\":27839:28205   */\n    tag_300:\n        /* \"#utility.yul\":27981:27984   */\n      0x00\n        /* \"#utility.yul\":28002:28069   */\n      tag_606\n        /* \"#utility.yul\":28066:28068   */\n      0x14\n        /* \"#utility.yul\":28061:28064   */\n      dup4\n        /* \"#utility.yul\":28002:28069   */\n      tag_274\n      jump\t// in\n    tag_606:\n        /* \"#utility.yul\":27995:28069   */\n      swap2\n      pop\n        /* \"#utility.yul\":28078:28171   */\n      tag_607\n        /* \"#utility.yul\":28167:28170   */\n      dup3\n        /* \"#utility.yul\":28078:28171   */\n      tag_299\n      jump\t// in\n    tag_607:\n        /* \"#utility.yul\":28196:28198   */\n      0x20\n        /* \"#utility.yul\":28191:28194   */\n      dup3\n        /* \"#utility.yul\":28187:28199   */\n      add\n        /* \"#utility.yul\":28180:28199   */\n      swap1\n      pop\n        /* \"#utility.yul\":27839:28205   */\n      swap2\n      swap1\n      pop\n      jump\t// out\n        /* \"#utility.yul\":28211:28630   */\n    tag_123:\n        /* \"#utility.yul\":28377:28381   */\n      0x00\n        /* \"#utility.yul\":28415:28417   */\n      0x20\n        /* \"#utility.yul\":28404:28413   */\n      dup3\n        /* \"#utility.yul\":28400:28418   */\n      add\n        /* \"#utility.yul\":28392:28418   */\n      swap1\n      pop\n        /* \"#utility.yul\":28464:28473   */\n      dup2\n        /* \"#utility.yul\":28458:28462   */\n      dup2\n        /* \"#utility.yul\":28454:28474   */\n      sub\n        /* \"#utility.yul\":28450:28451   */\n      0x00\n        /* \"#utility.yul\":28439:28448   */\n      dup4\n        /* \"#utility.yul\":28435:28452   */\n      add\n        /* \"#utility.yul\":28428:28475   */\n      mstore\n        /* \"#utility.yul\":28492:28623   */\n      tag_609\n        /* \"#utility.yul\":28618:28622   */\n      dup2\n        /* \"#utility.yul\":28492:28623   */\n      tag_300\n      jump\t// in\n    tag_609:\n        /* \"#utility.yul\":28484:28623   */\n      swap1\n      pop\n        /* \"#utility.yul\":28211:28630   */\n      swap2\n      swap1\n      pop\n      jump\t// out\n        /* \"#utility.yul\":28636:28869   */\n    tag_129:\n        /* \"#utility.yul\":28675:28678   */\n      0x00\n        /* \"#utility.yul\":28698:28722   */\n      tag_611\n        /* \"#utility.yul\":28716:28721   */\n      dup3\n        /* \"#utility.yul\":28698:28722   */\n      tag_238\n      jump\t// in\n    tag_611:\n        /* \"#utility.yul\":28689:28722   */\n      swap2\n      pop\n        /* \"#utility.yul\":28744:28810   */\n      0xffffffffffffffffffffffffffffffffffffffffffffffffffffffffffffffff\n        /* \"#utility.yul\":28737:28742   */\n      dup3\n        /* \"#utility.yul\":28734:28811   */\n      sub\n        /* \"#utility.yul\":28731:28834   */\n      tag_612\n      jumpi\n        /* \"#utility.yul\":28814:28832   */\n      tag_613\n      tag_298\n      jump\t// in\n    tag_613:\n        /* \"#utility.yul\":28731:28834   */\n    tag_612:\n        /* \"#utility.yul\":28861:28862   */\n      0x01\n        /* \"#utility.yul\":28854:28859   */\n      dup3\n        /* \"#utility.yul\":28850:28863   */\n      add\n        /* \"#utility.yul\":28843:28863   */\n      swap1\n      pop\n        /* \"#utility.yul\":28636:28869   */\n      swap2\n      swap1\n      pop\n      jump\t// out\n        /* \"#utility.yul\":28875:29069   */\n    tag_135:\n        /* \"#utility.yul\":28915:28919   */\n      0x00\n        /* \"#utility.yul\":28935:28955   */\n      tag_615\n        /* \"#utility.yul\":28953:28954   */\n      dup3\n        /* \"#utility.yul\":28935:28955   */\n      tag_238\n      jump\t// in\n    tag_615:\n        /* \"#utility.yul\":28930:28955   */\n      swap2\n      pop\n        /* \"#utility.yul\":28969:28989   */\n      tag_616\n        /* \"#utility.yul\":28987:28988   */\n      dup4\n        /* \"#utility.yul\":28969:28989   */\n      tag_238\n      jump\t// in\n    tag_616:\n        /* \"#utility.yul\":28964:28989   */\n      swap3\n      pop\n        /* \"#utility.yul\":29013:29014   */\n      dup3\n        /* \"#utility.yul\":29010:29011   */\n      dup3\n        /* \"#utility.yul\":29006:29015   */\n      sub\n        /* \"#utility.yul\":28998:29015   */\n      swap1\n      pop\n        /* \"#utility.yul\":29037:29038   */\n      dup2\n        /* \"#utility.yul\":29031:29035   */\n      dup2\n        /* \"#utility.yul\":29028:29039   */\n      gt\n        /* \"#utility.yul\":29025:29062   */\n      iszero\n      tag_617\n      jumpi\n        /* \"#utility.yul\":29042:29060   */\n      tag_618\n      tag_298\n      jump\t// in\n    tag_618:\n        /* \"#utility.yul\":29025:29062   */\n    tag_617:\n        /* \"#utility.yul\":28875:29069   */\n      swap3\n      swap2\n      pop\n      pop\n      jump\t// out\n        /* \"#utility.yul\":29099:29930   */\n    tag_301:\n        /* \"#utility.yul\":29184:29187   */\n      0x00\n        /* \"#utility.yul\":29221:29226   */\n      dup2\n        /* \"#utility.yul\":29215:29227   */\n      sload\n        /* \"#utility.yul\":29250:29286   */\n      tag_620\n        /* \"#utility.yul\":29276:29285   */\n      dup2\n        /* \"#utility.yul\":29250:29286   */\n      tag_51\n      jump\t// in\n    tag_620:\n        /* \"#utility.yul\":29302:29373   */\n      tag_621\n        /* \"#utility.yul\":29366:29372   */\n      dup2\n        /* \"#utility.yul\":29361:29364   */\n      dup7\n        /* \"#utility.yul\":29302:29373   */\n      tag_274\n      jump\t// in\n    tag_621:\n        /* \"#utility.yul\":29295:29373   */\n      swap5\n      pop\n        /* \"#utility.yul\":29404:29405   */\n      0x01\n        /* \"#utility.yul\":29393:29402   */\n      dup3\n        /* \"#utility.yul\":29389:29406   */\n      and\n        /* \"#utility.yul\":29420:29421   */\n      0x00\n        /* \"#utility.yul\":29415:29579   */\n      dup2\n      eq\n      tag_623\n      jumpi\n        /* \"#utility.yul\":29593:29594   */\n      0x01\n        /* \"#utility.yul\":29588:29924   */\n      dup2\n      eq\n      tag_624\n      jumpi\n        /* \"#utility.yul\":29382:29924   */\n      jump(tag_622)\n        /* \"#utility.yul\":29415:29579   */\n    tag_623:\n        /* \"#utility.yul\":29499:29503   */\n      0xff\n        /* \"#utility.yul\":29495:29504   */\n      not\n        /* \"#utility.yul\":29484:29493   */\n      dup4\n        /* \"#utility.yul\":29480:29505   */\n      and\n        /* \"#utility.yul\":29475:29478   */\n      dup7\n        /* \"#utility.yul\":29468:29506   */\n      mstore\n        /* \"#utility.yul\":29559:29565   */\n      dup2\n        /* \"#utility.yul\":29552:29566   */\n      iszero\n        /* \"#utility.yul\":29545:29567   */\n      iszero\n        /* \"#utility.yul\":29539:29543   */\n      0x20\n        /* \"#utility.yul\":29535:29568   */\n      mul\n        /* \"#utility.yul\":29530:29533   */\n      dup7\n        /* \"#utility.yul\":29526:29569   */\n      add\n        /* \"#utility.yul\":29519:29569   */\n      swap4\n      pop\n        /* \"#utility.yul\":29415:29579   */\n      jump(tag_622)\n        /* \"#utility.yul\":29588:29924   */\n    tag_624:\n        /* \"#utility.yul\":29655:29693   */\n      tag_625\n        /* \"#utility.yul\":29687:29692   */\n      dup6\n        /* \"#utility.yul\":29655:29693   */\n      tag_282\n      jump\t// in\n    tag_625:\n        /* \"#utility.yul\":29715:29716   */\n      0x00\n        /* \"#utility.yul\":29729:29883   */\n    tag_626:\n        /* \"#utility.yul\":29743:29749   */\n      dup4\n        /* \"#utility.yul\":29740:29741   */\n      dup2\n        /* \"#utility.yul\":29737:29750   */\n      lt\n        /* \"#utility.yul\":29729:29883   */\n      iszero\n      tag_628\n      jumpi\n        /* \"#utility.yul\":29817:29824   */\n      dup2\n        /* \"#utility.yul\":29811:29825   */\n      sload\n        /* \"#utility.yul\":29807:29808   */\n      dup2\n        /* \"#utility.yul\":29802:29805   */\n      dup10\n        /* \"#utility.yul\":29798:29809   */\n      add\n        /* \"#utility.yul\":29791:29826   */\n      mstore\n        /* \"#utility.yul\":29867:29868   */\n      0x01\n        /* \"#utility.yul\":29858:29865   */\n      dup3\n        /* \"#utility.yul\":29854:29869   */\n      add\n        /* \"#utility.yul\":29843:29869   */\n      swap2\n      pop\n        /* \"#utility.yul\":29765:29769   */\n      0x20\n        /* \"#utility.yul\":29762:29763   */\n      dup2\n        /* \"#utility.yul\":29758:29770   */\n      add\n        /* \"#utility.yul\":29753:29770   */\n      swap1\n      pop\n        /* \"#utility.yul\":29729:29883   */\n      jump(tag_626)\n    tag_628:\n        /* \"#utility.yul\":29912:29913   */\n      dup1\n        /* \"#utility.yul\":29907:29910   */\n      dup9\n        /* \"#utility.yul\":29903:29914   */\n      add\n        /* \"#utility.yul\":29896:29914   */\n      swap6\n      pop\n        /* \"#utility.yul\":29595:29924   */\n      pop\n      pop\n        /* \"#utility.yul\":29382:29924   */\n    tag_622:\n      pop\n        /* \"#utility.yul\":29188:29930   */\n      pop\n      pop\n        /* \"#utility.yul\":29099:29930   */\n      swap3\n      swap2\n      pop\n      pop\n      jump\t// out\n        /* \"#utility.yul\":29936:30054   */\n    tag_302:\n        /* \"#utility.yul\":30007:30013   */\n      0x00\n        /* \"#utility.yul\":30041:30046   */\n      dup2\n        /* \"#utility.yul\":30035:30047   */\n      sload\n        /* \"#utility.yul\":30025:30047   */\n      swap1\n      pop\n        /* \"#utility.yul\":29936:30054   */\n      swap2\n      swap1\n      pop\n      jump\t// out\n        /* \"#utility.yul\":30060:30254   */\n    tag_303:\n        /* \"#utility.yul\":30169:30180   */\n      0x00\n        /* \"#utility.yul\":30203:30209   */\n      dup3\n        /* \"#utility.yul\":30198:30201   */\n      dup3\n        /* \"#utility.yul\":30191:30210   */\n      mstore\n        /* \"#utility.yul\":30243:30247   */\n      0x20\n        /* \"#utility.yul\":30238:30241   */\n      dup3\n        /* \"#utility.yul\":30234:30248   */\n      add\n        /* \"#utility.yul\":30219:30248   */\n      swap1\n      pop\n        /* \"#utility.yul\":30060:30254   */\n      swap3\n      swap2\n      pop\n      pop\n      jump\t// out\n        /* \"#utility.yul\":30260:30423   */\n    tag_304:\n        /* \"#utility.yul\":30331:30335   */\n      0x00\n        /* \"#utility.yul\":30354:30357   */\n      dup2\n        /* \"#utility.yul\":30346:30357   */\n      swap1\n      pop\n        /* \"#utility.yul\":30377:30380   */\n      dup2\n        /* \"#utility.yul\":30374:30375   */\n      0x00\n        /* \"#utility.yul\":30367:30381   */\n      mstore\n        /* \"#utility.yul\":30411:30415   */\n      0x20\n        /* \"#utility.yul\":30408:30409   */\n      0x00\n        /* \"#utility.yul\":30398:30416   */\n      keccak256\n        /* \"#utility.yul\":30390:30416   */\n      swap1\n      pop\n        /* \"#utility.yul\":30260:30423   */\n      swap2\n      swap1\n      pop\n      jump\t// out\n        /* \"#utility.yul\":30453:31264   */\n    tag_305:\n        /* \"#utility.yul\":30528:30531   */\n      0x00\n        /* \"#utility.yul\":30565:30570   */\n      dup2\n        /* \"#utility.yul\":30559:30571   */\n      sload\n        /* \"#utility.yul\":30594:30630   */\n      tag_633\n        /* \"#utility.yul\":30620:30629   */\n      dup2\n        /* \"#utility.yul\":30594:30630   */\n      tag_51\n      jump\t// in\n    tag_633:\n        /* \"#utility.yul\":30646:30707   */\n      tag_634\n        /* \"#utility.yul\":30700:30706   */\n      dup2\n        /* \"#utility.yul\":30695:30698   */\n      dup7\n        /* \"#utility.yul\":30646:30707   */\n      tag_219\n      jump\t// in\n    tag_634:\n        /* \"#utility.yul\":30639:30707   */\n      swap5\n      pop\n        /* \"#utility.yul\":30738:30739   */\n      0x01\n        /* \"#utility.yul\":30727:30736   */\n      dup3\n        /* \"#utility.yul\":30723:30740   */\n      and\n        /* \"#utility.yul\":30754:30755   */\n      0x00\n        /* \"#utility.yul\":30749:30913   */\n      dup2\n      eq\n      tag_636\n      jumpi\n        /* \"#utility.yul\":30927:30928   */\n      0x01\n        /* \"#utility.yul\":30922:31258   */\n      dup2\n      eq\n      tag_637\n      jumpi\n        /* \"#utility.yul\":30716:31258   */\n      jump(tag_635)\n        /* \"#utility.yul\":30749:30913   */\n    tag_636:\n        /* \"#utility.yul\":30833:30837   */\n      0xff\n        /* \"#utility.yul\":30829:30838   */\n      not\n        /* \"#utility.yul\":30818:30827   */\n      dup4\n        /* \"#utility.yul\":30814:30839   */\n      and\n        /* \"#utility.yul\":30809:30812   */\n      dup7\n        /* \"#utility.yul\":30802:30840   */\n      mstore\n        /* \"#utility.yul\":30893:30899   */\n      dup2\n        /* \"#utility.yul\":30886:30900   */\n      iszero\n        /* \"#utility.yul\":30879:30901   */\n      iszero\n        /* \"#utility.yul\":30873:30877   */\n      0x20\n        /* \"#utility.yul\":30869:30902   */\n      mul\n        /* \"#utility.yul\":30864:30867   */\n      dup7\n        /* \"#utility.yul\":30860:30903   */\n      add\n        /* \"#utility.yul\":30853:30903   */\n      swap4\n      pop\n        /* \"#utility.yul\":30749:30913   */\n      jump(tag_635)\n        /* \"#utility.yul\":30922:31258   */\n    tag_637:\n        /* \"#utility.yul\":30989:31027   */\n      tag_638\n        /* \"#utility.yul\":31021:31026   */\n      dup6\n        /* \"#utility.yul\":30989:31027   */\n      tag_282\n      jump\t// in\n    tag_638:\n        /* \"#utility.yul\":31049:31050   */\n      0x00\n        /* \"#utility.yul\":31063:31217   */\n    tag_639:\n        /* \"#utility.yul\":31077:31083   */\n      dup4\n        /* \"#utility.yul\":31074:31075   */\n      dup2\n        /* \"#utility.yul\":31071:31084   */\n      lt\n        /* \"#utility.yul\":31063:31217   */\n      iszero\n      tag_641\n      jumpi\n        /* \"#utility.yul\":31151:31158   */\n      dup2\n        /* \"#utility.yul\":31145:31159   */\n      sload\n        /* \"#utility.yul\":31141:31142   */\n      dup2\n        /* \"#utility.yul\":31136:31139   */\n      dup10\n        /* \"#utility.yul\":31132:31143   */\n      add\n        /* \"#utility.yul\":31125:31160   */\n      mstore\n        /* \"#utility.yul\":31201:31202   */\n      0x01\n        /* \"#utility.yul\":31192:31199   */\n      dup3\n        /* \"#utility.yul\":31188:31203   */\n      add\n        /* \"#utility.yul\":31177:31203   */\n      swap2\n      pop\n        /* \"#utility.yul\":31099:31103   */\n      0x20\n        /* \"#utility.yul\":31096:31097   */\n      dup2\n        /* \"#utility.yul\":31092:31104   */\n      add\n        /* \"#utility.yul\":31087:31104   */\n      swap1\n      pop\n        /* \"#utility.yul\":31063:31217   */\n      jump(tag_639)\n    tag_641:\n        /* \"#utility.yul\":31246:31247   */\n      dup1\n        /* \"#utility.yul\":31241:31244   */\n      dup9\n        /* \"#utility.yul\":31237:31248   */\n      add\n        /* \"#utility.yul\":31230:31248   */\n      swap6\n      pop\n        /* \"#utility.yul\":30929:31258   */\n      pop\n      pop\n        /* \"#utility.yul\":30716:31258   */\n    tag_635:\n      pop\n        /* \"#utility.yul\":30532:31264   */\n      pop\n      pop\n        /* \"#utility.yul\":30453:31264   */\n      swap3\n      swap2\n      pop\n      pop\n      jump\t// out\n        /* \"#utility.yul\":31270:31460   */\n    tag_306:\n        /* \"#utility.yul\":31356:31366   */\n      0x00\n        /* \"#utility.yul\":31391:31454   */\n      tag_643\n        /* \"#utility.yul\":31450:31453   */\n      dup4\n        /* \"#utility.yul\":31442:31448   */\n      dup4\n        /* \"#utility.yul\":31391:31454   */\n      tag_305\n      jump\t// in\n    tag_643:\n        /* \"#utility.yul\":31377:31454   */\n      swap1\n      pop\n        /* \"#utility.yul\":31270:31460   */\n      swap3\n      swap2\n      pop\n      pop\n      jump\t// out\n        /* \"#utility.yul\":31466:31583   */\n    tag_307:\n        /* \"#utility.yul\":31540:31544   */\n      0x00\n        /* \"#utility.yul\":31572:31576   */\n      0x01\n        /* \"#utility.yul\":31567:31570   */\n      dup3\n        /* \"#utility.yul\":31563:31577   */\n      add\n        /* \"#utility.yul\":31555:31577   */\n      swap1\n      pop\n        /* \"#utility.yul\":31466:31583   */\n      swap2\n      swap1\n      pop\n      jump\t// out\n        /* \"#utility.yul\":31617:32574   */\n    tag_308:\n        /* \"#utility.yul\":31750:31753   */\n      0x00\n        /* \"#utility.yul\":31779:31837   */\n      tag_646\n        /* \"#utility.yul\":31831:31836   */\n      dup3\n        /* \"#utility.yul\":31779:31837   */\n      tag_302\n      jump\t// in\n    tag_646:\n        /* \"#utility.yul\":31853:31949   */\n      tag_647\n        /* \"#utility.yul\":31942:31948   */\n      dup2\n        /* \"#utility.yul\":31937:31940   */\n      dup6\n        /* \"#utility.yul\":31853:31949   */\n      tag_303\n      jump\t// in\n    tag_647:\n        /* \"#utility.yul\":31846:31949   */\n      swap4\n      pop\n        /* \"#utility.yul\":31975:31978   */\n      dup4\n        /* \"#utility.yul\":32020:32024   */\n      0x20\n        /* \"#utility.yul\":32012:32018   */\n      dup3\n        /* \"#utility.yul\":32008:32025   */\n      mul\n        /* \"#utility.yul\":32003:32006   */\n      dup6\n        /* \"#utility.yul\":31999:32026   */\n      add\n        /* \"#utility.yul\":32050:32110   */\n      tag_648\n        /* \"#utility.yul\":32104:32109   */\n      dup6\n        /* \"#utility.yul\":32050:32110   */\n      tag_304\n      jump\t// in\n    tag_648:\n        /* \"#utility.yul\":32133:32140   */\n      dup1\n        /* \"#utility.yul\":32164:32165   */\n      0x00\n        /* \"#utility.yul\":32149:32529   */\n    tag_649:\n        /* \"#utility.yul\":32174:32180   */\n      dup6\n        /* \"#utility.yul\":32171:32172   */\n      dup2\n        /* \"#utility.yul\":32168:32181   */\n      lt\n        /* \"#utility.yul\":32149:32529   */\n      iszero\n      tag_651\n      jumpi\n        /* \"#utility.yul\":32245:32254   */\n      dup5\n        /* \"#utility.yul\":32239:32243   */\n      dup5\n        /* \"#utility.yul\":32235:32255   */\n      sub\n        /* \"#utility.yul\":32230:32233   */\n      dup10\n        /* \"#utility.yul\":32223:32256   */\n      mstore\n        /* \"#utility.yul\":32290:32296   */\n      dup2\n        /* \"#utility.yul\":32317:32398   */\n      tag_652\n        /* \"#utility.yul\":32393:32397   */\n      dup6\n        /* \"#utility.yul\":32378:32391   */\n      dup3\n        /* \"#utility.yul\":32317:32398   */\n      tag_306\n      jump\t// in\n    tag_652:\n        /* \"#utility.yul\":32309:32398   */\n      swap5\n      pop\n        /* \"#utility.yul\":32421:32485   */\n      tag_653\n        /* \"#utility.yul\":32478:32484   */\n      dup4\n        /* \"#utility.yul\":32421:32485   */\n      tag_307\n      jump\t// in\n    tag_653:\n        /* \"#utility.yul\":32411:32485   */\n      swap3\n      pop\n        /* \"#utility.yul\":32514:32518   */\n      0x20\n        /* \"#utility.yul\":32509:32512   */\n      dup11\n        /* \"#utility.yul\":32505:32519   */\n      add\n        /* \"#utility.yul\":32498:32519   */\n      swap10\n      pop\n        /* \"#utility.yul\":32209:32529   */\n      pop\n        /* \"#utility.yul\":32196:32197   */\n      0x01\n        /* \"#utility.yul\":32193:32194   */\n      dup2\n        /* \"#utility.yul\":32189:32198   */\n      add\n        /* \"#utility.yul\":32184:32198   */\n      swap1\n      pop\n        /* \"#utility.yul\":32149:32529   */\n      jump(tag_649)\n    tag_651:\n        /* \"#utility.yul\":32153:32167   */\n      pop\n        /* \"#utility.yul\":32545:32549   */\n      dup3\n        /* \"#utility.yul\":32538:32549   */\n      swap8\n      pop\n        /* \"#utility.yul\":32565:32568   */\n      dup8\n        /* \"#utility.yul\":32558:32568   */\n      swap6\n      pop\n        /* \"#utility.yul\":31755:32574   */\n      pop\n      pop\n      pop\n      pop\n      pop\n        /* \"#utility.yul\":31617:32574   */\n      swap3\n      swap2\n      pop\n      pop\n      jump\t// out\n        /* \"#utility.yul\":32580:32691   */\n    tag_309:\n        /* \"#utility.yul\":32644:32650   */\n      0x00\n        /* \"#utility.yul\":32678:32683   */\n      dup2\n        /* \"#utility.yul\":32672:32684   */\n      sload\n        /* \"#utility.yul\":32662:32684   */\n      swap1\n      pop\n        /* \"#utility.yul\":32580:32691   */\n      swap2\n      swap1\n      pop\n      jump\t// out\n        /* \"#utility.yul\":32697:32881   */\n    tag_310:\n        /* \"#utility.yul\":32796:32807   */\n      0x00\n        /* \"#utility.yul\":32830:32836   */\n      dup3\n        /* \"#utility.yul\":32825:32828   */\n      dup3\n        /* \"#utility.yul\":32818:32837   */\n      mstore\n        /* \"#utility.yul\":32870:32874   */\n      0x20\n        /* \"#utility.yul\":32865:32868   */\n      dup3\n        /* \"#utility.yul\":32861:32875   */\n      add\n        /* \"#utility.yul\":32846:32875   */\n      swap1\n      pop\n        /* \"#utility.yul\":32697:32881   */\n      swap3\n      swap2\n      pop\n      pop\n      jump\t// out\n        /* \"#utility.yul\":32887:33043   */\n    tag_311:\n        /* \"#utility.yul\":32951:32955   */\n      0x00\n        /* \"#utility.yul\":32974:32977   */\n      dup2\n        /* \"#utility.yul\":32966:32977   */\n      swap1\n      pop\n        /* \"#utility.yul\":32997:33000   */\n      dup2\n        /* \"#utility.yul\":32994:32995   */\n      0x00\n        /* \"#utility.yul\":32987:33001   */\n      mstore\n        /* \"#utility.yul\":33031:33035   */\n      0x20\n        /* \"#utility.yul\":33028:33029   */\n      0x00\n        /* \"#utility.yul\":33018:33036   */\n      keccak256\n        /* \"#utility.yul\":33010:33036   */\n      swap1\n      pop\n        /* \"#utility.yul\":32887:33043   */\n      swap2\n      swap1\n      pop\n      jump\t// out\n        /* \"#utility.yul\":33049:33151   */\n    tag_312:\n        /* \"#utility.yul\":33091:33099   */\n      0x00\n        /* \"#utility.yul\":33138:33143   */\n      dup2\n        /* \"#utility.yul\":33135:33136   */\n      0x00\n        /* \"#utility.yul\":33131:33144   */\n      shr\n        /* \"#utility.yul\":33110:33144   */\n      swap1\n      pop\n        /* \"#utility.yul\":33049:33151   */\n      swap2\n      swap1\n      pop\n      jump\t// out\n        /* \"#utility.yul\":33157:33296   */\n    tag_313:\n        /* \"#utility.yul\":33207:33214   */\n      0x00\n        /* \"#utility.yul\":33247:33289   */\n      0xffffffffffffffffffffffffffffffffffffffff\n        /* \"#utility.yul\":33240:33245   */\n      dup3\n        /* \"#utility.yul\":33236:33290   */\n      and\n        /* \"#utility.yul\":33225:33290   */\n      swap1\n      pop\n        /* \"#utility.yul\":33157:33296   */\n      swap2\n      swap1\n      pop\n      jump\t// out\n        /* \"#utility.yul\":33302:33468   */\n    tag_314:\n        /* \"#utility.yul\":33371:33376   */\n      0x00\n        /* \"#utility.yul\":33396:33462   */\n      tag_660\n        /* \"#utility.yul\":33427:33461   */\n      tag_661\n        /* \"#utility.yul\":33450:33460   */\n      dup4\n        /* \"#utility.yul\":33427:33461   */\n      tag_312\n      jump\t// in\n    tag_661:\n        /* \"#utility.yul\":33396:33462   */\n      tag_313\n      jump\t// in\n    tag_660:\n        /* \"#utility.yul\":33387:33462   */\n      swap1\n      pop\n        /* \"#utility.yul\":33302:33468   */\n      swap2\n      swap1\n      pop\n      jump\t// out\n        /* \"#utility.yul\":33474:33618   */\n    tag_315:\n        /* \"#utility.yul\":33529:33534   */\n      0x00\n        /* \"#utility.yul\":33554:33611   */\n      tag_663\n        /* \"#utility.yul\":33605:33609   */\n      dup3\n        /* \"#utility.yul\":33599:33610   */\n      sload\n        /* \"#utility.yul\":33554:33611   */\n      tag_314\n      jump\t// in\n    tag_663:\n        /* \"#utility.yul\":33545:33611   */\n      swap1\n      pop\n        /* \"#utility.yul\":33474:33618   */\n      swap2\n      swap1\n      pop\n      jump\t// out\n        /* \"#utility.yul\":33624:33734   */\n    tag_316:\n        /* \"#utility.yul\":33691:33695   */\n      0x00\n        /* \"#utility.yul\":33723:33727   */\n      0x01\n        /* \"#utility.yul\":33718:33721   */\n      dup3\n        /* \"#utility.yul\":33714:33728   */\n      add\n        /* \"#utility.yul\":33706:33728   */\n      swap1\n      pop\n        /* \"#utility.yul\":33624:33734   */\n      swap2\n      swap1\n      pop\n      jump\t// out\n        /* \"#utility.yul\":33770:34521   */\n    tag_317:\n        /* \"#utility.yul\":33886:33889   */\n      0x00\n        /* \"#utility.yul\":33915:33966   */\n      tag_666\n        /* \"#utility.yul\":33960:33965   */\n      dup3\n        /* \"#utility.yul\":33915:33966   */\n      tag_309\n      jump\t// in\n    tag_666:\n        /* \"#utility.yul\":33982:34068   */\n      tag_667\n        /* \"#utility.yul\":34061:34067   */\n      dup2\n        /* \"#utility.yul\":34056:34059   */\n      dup6\n        /* \"#utility.yul\":33982:34068   */\n      tag_310\n      jump\t// in\n    tag_667:\n        /* \"#utility.yul\":33975:34068   */\n      swap4\n      pop\n        /* \"#utility.yul\":34092:34145   */\n      tag_668\n        /* \"#utility.yul\":34139:34144   */\n      dup4\n        /* \"#utility.yul\":34092:34145   */\n      tag_311\n      jump\t// in\n    tag_668:\n        /* \"#utility.yul\":34168:34175   */\n      dup1\n        /* \"#utility.yul\":34199:34200   */\n      0x00\n        /* \"#utility.yul\":34184:34496   */\n    tag_669:\n        /* \"#utility.yul\":34209:34215   */\n      dup4\n        /* \"#utility.yul\":34206:34207   */\n      dup2\n        /* \"#utility.yul\":34203:34216   */\n      lt\n        /* \"#utility.yul\":34184:34496   */\n      iszero\n      tag_671\n      jumpi\n        /* \"#utility.yul\":34279:34323   */\n      tag_672\n        /* \"#utility.yul\":34316:34322   */\n      dup3\n        /* \"#utility.yul\":34279:34323   */\n      tag_315\n      jump\t// in\n    tag_672:\n        /* \"#utility.yul\":34343:34406   */\n      tag_673\n        /* \"#utility.yul\":34402:34405   */\n      dup9\n        /* \"#utility.yul\":34387:34400   */\n      dup3\n        /* \"#utility.yul\":34343:34406   */\n      tag_235\n      jump\t// in\n    tag_673:\n        /* \"#utility.yul\":34336:34406   */\n      swap8\n      pop\n        /* \"#utility.yul\":34429:34486   */\n      tag_674\n        /* \"#utility.yul\":34479:34485   */\n      dup4\n        /* \"#utility.yul\":34429:34486   */\n      tag_316\n      jump\t// in\n    tag_674:\n        /* \"#utility.yul\":34419:34486   */\n      swap3\n      pop\n        /* \"#utility.yul\":34244:34496   */\n      pop\n        /* \"#utility.yul\":34231:34232   */\n      0x01\n        /* \"#utility.yul\":34228:34229   */\n      dup2\n        /* \"#utility.yul\":34224:34233   */\n      add\n        /* \"#utility.yul\":34219:34233   */\n      swap1\n      pop\n        /* \"#utility.yul\":34184:34496   */\n      jump(tag_669)\n    tag_671:\n        /* \"#utility.yul\":34188:34202   */\n      pop\n        /* \"#utility.yul\":34512:34515   */\n      dup6\n        /* \"#utility.yul\":34505:34515   */\n      swap4\n      pop\n        /* \"#utility.yul\":33891:34521   */\n      pop\n      pop\n      pop\n        /* \"#utility.yul\":33770:34521   */\n      swap3\n      swap2\n      pop\n      pop\n      jump\t// out\n        /* \"#utility.yul\":34527:35378   */\n    tag_146:\n        /* \"#utility.yul\":34804:34808   */\n      0x00\n        /* \"#utility.yul\":34842:34844   */\n      0x60\n        /* \"#utility.yul\":34831:34840   */\n      dup3\n        /* \"#utility.yul\":34827:34845   */\n      add\n        /* \"#utility.yul\":34819:34845   */\n      swap1\n      pop\n        /* \"#utility.yul\":34891:34900   */\n      dup2\n        /* \"#utility.yul\":34885:34889   */\n      dup2\n        /* \"#utility.yul\":34881:34901   */\n      sub\n        /* \"#utility.yul\":34877:34878   */\n      0x00\n        /* \"#utility.yul\":34866:34875   */\n      dup4\n        /* \"#utility.yul\":34862:34879   */\n      add\n        /* \"#utility.yul\":34855:34902   */\n      mstore\n        /* \"#utility.yul\":34919:34994   */\n      tag_676\n        /* \"#utility.yul\":34989:34993   */\n      dup2\n        /* \"#utility.yul\":34980:34986   */\n      dup7\n        /* \"#utility.yul\":34919:34994   */\n      tag_301\n      jump\t// in\n    tag_676:\n        /* \"#utility.yul\":34911:34994   */\n      swap1\n      pop\n        /* \"#utility.yul\":35041:35050   */\n      dup2\n        /* \"#utility.yul\":35035:35039   */\n      dup2\n        /* \"#utility.yul\":35031:35051   */\n      sub\n        /* \"#utility.yul\":35026:35028   */\n      0x20\n        /* \"#utility.yul\":35015:35024   */\n      dup4\n        /* \"#utility.yul\":35011:35029   */\n      add\n        /* \"#utility.yul\":35004:35052   */\n      mstore\n        /* \"#utility.yul\":35069:35191   */\n      tag_677\n        /* \"#utility.yul\":35186:35190   */\n      dup2\n        /* \"#utility.yul\":35177:35183   */\n      dup6\n        /* \"#utility.yul\":35069:35191   */\n      tag_308\n      jump\t// in\n    tag_677:\n        /* \"#utility.yul\":35061:35191   */\n      swap1\n      pop\n        /* \"#utility.yul\":35238:35247   */\n      dup2\n        /* \"#utility.yul\":35232:35236   */\n      dup2\n        /* \"#utility.yul\":35228:35248   */\n      sub\n        /* \"#utility.yul\":35223:35225   */\n      0x40\n        /* \"#utility.yul\":35212:35221   */\n      dup4\n        /* \"#utility.yul\":35208:35226   */\n      add\n        /* \"#utility.yul\":35201:35249   */\n      mstore\n        /* \"#utility.yul\":35266:35371   */\n      tag_678\n        /* \"#utility.yul\":35366:35370   */\n      dup2\n        /* \"#utility.yul\":35357:35363   */\n      dup5\n        /* \"#utility.yul\":35266:35371   */\n      tag_317\n      jump\t// in\n    tag_678:\n        /* \"#utility.yul\":35258:35371   */\n      swap1\n      pop\n        /* \"#utility.yul\":34527:35378   */\n      swap5\n      swap4\n      pop\n      pop\n      pop\n      pop\n      jump\t// out\n        /* \"#utility.yul\":35384:35533   */\n    tag_318:\n        /* \"#utility.yul\":35433:35439   */\n      0x00\n        /* \"#utility.yul\":35467:35472   */\n      dup2\n        /* \"#utility.yul\":35461:35473   */\n      sload\n        /* \"#utility.yul\":35451:35473   */\n      swap1\n      pop\n        /* \"#utility.yul\":35493:35526   */\n      tag_680\n        /* \"#utility.yul\":35519:35525   */\n      dup2\n        /* \"#utility.yul\":35493:35526   */\n      tag_51\n      jump\t// in\n    tag_680:\n        /* \"#utility.yul\":35483:35526   */\n      swap1\n      pop\n        /* \"#utility.yul\":35384:35533   */\n      swap2\n      swap1\n      pop\n      jump\t// out\n        /* \"#utility.yul\":35539:36990   */\n    tag_157:\n        /* \"#utility.yul\":35650:35653   */\n      dup2\n        /* \"#utility.yul\":35644:35648   */\n      dup2\n        /* \"#utility.yul\":35641:35654   */\n      sub\n        /* \"#utility.yul\":35638:35664   */\n      tag_682\n      jumpi\n        /* \"#utility.yul\":35657:35662   */\n      pop\n      pop\n      jump(tag_681)\n        /* \"#utility.yul\":35638:35664   */\n    tag_682:\n        /* \"#utility.yul\":35688:35722   */\n      tag_683\n        /* \"#utility.yul\":35718:35721   */\n      dup3\n        /* \"#utility.yul\":35688:35722   */\n      tag_318\n      jump\t// in\n    tag_683:\n        /* \"#utility.yul\":35787:35805   */\n      0xffffffffffffffff\n        /* \"#utility.yul\":35779:35785   */\n      dup2\n        /* \"#utility.yul\":35776:35806   */\n      gt\n        /* \"#utility.yul\":35773:35829   */\n      iszero\n      tag_684\n      jumpi\n        /* \"#utility.yul\":35809:35827   */\n      tag_685\n      tag_249\n      jump\t// in\n    tag_685:\n        /* \"#utility.yul\":35773:35829   */\n    tag_684:\n        /* \"#utility.yul\":35853:35891   */\n      tag_686\n        /* \"#utility.yul\":35885:35889   */\n      dup3\n        /* \"#utility.yul\":35879:35890   */\n      sload\n        /* \"#utility.yul\":35853:35891   */\n      tag_51\n      jump\t// in\n    tag_686:\n        /* \"#utility.yul\":35938:36005   */\n      tag_687\n        /* \"#utility.yul\":35998:36004   */\n      dup3\n        /* \"#utility.yul\":35990:35996   */\n      dup3\n        /* \"#utility.yul\":35984:35988   */\n      dup6\n        /* \"#utility.yul\":35938:36005   */\n      tag_292\n      jump\t// in\n    tag_687:\n        /* \"#utility.yul\":36032:36033   */\n      0x00\n        /* \"#utility.yul\":36061:36063   */\n      0x1f\n        /* \"#utility.yul\":36053:36059   */\n      dup4\n        /* \"#utility.yul\":36050:36064   */\n      gt\n        /* \"#utility.yul\":36078:36079   */\n      0x01\n        /* \"#utility.yul\":36073:36745   */\n      dup2\n      eq\n      tag_689\n      jumpi\n        /* \"#utility.yul\":36789:36790   */\n      0x00\n        /* \"#utility.yul\":36806:36812   */\n      dup5\n        /* \"#utility.yul\":36803:36880   */\n      iszero\n      tag_690\n      jumpi\n        /* \"#utility.yul\":36855:36864   */\n      dup3\n        /* \"#utility.yul\":36850:36853   */\n      dup8\n        /* \"#utility.yul\":36846:36865   */\n      add\n        /* \"#utility.yul\":36840:36866   */\n      sload\n        /* \"#utility.yul\":36831:36866   */\n      swap1\n      pop\n        /* \"#utility.yul\":36803:36880   */\n    tag_690:\n        /* \"#utility.yul\":36906:36973   */\n      tag_691\n        /* \"#utility.yul\":36966:36972   */\n      dup6\n        /* \"#utility.yul\":36959:36964   */\n      dup3\n        /* \"#utility.yul\":36906:36973   */\n      tag_295\n      jump\t// in\n    tag_691:\n        /* \"#utility.yul\":36900:36904   */\n      dup7\n        /* \"#utility.yul\":36893:36974   */\n      sstore\n        /* \"#utility.yul\":36762:36984   */\n      pop\n        /* \"#utility.yul\":36043:36984   */\n      jump(tag_688)\n        /* \"#utility.yul\":36073:36745   */\n    tag_689:\n        /* \"#utility.yul\":36125:36129   */\n      0x1f\n        /* \"#utility.yul\":36121:36130   */\n      not\n        /* \"#utility.yul\":36113:36119   */\n      dup5\n        /* \"#utility.yul\":36109:36131   */\n      and\n        /* \"#utility.yul\":36151:36187   */\n      tag_692\n        /* \"#utility.yul\":36183:36186   */\n      dup8\n        /* \"#utility.yul\":36151:36187   */\n      tag_282\n      jump\t// in\n    tag_692:\n        /* \"#utility.yul\":36144:36187   */\n      swap7\n      pop\n        /* \"#utility.yul\":36214:36251   */\n      tag_693\n        /* \"#utility.yul\":36246:36250   */\n      dup7\n        /* \"#utility.yul\":36214:36251   */\n      tag_282\n      jump\t// in\n    tag_693:\n        /* \"#utility.yul\":36273:36274   */\n      0x00\n        /* \"#utility.yul\":36287:36494   */\n    tag_694:\n        /* \"#utility.yul\":36301:36308   */\n      dup3\n        /* \"#utility.yul\":36298:36299   */\n      dup2\n        /* \"#utility.yul\":36295:36309   */\n      lt\n        /* \"#utility.yul\":36287:36494   */\n      iszero\n      tag_696\n      jumpi\n        /* \"#utility.yul\":36380:36389   */\n      dup5\n        /* \"#utility.yul\":36375:36378   */\n      dup10\n        /* \"#utility.yul\":36371:36390   */\n      add\n        /* \"#utility.yul\":36365:36391   */\n      sload\n        /* \"#utility.yul\":36357:36363   */\n      dup3\n        /* \"#utility.yul\":36350:36392   */\n      sstore\n        /* \"#utility.yul\":36431:36432   */\n      0x01\n        /* \"#utility.yul\":36423:36429   */\n      dup3\n        /* \"#utility.yul\":36419:36433   */\n      add\n        /* \"#utility.yul\":36409:36433   */\n      swap2\n      pop\n        /* \"#utility.yul\":36478:36479   */\n      0x01\n        /* \"#utility.yul\":36467:36476   */\n      dup6\n        /* \"#utility.yul\":36463:36480   */\n      add\n        /* \"#utility.yul\":36450:36480   */\n      swap5\n      pop\n        /* \"#utility.yul\":36324:36328   */\n      0x20\n        /* \"#utility.yul\":36321:36322   */\n      dup2\n        /* \"#utility.yul\":36317:36329   */\n      add\n        /* \"#utility.yul\":36312:36329   */\n      swap1\n      pop\n        /* \"#utility.yul\":36287:36494   */\n      jump(tag_694)\n    tag_696:\n        /* \"#utility.yul\":36522:36528   */\n      dup7\n        /* \"#utility.yul\":36513:36520   */\n      dup4\n        /* \"#utility.yul\":36510:36529   */\n      lt\n        /* \"#utility.yul\":36507:36686   */\n      iszero\n      tag_697\n      jumpi\n        /* \"#utility.yul\":36580:36589   */\n      dup5\n        /* \"#utility.yul\":36575:36578   */\n      dup10\n        /* \"#utility.yul\":36571:36590   */\n      add\n        /* \"#utility.yul\":36565:36591   */\n      sload\n        /* \"#utility.yul\":36623:36671   */\n      tag_698\n        /* \"#utility.yul\":36665:36669   */\n      0x1f\n        /* \"#utility.yul\":36657:36663   */\n      dup10\n        /* \"#utility.yul\":36653:36670   */\n      and\n        /* \"#utility.yul\":36642:36651   */\n      dup3\n        /* \"#utility.yul\":36623:36671   */\n      tag_294\n      jump\t// in\n    tag_698:\n        /* \"#utility.yul\":36615:36621   */\n      dup4\n        /* \"#utility.yul\":36608:36672   */\n      sstore\n        /* \"#utility.yul\":36530:36686   */\n      pop\n        /* \"#utility.yul\":36507:36686   */\n    tag_697:\n        /* \"#utility.yul\":36732:36733   */\n      0x01\n        /* \"#utility.yul\":36728:36729   */\n      0x02\n        /* \"#utility.yul\":36720:36726   */\n      dup9\n        /* \"#utility.yul\":36716:36730   */\n      mul\n        /* \"#utility.yul\":36712:36734   */\n      add\n        /* \"#utility.yul\":36706:36710   */\n      dup9\n        /* \"#utility.yul\":36699:36735   */\n      sstore\n        /* \"#utility.yul\":36080:36745   */\n      pop\n      pop\n      pop\n        /* \"#utility.yul\":36043:36984   */\n    tag_688:\n      pop\n        /* \"#utility.yul\":35628:36990   */\n      pop\n      pop\n      pop\n        /* \"#utility.yul\":35539:36990   */\n      pop\n      pop\n    tag_681:\n      jump\t// out\n        /* \"#utility.yul\":36996:37176   */\n    tag_164:\n        /* \"#utility.yul\":37044:37121   */\n      0x4e487b7100000000000000000000000000000000000000000000000000000000\n        /* \"#utility.yul\":37041:37042   */\n      0x00\n        /* \"#utility.yul\":37034:37122   */\n      mstore\n        /* \"#utility.yul\":37141:37145   */\n      0x31\n        /* \"#utility.yul\":37138:37139   */\n      0x04\n        /* \"#utility.yul\":37131:37146   */\n      mstore\n        /* \"#utility.yul\":37165:37169   */\n      0x24\n        /* \"#utility.yul\":37162:37163   */\n      0x00\n        /* \"#utility.yul\":37155:37170   */\n      revert\n        /* \"#utility.yul\":37182:37329   */\n    tag_319:\n        /* \"#utility.yul\":37283:37294   */\n      0x00\n        /* \"#utility.yul\":37320:37323   */\n      dup2\n        /* \"#utility.yul\":37305:37323   */\n      swap1\n      pop\n        /* \"#utility.yul\":37182:37329   */\n      swap3\n      swap2\n      pop\n      pop\n      jump\t// out\n        /* \"#utility.yul\":37335:37479   */\n    tag_320:\n        /* \"#utility.yul\":37387:37391   */\n      0x00\n        /* \"#utility.yul\":37410:37413   */\n      dup2\n        /* \"#utility.yul\":37402:37413   */\n      swap1\n      pop\n        /* \"#utility.yul\":37433:37436   */\n      dup2\n        /* \"#utility.yul\":37430:37431   */\n      0x00\n        /* \"#utility.yul\":37423:37437   */\n      mstore\n        /* \"#utility.yul\":37467:37471   */\n      0x20\n        /* \"#utility.yul\":37464:37465   */\n      0x00\n        /* \"#utility.yul\":37454:37472   */\n      keccak256\n        /* \"#utility.yul\":37446:37472   */\n      swap1\n      pop\n        /* \"#utility.yul\":37335:37479   */\n      swap2\n      swap1\n      pop\n      jump\t// out\n        /* \"#utility.yul\":37507:38385   */\n    tag_321:\n        /* \"#utility.yul\":37612:37615   */\n      0x00\n        /* \"#utility.yul\":37649:37654   */\n      dup2\n        /* \"#utility.yul\":37643:37655   */\n      sload\n        /* \"#utility.yul\":37678:37714   */\n      tag_703\n        /* \"#utility.yul\":37704:37713   */\n      dup2\n        /* \"#utility.yul\":37678:37714   */\n      tag_51\n      jump\t// in\n    tag_703:\n        /* \"#utility.yul\":37730:37818   */\n      tag_704\n        /* \"#utility.yul\":37811:37817   */\n      dup2\n        /* \"#utility.yul\":37806:37809   */\n      dup7\n        /* \"#utility.yul\":37730:37818   */\n      tag_319\n      jump\t// in\n    tag_704:\n        /* \"#utility.yul\":37723:37818   */\n      swap5\n      pop\n        /* \"#utility.yul\":37849:37850   */\n      0x01\n        /* \"#utility.yul\":37838:37847   */\n      dup3\n        /* \"#utility.yul\":37834:37851   */\n      and\n        /* \"#utility.yul\":37865:37866   */\n      0x00\n        /* \"#utility.yul\":37860:38026   */\n      dup2\n      eq\n      tag_706\n      jumpi\n        /* \"#utility.yul\":38040:38041   */\n      0x01\n        /* \"#utility.yul\":38035:38379   */\n      dup2\n      eq\n      tag_707\n      jumpi\n        /* \"#utility.yul\":37827:38379   */\n      jump(tag_705)\n        /* \"#utility.yul\":37860:38026   */\n    tag_706:\n        /* \"#utility.yul\":37944:37948   */\n      0xff\n        /* \"#utility.yul\":37940:37949   */\n      not\n        /* \"#utility.yul\":37929:37938   */\n      dup4\n        /* \"#utility.yul\":37925:37950   */\n      and\n        /* \"#utility.yul\":37920:37923   */\n      dup7\n        /* \"#utility.yul\":37913:37951   */\n      mstore\n        /* \"#utility.yul\":38006:38012   */\n      dup2\n        /* \"#utility.yul\":37999:38013   */\n      iszero\n        /* \"#utility.yul\":37992:38014   */\n      iszero\n        /* \"#utility.yul\":37984:37990   */\n      dup3\n        /* \"#utility.yul\":37980:38015   */\n      mul\n        /* \"#utility.yul\":37975:37978   */\n      dup7\n        /* \"#utility.yul\":37971:38016   */\n      add\n        /* \"#utility.yul\":37964:38016   */\n      swap4\n      pop\n        /* \"#utility.yul\":37860:38026   */\n      jump(tag_705)\n        /* \"#utility.yul\":38035:38379   */\n    tag_707:\n        /* \"#utility.yul\":38102:38143   */\n      tag_708\n        /* \"#utility.yul\":38137:38142   */\n      dup6\n        /* \"#utility.yul\":38102:38143   */\n      tag_320\n      jump\t// in\n    tag_708:\n        /* \"#utility.yul\":38165:38166   */\n      0x00\n        /* \"#utility.yul\":38179:38333   */\n    tag_709:\n        /* \"#utility.yul\":38193:38199   */\n      dup4\n        /* \"#utility.yul\":38190:38191   */\n      dup2\n        /* \"#utility.yul\":38187:38200   */\n      lt\n        /* \"#utility.yul\":38179:38333   */\n      iszero\n      tag_711\n      jumpi\n        /* \"#utility.yul\":38267:38274   */\n      dup2\n        /* \"#utility.yul\":38261:38275   */\n      sload\n        /* \"#utility.yul\":38257:38258   */\n      dup2\n        /* \"#utility.yul\":38252:38255   */\n      dup10\n        /* \"#utility.yul\":38248:38259   */\n      add\n        /* \"#utility.yul\":38241:38276   */\n      mstore\n        /* \"#utility.yul\":38317:38318   */\n      0x01\n        /* \"#utility.yul\":38308:38315   */\n      dup3\n        /* \"#utility.yul\":38304:38319   */\n      add\n        /* \"#utility.yul\":38293:38319   */\n      swap2\n      pop\n        /* \"#utility.yul\":38215:38219   */\n      0x20\n        /* \"#utility.yul\":38212:38213   */\n      dup2\n        /* \"#utility.yul\":38208:38220   */\n      add\n        /* \"#utility.yul\":38203:38220   */\n      swap1\n      pop\n        /* \"#utility.yul\":38179:38333   */\n      jump(tag_709)\n    tag_711:\n        /* \"#utility.yul\":38362:38368   */\n      dup4\n        /* \"#utility.yul\":38357:38360   */\n      dup9\n        /* \"#utility.yul\":38353:38369   */\n      add\n        /* \"#utility.yul\":38346:38369   */\n      swap6\n      pop\n        /* \"#utility.yul\":38042:38379   */\n      pop\n      pop\n        /* \"#utility.yul\":37827:38379   */\n    tag_705:\n      pop\n        /* \"#utility.yul\":37616:38385   */\n      pop\n      pop\n        /* \"#utility.yul\":37507:38385   */\n      swap3\n      swap2\n      pop\n      pop\n      jump\t// out\n        /* \"#utility.yul\":38391:38664   */\n    tag_180:\n        /* \"#utility.yul\":38522:38525   */\n      0x00\n        /* \"#utility.yul\":38544:38638   */\n      tag_713\n        /* \"#utility.yul\":38634:38637   */\n      dup3\n        /* \"#utility.yul\":38625:38631   */\n      dup5\n        /* \"#utility.yul\":38544:38638   */\n      tag_321\n      jump\t// in\n    tag_713:\n        /* \"#utility.yul\":38537:38638   */\n      swap2\n      pop\n        /* \"#utility.yul\":38655:38658   */\n      dup2\n        /* \"#utility.yul\":38648:38658   */\n      swap1\n      pop\n        /* \"#utility.yul\":38391:38664   */\n      swap3\n      swap2\n      pop\n      pop\n      jump\t// out\n\n    auxdata: 0xa26469706673582212205a41bf524696b15acbf4ccb02a07b727e5862b1ddd330ac93075ee34d7f9d09c64736f6c63430008190033\n}\n",
				"bytecode": {
					"linkReferences": {},
					"object": "6080604052348015600e575f80fd5b503360015f6101000a81548173ffffffffffffffffffffffffffffffffffffffff021916908373ffffffffffffffffffffffffffffffffffffffff1602179055506120f88061005c5f395ff3fe608060405234801561000f575f80fd5b5060043610610086575f3560e01c8063a0a0a81511610059578063a0a0a815146100fe578063a302de161461011c578063b30906d41461013a578063c9d27afe1461016c57610086565b806317be85c31461008a57806322fae27d146100a85780632dcc4387146100c45780638da5cb5b146100e0575b5f80fd5b610092610188565b60405161009f91906110e9565b60405180910390f35b6100c260048036038101906100bd9190611412565b6103e6565b005b6100de60048036038101906100d991906114b6565b6104e7565b005b6100e86105b8565b6040516100f591906114f0565b60405180910390f35b6101066105dd565b6040516101139190611518565b60405180910390f35b610124610726565b604051610131919061158c565b60405180910390f35b610154600480360381019061014f91906115cf565b610749565b60405161016393929190611642565b60405180910390f35b610186600480360381019061018191906116b3565b610804565b005b60606002805480602002602001604051908101604052809291908181526020015f905b828210156103dd578382905f5260205f2090600502016040518060a00160405290815f820180546101db9061171e565b80601f01602080910402602001604051908101604052809291908181526020018280546102079061171e565b80156102525780601f1061022957610100808354040283529160200191610252565b820191905f5260205f20905b81548152906001019060200180831161023557829003601f168201915b5050505050815260200160018201805480602002602001604051908101604052809291908181526020015f905b82821015610327578382905f5260205f2001805461029c9061171e565b80601f01602080910402602001604051908101604052809291908181526020018280546102c89061171e565b80156103135780601f106102ea57610100808354040283529160200191610313565b820191905f5260205f20905b8154815290600101906020018083116102f657829003601f168201915b50505050508152602001906001019061027f565b505050508152602001600282018054806020026020016040519081016040528092919081815260200182805480156103b157602002820191905f5260205f20905b815f9054906101000a900473ffffffffffffffffffffffffffffffffffffffff1673ffffffffffffffffffffffffffffffffffffffff1681526020019060010190808311610368575b5050505050815260200160038201548152602001600482015481525050815260200190600101906101ab565b50505050905090565b6103ef83610acc565b1561042f576040517f08c379a000000000000000000000000000000000000000000000000000000000815260040161042690611798565b60405180910390fd5b60026040518060a001604052808581526020018481526020018381526020015f81526020015f815250908060018154018082558091505060019003905f5260205f2090600502015f909190919091505f820151815f019081610491919061194a565b5060208201518160010190805190602001906104ae929190610b47565b5060408201518160020190805190602001906104cb929190610b9e565b5060608201518160030155608082015181600401555050505050565b60015f9054906101000a900473ffffffffffffffffffffffffffffffffffffffff1673ffffffffffffffffffffffffffffffffffffffff163373ffffffffffffffffffffffffffffffffffffffff1614610576576040517f08c379a000000000000000000000000000000000000000000000000000000000815260040161056d90611a63565b60405180910390fd5b805f806101000a81548173ffffffffffffffffffffffffffffffffffffffff021916908373ffffffffffffffffffffffffffffffffffffffff16021790555050565b60015f9054906101000a900473ffffffffffffffffffffffffffffffffffffffff1681565b5f80600280549050036105f5576201869f9050610723565b5f8060025f8154811061060b5761060a611a81565b5b905f5260205f2090600502016004015460025f8154811061062f5761062e611a81565b5b905f5260205f209060050201600301546106499190611adb565b90505f600190505b60028054905081101561071c57816002828154811061067357610672611a81565b5b905f5260205f209060050201600401546002838154811061069757610696611a81565b5b905f5260205f209060050201600301546106b19190611adb565b101561070f57809250600281815481106106ce576106cd611a81565b5b905f5260205f20906005020160040154600282815481106106f2576106f1611a81565b5b905f5260205f2090600502016003015461070c9190611adb565b91505b8080600101915050610651565b5081925050505b90565b5f8054906101000a900473ffffffffffffffffffffffffffffffffffffffff1681565b60028181548110610758575f80fd5b905f5260205f2090600502015f91509050805f0180546107779061171e565b80601f01602080910402602001604051908101604052809291908181526020018280546107a39061171e565b80156107ee5780601f106107c5576101008083540402835291602001916107ee565b820191905f5260205f20905b8154815290600101906020018083116107d157829003601f168201915b5050505050908060030154908060040154905083565b816002805490501161084b576040517f08c379a000000000000000000000000000000000000000000000000000000000815260040161084290611b58565b60405180910390fd5b5f600283815481106108605761085f611a81565b5b905f5260205f2090600502019050811561089257806003015f81548092919061088890611b76565b91905055506108ac565b806004015f8154809291906108a690611b76565b91905055505b6005816004015482600301546108c29190611adb565b03610ac7575f60016002805490506108da9190611bbd565b90505f8054906101000a900473ffffffffffffffffffffffffffffffffffffffff1673ffffffffffffffffffffffffffffffffffffffff1663fd3cbf956002868154811061092b5761092a611a81565b5b905f5260205f2090600502015f016002878154811061094d5761094c611a81565b5b905f5260205f209060050201600101600288815481106109705761096f611a81565b5b905f5260205f2090600502016002016040518463ffffffff1660e01b815260040161099d93929190611e9f565b5f604051808303815f87803b1580156109b4575f80fd5b505af11580156109c6573d5f803e3d5ffd5b50505050600281815481106109de576109dd611a81565b5b905f5260205f209060050201600285815481106109fe576109fd611a81565b5b905f5260205f2090600502015f8201815f019081610a1c9190611efe565b506001820181600101908054610a33929190610c25565b506002820181600201908054610a4a929190610c7e565b5060038201548160030155600482015481600401559050506002805480610a7457610a73611fe3565b5b600190038181905f5260205f2090600502015f8082015f610a959190610ccc565b600182015f610aa49190610d09565b600282015f610ab39190610d27565b600382015f9055600482015f905550509055505b505050565b5f808290505f5b600280549050811015610b3c57818051906020012060028281548110610afc57610afb611a81565b5b905f5260205f2090600502015f01604051610b1791906120ac565b604051809103902003610b2f57600192505050610b42565b8080600101915050610ad3565b505f9150505b919050565b828054828255905f5260205f20908101928215610b8d579160200282015b82811115610b8c578251829081610b7c919061194a565b5091602001919060010190610b65565b5b509050610b9a9190610d45565b5090565b828054828255905f5260205f20908101928215610c14579160200282015b82811115610c13578251825f6101000a81548173ffffffffffffffffffffffffffffffffffffffff021916908373ffffffffffffffffffffffffffffffffffffffff16021790555091602001919060010190610bbc565b5b509050610c219190610d68565b5090565b828054828255905f5260205f20908101928215610c6d575f5260205f209182015b82811115610c6c5782829081610c5c9190611efe565b5091600101919060010190610c46565b5b509050610c7a9190610d45565b5090565b828054828255905f5260205f20908101928215610cbb575f5260205f209182015b82811115610cba578254825591600101919060010190610c9f565b5b509050610cc89190610d68565b5090565b508054610cd89061171e565b5f825580601f10610ce95750610d06565b601f0160209004905f5260205f2090810190610d059190610d68565b5b50565b5080545f8255905f5260205f2090810190610d249190610d45565b50565b5080545f8255905f5260205f2090810190610d429190610d68565b50565b5b80821115610d64575f8181610d5b9190610ccc565b50600101610d46565b5090565b5b80821115610d7f575f815f905550600101610d69565b5090565b5f81519050919050565b5f82825260208201905092915050565b5f819050602082019050919050565b5f81519050919050565b5f82825260208201905092915050565b8281835e5f83830152505050565b5f601f19601f8301169050919050565b5f610dee82610dac565b610df88185610db6565b9350610e08818560208601610dc6565b610e1181610dd4565b840191505092915050565b5f81519050919050565b5f82825260208201905092915050565b5f819050602082019050919050565b5f610e508383610de4565b905092915050565b5f602082019050919050565b5f610e6e82610e1c565b610e788185610e26565b935083602082028501610e8a85610e36565b805f5b85811015610ec55784840389528151610ea68582610e45565b9450610eb183610e58565b925060208a01995050600181019050610e8d565b50829750879550505050505092915050565b5f81519050919050565b5f82825260208201905092915050565b5f819050602082019050919050565b5f73ffffffffffffffffffffffffffffffffffffffff82169050919050565b5f610f2982610f00565b9050919050565b610f3981610f1f565b82525050565b5f610f4a8383610f30565b60208301905092915050565b5f602082019050919050565b5f610f6c82610ed7565b610f768185610ee1565b9350610f8183610ef1565b805f5b83811015610fb1578151610f988882610f3f565b9750610fa383610f56565b925050600181019050610f84565b5085935050505092915050565b5f819050919050565b610fd081610fbe565b82525050565b5f60a083015f8301518482035f860152610ff08282610de4565b9150506020830151848203602086015261100a8282610e64565b915050604083015184820360408601526110248282610f62565b91505060608301516110396060860182610fc7565b50608083015161104c6080860182610fc7565b508091505092915050565b5f6110628383610fd6565b905092915050565b5f602082019050919050565b5f61108082610d83565b61108a8185610d8d565b93508360208202850161109c85610d9d565b805f5b858110156110d757848403895281516110b88582611057565b94506110c38361106a565b925060208a0199505060018101905061109f565b50829750879550505050505092915050565b5f6020820190508181035f8301526111018184611076565b905092915050565b5f604051905090565b5f80fd5b5f80fd5b5f80fd5b5f80fd5b7f4e487b71000000000000000000000000000000000000000000000000000000005f52604160045260245ffd5b61115882610dd4565b810181811067ffffffffffffffff8211171561117757611176611122565b5b80604052505050565b5f611189611109565b9050611195828261114f565b919050565b5f67ffffffffffffffff8211156111b4576111b3611122565b5b6111bd82610dd4565b9050602081019050919050565b828183375f83830152505050565b5f6111ea6111e58461119a565b611180565b9050828152602081018484840111156112065761120561111e565b5b6112118482856111ca565b509392505050565b5f82601f83011261122d5761122c61111a565b5b813561123d8482602086016111d8565b91505092915050565b5f67ffffffffffffffff8211156112605761125f611122565b5b602082029050602081019050919050565b5f80fd5b5f61128761128284611246565b611180565b905080838252602082019050602084028301858111156112aa576112a9611271565b5b835b818110156112f157803567ffffffffffffffff8111156112cf576112ce61111a565b5b8086016112dc8982611219565b855260208501945050506020810190506112ac565b5050509392505050565b5f82601f83011261130f5761130e61111a565b5b813561131f848260208601611275565b91505092915050565b5f67ffffffffffffffff82111561134257611341611122565b5b602082029050602081019050919050565b61135c81610f1f565b8114611366575f80fd5b50565b5f8135905061137781611353565b92915050565b5f61138f61138a84611328565b611180565b905080838252602082019050602084028301858111156113b2576113b1611271565b5b835b818110156113db57806113c78882611369565b8452602084019350506020810190506113b4565b5050509392505050565b5f82601f8301126113f9576113f861111a565b5b813561140984826020860161137d565b91505092915050565b5f805f6060848603121561142957611428611112565b5b5f84013567ffffffffffffffff81111561144657611445611116565b5b61145286828701611219565b935050602084013567ffffffffffffffff81111561147357611472611116565b5b61147f868287016112fb565b925050604084013567ffffffffffffffff8111156114a05761149f611116565b5b6114ac868287016113e5565b9150509250925092565b5f602082840312156114cb576114ca611112565b5b5f6114d884828501611369565b91505092915050565b6114ea81610f1f565b82525050565b5f6020820190506115035f8301846114e1565b92915050565b61151281610fbe565b82525050565b5f60208201905061152b5f830184611509565b92915050565b5f819050919050565b5f61155461154f61154a84610f00565b611531565b610f00565b9050919050565b5f6115658261153a565b9050919050565b5f6115768261155b565b9050919050565b6115868161156c565b82525050565b5f60208201905061159f5f83018461157d565b92915050565b6115ae81610fbe565b81146115b8575f80fd5b50565b5f813590506115c9816115a5565b92915050565b5f602082840312156115e4576115e3611112565b5b5f6115f1848285016115bb565b91505092915050565b5f82825260208201905092915050565b5f61161482610dac565b61161e81856115fa565b935061162e818560208601610dc6565b61163781610dd4565b840191505092915050565b5f6060820190508181035f83015261165a818661160a565b90506116696020830185611509565b6116766040830184611509565b949350505050565b5f8115159050919050565b6116928161167e565b811461169c575f80fd5b50565b5f813590506116ad81611689565b92915050565b5f80604083850312156116c9576116c8611112565b5b5f6116d6858286016115bb565b92505060206116e78582860161169f565b9150509250929050565b7f4e487b71000000000000000000000000000000000000000000000000000000005f52602260045260245ffd5b5f600282049050600182168061173557607f821691505b602082108103611748576117476116f1565b5b50919050565b7f456e747279204944206d75737420626520756e697175650000000000000000005f82015250565b5f6117826017836115fa565b915061178d8261174e565b602082019050919050565b5f6020820190508181035f8301526117af81611776565b9050919050565b5f819050815f5260205f209050919050565b5f6020601f8301049050919050565b5f82821b905092915050565b5f600883026118127fffffffffffffffffffffffffffffffffffffffffffffffffffffffffffffffff826117d7565b61181c86836117d7565b95508019841693508086168417925050509392505050565b5f61184e61184961184484610fbe565b611531565b610fbe565b9050919050565b5f819050919050565b61186783611834565b61187b61187382611855565b8484546117e3565b825550505050565b5f90565b61188f611883565b61189a81848461185e565b505050565b5b818110156118bd576118b25f82611887565b6001810190506118a0565b5050565b601f821115611902576118d3816117b6565b6118dc846117c8565b810160208510156118eb578190505b6118ff6118f7856117c8565b83018261189f565b50505b505050565b5f82821c905092915050565b5f6119225f1984600802611907565b1980831691505092915050565b5f61193a8383611913565b9150826002028217905092915050565b61195382610dac565b67ffffffffffffffff81111561196c5761196b611122565b5b611976825461171e565b6119818282856118c1565b5f60209050601f8311600181146119b2575f84156119a0578287015190505b6119aa858261192f565b865550611a11565b601f1984166119c0866117b6565b5f5b828110156119e7578489015182556001820191506020850194506020810190506119c2565b86831015611a045784890151611a00601f891682611913565b8355505b6001600288020188555050505b505050505050565b7f596f7520617265206e6f7420746865206f776e65722e000000000000000000005f82015250565b5f611a4d6016836115fa565b9150611a5882611a19565b602082019050919050565b5f6020820190508181035f830152611a7a81611a41565b9050919050565b7f4e487b71000000000000000000000000000000000000000000000000000000005f52603260045260245ffd5b7f4e487b71000000000000000000000000000000000000000000000000000000005f52601160045260245ffd5b5f611ae582610fbe565b9150611af083610fbe565b9250828201905080821115611b0857611b07611aae565b5b92915050565b7f456e74727920646f6573206e6f742065786973740000000000000000000000005f82015250565b5f611b426014836115fa565b9150611b4d82611b0e565b602082019050919050565b5f6020820190508181035f830152611b6f81611b36565b9050919050565b5f611b8082610fbe565b91507fffffffffffffffffffffffffffffffffffffffffffffffffffffffffffffffff8203611bb257611bb1611aae565b5b600182019050919050565b5f611bc782610fbe565b9150611bd283610fbe565b9250828203905081811115611bea57611be9611aae565b5b92915050565b5f8154611bfc8161171e565b611c0681866115fa565b9450600182165f8114611c205760018114611c3657611c68565b60ff198316865281151560200286019350611c68565b611c3f856117b6565b5f5b83811015611c6057815481890152600182019150602081019050611c41565b808801955050505b50505092915050565b5f81549050919050565b5f82825260208201905092915050565b5f819050815f5260205f209050919050565b5f8154611ca98161171e565b611cb38186610db6565b9450600182165f8114611ccd5760018114611ce357611d15565b60ff198316865281151560200286019350611d15565b611cec856117b6565b5f5b83811015611d0d57815481890152600182019150602081019050611cee565b808801955050505b50505092915050565b5f611d298383611c9d565b905092915050565b5f600182019050919050565b5f611d4782611c71565b611d518185611c7b565b935083602082028501611d6385611c8b565b805f5b85811015611d9d57848403895281611d7e8582611d1e565b9450611d8983611d31565b925060208a01995050600181019050611d66565b50829750879550505050505092915050565b5f81549050919050565b5f82825260208201905092915050565b5f819050815f5260205f209050919050565b5f815f1c9050919050565b5f73ffffffffffffffffffffffffffffffffffffffff82169050919050565b5f611e17611e1283611ddb565b611de6565b9050919050565b5f611e298254611e05565b9050919050565b5f600182019050919050565b5f611e4682611daf565b611e508185611db9565b9350611e5b83611dc9565b805f5b83811015611e9257611e6f82611e1e565b611e798882610f3f565b9750611e8483611e30565b925050600181019050611e5e565b5085935050505092915050565b5f6060820190508181035f830152611eb78186611bf0565b90508181036020830152611ecb8185611d3d565b90508181036040830152611edf8184611e3c565b9050949350505050565b5f81549050611ef78161171e565b9050919050565b818103611f0c575050611fe1565b611f1582611ee9565b67ffffffffffffffff811115611f2e57611f2d611122565b5b611f38825461171e565b611f438282856118c1565b5f601f831160018114611f70575f8415611f5e578287015490505b611f68858261192f565b865550611fda565b601f198416611f7e876117b6565b9650611f89866117b6565b5f5b82811015611fb057848901548255600182019150600185019450602081019050611f8b565b86831015611fcd5784890154611fc9601f891682611913565b8355505b6001600288020188555050505b5050505050505b565b7f4e487b71000000000000000000000000000000000000000000000000000000005f52603160045260245ffd5b5f81905092915050565b5f819050815f5260205f209050919050565b5f81546120388161171e565b6120428186612010565b9450600182165f811461205c5760018114612071576120a3565b60ff19831686528115158202860193506120a3565b61207a8561201a565b5f5b8381101561209b5781548189015260018201915060208101905061207c565b838801955050505b50505092915050565b5f6120b7828461202c565b91508190509291505056fea26469706673582212205a41bf524696b15acbf4ccb02a07b727e5862b1ddd330ac93075ee34d7f9d09c64736f6c63430008190033",
					"opcodes": "PUSH1 0x80 PUSH1 0x40 MSTORE CALLVALUE DUP1 ISZERO PUSH1 0xE JUMPI PUSH0 DUP1 REVERT JUMPDEST POP CALLER PUSH1 0x1 PUSH0 PUSH2 0x100 EXP DUP2 SLOAD DUP2 PUSH20 0xFFFFFFFFFFFFFFFFFFFFFFFFFFFFFFFFFFFFFFFF MUL NOT AND SWAP1 DUP4 PUSH20 0xFFFFFFFFFFFFFFFFFFFFFFFFFFFFFFFFFFFFFFFF AND MUL OR SWAP1 SSTORE POP PUSH2 0x20F8 DUP1 PUSH2 0x5C PUSH0 CODECOPY PUSH0 RETURN INVALID PUSH1 0x80 PUSH1 0x40 MSTORE CALLVALUE DUP1 ISZERO PUSH2 0xF JUMPI PUSH0 DUP1 REVERT JUMPDEST POP PUSH1 0x4 CALLDATASIZE LT PUSH2 0x86 JUMPI PUSH0 CALLDATALOAD PUSH1 0xE0 SHR DUP1 PUSH4 0xA0A0A815 GT PUSH2 0x59 JUMPI DUP1 PUSH4 0xA0A0A815 EQ PUSH2 0xFE JUMPI DUP1 PUSH4 0xA302DE16 EQ PUSH2 0x11C JUMPI DUP1 PUSH4 0xB30906D4 EQ PUSH2 0x13A JUMPI DUP1 PUSH4 0xC9D27AFE EQ PUSH2 0x16C JUMPI PUSH2 0x86 JUMP JUMPDEST DUP1 PUSH4 0x17BE85C3 EQ PUSH2 0x8A JUMPI DUP1 PUSH4 0x22FAE27D EQ PUSH2 0xA8 JUMPI DUP1 PUSH4 0x2DCC4387 EQ PUSH2 0xC4 JUMPI DUP1 PUSH4 0x8DA5CB5B EQ PUSH2 0xE0 JUMPI JUMPDEST PUSH0 DUP1 REVERT JUMPDEST PUSH2 0x92 PUSH2 0x188 JUMP JUMPDEST PUSH1 0x40 MLOAD PUSH2 0x9F SWAP2 SWAP1 PUSH2 0x10E9 JUMP JUMPDEST PUSH1 0x40 MLOAD DUP1 SWAP2 SUB SWAP1 RETURN JUMPDEST PUSH2 0xC2 PUSH1 0x4 DUP1 CALLDATASIZE SUB DUP2 ADD SWAP1 PUSH2 0xBD SWAP2 SWAP1 PUSH2 0x1412 JUMP JUMPDEST PUSH2 0x3E6 JUMP JUMPDEST STOP JUMPDEST PUSH2 0xDE PUSH1 0x4 DUP1 CALLDATASIZE SUB DUP2 ADD SWAP1 PUSH2 0xD9 SWAP2 SWAP1 PUSH2 0x14B6 JUMP JUMPDEST PUSH2 0x4E7 JUMP JUMPDEST STOP JUMPDEST PUSH2 0xE8 PUSH2 0x5B8 JUMP JUMPDEST PUSH1 0x40 MLOAD PUSH2 0xF5 SWAP2 SWAP1 PUSH2 0x14F0 JUMP JUMPDEST PUSH1 0x40 MLOAD DUP1 SWAP2 SUB SWAP1 RETURN JUMPDEST PUSH2 0x106 PUSH2 0x5DD JUMP JUMPDEST PUSH1 0x40 MLOAD PUSH2 0x113 SWAP2 SWAP1 PUSH2 0x1518 JUMP JUMPDEST PUSH1 0x40 MLOAD DUP1 SWAP2 SUB SWAP1 RETURN JUMPDEST PUSH2 0x124 PUSH2 0x726 JUMP JUMPDEST PUSH1 0x40 MLOAD PUSH2 0x131 SWAP2 SWAP1 PUSH2 0x158C JUMP JUMPDEST PUSH1 0x40 MLOAD DUP1 SWAP2 SUB SWAP1 RETURN JUMPDEST PUSH2 0x154 PUSH1 0x4 DUP1 CALLDATASIZE SUB DUP2 ADD SWAP1 PUSH2 0x14F SWAP2 SWAP1 PUSH2 0x15CF JUMP JUMPDEST PUSH2 0x749 JUMP JUMPDEST PUSH1 0x40 MLOAD PUSH2 0x163 SWAP4 SWAP3 SWAP2 SWAP1 PUSH2 0x1642 JUMP JUMPDEST PUSH1 0x40 MLOAD DUP1 SWAP2 SUB SWAP1 RETURN JUMPDEST PUSH2 0x186 PUSH1 0x4 DUP1 CALLDATASIZE SUB DUP2 ADD SWAP1 PUSH2 0x181 SWAP2 SWAP1 PUSH2 0x16B3 JUMP JUMPDEST PUSH2 0x804 JUMP JUMPDEST STOP JUMPDEST PUSH1 0x60 PUSH1 0x2 DUP1 SLOAD DUP1 PUSH1 0x20 MUL PUSH1 0x20 ADD PUSH1 0x40 MLOAD SWAP1 DUP2 ADD PUSH1 0x40 MSTORE DUP1 SWAP3 SWAP2 SWAP1 DUP2 DUP2 MSTORE PUSH1 0x20 ADD PUSH0 SWAP1 JUMPDEST DUP3 DUP3 LT ISZERO PUSH2 0x3DD JUMPI DUP4 DUP3 SWAP1 PUSH0 MSTORE PUSH1 0x20 PUSH0 KECCAK256 SWAP1 PUSH1 0x5 MUL ADD PUSH1 0x40 MLOAD DUP1 PUSH1 0xA0 ADD PUSH1 0x40 MSTORE SWAP1 DUP2 PUSH0 DUP3 ADD DUP1 SLOAD PUSH2 0x1DB SWAP1 PUSH2 0x171E JUMP JUMPDEST DUP1 PUSH1 0x1F ADD PUSH1 0x20 DUP1 SWAP2 DIV MUL PUSH1 0x20 ADD PUSH1 0x40 MLOAD SWAP1 DUP2 ADD PUSH1 0x40 MSTORE DUP1 SWAP3 SWAP2 SWAP1 DUP2 DUP2 MSTORE PUSH1 0x20 ADD DUP3 DUP1 SLOAD PUSH2 0x207 SWAP1 PUSH2 0x171E JUMP JUMPDEST DUP1 ISZERO PUSH2 0x252 JUMPI DUP1 PUSH1 0x1F LT PUSH2 0x229 JUMPI PUSH2 0x100 DUP1 DUP4 SLOAD DIV MUL DUP4 MSTORE SWAP2 PUSH1 0x20 ADD SWAP2 PUSH2 0x252 JUMP JUMPDEST DUP3 ADD SWAP2 SWAP1 PUSH0 MSTORE PUSH1 0x20 PUSH0 KECCAK256 SWAP1 JUMPDEST DUP2 SLOAD DUP2 MSTORE SWAP1 PUSH1 0x1 ADD SWAP1 PUSH1 0x20 ADD DUP1 DUP4 GT PUSH2 0x235 JUMPI DUP3 SWAP1 SUB PUSH1 0x1F AND DUP3 ADD SWAP2 JUMPDEST POP POP POP POP POP DUP2 MSTORE PUSH1 0x20 ADD PUSH1 0x1 DUP3 ADD DUP1 SLOAD DUP1 PUSH1 0x20 MUL PUSH1 0x20 ADD PUSH1 0x40 MLOAD SWAP1 DUP2 ADD PUSH1 0x40 MSTORE DUP1 SWAP3 SWAP2 SWAP1 DUP2 DUP2 MSTORE PUSH1 0x20 ADD PUSH0 SWAP1 JUMPDEST DUP3 DUP3 LT ISZERO PUSH2 0x327 JUMPI DUP4 DUP3 SWAP1 PUSH0 MSTORE PUSH1 0x20 PUSH0 KECCAK256 ADD DUP1 SLOAD PUSH2 0x29C SWAP1 PUSH2 0x171E JUMP JUMPDEST DUP1 PUSH1 0x1F ADD PUSH1 0x20 DUP1 SWAP2 DIV MUL PUSH1 0x20 ADD PUSH1 0x40 MLOAD SWAP1 DUP2 ADD PUSH1 0x40 MSTORE DUP1 SWAP3 SWAP2 SWAP1 DUP2 DUP2 MSTORE PUSH1 0x20 ADD DUP3 DUP1 SLOAD PUSH2 0x2C8 SWAP1 PUSH2 0x171E JUMP JUMPDEST DUP1 ISZERO PUSH2 0x313 JUMPI DUP1 PUSH1 0x1F LT PUSH2 0x2EA JUMPI PUSH2 0x100 DUP1 DUP4 SLOAD DIV MUL DUP4 MSTORE SWAP2 PUSH1 0x20 ADD SWAP2 PUSH2 0x313 JUMP JUMPDEST DUP3 ADD SWAP2 SWAP1 PUSH0 MSTORE PUSH1 0x20 PUSH0 KECCAK256 SWAP1 JUMPDEST DUP2 SLOAD DUP2 MSTORE SWAP1 PUSH1 0x1 ADD SWAP1 PUSH1 0x20 ADD DUP1 DUP4 GT PUSH2 0x2F6 JUMPI DUP3 SWAP1 SUB PUSH1 0x1F AND DUP3 ADD SWAP2 JUMPDEST POP POP POP POP POP DUP2 MSTORE PUSH1 0x20 ADD SWAP1 PUSH1 0x1 ADD SWAP1 PUSH2 0x27F JUMP JUMPDEST POP POP POP POP DUP2 MSTORE PUSH1 0x20 ADD PUSH1 0x2 DUP3 ADD DUP1 SLOAD DUP1 PUSH1 0x20 MUL PUSH1 0x20 ADD PUSH1 0x40 MLOAD SWAP1 DUP2 ADD PUSH1 0x40 MSTORE DUP1 SWAP3 SWAP2 SWAP1 DUP2 DUP2 MSTORE PUSH1 0x20 ADD DUP3 DUP1 SLOAD DUP1 ISZERO PUSH2 0x3B1 JUMPI PUSH1 0x20 MUL DUP3 ADD SWAP2 SWAP1 PUSH0 MSTORE PUSH1 0x20 PUSH0 KECCAK256 SWAP1 JUMPDEST DUP2 PUSH0 SWAP1 SLOAD SWAP1 PUSH2 0x100 EXP SWAP1 DIV PUSH20 0xFFFFFFFFFFFFFFFFFFFFFFFFFFFFFFFFFFFFFFFF AND PUSH20 0xFFFFFFFFFFFFFFFFFFFFFFFFFFFFFFFFFFFFFFFF AND DUP2 MSTORE PUSH1 0x20 ADD SWAP1 PUSH1 0x1 ADD SWAP1 DUP1 DUP4 GT PUSH2 0x368 JUMPI JUMPDEST POP POP POP POP POP DUP2 MSTORE PUSH1 0x20 ADD PUSH1 0x3 DUP3 ADD SLOAD DUP2 MSTORE PUSH1 0x20 ADD PUSH1 0x4 DUP3 ADD SLOAD DUP2 MSTORE POP POP DUP2 MSTORE PUSH1 0x20 ADD SWAP1 PUSH1 0x1 ADD SWAP1 PUSH2 0x1AB JUMP JUMPDEST POP POP POP POP SWAP1 POP SWAP1 JUMP JUMPDEST PUSH2 0x3EF DUP4 PUSH2 0xACC JUMP JUMPDEST ISZERO PUSH2 0x42F JUMPI PUSH1 0x40 MLOAD PUSH32 0x8C379A000000000000000000000000000000000000000000000000000000000 DUP2 MSTORE PUSH1 0x4 ADD PUSH2 0x426 SWAP1 PUSH2 0x1798 JUMP JUMPDEST PUSH1 0x40 MLOAD DUP1 SWAP2 SUB SWAP1 REVERT JUMPDEST PUSH1 0x2 PUSH1 0x40 MLOAD DUP1 PUSH1 0xA0 ADD PUSH1 0x40 MSTORE DUP1 DUP6 DUP2 MSTORE PUSH1 0x20 ADD DUP5 DUP2 MSTORE PUSH1 0x20 ADD DUP4 DUP2 MSTORE PUSH1 0x20 ADD PUSH0 DUP2 MSTORE PUSH1 0x20 ADD PUSH0 DUP2 MSTORE POP SWAP1 DUP1 PUSH1 0x1 DUP2 SLOAD ADD DUP1 DUP3 SSTORE DUP1 SWAP2 POP POP PUSH1 0x1 SWAP1 SUB SWAP1 PUSH0 MSTORE PUSH1 0x20 PUSH0 KECCAK256 SWAP1 PUSH1 0x5 MUL ADD PUSH0 SWAP1 SWAP2 SWAP1 SWAP2 SWAP1 SWAP2 POP PUSH0 DUP3 ADD MLOAD DUP2 PUSH0 ADD SWAP1 DUP2 PUSH2 0x491 SWAP2 SWAP1 PUSH2 0x194A JUMP JUMPDEST POP PUSH1 0x20 DUP3 ADD MLOAD DUP2 PUSH1 0x1 ADD SWAP1 DUP1 MLOAD SWAP1 PUSH1 0x20 ADD SWAP1 PUSH2 0x4AE SWAP3 SWAP2 SWAP1 PUSH2 0xB47 JUMP JUMPDEST POP PUSH1 0x40 DUP3 ADD MLOAD DUP2 PUSH1 0x2 ADD SWAP1 DUP1 MLOAD SWAP1 PUSH1 0x20 ADD SWAP1 PUSH2 0x4CB SWAP3 SWAP2 SWAP1 PUSH2 0xB9E JUMP JUMPDEST POP PUSH1 0x60 DUP3 ADD MLOAD DUP2 PUSH1 0x3 ADD SSTORE PUSH1 0x80 DUP3 ADD MLOAD DUP2 PUSH1 0x4 ADD SSTORE POP POP POP POP POP JUMP JUMPDEST PUSH1 0x1 PUSH0 SWAP1 SLOAD SWAP1 PUSH2 0x100 EXP SWAP1 DIV PUSH20 0xFFFFFFFFFFFFFFFFFFFFFFFFFFFFFFFFFFFFFFFF AND PUSH20 0xFFFFFFFFFFFFFFFFFFFFFFFFFFFFFFFFFFFFFFFF AND CALLER PUSH20 0xFFFFFFFFFFFFFFFFFFFFFFFFFFFFFFFFFFFFFFFF AND EQ PUSH2 0x576 JUMPI PUSH1 0x40 MLOAD PUSH32 0x8C379A000000000000000000000000000000000000000000000000000000000 DUP2 MSTORE PUSH1 0x4 ADD PUSH2 0x56D SWAP1 PUSH2 0x1A63 JUMP JUMPDEST PUSH1 0x40 MLOAD DUP1 SWAP2 SUB SWAP1 REVERT JUMPDEST DUP1 PUSH0 DUP1 PUSH2 0x100 EXP DUP2 SLOAD DUP2 PUSH20 0xFFFFFFFFFFFFFFFFFFFFFFFFFFFFFFFFFFFFFFFF MUL NOT AND SWAP1 DUP4 PUSH20 0xFFFFFFFFFFFFFFFFFFFFFFFFFFFFFFFFFFFFFFFF AND MUL OR SWAP1 SSTORE POP POP JUMP JUMPDEST PUSH1 0x1 PUSH0 SWAP1 SLOAD SWAP1 PUSH2 0x100 EXP SWAP1 DIV PUSH20 0xFFFFFFFFFFFFFFFFFFFFFFFFFFFFFFFFFFFFFFFF AND DUP2 JUMP JUMPDEST PUSH0 DUP1 PUSH1 0x2 DUP1 SLOAD SWAP1 POP SUB PUSH2 0x5F5 JUMPI PUSH3 0x1869F SWAP1 POP PUSH2 0x723 JUMP JUMPDEST PUSH0 DUP1 PUSH1 0x2 PUSH0 DUP2 SLOAD DUP2 LT PUSH2 0x60B JUMPI PUSH2 0x60A PUSH2 0x1A81 JUMP JUMPDEST JUMPDEST SWAP1 PUSH0 MSTORE PUSH1 0x20 PUSH0 KECCAK256 SWAP1 PUSH1 0x5 MUL ADD PUSH1 0x4 ADD SLOAD PUSH1 0x2 PUSH0 DUP2 SLOAD DUP2 LT PUSH2 0x62F JUMPI PUSH2 0x62E PUSH2 0x1A81 JUMP JUMPDEST JUMPDEST SWAP1 PUSH0 MSTORE PUSH1 0x20 PUSH0 KECCAK256 SWAP1 PUSH1 0x5 MUL ADD PUSH1 0x3 ADD SLOAD PUSH2 0x649 SWAP2 SWAP1 PUSH2 0x1ADB JUMP JUMPDEST SWAP1 POP PUSH0 PUSH1 0x1 SWAP1 POP JUMPDEST PUSH1 0x2 DUP1 SLOAD SWAP1 POP DUP2 LT ISZERO PUSH2 0x71C JUMPI DUP2 PUSH1 0x2 DUP3 DUP2 SLOAD DUP2 LT PUSH2 0x673 JUMPI PUSH2 0x672 PUSH2 0x1A81 JUMP JUMPDEST JUMPDEST SWAP1 PUSH0 MSTORE PUSH1 0x20 PUSH0 KECCAK256 SWAP1 PUSH1 0x5 MUL ADD PUSH1 0x4 ADD SLOAD PUSH1 0x2 DUP4 DUP2 SLOAD DUP2 LT PUSH2 0x697 JUMPI PUSH2 0x696 PUSH2 0x1A81 JUMP JUMPDEST JUMPDEST SWAP1 PUSH0 MSTORE PUSH1 0x20 PUSH0 KECCAK256 SWAP1 PUSH1 0x5 MUL ADD PUSH1 0x3 ADD SLOAD PUSH2 0x6B1 SWAP2 SWAP1 PUSH2 0x1ADB JUMP JUMPDEST LT ISZERO PUSH2 0x70F JUMPI DUP1 SWAP3 POP PUSH1 0x2 DUP2 DUP2 SLOAD DUP2 LT PUSH2 0x6CE JUMPI PUSH2 0x6CD PUSH2 0x1A81 JUMP JUMPDEST JUMPDEST SWAP1 PUSH0 MSTORE PUSH1 0x20 PUSH0 KECCAK256 SWAP1 PUSH1 0x5 MUL ADD PUSH1 0x4 ADD SLOAD PUSH1 0x2 DUP3 DUP2 SLOAD DUP2 LT PUSH2 0x6F2 JUMPI PUSH2 0x6F1 PUSH2 0x1A81 JUMP JUMPDEST JUMPDEST SWAP1 PUSH0 MSTORE PUSH1 0x20 PUSH0 KECCAK256 SWAP1 PUSH1 0x5 MUL ADD PUSH1 0x3 ADD SLOAD PUSH2 0x70C SWAP2 SWAP1 PUSH2 0x1ADB JUMP JUMPDEST SWAP2 POP JUMPDEST DUP1 DUP1 PUSH1 0x1 ADD SWAP2 POP POP PUSH2 0x651 JUMP JUMPDEST POP DUP2 SWAP3 POP POP POP JUMPDEST SWAP1 JUMP JUMPDEST PUSH0 DUP1 SLOAD SWAP1 PUSH2 0x100 EXP SWAP1 DIV PUSH20 0xFFFFFFFFFFFFFFFFFFFFFFFFFFFFFFFFFFFFFFFF AND DUP2 JUMP JUMPDEST PUSH1 0x2 DUP2 DUP2 SLOAD DUP2 LT PUSH2 0x758 JUMPI PUSH0 DUP1 REVERT JUMPDEST SWAP1 PUSH0 MSTORE PUSH1 0x20 PUSH0 KECCAK256 SWAP1 PUSH1 0x5 MUL ADD PUSH0 SWAP2 POP SWAP1 POP DUP1 PUSH0 ADD DUP1 SLOAD PUSH2 0x777 SWAP1 PUSH2 0x171E JUMP JUMPDEST DUP1 PUSH1 0x1F ADD PUSH1 0x20 DUP1 SWAP2 DIV MUL PUSH1 0x20 ADD PUSH1 0x40 MLOAD SWAP1 DUP2 ADD PUSH1 0x40 MSTORE DUP1 SWAP3 SWAP2 SWAP1 DUP2 DUP2 MSTORE PUSH1 0x20 ADD DUP3 DUP1 SLOAD PUSH2 0x7A3 SWAP1 PUSH2 0x171E JUMP JUMPDEST DUP1 ISZERO PUSH2 0x7EE JUMPI DUP1 PUSH1 0x1F LT PUSH2 0x7C5 JUMPI PUSH2 0x100 DUP1 DUP4 SLOAD DIV MUL DUP4 MSTORE SWAP2 PUSH1 0x20 ADD SWAP2 PUSH2 0x7EE JUMP JUMPDEST DUP3 ADD SWAP2 SWAP1 PUSH0 MSTORE PUSH1 0x20 PUSH0 KECCAK256 SWAP1 JUMPDEST DUP2 SLOAD DUP2 MSTORE SWAP1 PUSH1 0x1 ADD SWAP1 PUSH1 0x20 ADD DUP1 DUP4 GT PUSH2 0x7D1 JUMPI DUP3 SWAP1 SUB PUSH1 0x1F AND DUP3 ADD SWAP2 JUMPDEST POP POP POP POP POP SWAP1 DUP1 PUSH1 0x3 ADD SLOAD SWAP1 DUP1 PUSH1 0x4 ADD SLOAD SWAP1 POP DUP4 JUMP JUMPDEST DUP2 PUSH1 0x2 DUP1 SLOAD SWAP1 POP GT PUSH2 0x84B JUMPI PUSH1 0x40 MLOAD PUSH32 0x8C379A000000000000000000000000000000000000000000000000000000000 DUP2 MSTORE PUSH1 0x4 ADD PUSH2 0x842 SWAP1 PUSH2 0x1B58 JUMP JUMPDEST PUSH1 0x40 MLOAD DUP1 SWAP2 SUB SWAP1 REVERT JUMPDEST PUSH0 PUSH1 0x2 DUP4 DUP2 SLOAD DUP2 LT PUSH2 0x860 JUMPI PUSH2 0x85F PUSH2 0x1A81 JUMP JUMPDEST JUMPDEST SWAP1 PUSH0 MSTORE PUSH1 0x20 PUSH0 KECCAK256 SWAP1 PUSH1 0x5 MUL ADD SWAP1 POP DUP2 ISZERO PUSH2 0x892 JUMPI DUP1 PUSH1 0x3 ADD PUSH0 DUP2 SLOAD DUP1 SWAP3 SWAP2 SWAP1 PUSH2 0x888 SWAP1 PUSH2 0x1B76 JUMP JUMPDEST SWAP2 SWAP1 POP SSTORE POP PUSH2 0x8AC JUMP JUMPDEST DUP1 PUSH1 0x4 ADD PUSH0 DUP2 SLOAD DUP1 SWAP3 SWAP2 SWAP1 PUSH2 0x8A6 SWAP1 PUSH2 0x1B76 JUMP JUMPDEST SWAP2 SWAP1 POP SSTORE POP JUMPDEST PUSH1 0x5 DUP2 PUSH1 0x4 ADD SLOAD DUP3 PUSH1 0x3 ADD SLOAD PUSH2 0x8C2 SWAP2 SWAP1 PUSH2 0x1ADB JUMP JUMPDEST SUB PUSH2 0xAC7 JUMPI PUSH0 PUSH1 0x1 PUSH1 0x2 DUP1 SLOAD SWAP1 POP PUSH2 0x8DA SWAP2 SWAP1 PUSH2 0x1BBD JUMP JUMPDEST SWAP1 POP PUSH0 DUP1 SLOAD SWAP1 PUSH2 0x100 EXP SWAP1 DIV PUSH20 0xFFFFFFFFFFFFFFFFFFFFFFFFFFFFFFFFFFFFFFFF AND PUSH20 0xFFFFFFFFFFFFFFFFFFFFFFFFFFFFFFFFFFFFFFFF AND PUSH4 0xFD3CBF95 PUSH1 0x2 DUP7 DUP2 SLOAD DUP2 LT PUSH2 0x92B JUMPI PUSH2 0x92A PUSH2 0x1A81 JUMP JUMPDEST JUMPDEST SWAP1 PUSH0 MSTORE PUSH1 0x20 PUSH0 KECCAK256 SWAP1 PUSH1 0x5 MUL ADD PUSH0 ADD PUSH1 0x2 DUP8 DUP2 SLOAD DUP2 LT PUSH2 0x94D JUMPI PUSH2 0x94C PUSH2 0x1A81 JUMP JUMPDEST JUMPDEST SWAP1 PUSH0 MSTORE PUSH1 0x20 PUSH0 KECCAK256 SWAP1 PUSH1 0x5 MUL ADD PUSH1 0x1 ADD PUSH1 0x2 DUP9 DUP2 SLOAD DUP2 LT PUSH2 0x970 JUMPI PUSH2 0x96F PUSH2 0x1A81 JUMP JUMPDEST JUMPDEST SWAP1 PUSH0 MSTORE PUSH1 0x20 PUSH0 KECCAK256 SWAP1 PUSH1 0x5 MUL ADD PUSH1 0x2 ADD PUSH1 0x40 MLOAD DUP5 PUSH4 0xFFFFFFFF AND PUSH1 0xE0 SHL DUP2 MSTORE PUSH1 0x4 ADD PUSH2 0x99D SWAP4 SWAP3 SWAP2 SWAP1 PUSH2 0x1E9F JUMP JUMPDEST PUSH0 PUSH1 0x40 MLOAD DUP1 DUP4 SUB DUP2 PUSH0 DUP8 DUP1 EXTCODESIZE ISZERO DUP1 ISZERO PUSH2 0x9B4 JUMPI PUSH0 DUP1 REVERT JUMPDEST POP GAS CALL ISZERO DUP1 ISZERO PUSH2 0x9C6 JUMPI RETURNDATASIZE PUSH0 DUP1 RETURNDATACOPY RETURNDATASIZE PUSH0 REVERT JUMPDEST POP POP POP POP PUSH1 0x2 DUP2 DUP2 SLOAD DUP2 LT PUSH2 0x9DE JUMPI PUSH2 0x9DD PUSH2 0x1A81 JUMP JUMPDEST JUMPDEST SWAP1 PUSH0 MSTORE PUSH1 0x20 PUSH0 KECCAK256 SWAP1 PUSH1 0x5 MUL ADD PUSH1 0x2 DUP6 DUP2 SLOAD DUP2 LT PUSH2 0x9FE JUMPI PUSH2 0x9FD PUSH2 0x1A81 JUMP JUMPDEST JUMPDEST SWAP1 PUSH0 MSTORE PUSH1 0x20 PUSH0 KECCAK256 SWAP1 PUSH1 0x5 MUL ADD PUSH0 DUP3 ADD DUP2 PUSH0 ADD SWAP1 DUP2 PUSH2 0xA1C SWAP2 SWAP1 PUSH2 0x1EFE JUMP JUMPDEST POP PUSH1 0x1 DUP3 ADD DUP2 PUSH1 0x1 ADD SWAP1 DUP1 SLOAD PUSH2 0xA33 SWAP3 SWAP2 SWAP1 PUSH2 0xC25 JUMP JUMPDEST POP PUSH1 0x2 DUP3 ADD DUP2 PUSH1 0x2 ADD SWAP1 DUP1 SLOAD PUSH2 0xA4A SWAP3 SWAP2 SWAP1 PUSH2 0xC7E JUMP JUMPDEST POP PUSH1 0x3 DUP3 ADD SLOAD DUP2 PUSH1 0x3 ADD SSTORE PUSH1 0x4 DUP3 ADD SLOAD DUP2 PUSH1 0x4 ADD SSTORE SWAP1 POP POP PUSH1 0x2 DUP1 SLOAD DUP1 PUSH2 0xA74 JUMPI PUSH2 0xA73 PUSH2 0x1FE3 JUMP JUMPDEST JUMPDEST PUSH1 0x1 SWAP1 SUB DUP2 DUP2 SWAP1 PUSH0 MSTORE PUSH1 0x20 PUSH0 KECCAK256 SWAP1 PUSH1 0x5 MUL ADD PUSH0 DUP1 DUP3 ADD PUSH0 PUSH2 0xA95 SWAP2 SWAP1 PUSH2 0xCCC JUMP JUMPDEST PUSH1 0x1 DUP3 ADD PUSH0 PUSH2 0xAA4 SWAP2 SWAP1 PUSH2 0xD09 JUMP JUMPDEST PUSH1 0x2 DUP3 ADD PUSH0 PUSH2 0xAB3 SWAP2 SWAP1 PUSH2 0xD27 JUMP JUMPDEST PUSH1 0x3 DUP3 ADD PUSH0 SWAP1 SSTORE PUSH1 0x4 DUP3 ADD PUSH0 SWAP1 SSTORE POP POP SWAP1 SSTORE POP JUMPDEST POP POP POP JUMP JUMPDEST PUSH0 DUP1 DUP3 SWAP1 POP PUSH0 JUMPDEST PUSH1 0x2 DUP1 SLOAD SWAP1 POP DUP2 LT ISZERO PUSH2 0xB3C JUMPI DUP2 DUP1 MLOAD SWAP1 PUSH1 0x20 ADD KECCAK256 PUSH1 0x2 DUP3 DUP2 SLOAD DUP2 LT PUSH2 0xAFC JUMPI PUSH2 0xAFB PUSH2 0x1A81 JUMP JUMPDEST JUMPDEST SWAP1 PUSH0 MSTORE PUSH1 0x20 PUSH0 KECCAK256 SWAP1 PUSH1 0x5 MUL ADD PUSH0 ADD PUSH1 0x40 MLOAD PUSH2 0xB17 SWAP2 SWAP1 PUSH2 0x20AC JUMP JUMPDEST PUSH1 0x40 MLOAD DUP1 SWAP2 SUB SWAP1 KECCAK256 SUB PUSH2 0xB2F JUMPI PUSH1 0x1 SWAP3 POP POP POP PUSH2 0xB42 JUMP JUMPDEST DUP1 DUP1 PUSH1 0x1 ADD SWAP2 POP POP PUSH2 0xAD3 JUMP JUMPDEST POP PUSH0 SWAP2 POP POP JUMPDEST SWAP2 SWAP1 POP JUMP JUMPDEST DUP3 DUP1 SLOAD DUP3 DUP3 SSTORE SWAP1 PUSH0 MSTORE PUSH1 0x20 PUSH0 KECCAK256 SWAP1 DUP2 ADD SWAP3 DUP3 ISZERO PUSH2 0xB8D JUMPI SWAP2 PUSH1 0x20 MUL DUP3 ADD JUMPDEST DUP3 DUP2 GT ISZERO PUSH2 0xB8C JUMPI DUP3 MLOAD DUP3 SWAP1 DUP2 PUSH2 0xB7C SWAP2 SWAP1 PUSH2 0x194A JUMP JUMPDEST POP SWAP2 PUSH1 0x20 ADD SWAP2 SWAP1 PUSH1 0x1 ADD SWAP1 PUSH2 0xB65 JUMP JUMPDEST JUMPDEST POP SWAP1 POP PUSH2 0xB9A SWAP2 SWAP1 PUSH2 0xD45 JUMP JUMPDEST POP SWAP1 JUMP JUMPDEST DUP3 DUP1 SLOAD DUP3 DUP3 SSTORE SWAP1 PUSH0 MSTORE PUSH1 0x20 PUSH0 KECCAK256 SWAP1 DUP2 ADD SWAP3 DUP3 ISZERO PUSH2 0xC14 JUMPI SWAP2 PUSH1 0x20 MUL DUP3 ADD JUMPDEST DUP3 DUP2 GT ISZERO PUSH2 0xC13 JUMPI DUP3 MLOAD DUP3 PUSH0 PUSH2 0x100 EXP DUP2 SLOAD DUP2 PUSH20 0xFFFFFFFFFFFFFFFFFFFFFFFFFFFFFFFFFFFFFFFF MUL NOT AND SWAP1 DUP4 PUSH20 0xFFFFFFFFFFFFFFFFFFFFFFFFFFFFFFFFFFFFFFFF AND MUL OR SWAP1 SSTORE POP SWAP2 PUSH1 0x20 ADD SWAP2 SWAP1 PUSH1 0x1 ADD SWAP1 PUSH2 0xBBC JUMP JUMPDEST JUMPDEST POP SWAP1 POP PUSH2 0xC21 SWAP2 SWAP1 PUSH2 0xD68 JUMP JUMPDEST POP SWAP1 JUMP JUMPDEST DUP3 DUP1 SLOAD DUP3 DUP3 SSTORE SWAP1 PUSH0 MSTORE PUSH1 0x20 PUSH0 KECCAK256 SWAP1 DUP2 ADD SWAP3 DUP3 ISZERO PUSH2 0xC6D JUMPI PUSH0 MSTORE PUSH1 0x20 PUSH0 KECCAK256 SWAP2 DUP3 ADD JUMPDEST DUP3 DUP2 GT ISZERO PUSH2 0xC6C JUMPI DUP3 DUP3 SWAP1 DUP2 PUSH2 0xC5C SWAP2 SWAP1 PUSH2 0x1EFE JUMP JUMPDEST POP SWAP2 PUSH1 0x1 ADD SWAP2 SWAP1 PUSH1 0x1 ADD SWAP1 PUSH2 0xC46 JUMP JUMPDEST JUMPDEST POP SWAP1 POP PUSH2 0xC7A SWAP2 SWAP1 PUSH2 0xD45 JUMP JUMPDEST POP SWAP1 JUMP JUMPDEST DUP3 DUP1 SLOAD DUP3 DUP3 SSTORE SWAP1 PUSH0 MSTORE PUSH1 0x20 PUSH0 KECCAK256 SWAP1 DUP2 ADD SWAP3 DUP3 ISZERO PUSH2 0xCBB JUMPI PUSH0 MSTORE PUSH1 0x20 PUSH0 KECCAK256 SWAP2 DUP3 ADD JUMPDEST DUP3 DUP2 GT ISZERO PUSH2 0xCBA JUMPI DUP3 SLOAD DUP3 SSTORE SWAP2 PUSH1 0x1 ADD SWAP2 SWAP1 PUSH1 0x1 ADD SWAP1 PUSH2 0xC9F JUMP JUMPDEST JUMPDEST POP SWAP1 POP PUSH2 0xCC8 SWAP2 SWAP1 PUSH2 0xD68 JUMP JUMPDEST POP SWAP1 JUMP JUMPDEST POP DUP1 SLOAD PUSH2 0xCD8 SWAP1 PUSH2 0x171E JUMP JUMPDEST PUSH0 DUP3 SSTORE DUP1 PUSH1 0x1F LT PUSH2 0xCE9 JUMPI POP PUSH2 0xD06 JUMP JUMPDEST PUSH1 0x1F ADD PUSH1 0x20 SWAP1 DIV SWAP1 PUSH0 MSTORE PUSH1 0x20 PUSH0 KECCAK256 SWAP1 DUP2 ADD SWAP1 PUSH2 0xD05 SWAP2 SWAP1 PUSH2 0xD68 JUMP JUMPDEST JUMPDEST POP JUMP JUMPDEST POP DUP1 SLOAD PUSH0 DUP3 SSTORE SWAP1 PUSH0 MSTORE PUSH1 0x20 PUSH0 KECCAK256 SWAP1 DUP2 ADD SWAP1 PUSH2 0xD24 SWAP2 SWAP1 PUSH2 0xD45 JUMP JUMPDEST POP JUMP JUMPDEST POP DUP1 SLOAD PUSH0 DUP3 SSTORE SWAP1 PUSH0 MSTORE PUSH1 0x20 PUSH0 KECCAK256 SWAP1 DUP2 ADD SWAP1 PUSH2 0xD42 SWAP2 SWAP1 PUSH2 0xD68 JUMP JUMPDEST POP JUMP JUMPDEST JUMPDEST DUP1 DUP3 GT ISZERO PUSH2 0xD64 JUMPI PUSH0 DUP2 DUP2 PUSH2 0xD5B SWAP2 SWAP1 PUSH2 0xCCC JUMP JUMPDEST POP PUSH1 0x1 ADD PUSH2 0xD46 JUMP JUMPDEST POP SWAP1 JUMP JUMPDEST JUMPDEST DUP1 DUP3 GT ISZERO PUSH2 0xD7F JUMPI PUSH0 DUP2 PUSH0 SWAP1 SSTORE POP PUSH1 0x1 ADD PUSH2 0xD69 JUMP JUMPDEST POP SWAP1 JUMP JUMPDEST PUSH0 DUP2 MLOAD SWAP1 POP SWAP2 SWAP1 POP JUMP JUMPDEST PUSH0 DUP3 DUP3 MSTORE PUSH1 0x20 DUP3 ADD SWAP1 POP SWAP3 SWAP2 POP POP JUMP JUMPDEST PUSH0 DUP2 SWAP1 POP PUSH1 0x20 DUP3 ADD SWAP1 POP SWAP2 SWAP1 POP JUMP JUMPDEST PUSH0 DUP2 MLOAD SWAP1 POP SWAP2 SWAP1 POP JUMP JUMPDEST PUSH0 DUP3 DUP3 MSTORE PUSH1 0x20 DUP3 ADD SWAP1 POP SWAP3 SWAP2 POP POP JUMP JUMPDEST DUP3 DUP2 DUP4 MCOPY PUSH0 DUP4 DUP4 ADD MSTORE POP POP POP JUMP JUMPDEST PUSH0 PUSH1 0x1F NOT PUSH1 0x1F DUP4 ADD AND SWAP1 POP SWAP2 SWAP1 POP JUMP JUMPDEST PUSH0 PUSH2 0xDEE DUP3 PUSH2 0xDAC JUMP JUMPDEST PUSH2 0xDF8 DUP2 DUP6 PUSH2 0xDB6 JUMP JUMPDEST SWAP4 POP PUSH2 0xE08 DUP2 DUP6 PUSH1 0x20 DUP7 ADD PUSH2 0xDC6 JUMP JUMPDEST PUSH2 0xE11 DUP2 PUSH2 0xDD4 JUMP JUMPDEST DUP5 ADD SWAP2 POP POP SWAP3 SWAP2 POP POP JUMP JUMPDEST PUSH0 DUP2 MLOAD SWAP1 POP SWAP2 SWAP1 POP JUMP JUMPDEST PUSH0 DUP3 DUP3 MSTORE PUSH1 0x20 DUP3 ADD SWAP1 POP SWAP3 SWAP2 POP POP JUMP JUMPDEST PUSH0 DUP2 SWAP1 POP PUSH1 0x20 DUP3 ADD SWAP1 POP SWAP2 SWAP1 POP JUMP JUMPDEST PUSH0 PUSH2 0xE50 DUP4 DUP4 PUSH2 0xDE4 JUMP JUMPDEST SWAP1 POP SWAP3 SWAP2 POP POP JUMP JUMPDEST PUSH0 PUSH1 0x20 DUP3 ADD SWAP1 POP SWAP2 SWAP1 POP JUMP JUMPDEST PUSH0 PUSH2 0xE6E DUP3 PUSH2 0xE1C JUMP JUMPDEST PUSH2 0xE78 DUP2 DUP6 PUSH2 0xE26 JUMP JUMPDEST SWAP4 POP DUP4 PUSH1 0x20 DUP3 MUL DUP6 ADD PUSH2 0xE8A DUP6 PUSH2 0xE36 JUMP JUMPDEST DUP1 PUSH0 JUMPDEST DUP6 DUP2 LT ISZERO PUSH2 0xEC5 JUMPI DUP5 DUP5 SUB DUP10 MSTORE DUP2 MLOAD PUSH2 0xEA6 DUP6 DUP3 PUSH2 0xE45 JUMP JUMPDEST SWAP5 POP PUSH2 0xEB1 DUP4 PUSH2 0xE58 JUMP JUMPDEST SWAP3 POP PUSH1 0x20 DUP11 ADD SWAP10 POP POP PUSH1 0x1 DUP2 ADD SWAP1 POP PUSH2 0xE8D JUMP JUMPDEST POP DUP3 SWAP8 POP DUP8 SWAP6 POP POP POP POP POP POP SWAP3 SWAP2 POP POP JUMP JUMPDEST PUSH0 DUP2 MLOAD SWAP1 POP SWAP2 SWAP1 POP JUMP JUMPDEST PUSH0 DUP3 DUP3 MSTORE PUSH1 0x20 DUP3 ADD SWAP1 POP SWAP3 SWAP2 POP POP JUMP JUMPDEST PUSH0 DUP2 SWAP1 POP PUSH1 0x20 DUP3 ADD SWAP1 POP SWAP2 SWAP1 POP JUMP JUMPDEST PUSH0 PUSH20 0xFFFFFFFFFFFFFFFFFFFFFFFFFFFFFFFFFFFFFFFF DUP3 AND SWAP1 POP SWAP2 SWAP1 POP JUMP JUMPDEST PUSH0 PUSH2 0xF29 DUP3 PUSH2 0xF00 JUMP JUMPDEST SWAP1 POP SWAP2 SWAP1 POP JUMP JUMPDEST PUSH2 0xF39 DUP2 PUSH2 0xF1F JUMP JUMPDEST DUP3 MSTORE POP POP JUMP JUMPDEST PUSH0 PUSH2 0xF4A DUP4 DUP4 PUSH2 0xF30 JUMP JUMPDEST PUSH1 0x20 DUP4 ADD SWAP1 POP SWAP3 SWAP2 POP POP JUMP JUMPDEST PUSH0 PUSH1 0x20 DUP3 ADD SWAP1 POP SWAP2 SWAP1 POP JUMP JUMPDEST PUSH0 PUSH2 0xF6C DUP3 PUSH2 0xED7 JUMP JUMPDEST PUSH2 0xF76 DUP2 DUP6 PUSH2 0xEE1 JUMP JUMPDEST SWAP4 POP PUSH2 0xF81 DUP4 PUSH2 0xEF1 JUMP JUMPDEST DUP1 PUSH0 JUMPDEST DUP4 DUP2 LT ISZERO PUSH2 0xFB1 JUMPI DUP2 MLOAD PUSH2 0xF98 DUP9 DUP3 PUSH2 0xF3F JUMP JUMPDEST SWAP8 POP PUSH2 0xFA3 DUP4 PUSH2 0xF56 JUMP JUMPDEST SWAP3 POP POP PUSH1 0x1 DUP2 ADD SWAP1 POP PUSH2 0xF84 JUMP JUMPDEST POP DUP6 SWAP4 POP POP POP POP SWAP3 SWAP2 POP POP JUMP JUMPDEST PUSH0 DUP2 SWAP1 POP SWAP2 SWAP1 POP JUMP JUMPDEST PUSH2 0xFD0 DUP2 PUSH2 0xFBE JUMP JUMPDEST DUP3 MSTORE POP POP JUMP JUMPDEST PUSH0 PUSH1 0xA0 DUP4 ADD PUSH0 DUP4 ADD MLOAD DUP5 DUP3 SUB PUSH0 DUP7 ADD MSTORE PUSH2 0xFF0 DUP3 DUP3 PUSH2 0xDE4 JUMP JUMPDEST SWAP2 POP POP PUSH1 0x20 DUP4 ADD MLOAD DUP5 DUP3 SUB PUSH1 0x20 DUP7 ADD MSTORE PUSH2 0x100A DUP3 DUP3 PUSH2 0xE64 JUMP JUMPDEST SWAP2 POP POP PUSH1 0x40 DUP4 ADD MLOAD DUP5 DUP3 SUB PUSH1 0x40 DUP7 ADD MSTORE PUSH2 0x1024 DUP3 DUP3 PUSH2 0xF62 JUMP JUMPDEST SWAP2 POP POP PUSH1 0x60 DUP4 ADD MLOAD PUSH2 0x1039 PUSH1 0x60 DUP7 ADD DUP3 PUSH2 0xFC7 JUMP JUMPDEST POP PUSH1 0x80 DUP4 ADD MLOAD PUSH2 0x104C PUSH1 0x80 DUP7 ADD DUP3 PUSH2 0xFC7 JUMP JUMPDEST POP DUP1 SWAP2 POP POP SWAP3 SWAP2 POP POP JUMP JUMPDEST PUSH0 PUSH2 0x1062 DUP4 DUP4 PUSH2 0xFD6 JUMP JUMPDEST SWAP1 POP SWAP3 SWAP2 POP POP JUMP JUMPDEST PUSH0 PUSH1 0x20 DUP3 ADD SWAP1 POP SWAP2 SWAP1 POP JUMP JUMPDEST PUSH0 PUSH2 0x1080 DUP3 PUSH2 0xD83 JUMP JUMPDEST PUSH2 0x108A DUP2 DUP6 PUSH2 0xD8D JUMP JUMPDEST SWAP4 POP DUP4 PUSH1 0x20 DUP3 MUL DUP6 ADD PUSH2 0x109C DUP6 PUSH2 0xD9D JUMP JUMPDEST DUP1 PUSH0 JUMPDEST DUP6 DUP2 LT ISZERO PUSH2 0x10D7 JUMPI DUP5 DUP5 SUB DUP10 MSTORE DUP2 MLOAD PUSH2 0x10B8 DUP6 DUP3 PUSH2 0x1057 JUMP JUMPDEST SWAP5 POP PUSH2 0x10C3 DUP4 PUSH2 0x106A JUMP JUMPDEST SWAP3 POP PUSH1 0x20 DUP11 ADD SWAP10 POP POP PUSH1 0x1 DUP2 ADD SWAP1 POP PUSH2 0x109F JUMP JUMPDEST POP DUP3 SWAP8 POP DUP8 SWAP6 POP POP POP POP POP POP SWAP3 SWAP2 POP POP JUMP JUMPDEST PUSH0 PUSH1 0x20 DUP3 ADD SWAP1 POP DUP2 DUP2 SUB PUSH0 DUP4 ADD MSTORE PUSH2 0x1101 DUP2 DUP5 PUSH2 0x1076 JUMP JUMPDEST SWAP1 POP SWAP3 SWAP2 POP POP JUMP JUMPDEST PUSH0 PUSH1 0x40 MLOAD SWAP1 POP SWAP1 JUMP JUMPDEST PUSH0 DUP1 REVERT JUMPDEST PUSH0 DUP1 REVERT JUMPDEST PUSH0 DUP1 REVERT JUMPDEST PUSH0 DUP1 REVERT JUMPDEST PUSH32 0x4E487B7100000000000000000000000000000000000000000000000000000000 PUSH0 MSTORE PUSH1 0x41 PUSH1 0x4 MSTORE PUSH1 0x24 PUSH0 REVERT JUMPDEST PUSH2 0x1158 DUP3 PUSH2 0xDD4 JUMP JUMPDEST DUP2 ADD DUP2 DUP2 LT PUSH8 0xFFFFFFFFFFFFFFFF DUP3 GT OR ISZERO PUSH2 0x1177 JUMPI PUSH2 0x1176 PUSH2 0x1122 JUMP JUMPDEST JUMPDEST DUP1 PUSH1 0x40 MSTORE POP POP POP JUMP JUMPDEST PUSH0 PUSH2 0x1189 PUSH2 0x1109 JUMP JUMPDEST SWAP1 POP PUSH2 0x1195 DUP3 DUP3 PUSH2 0x114F JUMP JUMPDEST SWAP2 SWAP1 POP JUMP JUMPDEST PUSH0 PUSH8 0xFFFFFFFFFFFFFFFF DUP3 GT ISZERO PUSH2 0x11B4 JUMPI PUSH2 0x11B3 PUSH2 0x1122 JUMP JUMPDEST JUMPDEST PUSH2 0x11BD DUP3 PUSH2 0xDD4 JUMP JUMPDEST SWAP1 POP PUSH1 0x20 DUP2 ADD SWAP1 POP SWAP2 SWAP1 POP JUMP JUMPDEST DUP3 DUP2 DUP4 CALLDATACOPY PUSH0 DUP4 DUP4 ADD MSTORE POP POP POP JUMP JUMPDEST PUSH0 PUSH2 0x11EA PUSH2 0x11E5 DUP5 PUSH2 0x119A JUMP JUMPDEST PUSH2 0x1180 JUMP JUMPDEST SWAP1 POP DUP3 DUP2 MSTORE PUSH1 0x20 DUP2 ADD DUP5 DUP5 DUP5 ADD GT ISZERO PUSH2 0x1206 JUMPI PUSH2 0x1205 PUSH2 0x111E JUMP JUMPDEST JUMPDEST PUSH2 0x1211 DUP5 DUP3 DUP6 PUSH2 0x11CA JUMP JUMPDEST POP SWAP4 SWAP3 POP POP POP JUMP JUMPDEST PUSH0 DUP3 PUSH1 0x1F DUP4 ADD SLT PUSH2 0x122D JUMPI PUSH2 0x122C PUSH2 0x111A JUMP JUMPDEST JUMPDEST DUP2 CALLDATALOAD PUSH2 0x123D DUP5 DUP3 PUSH1 0x20 DUP7 ADD PUSH2 0x11D8 JUMP JUMPDEST SWAP2 POP POP SWAP3 SWAP2 POP POP JUMP JUMPDEST PUSH0 PUSH8 0xFFFFFFFFFFFFFFFF DUP3 GT ISZERO PUSH2 0x1260 JUMPI PUSH2 0x125F PUSH2 0x1122 JUMP JUMPDEST JUMPDEST PUSH1 0x20 DUP3 MUL SWAP1 POP PUSH1 0x20 DUP2 ADD SWAP1 POP SWAP2 SWAP1 POP JUMP JUMPDEST PUSH0 DUP1 REVERT JUMPDEST PUSH0 PUSH2 0x1287 PUSH2 0x1282 DUP5 PUSH2 0x1246 JUMP JUMPDEST PUSH2 0x1180 JUMP JUMPDEST SWAP1 POP DUP1 DUP4 DUP3 MSTORE PUSH1 0x20 DUP3 ADD SWAP1 POP PUSH1 0x20 DUP5 MUL DUP4 ADD DUP6 DUP2 GT ISZERO PUSH2 0x12AA JUMPI PUSH2 0x12A9 PUSH2 0x1271 JUMP JUMPDEST JUMPDEST DUP4 JUMPDEST DUP2 DUP2 LT ISZERO PUSH2 0x12F1 JUMPI DUP1 CALLDATALOAD PUSH8 0xFFFFFFFFFFFFFFFF DUP2 GT ISZERO PUSH2 0x12CF JUMPI PUSH2 0x12CE PUSH2 0x111A JUMP JUMPDEST JUMPDEST DUP1 DUP7 ADD PUSH2 0x12DC DUP10 DUP3 PUSH2 0x1219 JUMP JUMPDEST DUP6 MSTORE PUSH1 0x20 DUP6 ADD SWAP5 POP POP POP PUSH1 0x20 DUP2 ADD SWAP1 POP PUSH2 0x12AC JUMP JUMPDEST POP POP POP SWAP4 SWAP3 POP POP POP JUMP JUMPDEST PUSH0 DUP3 PUSH1 0x1F DUP4 ADD SLT PUSH2 0x130F JUMPI PUSH2 0x130E PUSH2 0x111A JUMP JUMPDEST JUMPDEST DUP2 CALLDATALOAD PUSH2 0x131F DUP5 DUP3 PUSH1 0x20 DUP7 ADD PUSH2 0x1275 JUMP JUMPDEST SWAP2 POP POP SWAP3 SWAP2 POP POP JUMP JUMPDEST PUSH0 PUSH8 0xFFFFFFFFFFFFFFFF DUP3 GT ISZERO PUSH2 0x1342 JUMPI PUSH2 0x1341 PUSH2 0x1122 JUMP JUMPDEST JUMPDEST PUSH1 0x20 DUP3 MUL SWAP1 POP PUSH1 0x20 DUP2 ADD SWAP1 POP SWAP2 SWAP1 POP JUMP JUMPDEST PUSH2 0x135C DUP2 PUSH2 0xF1F JUMP JUMPDEST DUP2 EQ PUSH2 0x1366 JUMPI PUSH0 DUP1 REVERT JUMPDEST POP JUMP JUMPDEST PUSH0 DUP2 CALLDATALOAD SWAP1 POP PUSH2 0x1377 DUP2 PUSH2 0x1353 JUMP JUMPDEST SWAP3 SWAP2 POP POP JUMP JUMPDEST PUSH0 PUSH2 0x138F PUSH2 0x138A DUP5 PUSH2 0x1328 JUMP JUMPDEST PUSH2 0x1180 JUMP JUMPDEST SWAP1 POP DUP1 DUP4 DUP3 MSTORE PUSH1 0x20 DUP3 ADD SWAP1 POP PUSH1 0x20 DUP5 MUL DUP4 ADD DUP6 DUP2 GT ISZERO PUSH2 0x13B2 JUMPI PUSH2 0x13B1 PUSH2 0x1271 JUMP JUMPDEST JUMPDEST DUP4 JUMPDEST DUP2 DUP2 LT ISZERO PUSH2 0x13DB JUMPI DUP1 PUSH2 0x13C7 DUP9 DUP3 PUSH2 0x1369 JUMP JUMPDEST DUP5 MSTORE PUSH1 0x20 DUP5 ADD SWAP4 POP POP PUSH1 0x20 DUP2 ADD SWAP1 POP PUSH2 0x13B4 JUMP JUMPDEST POP POP POP SWAP4 SWAP3 POP POP POP JUMP JUMPDEST PUSH0 DUP3 PUSH1 0x1F DUP4 ADD SLT PUSH2 0x13F9 JUMPI PUSH2 0x13F8 PUSH2 0x111A JUMP JUMPDEST JUMPDEST DUP2 CALLDATALOAD PUSH2 0x1409 DUP5 DUP3 PUSH1 0x20 DUP7 ADD PUSH2 0x137D JUMP JUMPDEST SWAP2 POP POP SWAP3 SWAP2 POP POP JUMP JUMPDEST PUSH0 DUP1 PUSH0 PUSH1 0x60 DUP5 DUP7 SUB SLT ISZERO PUSH2 0x1429 JUMPI PUSH2 0x1428 PUSH2 0x1112 JUMP JUMPDEST JUMPDEST PUSH0 DUP5 ADD CALLDATALOAD PUSH8 0xFFFFFFFFFFFFFFFF DUP2 GT ISZERO PUSH2 0x1446 JUMPI PUSH2 0x1445 PUSH2 0x1116 JUMP JUMPDEST JUMPDEST PUSH2 0x1452 DUP7 DUP3 DUP8 ADD PUSH2 0x1219 JUMP JUMPDEST SWAP4 POP POP PUSH1 0x20 DUP5 ADD CALLDATALOAD PUSH8 0xFFFFFFFFFFFFFFFF DUP2 GT ISZERO PUSH2 0x1473 JUMPI PUSH2 0x1472 PUSH2 0x1116 JUMP JUMPDEST JUMPDEST PUSH2 0x147F DUP7 DUP3 DUP8 ADD PUSH2 0x12FB JUMP JUMPDEST SWAP3 POP POP PUSH1 0x40 DUP5 ADD CALLDATALOAD PUSH8 0xFFFFFFFFFFFFFFFF DUP2 GT ISZERO PUSH2 0x14A0 JUMPI PUSH2 0x149F PUSH2 0x1116 JUMP JUMPDEST JUMPDEST PUSH2 0x14AC DUP7 DUP3 DUP8 ADD PUSH2 0x13E5 JUMP JUMPDEST SWAP2 POP POP SWAP3 POP SWAP3 POP SWAP3 JUMP JUMPDEST PUSH0 PUSH1 0x20 DUP3 DUP5 SUB SLT ISZERO PUSH2 0x14CB JUMPI PUSH2 0x14CA PUSH2 0x1112 JUMP JUMPDEST JUMPDEST PUSH0 PUSH2 0x14D8 DUP5 DUP3 DUP6 ADD PUSH2 0x1369 JUMP JUMPDEST SWAP2 POP POP SWAP3 SWAP2 POP POP JUMP JUMPDEST PUSH2 0x14EA DUP2 PUSH2 0xF1F JUMP JUMPDEST DUP3 MSTORE POP POP JUMP JUMPDEST PUSH0 PUSH1 0x20 DUP3 ADD SWAP1 POP PUSH2 0x1503 PUSH0 DUP4 ADD DUP5 PUSH2 0x14E1 JUMP JUMPDEST SWAP3 SWAP2 POP POP JUMP JUMPDEST PUSH2 0x1512 DUP2 PUSH2 0xFBE JUMP JUMPDEST DUP3 MSTORE POP POP JUMP JUMPDEST PUSH0 PUSH1 0x20 DUP3 ADD SWAP1 POP PUSH2 0x152B PUSH0 DUP4 ADD DUP5 PUSH2 0x1509 JUMP JUMPDEST SWAP3 SWAP2 POP POP JUMP JUMPDEST PUSH0 DUP2 SWAP1 POP SWAP2 SWAP1 POP JUMP JUMPDEST PUSH0 PUSH2 0x1554 PUSH2 0x154F PUSH2 0x154A DUP5 PUSH2 0xF00 JUMP JUMPDEST PUSH2 0x1531 JUMP JUMPDEST PUSH2 0xF00 JUMP JUMPDEST SWAP1 POP SWAP2 SWAP1 POP JUMP JUMPDEST PUSH0 PUSH2 0x1565 DUP3 PUSH2 0x153A JUMP JUMPDEST SWAP1 POP SWAP2 SWAP1 POP JUMP JUMPDEST PUSH0 PUSH2 0x1576 DUP3 PUSH2 0x155B JUMP JUMPDEST SWAP1 POP SWAP2 SWAP1 POP JUMP JUMPDEST PUSH2 0x1586 DUP2 PUSH2 0x156C JUMP JUMPDEST DUP3 MSTORE POP POP JUMP JUMPDEST PUSH0 PUSH1 0x20 DUP3 ADD SWAP1 POP PUSH2 0x159F PUSH0 DUP4 ADD DUP5 PUSH2 0x157D JUMP JUMPDEST SWAP3 SWAP2 POP POP JUMP JUMPDEST PUSH2 0x15AE DUP2 PUSH2 0xFBE JUMP JUMPDEST DUP2 EQ PUSH2 0x15B8 JUMPI PUSH0 DUP1 REVERT JUMPDEST POP JUMP JUMPDEST PUSH0 DUP2 CALLDATALOAD SWAP1 POP PUSH2 0x15C9 DUP2 PUSH2 0x15A5 JUMP JUMPDEST SWAP3 SWAP2 POP POP JUMP JUMPDEST PUSH0 PUSH1 0x20 DUP3 DUP5 SUB SLT ISZERO PUSH2 0x15E4 JUMPI PUSH2 0x15E3 PUSH2 0x1112 JUMP JUMPDEST JUMPDEST PUSH0 PUSH2 0x15F1 DUP5 DUP3 DUP6 ADD PUSH2 0x15BB JUMP JUMPDEST SWAP2 POP POP SWAP3 SWAP2 POP POP JUMP JUMPDEST PUSH0 DUP3 DUP3 MSTORE PUSH1 0x20 DUP3 ADD SWAP1 POP SWAP3 SWAP2 POP POP JUMP JUMPDEST PUSH0 PUSH2 0x1614 DUP3 PUSH2 0xDAC JUMP JUMPDEST PUSH2 0x161E DUP2 DUP6 PUSH2 0x15FA JUMP JUMPDEST SWAP4 POP PUSH2 0x162E DUP2 DUP6 PUSH1 0x20 DUP7 ADD PUSH2 0xDC6 JUMP JUMPDEST PUSH2 0x1637 DUP2 PUSH2 0xDD4 JUMP JUMPDEST DUP5 ADD SWAP2 POP POP SWAP3 SWAP2 POP POP JUMP JUMPDEST PUSH0 PUSH1 0x60 DUP3 ADD SWAP1 POP DUP2 DUP2 SUB PUSH0 DUP4 ADD MSTORE PUSH2 0x165A DUP2 DUP7 PUSH2 0x160A JUMP JUMPDEST SWAP1 POP PUSH2 0x1669 PUSH1 0x20 DUP4 ADD DUP6 PUSH2 0x1509 JUMP JUMPDEST PUSH2 0x1676 PUSH1 0x40 DUP4 ADD DUP5 PUSH2 0x1509 JUMP JUMPDEST SWAP5 SWAP4 POP POP POP POP JUMP JUMPDEST PUSH0 DUP2 ISZERO ISZERO SWAP1 POP SWAP2 SWAP1 POP JUMP JUMPDEST PUSH2 0x1692 DUP2 PUSH2 0x167E JUMP JUMPDEST DUP2 EQ PUSH2 0x169C JUMPI PUSH0 DUP1 REVERT JUMPDEST POP JUMP JUMPDEST PUSH0 DUP2 CALLDATALOAD SWAP1 POP PUSH2 0x16AD DUP2 PUSH2 0x1689 JUMP JUMPDEST SWAP3 SWAP2 POP POP JUMP JUMPDEST PUSH0 DUP1 PUSH1 0x40 DUP4 DUP6 SUB SLT ISZERO PUSH2 0x16C9 JUMPI PUSH2 0x16C8 PUSH2 0x1112 JUMP JUMPDEST JUMPDEST PUSH0 PUSH2 0x16D6 DUP6 DUP3 DUP7 ADD PUSH2 0x15BB JUMP JUMPDEST SWAP3 POP POP PUSH1 0x20 PUSH2 0x16E7 DUP6 DUP3 DUP7 ADD PUSH2 0x169F JUMP JUMPDEST SWAP2 POP POP SWAP3 POP SWAP3 SWAP1 POP JUMP JUMPDEST PUSH32 0x4E487B7100000000000000000000000000000000000000000000000000000000 PUSH0 MSTORE PUSH1 0x22 PUSH1 0x4 MSTORE PUSH1 0x24 PUSH0 REVERT JUMPDEST PUSH0 PUSH1 0x2 DUP3 DIV SWAP1 POP PUSH1 0x1 DUP3 AND DUP1 PUSH2 0x1735 JUMPI PUSH1 0x7F DUP3 AND SWAP2 POP JUMPDEST PUSH1 0x20 DUP3 LT DUP2 SUB PUSH2 0x1748 JUMPI PUSH2 0x1747 PUSH2 0x16F1 JUMP JUMPDEST JUMPDEST POP SWAP2 SWAP1 POP JUMP JUMPDEST PUSH32 0x456E747279204944206D75737420626520756E69717565000000000000000000 PUSH0 DUP3 ADD MSTORE POP JUMP JUMPDEST PUSH0 PUSH2 0x1782 PUSH1 0x17 DUP4 PUSH2 0x15FA JUMP JUMPDEST SWAP2 POP PUSH2 0x178D DUP3 PUSH2 0x174E JUMP JUMPDEST PUSH1 0x20 DUP3 ADD SWAP1 POP SWAP2 SWAP1 POP JUMP JUMPDEST PUSH0 PUSH1 0x20 DUP3 ADD SWAP1 POP DUP2 DUP2 SUB PUSH0 DUP4 ADD MSTORE PUSH2 0x17AF DUP2 PUSH2 0x1776 JUMP JUMPDEST SWAP1 POP SWAP2 SWAP1 POP JUMP JUMPDEST PUSH0 DUP2 SWAP1 POP DUP2 PUSH0 MSTORE PUSH1 0x20 PUSH0 KECCAK256 SWAP1 POP SWAP2 SWAP1 POP JUMP JUMPDEST PUSH0 PUSH1 0x20 PUSH1 0x1F DUP4 ADD DIV SWAP1 POP SWAP2 SWAP1 POP JUMP JUMPDEST PUSH0 DUP3 DUP3 SHL SWAP1 POP SWAP3 SWAP2 POP POP JUMP JUMPDEST PUSH0 PUSH1 0x8 DUP4 MUL PUSH2 0x1812 PUSH32 0xFFFFFFFFFFFFFFFFFFFFFFFFFFFFFFFFFFFFFFFFFFFFFFFFFFFFFFFFFFFFFFFF DUP3 PUSH2 0x17D7 JUMP JUMPDEST PUSH2 0x181C DUP7 DUP4 PUSH2 0x17D7 JUMP JUMPDEST SWAP6 POP DUP1 NOT DUP5 AND SWAP4 POP DUP1 DUP7 AND DUP5 OR SWAP3 POP POP POP SWAP4 SWAP3 POP POP POP JUMP JUMPDEST PUSH0 PUSH2 0x184E PUSH2 0x1849 PUSH2 0x1844 DUP5 PUSH2 0xFBE JUMP JUMPDEST PUSH2 0x1531 JUMP JUMPDEST PUSH2 0xFBE JUMP JUMPDEST SWAP1 POP SWAP2 SWAP1 POP JUMP JUMPDEST PUSH0 DUP2 SWAP1 POP SWAP2 SWAP1 POP JUMP JUMPDEST PUSH2 0x1867 DUP4 PUSH2 0x1834 JUMP JUMPDEST PUSH2 0x187B PUSH2 0x1873 DUP3 PUSH2 0x1855 JUMP JUMPDEST DUP5 DUP5 SLOAD PUSH2 0x17E3 JUMP JUMPDEST DUP3 SSTORE POP POP POP POP JUMP JUMPDEST PUSH0 SWAP1 JUMP JUMPDEST PUSH2 0x188F PUSH2 0x1883 JUMP JUMPDEST PUSH2 0x189A DUP2 DUP5 DUP5 PUSH2 0x185E JUMP JUMPDEST POP POP POP JUMP JUMPDEST JUMPDEST DUP2 DUP2 LT ISZERO PUSH2 0x18BD JUMPI PUSH2 0x18B2 PUSH0 DUP3 PUSH2 0x1887 JUMP JUMPDEST PUSH1 0x1 DUP2 ADD SWAP1 POP PUSH2 0x18A0 JUMP JUMPDEST POP POP JUMP JUMPDEST PUSH1 0x1F DUP3 GT ISZERO PUSH2 0x1902 JUMPI PUSH2 0x18D3 DUP2 PUSH2 0x17B6 JUMP JUMPDEST PUSH2 0x18DC DUP5 PUSH2 0x17C8 JUMP JUMPDEST DUP2 ADD PUSH1 0x20 DUP6 LT ISZERO PUSH2 0x18EB JUMPI DUP2 SWAP1 POP JUMPDEST PUSH2 0x18FF PUSH2 0x18F7 DUP6 PUSH2 0x17C8 JUMP JUMPDEST DUP4 ADD DUP3 PUSH2 0x189F JUMP JUMPDEST POP POP JUMPDEST POP POP POP JUMP JUMPDEST PUSH0 DUP3 DUP3 SHR SWAP1 POP SWAP3 SWAP2 POP POP JUMP JUMPDEST PUSH0 PUSH2 0x1922 PUSH0 NOT DUP5 PUSH1 0x8 MUL PUSH2 0x1907 JUMP JUMPDEST NOT DUP1 DUP4 AND SWAP2 POP POP SWAP3 SWAP2 POP POP JUMP JUMPDEST PUSH0 PUSH2 0x193A DUP4 DUP4 PUSH2 0x1913 JUMP JUMPDEST SWAP2 POP DUP3 PUSH1 0x2 MUL DUP3 OR SWAP1 POP SWAP3 SWAP2 POP POP JUMP JUMPDEST PUSH2 0x1953 DUP3 PUSH2 0xDAC JUMP JUMPDEST PUSH8 0xFFFFFFFFFFFFFFFF DUP2 GT ISZERO PUSH2 0x196C JUMPI PUSH2 0x196B PUSH2 0x1122 JUMP JUMPDEST JUMPDEST PUSH2 0x1976 DUP3 SLOAD PUSH2 0x171E JUMP JUMPDEST PUSH2 0x1981 DUP3 DUP3 DUP6 PUSH2 0x18C1 JUMP JUMPDEST PUSH0 PUSH1 0x20 SWAP1 POP PUSH1 0x1F DUP4 GT PUSH1 0x1 DUP2 EQ PUSH2 0x19B2 JUMPI PUSH0 DUP5 ISZERO PUSH2 0x19A0 JUMPI DUP3 DUP8 ADD MLOAD SWAP1 POP JUMPDEST PUSH2 0x19AA DUP6 DUP3 PUSH2 0x192F JUMP JUMPDEST DUP7 SSTORE POP PUSH2 0x1A11 JUMP JUMPDEST PUSH1 0x1F NOT DUP5 AND PUSH2 0x19C0 DUP7 PUSH2 0x17B6 JUMP JUMPDEST PUSH0 JUMPDEST DUP3 DUP2 LT ISZERO PUSH2 0x19E7 JUMPI DUP5 DUP10 ADD MLOAD DUP3 SSTORE PUSH1 0x1 DUP3 ADD SWAP2 POP PUSH1 0x20 DUP6 ADD SWAP5 POP PUSH1 0x20 DUP2 ADD SWAP1 POP PUSH2 0x19C2 JUMP JUMPDEST DUP7 DUP4 LT ISZERO PUSH2 0x1A04 JUMPI DUP5 DUP10 ADD MLOAD PUSH2 0x1A00 PUSH1 0x1F DUP10 AND DUP3 PUSH2 0x1913 JUMP JUMPDEST DUP4 SSTORE POP JUMPDEST PUSH1 0x1 PUSH1 0x2 DUP9 MUL ADD DUP9 SSTORE POP POP POP JUMPDEST POP POP POP POP POP POP JUMP JUMPDEST PUSH32 0x596F7520617265206E6F7420746865206F776E65722E00000000000000000000 PUSH0 DUP3 ADD MSTORE POP JUMP JUMPDEST PUSH0 PUSH2 0x1A4D PUSH1 0x16 DUP4 PUSH2 0x15FA JUMP JUMPDEST SWAP2 POP PUSH2 0x1A58 DUP3 PUSH2 0x1A19 JUMP JUMPDEST PUSH1 0x20 DUP3 ADD SWAP1 POP SWAP2 SWAP1 POP JUMP JUMPDEST PUSH0 PUSH1 0x20 DUP3 ADD SWAP1 POP DUP2 DUP2 SUB PUSH0 DUP4 ADD MSTORE PUSH2 0x1A7A DUP2 PUSH2 0x1A41 JUMP JUMPDEST SWAP1 POP SWAP2 SWAP1 POP JUMP JUMPDEST PUSH32 0x4E487B7100000000000000000000000000000000000000000000000000000000 PUSH0 MSTORE PUSH1 0x32 PUSH1 0x4 MSTORE PUSH1 0x24 PUSH0 REVERT JUMPDEST PUSH32 0x4E487B7100000000000000000000000000000000000000000000000000000000 PUSH0 MSTORE PUSH1 0x11 PUSH1 0x4 MSTORE PUSH1 0x24 PUSH0 REVERT JUMPDEST PUSH0 PUSH2 0x1AE5 DUP3 PUSH2 0xFBE JUMP JUMPDEST SWAP2 POP PUSH2 0x1AF0 DUP4 PUSH2 0xFBE JUMP JUMPDEST SWAP3 POP DUP3 DUP3 ADD SWAP1 POP DUP1 DUP3 GT ISZERO PUSH2 0x1B08 JUMPI PUSH2 0x1B07 PUSH2 0x1AAE JUMP JUMPDEST JUMPDEST SWAP3 SWAP2 POP POP JUMP JUMPDEST PUSH32 0x456E74727920646F6573206E6F74206578697374000000000000000000000000 PUSH0 DUP3 ADD MSTORE POP JUMP JUMPDEST PUSH0 PUSH2 0x1B42 PUSH1 0x14 DUP4 PUSH2 0x15FA JUMP JUMPDEST SWAP2 POP PUSH2 0x1B4D DUP3 PUSH2 0x1B0E JUMP JUMPDEST PUSH1 0x20 DUP3 ADD SWAP1 POP SWAP2 SWAP1 POP JUMP JUMPDEST PUSH0 PUSH1 0x20 DUP3 ADD SWAP1 POP DUP2 DUP2 SUB PUSH0 DUP4 ADD MSTORE PUSH2 0x1B6F DUP2 PUSH2 0x1B36 JUMP JUMPDEST SWAP1 POP SWAP2 SWAP1 POP JUMP JUMPDEST PUSH0 PUSH2 0x1B80 DUP3 PUSH2 0xFBE JUMP JUMPDEST SWAP2 POP PUSH32 0xFFFFFFFFFFFFFFFFFFFFFFFFFFFFFFFFFFFFFFFFFFFFFFFFFFFFFFFFFFFFFFFF DUP3 SUB PUSH2 0x1BB2 JUMPI PUSH2 0x1BB1 PUSH2 0x1AAE JUMP JUMPDEST JUMPDEST PUSH1 0x1 DUP3 ADD SWAP1 POP SWAP2 SWAP1 POP JUMP JUMPDEST PUSH0 PUSH2 0x1BC7 DUP3 PUSH2 0xFBE JUMP JUMPDEST SWAP2 POP PUSH2 0x1BD2 DUP4 PUSH2 0xFBE JUMP JUMPDEST SWAP3 POP DUP3 DUP3 SUB SWAP1 POP DUP2 DUP2 GT ISZERO PUSH2 0x1BEA JUMPI PUSH2 0x1BE9 PUSH2 0x1AAE JUMP JUMPDEST JUMPDEST SWAP3 SWAP2 POP POP JUMP JUMPDEST PUSH0 DUP2 SLOAD PUSH2 0x1BFC DUP2 PUSH2 0x171E JUMP JUMPDEST PUSH2 0x1C06 DUP2 DUP7 PUSH2 0x15FA JUMP JUMPDEST SWAP5 POP PUSH1 0x1 DUP3 AND PUSH0 DUP2 EQ PUSH2 0x1C20 JUMPI PUSH1 0x1 DUP2 EQ PUSH2 0x1C36 JUMPI PUSH2 0x1C68 JUMP JUMPDEST PUSH1 0xFF NOT DUP4 AND DUP7 MSTORE DUP2 ISZERO ISZERO PUSH1 0x20 MUL DUP7 ADD SWAP4 POP PUSH2 0x1C68 JUMP JUMPDEST PUSH2 0x1C3F DUP6 PUSH2 0x17B6 JUMP JUMPDEST PUSH0 JUMPDEST DUP4 DUP2 LT ISZERO PUSH2 0x1C60 JUMPI DUP2 SLOAD DUP2 DUP10 ADD MSTORE PUSH1 0x1 DUP3 ADD SWAP2 POP PUSH1 0x20 DUP2 ADD SWAP1 POP PUSH2 0x1C41 JUMP JUMPDEST DUP1 DUP9 ADD SWAP6 POP POP POP JUMPDEST POP POP POP SWAP3 SWAP2 POP POP JUMP JUMPDEST PUSH0 DUP2 SLOAD SWAP1 POP SWAP2 SWAP1 POP JUMP JUMPDEST PUSH0 DUP3 DUP3 MSTORE PUSH1 0x20 DUP3 ADD SWAP1 POP SWAP3 SWAP2 POP POP JUMP JUMPDEST PUSH0 DUP2 SWAP1 POP DUP2 PUSH0 MSTORE PUSH1 0x20 PUSH0 KECCAK256 SWAP1 POP SWAP2 SWAP1 POP JUMP JUMPDEST PUSH0 DUP2 SLOAD PUSH2 0x1CA9 DUP2 PUSH2 0x171E JUMP JUMPDEST PUSH2 0x1CB3 DUP2 DUP7 PUSH2 0xDB6 JUMP JUMPDEST SWAP5 POP PUSH1 0x1 DUP3 AND PUSH0 DUP2 EQ PUSH2 0x1CCD JUMPI PUSH1 0x1 DUP2 EQ PUSH2 0x1CE3 JUMPI PUSH2 0x1D15 JUMP JUMPDEST PUSH1 0xFF NOT DUP4 AND DUP7 MSTORE DUP2 ISZERO ISZERO PUSH1 0x20 MUL DUP7 ADD SWAP4 POP PUSH2 0x1D15 JUMP JUMPDEST PUSH2 0x1CEC DUP6 PUSH2 0x17B6 JUMP JUMPDEST PUSH0 JUMPDEST DUP4 DUP2 LT ISZERO PUSH2 0x1D0D JUMPI DUP2 SLOAD DUP2 DUP10 ADD MSTORE PUSH1 0x1 DUP3 ADD SWAP2 POP PUSH1 0x20 DUP2 ADD SWAP1 POP PUSH2 0x1CEE JUMP JUMPDEST DUP1 DUP9 ADD SWAP6 POP POP POP JUMPDEST POP POP POP SWAP3 SWAP2 POP POP JUMP JUMPDEST PUSH0 PUSH2 0x1D29 DUP4 DUP4 PUSH2 0x1C9D JUMP JUMPDEST SWAP1 POP SWAP3 SWAP2 POP POP JUMP JUMPDEST PUSH0 PUSH1 0x1 DUP3 ADD SWAP1 POP SWAP2 SWAP1 POP JUMP JUMPDEST PUSH0 PUSH2 0x1D47 DUP3 PUSH2 0x1C71 JUMP JUMPDEST PUSH2 0x1D51 DUP2 DUP6 PUSH2 0x1C7B JUMP JUMPDEST SWAP4 POP DUP4 PUSH1 0x20 DUP3 MUL DUP6 ADD PUSH2 0x1D63 DUP6 PUSH2 0x1C8B JUMP JUMPDEST DUP1 PUSH0 JUMPDEST DUP6 DUP2 LT ISZERO PUSH2 0x1D9D JUMPI DUP5 DUP5 SUB DUP10 MSTORE DUP2 PUSH2 0x1D7E DUP6 DUP3 PUSH2 0x1D1E JUMP JUMPDEST SWAP5 POP PUSH2 0x1D89 DUP4 PUSH2 0x1D31 JUMP JUMPDEST SWAP3 POP PUSH1 0x20 DUP11 ADD SWAP10 POP POP PUSH1 0x1 DUP2 ADD SWAP1 POP PUSH2 0x1D66 JUMP JUMPDEST POP DUP3 SWAP8 POP DUP8 SWAP6 POP POP POP POP POP POP SWAP3 SWAP2 POP POP JUMP JUMPDEST PUSH0 DUP2 SLOAD SWAP1 POP SWAP2 SWAP1 POP JUMP JUMPDEST PUSH0 DUP3 DUP3 MSTORE PUSH1 0x20 DUP3 ADD SWAP1 POP SWAP3 SWAP2 POP POP JUMP JUMPDEST PUSH0 DUP2 SWAP1 POP DUP2 PUSH0 MSTORE PUSH1 0x20 PUSH0 KECCAK256 SWAP1 POP SWAP2 SWAP1 POP JUMP JUMPDEST PUSH0 DUP2 PUSH0 SHR SWAP1 POP SWAP2 SWAP1 POP JUMP JUMPDEST PUSH0 PUSH20 0xFFFFFFFFFFFFFFFFFFFFFFFFFFFFFFFFFFFFFFFF DUP3 AND SWAP1 POP SWAP2 SWAP1 POP JUMP JUMPDEST PUSH0 PUSH2 0x1E17 PUSH2 0x1E12 DUP4 PUSH2 0x1DDB JUMP JUMPDEST PUSH2 0x1DE6 JUMP JUMPDEST SWAP1 POP SWAP2 SWAP1 POP JUMP JUMPDEST PUSH0 PUSH2 0x1E29 DUP3 SLOAD PUSH2 0x1E05 JUMP JUMPDEST SWAP1 POP SWAP2 SWAP1 POP JUMP JUMPDEST PUSH0 PUSH1 0x1 DUP3 ADD SWAP1 POP SWAP2 SWAP1 POP JUMP JUMPDEST PUSH0 PUSH2 0x1E46 DUP3 PUSH2 0x1DAF JUMP JUMPDEST PUSH2 0x1E50 DUP2 DUP6 PUSH2 0x1DB9 JUMP JUMPDEST SWAP4 POP PUSH2 0x1E5B DUP4 PUSH2 0x1DC9 JUMP JUMPDEST DUP1 PUSH0 JUMPDEST DUP4 DUP2 LT ISZERO PUSH2 0x1E92 JUMPI PUSH2 0x1E6F DUP3 PUSH2 0x1E1E JUMP JUMPDEST PUSH2 0x1E79 DUP9 DUP3 PUSH2 0xF3F JUMP JUMPDEST SWAP8 POP PUSH2 0x1E84 DUP4 PUSH2 0x1E30 JUMP JUMPDEST SWAP3 POP POP PUSH1 0x1 DUP2 ADD SWAP1 POP PUSH2 0x1E5E JUMP JUMPDEST POP DUP6 SWAP4 POP POP POP POP SWAP3 SWAP2 POP POP JUMP JUMPDEST PUSH0 PUSH1 0x60 DUP3 ADD SWAP1 POP DUP2 DUP2 SUB PUSH0 DUP4 ADD MSTORE PUSH2 0x1EB7 DUP2 DUP7 PUSH2 0x1BF0 JUMP JUMPDEST SWAP1 POP DUP2 DUP2 SUB PUSH1 0x20 DUP4 ADD MSTORE PUSH2 0x1ECB DUP2 DUP6 PUSH2 0x1D3D JUMP JUMPDEST SWAP1 POP DUP2 DUP2 SUB PUSH1 0x40 DUP4 ADD MSTORE PUSH2 0x1EDF DUP2 DUP5 PUSH2 0x1E3C JUMP JUMPDEST SWAP1 POP SWAP5 SWAP4 POP POP POP POP JUMP JUMPDEST PUSH0 DUP2 SLOAD SWAP1 POP PUSH2 0x1EF7 DUP2 PUSH2 0x171E JUMP JUMPDEST SWAP1 POP SWAP2 SWAP1 POP JUMP JUMPDEST DUP2 DUP2 SUB PUSH2 0x1F0C JUMPI POP POP PUSH2 0x1FE1 JUMP JUMPDEST PUSH2 0x1F15 DUP3 PUSH2 0x1EE9 JUMP JUMPDEST PUSH8 0xFFFFFFFFFFFFFFFF DUP2 GT ISZERO PUSH2 0x1F2E JUMPI PUSH2 0x1F2D PUSH2 0x1122 JUMP JUMPDEST JUMPDEST PUSH2 0x1F38 DUP3 SLOAD PUSH2 0x171E JUMP JUMPDEST PUSH2 0x1F43 DUP3 DUP3 DUP6 PUSH2 0x18C1 JUMP JUMPDEST PUSH0 PUSH1 0x1F DUP4 GT PUSH1 0x1 DUP2 EQ PUSH2 0x1F70 JUMPI PUSH0 DUP5 ISZERO PUSH2 0x1F5E JUMPI DUP3 DUP8 ADD SLOAD SWAP1 POP JUMPDEST PUSH2 0x1F68 DUP6 DUP3 PUSH2 0x192F JUMP JUMPDEST DUP7 SSTORE POP PUSH2 0x1FDA JUMP JUMPDEST PUSH1 0x1F NOT DUP5 AND PUSH2 0x1F7E DUP8 PUSH2 0x17B6 JUMP JUMPDEST SWAP7 POP PUSH2 0x1F89 DUP7 PUSH2 0x17B6 JUMP JUMPDEST PUSH0 JUMPDEST DUP3 DUP2 LT ISZERO PUSH2 0x1FB0 JUMPI DUP5 DUP10 ADD SLOAD DUP3 SSTORE PUSH1 0x1 DUP3 ADD SWAP2 POP PUSH1 0x1 DUP6 ADD SWAP5 POP PUSH1 0x20 DUP2 ADD SWAP1 POP PUSH2 0x1F8B JUMP JUMPDEST DUP7 DUP4 LT ISZERO PUSH2 0x1FCD JUMPI DUP5 DUP10 ADD SLOAD PUSH2 0x1FC9 PUSH1 0x1F DUP10 AND DUP3 PUSH2 0x1913 JUMP JUMPDEST DUP4 SSTORE POP JUMPDEST PUSH1 0x1 PUSH1 0x2 DUP9 MUL ADD DUP9 SSTORE POP POP POP JUMPDEST POP POP POP POP POP POP JUMPDEST JUMP JUMPDEST PUSH32 0x4E487B7100000000000000000000000000000000000000000000000000000000 PUSH0 MSTORE PUSH1 0x31 PUSH1 0x4 MSTORE PUSH1 0x24 PUSH0 REVERT JUMPDEST PUSH0 DUP2 SWAP1 POP SWAP3 SWAP2 POP POP JUMP JUMPDEST PUSH0 DUP2 SWAP1 POP DUP2 PUSH0 MSTORE PUSH1 0x20 PUSH0 KECCAK256 SWAP1 POP SWAP2 SWAP1 POP JUMP JUMPDEST PUSH0 DUP2 SLOAD PUSH2 0x2038 DUP2 PUSH2 0x171E JUMP JUMPDEST PUSH2 0x2042 DUP2 DUP7 PUSH2 0x2010 JUMP JUMPDEST SWAP5 POP PUSH1 0x1 DUP3 AND PUSH0 DUP2 EQ PUSH2 0x205C JUMPI PUSH1 0x1 DUP2 EQ PUSH2 0x2071 JUMPI PUSH2 0x20A3 JUMP JUMPDEST PUSH1 0xFF NOT DUP4 AND DUP7 MSTORE DUP2 ISZERO ISZERO DUP3 MUL DUP7 ADD SWAP4 POP PUSH2 0x20A3 JUMP JUMPDEST PUSH2 0x207A DUP6 PUSH2 0x201A JUMP JUMPDEST PUSH0 JUMPDEST DUP4 DUP2 LT ISZERO PUSH2 0x209B JUMPI DUP2 SLOAD DUP2 DUP10 ADD MSTORE PUSH1 0x1 DUP3 ADD SWAP2 POP PUSH1 0x20 DUP2 ADD SWAP1 POP PUSH2 0x207C JUMP JUMPDEST DUP4 DUP9 ADD SWAP6 POP POP POP JUMPDEST POP POP POP SWAP3 SWAP2 POP POP JUMP JUMPDEST PUSH0 PUSH2 0x20B7 DUP3 DUP5 PUSH2 0x202C JUMP JUMPDEST SWAP2 POP DUP2 SWAP1 POP SWAP3 SWAP2 POP POP JUMP INVALID LOG2 PUSH5 0x6970667358 0x22 SLT KECCAK256 GAS COINBASE 0xBF MSTORE CHAINID SWAP7 0xB1 GAS 0xCB DELEGATECALL 0xCC 0xB0 0x2A SMOD 0xB7 0x27 0xE5 DUP7 0x2B SAR 0xDD CALLER EXP 0xC9 ADDRESS PUSH22 0xEE34D7F9D09C64736F6C634300081900330000000000 "
				},
				"gasEstimates": {
					"creation": {
						"codeDepositCost": "1688000",
						"executionCost": "26034",
						"totalCost": "1714034"
					},
					"external": {
						"addEntry(string,string[],address[])": "infinite",
						"entries(uint256)": "infinite",
						"getEntries()": "infinite",
						"getLeastVotedEntryId()": "infinite",
						"owner()": "2575",
						"paperPool()": "infinite",
						"updatePaperPool(address)": "26929",
						"vote(uint256,bool)": "infinite"
					},
					"internal": {
						"entryExists(string memory)": "infinite"
					}
				},
				"methodIdentifiers": {
					"addEntry(string,string[],address[])": "22fae27d",
					"entries(uint256)": "b30906d4",
					"getEntries()": "17be85c3",
					"getLeastVotedEntryId()": "a0a0a815",
					"owner()": "8da5cb5b",
					"paperPool()": "a302de16",
					"updatePaperPool(address)": "2dcc4387",
					"vote(uint256,bool)": "c9d27afe"
				}
			},
			"storageLayout": {
				"storage": [
					{
						"astId": 16,
						"contract": "contracts/AQ.sol:ApprovalQueue",
						"label": "paperPool",
						"offset": 0,
						"slot": "0",
						"type": "t_contract(pp)13"
					},
					{
						"astId": 18,
						"contract": "contracts/AQ.sol:ApprovalQueue",
						"label": "owner",
						"offset": 0,
						"slot": "1",
						"type": "t_address"
					},
					{
						"astId": 70,
						"contract": "contracts/AQ.sol:ApprovalQueue",
						"label": "entries",
						"offset": 0,
						"slot": "2",
						"type": "t_array(t_struct(Entry)66_storage)dyn_storage"
					}
				],
				"types": {
					"t_address": {
						"encoding": "inplace",
						"label": "address",
						"numberOfBytes": "20"
					},
					"t_array(t_address)dyn_storage": {
						"base": "t_address",
						"encoding": "dynamic_array",
						"label": "address[]",
						"numberOfBytes": "32"
					},
					"t_array(t_string_storage)dyn_storage": {
						"base": "t_string_storage",
						"encoding": "dynamic_array",
						"label": "string[]",
						"numberOfBytes": "32"
					},
					"t_array(t_struct(Entry)66_storage)dyn_storage": {
						"base": "t_struct(Entry)66_storage",
						"encoding": "dynamic_array",
						"label": "struct ApprovalQueue.Entry[]",
						"numberOfBytes": "32"
					},
					"t_contract(pp)13": {
						"encoding": "inplace",
						"label": "contract pp",
						"numberOfBytes": "20"
					},
					"t_string_storage": {
						"encoding": "bytes",
						"label": "string",
						"numberOfBytes": "32"
					},
					"t_struct(Entry)66_storage": {
						"encoding": "inplace",
						"label": "struct ApprovalQueue.Entry",
						"members": [
							{
								"astId": 55,
								"contract": "contracts/AQ.sol:ApprovalQueue",
								"label": "id",
								"offset": 0,
								"slot": "0",
								"type": "t_string_storage"
							},
							{
								"astId": 58,
								"contract": "contracts/AQ.sol:ApprovalQueue",
								"label": "citations",
								"offset": 0,
								"slot": "1",
								"type": "t_array(t_string_storage)dyn_storage"
							},
							{
								"astId": 61,
								"contract": "contracts/AQ.sol:ApprovalQueue",
								"label": "addresses",
								"offset": 0,
								"slot": "2",
								"type": "t_array(t_address)dyn_storage"
							},
							{
								"astId": 63,
								"contract": "contracts/AQ.sol:ApprovalQueue",
								"label": "upvotes",
								"offset": 0,
								"slot": "3",
								"type": "t_uint256"
							},
							{
								"astId": 65,
								"contract": "contracts/AQ.sol:ApprovalQueue",
								"label": "downvotes",
								"offset": 0,
								"slot": "4",
								"type": "t_uint256"
							}
						],
						"numberOfBytes": "160"
					},
					"t_uint256": {
						"encoding": "inplace",
						"label": "uint256",
						"numberOfBytes": "32"
					}
				}
			},
			"userdoc": {
				"kind": "user",
				"methods": {},
				"version": 1
			}
		}
	}
}