{
	"contracts/AQ.sol": {
		"ApprovalQueue": {
			"abi": [
				{
					"inputs": [],
					"stateMutability": "nonpayable",
					"type": "constructor"
				},
				{
					"inputs": [
						{
							"internalType": "string",
							"name": "id",
							"type": "string"
						},
						{
							"internalType": "string[]",
							"name": "citations",
							"type": "string[]"
						},
						{
							"internalType": "address[]",
							"name": "addresses",
							"type": "address[]"
						}
					],
					"name": "addEntry",
					"outputs": [],
					"stateMutability": "nonpayable",
					"type": "function"
				},
				{
					"inputs": [
						{
							"internalType": "uint256",
							"name": "",
							"type": "uint256"
						}
					],
					"name": "entries",
					"outputs": [
						{
							"internalType": "string",
							"name": "id",
							"type": "string"
						},
						{
							"internalType": "uint256",
							"name": "upvotes",
							"type": "uint256"
						},
						{
							"internalType": "uint256",
							"name": "downvotes",
							"type": "uint256"
						}
					],
					"stateMutability": "view",
					"type": "function"
				},
				{
					"inputs": [],
					"name": "getEntries",
					"outputs": [
						{
							"components": [
								{
									"internalType": "string",
									"name": "id",
									"type": "string"
								},
								{
									"internalType": "string[]",
									"name": "citations",
									"type": "string[]"
								},
								{
									"internalType": "address[]",
									"name": "addresses",
									"type": "address[]"
								},
								{
									"internalType": "uint256",
									"name": "upvotes",
									"type": "uint256"
								},
								{
									"internalType": "uint256",
									"name": "downvotes",
									"type": "uint256"
								}
							],
							"internalType": "struct ApprovalQueue.Entry[]",
							"name": "",
							"type": "tuple[]"
						}
					],
					"stateMutability": "view",
					"type": "function"
				},
				{
					"inputs": [],
					"name": "getLeastVotedEntryId",
					"outputs": [
						{
							"internalType": "uint256",
							"name": "",
							"type": "uint256"
						}
					],
					"stateMutability": "view",
					"type": "function"
				},
				{
					"inputs": [],
					"name": "owner",
					"outputs": [
						{
							"internalType": "address",
							"name": "",
							"type": "address"
						}
					],
					"stateMutability": "view",
					"type": "function"
				},
				{
					"inputs": [],
					"name": "paperPool",
					"outputs": [
						{
							"internalType": "contract pp",
							"name": "",
							"type": "address"
						}
					],
					"stateMutability": "view",
					"type": "function"
				},
				{
					"inputs": [],
					"name": "toReview",
					"outputs": [
						{
							"internalType": "bool",
							"name": "",
							"type": "bool"
						}
					],
					"stateMutability": "view",
					"type": "function"
				},
				{
					"inputs": [
						{
							"internalType": "address",
							"name": "newPaperPool",
							"type": "address"
						}
					],
					"name": "updatePaperPool",
					"outputs": [],
					"stateMutability": "nonpayable",
					"type": "function"
				},
				{
					"inputs": [
						{
							"internalType": "uint256",
							"name": "id",
							"type": "uint256"
						},
						{
							"internalType": "bool",
							"name": "upvote",
							"type": "bool"
						}
					],
					"name": "vote",
					"outputs": [],
					"stateMutability": "nonpayable",
					"type": "function"
				}
			],
			"devdoc": {
				"kind": "dev",
				"methods": {},
				"version": 1
			},
			"evm": {
				"assembly": "    /* \"contracts/AQ.sol\":180:2967  contract ApprovalQueue {... */\n  mstore(0x40, 0x80)\n    /* \"contracts/AQ.sol\":432:481  constructor() {... */\n  callvalue\n  dup1\n  iszero\n  tag_1\n  jumpi\n  0x00\n  dup1\n  revert\ntag_1:\n  pop\n    /* \"contracts/AQ.sol\":464:474  msg.sender */\n  caller\n    /* \"contracts/AQ.sol\":456:461  owner */\n  0x01\n  0x00\n    /* \"contracts/AQ.sol\":456:474  owner = msg.sender */\n  0x0100\n  exp\n  dup2\n  sload\n  dup2\n  0xffffffffffffffffffffffffffffffffffffffff\n  mul\n  not\n  and\n  swap1\n  dup4\n  0xffffffffffffffffffffffffffffffffffffffff\n  and\n  mul\n  or\n  swap1\n  sstore\n  pop\n    /* \"contracts/AQ.sol\":180:2967  contract ApprovalQueue {... */\n  dataSize(sub_0)\n  dup1\n  dataOffset(sub_0)\n  0x00\n  codecopy\n  0x00\n  return\nstop\n\nsub_0: assembly {\n        /* \"contracts/AQ.sol\":180:2967  contract ApprovalQueue {... */\n      mstore(0x40, 0x80)\n      callvalue\n      dup1\n      iszero\n      tag_1\n      jumpi\n      0x00\n      dup1\n      revert\n    tag_1:\n      pop\n      jumpi(tag_2, lt(calldatasize, 0x04))\n      shr(0xe0, calldataload(0x00))\n      dup1\n      0xa0a0a815\n      gt\n      tag_12\n      jumpi\n      dup1\n      0xa0a0a815\n      eq\n      tag_7\n      jumpi\n      dup1\n      0xa302de16\n      eq\n      tag_8\n      jumpi\n      dup1\n      0xb30906d4\n      eq\n      tag_9\n      jumpi\n      dup1\n      0xc9d27afe\n      eq\n      tag_10\n      jumpi\n      dup1\n      0xcebbb33e\n      eq\n      tag_11\n      jumpi\n      jump(tag_2)\n    tag_12:\n      dup1\n      0x17be85c3\n      eq\n      tag_3\n      jumpi\n      dup1\n      0x22fae27d\n      eq\n      tag_4\n      jumpi\n      dup1\n      0x2dcc4387\n      eq\n      tag_5\n      jumpi\n      dup1\n      0x8da5cb5b\n      eq\n      tag_6\n      jumpi\n    tag_2:\n      0x00\n      dup1\n      revert\n        /* \"contracts/AQ.sol\":911:1001  function getEntries() public view returns (Entry[] memory) {... */\n    tag_3:\n      tag_13\n      tag_14\n      jump\t// in\n    tag_13:\n      mload(0x40)\n      tag_15\n      swap2\n      swap1\n      tag_16\n      jump\t// in\n    tag_15:\n      mload(0x40)\n      dup1\n      swap2\n      sub\n      swap1\n      return\n        /* \"contracts/AQ.sol\":1056:1284  function addEntry(string memory id, string[] memory citations, address[] memory addresses) public {... */\n    tag_4:\n      tag_17\n      0x04\n      dup1\n      calldatasize\n      sub\n      dup2\n      add\n      swap1\n      tag_18\n      swap2\n      swap1\n      tag_19\n      jump\t// in\n    tag_18:\n      tag_20\n      jump\t// in\n    tag_17:\n      stop\n        /* \"contracts/AQ.sol\":487:680  function updatePaperPool(address newPaperPool) public onlyOwner {... */\n    tag_5:\n      tag_21\n      0x04\n      dup1\n      calldatasize\n      sub\n      dup2\n      add\n      swap1\n      tag_22\n      swap2\n      swap1\n      tag_23\n      jump\t// in\n    tag_22:\n      tag_24\n      jump\t// in\n    tag_21:\n      stop\n        /* \"contracts/AQ.sol\":234:254  address public owner */\n    tag_6:\n      tag_25\n      tag_26\n      jump\t// in\n    tag_25:\n      mload(0x40)\n      tag_27\n      swap2\n      swap1\n      tag_28\n      jump\t// in\n    tag_27:\n      mload(0x40)\n      dup1\n      swap2\n      sub\n      swap1\n      return\n        /* \"contracts/AQ.sol\":2474:2965  function getLeastVotedEntryId() public view returns (uint) {... */\n    tag_7:\n      tag_29\n      tag_30\n      jump\t// in\n    tag_29:\n      mload(0x40)\n      tag_31\n      swap2\n      swap1\n      tag_32\n      jump\t// in\n    tag_31:\n      mload(0x40)\n      dup1\n      swap2\n      sub\n      swap1\n      return\n        /* \"contracts/AQ.sol\":209:228  pp public paperPool */\n    tag_8:\n      tag_33\n      tag_34\n      jump\t// in\n    tag_33:\n      mload(0x40)\n      tag_35\n      swap2\n      swap1\n      tag_36\n      jump\t// in\n    tag_35:\n      mload(0x40)\n      dup1\n      swap2\n      sub\n      swap1\n      return\n        /* \"contracts/AQ.sol\":882:904  Entry[] public entries */\n    tag_9:\n      tag_37\n      0x04\n      dup1\n      calldatasize\n      sub\n      dup2\n      add\n      swap1\n      tag_38\n      swap2\n      swap1\n      tag_39\n      jump\t// in\n    tag_38:\n      tag_40\n      jump\t// in\n    tag_37:\n      mload(0x40)\n      tag_41\n      swap4\n      swap3\n      swap2\n      swap1\n      tag_42\n      jump\t// in\n    tag_41:\n      mload(0x40)\n      dup1\n      swap2\n      sub\n      swap1\n      return\n        /* \"contracts/AQ.sol\":1697:2300  function vote(uint id, bool upvote) public {... */\n    tag_10:\n      tag_43\n      0x04\n      dup1\n      calldatasize\n      sub\n      dup2\n      add\n      swap1\n      tag_44\n      swap2\n      swap1\n      tag_45\n      jump\t// in\n    tag_44:\n      tag_46\n      jump\t// in\n    tag_43:\n      stop\n        /* \"contracts/AQ.sol\":2306:2393  function toReview() public view returns (bool) {... */\n    tag_11:\n      tag_47\n      tag_48\n      jump\t// in\n    tag_47:\n      mload(0x40)\n      tag_49\n      swap2\n      swap1\n      tag_50\n      jump\t// in\n    tag_49:\n      mload(0x40)\n      dup1\n      swap2\n      sub\n      swap1\n      return\n        /* \"contracts/AQ.sol\":911:1001  function getEntries() public view returns (Entry[] memory) {... */\n    tag_14:\n        /* \"contracts/AQ.sol\":954:968  Entry[] memory */\n      0x60\n        /* \"contracts/AQ.sol\":987:994  entries */\n      0x02\n        /* \"contracts/AQ.sol\":980:994  return entries */\n      dup1\n      sload\n      dup1\n      0x20\n      mul\n      0x20\n      add\n      mload(0x40)\n      swap1\n      dup2\n      add\n      0x40\n      mstore\n      dup1\n      swap3\n      swap2\n      swap1\n      dup2\n      dup2\n      mstore\n      0x20\n      add\n      0x00\n      swap1\n    tag_52:\n      dup3\n      dup3\n      lt\n      iszero\n      tag_53\n      jumpi\n      dup4\n      dup3\n      swap1\n      0x00\n      mstore\n      keccak256(0x00, 0x20)\n      swap1\n      0x05\n      mul\n      add\n      mload(0x40)\n      dup1\n      0xa0\n      add\n      0x40\n      mstore\n      swap1\n      dup2\n      0x00\n      dup3\n      add\n      dup1\n      sload\n      tag_55\n      swap1\n      tag_56\n      jump\t// in\n    tag_55:\n      dup1\n      0x1f\n      add\n      0x20\n      dup1\n      swap2\n      div\n      mul\n      0x20\n      add\n      mload(0x40)\n      swap1\n      dup2\n      add\n      0x40\n      mstore\n      dup1\n      swap3\n      swap2\n      swap1\n      dup2\n      dup2\n      mstore\n      0x20\n      add\n      dup3\n      dup1\n      sload\n      tag_57\n      swap1\n      tag_56\n      jump\t// in\n    tag_57:\n      dup1\n      iszero\n      tag_58\n      jumpi\n      dup1\n      0x1f\n      lt\n      tag_59\n      jumpi\n      0x0100\n      dup1\n      dup4\n      sload\n      div\n      mul\n      dup4\n      mstore\n      swap2\n      0x20\n      add\n      swap2\n      jump(tag_58)\n    tag_59:\n      dup3\n      add\n      swap2\n      swap1\n      0x00\n      mstore\n      keccak256(0x00, 0x20)\n      swap1\n    tag_60:\n      dup2\n      sload\n      dup2\n      mstore\n      swap1\n      0x01\n      add\n      swap1\n      0x20\n      add\n      dup1\n      dup4\n      gt\n      tag_60\n      jumpi\n      dup3\n      swap1\n      sub\n      0x1f\n      and\n      dup3\n      add\n      swap2\n    tag_58:\n      pop\n      pop\n      pop\n      pop\n      pop\n      dup2\n      mstore\n      0x20\n      add\n      0x01\n      dup3\n      add\n      dup1\n      sload\n      dup1\n      0x20\n      mul\n      0x20\n      add\n      mload(0x40)\n      swap1\n      dup2\n      add\n      0x40\n      mstore\n      dup1\n      swap3\n      swap2\n      swap1\n      dup2\n      dup2\n      mstore\n      0x20\n      add\n      0x00\n      swap1\n    tag_61:\n      dup3\n      dup3\n      lt\n      iszero\n      tag_62\n      jumpi\n      dup4\n      dup3\n      swap1\n      0x00\n      mstore\n      keccak256(0x00, 0x20)\n      add\n      dup1\n      sload\n      tag_64\n      swap1\n      tag_56\n      jump\t// in\n    tag_64:\n      dup1\n      0x1f\n      add\n      0x20\n      dup1\n      swap2\n      div\n      mul\n      0x20\n      add\n      mload(0x40)\n      swap1\n      dup2\n      add\n      0x40\n      mstore\n      dup1\n      swap3\n      swap2\n      swap1\n      dup2\n      dup2\n      mstore\n      0x20\n      add\n      dup3\n      dup1\n      sload\n      tag_65\n      swap1\n      tag_56\n      jump\t// in\n    tag_65:\n      dup1\n      iszero\n      tag_66\n      jumpi\n      dup1\n      0x1f\n      lt\n      tag_67\n      jumpi\n      0x0100\n      dup1\n      dup4\n      sload\n      div\n      mul\n      dup4\n      mstore\n      swap2\n      0x20\n      add\n      swap2\n      jump(tag_66)\n    tag_67:\n      dup3\n      add\n      swap2\n      swap1\n      0x00\n      mstore\n      keccak256(0x00, 0x20)\n      swap1\n    tag_68:\n      dup2\n      sload\n      dup2\n      mstore\n      swap1\n      0x01\n      add\n      swap1\n      0x20\n      add\n      dup1\n      dup4\n      gt\n      tag_68\n      jumpi\n      dup3\n      swap1\n      sub\n      0x1f\n      and\n      dup3\n      add\n      swap2\n    tag_66:\n      pop\n      pop\n      pop\n      pop\n      pop\n      dup2\n      mstore\n      0x20\n      add\n      swap1\n      0x01\n      add\n      swap1\n      jump(tag_61)\n    tag_62:\n      pop\n      pop\n      pop\n      pop\n      dup2\n      mstore\n      0x20\n      add\n      0x02\n      dup3\n      add\n      dup1\n      sload\n      dup1\n      0x20\n      mul\n      0x20\n      add\n      mload(0x40)\n      swap1\n      dup2\n      add\n      0x40\n      mstore\n      dup1\n      swap3\n      swap2\n      swap1\n      dup2\n      dup2\n      mstore\n      0x20\n      add\n      dup3\n      dup1\n      sload\n      dup1\n      iszero\n      tag_69\n      jumpi\n      0x20\n      mul\n      dup3\n      add\n      swap2\n      swap1\n      0x00\n      mstore\n      keccak256(0x00, 0x20)\n      swap1\n    tag_70:\n      dup2\n      0x00\n      swap1\n      sload\n      swap1\n      0x0100\n      exp\n      swap1\n      div\n      0xffffffffffffffffffffffffffffffffffffffff\n      and\n      0xffffffffffffffffffffffffffffffffffffffff\n      and\n      dup2\n      mstore\n      0x20\n      add\n      swap1\n      0x01\n      add\n      swap1\n      dup1\n      dup4\n      gt\n      tag_70\n      jumpi\n    tag_69:\n      pop\n      pop\n      pop\n      pop\n      pop\n      dup2\n      mstore\n      0x20\n      add\n      0x03\n      dup3\n      add\n      sload\n      dup2\n      mstore\n      0x20\n      add\n      0x04\n      dup3\n      add\n      sload\n      dup2\n      mstore\n      pop\n      pop\n      dup2\n      mstore\n      0x20\n      add\n      swap1\n      0x01\n      add\n      swap1\n      jump(tag_52)\n    tag_53:\n      pop\n      pop\n      pop\n      pop\n      swap1\n      pop\n        /* \"contracts/AQ.sol\":911:1001  function getEntries() public view returns (Entry[] memory) {... */\n      swap1\n      jump\t// out\n        /* \"contracts/AQ.sol\":1056:1284  function addEntry(string memory id, string[] memory citations, address[] memory addresses) public {... */\n    tag_20:\n        /* \"contracts/AQ.sol\":1173:1188  entryExists(id) */\n      tag_72\n        /* \"contracts/AQ.sol\":1185:1187  id */\n      dup4\n        /* \"contracts/AQ.sol\":1173:1184  entryExists */\n      tag_73\n        /* \"contracts/AQ.sol\":1173:1188  entryExists(id) */\n      jump\t// in\n    tag_72:\n        /* \"contracts/AQ.sol\":1172:1188  !entryExists(id) */\n      iszero\n        /* \"contracts/AQ.sol\":1164:1216  require(!entryExists(id), \"Entry ID must be unique\") */\n      tag_74\n      jumpi\n      mload(0x40)\n      0x08c379a000000000000000000000000000000000000000000000000000000000\n      dup2\n      mstore\n      0x04\n      add\n      tag_75\n      swap1\n      tag_76\n      jump\t// in\n    tag_75:\n      mload(0x40)\n      dup1\n      swap2\n      sub\n      swap1\n      revert\n    tag_74:\n        /* \"contracts/AQ.sol\":1226:1233  entries */\n      0x02\n        /* \"contracts/AQ.sol\":1239:1276  Entry(id, citations, addresses, 0, 0) */\n      mload(0x40)\n      dup1\n      0xa0\n      add\n      0x40\n      mstore\n      dup1\n        /* \"contracts/AQ.sol\":1245:1247  id */\n      dup6\n        /* \"contracts/AQ.sol\":1239:1276  Entry(id, citations, addresses, 0, 0) */\n      dup2\n      mstore\n      0x20\n      add\n        /* \"contracts/AQ.sol\":1249:1258  citations */\n      dup5\n        /* \"contracts/AQ.sol\":1239:1276  Entry(id, citations, addresses, 0, 0) */\n      dup2\n      mstore\n      0x20\n      add\n        /* \"contracts/AQ.sol\":1260:1269  addresses */\n      dup4\n        /* \"contracts/AQ.sol\":1239:1276  Entry(id, citations, addresses, 0, 0) */\n      dup2\n      mstore\n      0x20\n      add\n        /* \"contracts/AQ.sol\":1271:1272  0 */\n      0x00\n        /* \"contracts/AQ.sol\":1239:1276  Entry(id, citations, addresses, 0, 0) */\n      dup2\n      mstore\n      0x20\n      add\n        /* \"contracts/AQ.sol\":1274:1275  0 */\n      0x00\n        /* \"contracts/AQ.sol\":1239:1276  Entry(id, citations, addresses, 0, 0) */\n      dup2\n      mstore\n      pop\n        /* \"contracts/AQ.sol\":1226:1277  entries.push(Entry(id, citations, addresses, 0, 0)) */\n      swap1\n      dup1\n      0x01\n      dup2\n      sload\n      add\n      dup1\n      dup3\n      sstore\n      dup1\n      swap2\n      pop\n      pop\n      0x01\n      swap1\n      sub\n      swap1\n      0x00\n      mstore\n      keccak256(0x00, 0x20)\n      swap1\n      0x05\n      mul\n      add\n      0x00\n      swap1\n      swap2\n      swap1\n      swap2\n      swap1\n      swap2\n      pop\n      0x00\n      dup3\n      add\n      mload\n      dup2\n      0x00\n      add\n      swap1\n      dup2\n      tag_78\n      swap2\n      swap1\n      tag_79\n      jump\t// in\n    tag_78:\n      pop\n      0x20\n      dup3\n      add\n      mload\n      dup2\n      0x01\n      add\n      swap1\n      dup1\n      mload\n      swap1\n      0x20\n      add\n      swap1\n      tag_80\n      swap3\n      swap2\n      swap1\n      tag_81\n      jump\t// in\n    tag_80:\n      pop\n      0x40\n      dup3\n      add\n      mload\n      dup2\n      0x02\n      add\n      swap1\n      dup1\n      mload\n      swap1\n      0x20\n      add\n      swap1\n      tag_82\n      swap3\n      swap2\n      swap1\n      tag_83\n      jump\t// in\n    tag_82:\n      pop\n      0x60\n      dup3\n      add\n      mload\n      dup2\n      0x03\n      add\n      sstore\n      0x80\n      dup3\n      add\n      mload\n      dup2\n      0x04\n      add\n      sstore\n      pop\n      pop\n        /* \"contracts/AQ.sol\":1056:1284  function addEntry(string memory id, string[] memory citations, address[] memory addresses) public {... */\n      pop\n      pop\n      pop\n      jump\t// out\n        /* \"contracts/AQ.sol\":487:680  function updatePaperPool(address newPaperPool) public onlyOwner {... */\n    tag_24:\n        /* \"contracts/AQ.sol\":376:381  owner */\n      0x01\n      0x00\n      swap1\n      sload\n      swap1\n      0x0100\n      exp\n      swap1\n      div\n      0xffffffffffffffffffffffffffffffffffffffff\n      and\n        /* \"contracts/AQ.sol\":362:381  msg.sender == owner */\n      0xffffffffffffffffffffffffffffffffffffffff\n      and\n        /* \"contracts/AQ.sol\":362:372  msg.sender */\n      caller\n        /* \"contracts/AQ.sol\":362:381  msg.sender == owner */\n      0xffffffffffffffffffffffffffffffffffffffff\n      and\n      eq\n        /* \"contracts/AQ.sol\":354:408  require(msg.sender == owner, \"You are not the owner.\") */\n      tag_85\n      jumpi\n      mload(0x40)\n      0x08c379a000000000000000000000000000000000000000000000000000000000\n      dup2\n      mstore\n      0x04\n      add\n      tag_86\n      swap1\n      tag_87\n      jump\t// in\n    tag_86:\n      mload(0x40)\n      dup1\n      swap2\n      sub\n      swap1\n      revert\n    tag_85:\n        /* \"contracts/AQ.sol\":660:672  newPaperPool */\n      dup1\n        /* \"contracts/AQ.sol\":645:654  paperPool */\n      0x00\n      dup1\n        /* \"contracts/AQ.sol\":645:673  paperPool = pp(newPaperPool) */\n      0x0100\n      exp\n      dup2\n      sload\n      dup2\n      0xffffffffffffffffffffffffffffffffffffffff\n      mul\n      not\n      and\n      swap1\n      dup4\n      0xffffffffffffffffffffffffffffffffffffffff\n      and\n      mul\n      or\n      swap1\n      sstore\n      pop\n        /* \"contracts/AQ.sol\":487:680  function updatePaperPool(address newPaperPool) public onlyOwner {... */\n      pop\n      jump\t// out\n        /* \"contracts/AQ.sol\":234:254  address public owner */\n    tag_26:\n      0x01\n      0x00\n      swap1\n      sload\n      swap1\n      0x0100\n      exp\n      swap1\n      div\n      0xffffffffffffffffffffffffffffffffffffffff\n      and\n      dup2\n      jump\t// out\n        /* \"contracts/AQ.sol\":2474:2965  function getLeastVotedEntryId() public view returns (uint) {... */\n    tag_30:\n        /* \"contracts/AQ.sol\":2527:2531  uint */\n      0x00\n        /* \"contracts/AQ.sol\":2565:2566  0 */\n      dup1\n        /* \"contracts/AQ.sol\":2547:2554  entries */\n      0x02\n        /* \"contracts/AQ.sol\":2547:2561  entries.length */\n      dup1\n      sload\n      swap1\n      pop\n        /* \"contracts/AQ.sol\":2547:2566  entries.length == 0 */\n      sub\n        /* \"contracts/AQ.sol\":2543:2580  if (entries.length == 0) return 99999 */\n      tag_90\n      jumpi\n        /* \"contracts/AQ.sol\":2575:2580  99999 */\n      0x01869f\n        /* \"contracts/AQ.sol\":2568:2580  return 99999 */\n      swap1\n      pop\n      jump(tag_89)\n        /* \"contracts/AQ.sol\":2543:2580  if (entries.length == 0) return 99999 */\n    tag_90:\n        /* \"contracts/AQ.sol\":2599:2611  uint votedId */\n      0x00\n        /* \"contracts/AQ.sol\":2625:2639  uint threshold */\n      dup1\n        /* \"contracts/AQ.sol\":2663:2670  entries */\n      0x02\n        /* \"contracts/AQ.sol\":2671:2672  0 */\n      0x00\n        /* \"contracts/AQ.sol\":2663:2673  entries[0] */\n      dup2\n      sload\n      dup2\n      lt\n      tag_91\n      jumpi\n      tag_92\n      tag_93\n      jump\t// in\n    tag_92:\n    tag_91:\n      swap1\n      0x00\n      mstore\n      keccak256(0x00, 0x20)\n      swap1\n      0x05\n      mul\n      add\n        /* \"contracts/AQ.sol\":2663:2683  entries[0].downvotes */\n      0x04\n      add\n      sload\n        /* \"contracts/AQ.sol\":2642:2649  entries */\n      0x02\n        /* \"contracts/AQ.sol\":2650:2651  0 */\n      0x00\n        /* \"contracts/AQ.sol\":2642:2652  entries[0] */\n      dup2\n      sload\n      dup2\n      lt\n      tag_95\n      jumpi\n      tag_96\n      tag_93\n      jump\t// in\n    tag_96:\n    tag_95:\n      swap1\n      0x00\n      mstore\n      keccak256(0x00, 0x20)\n      swap1\n      0x05\n      mul\n      add\n        /* \"contracts/AQ.sol\":2642:2660  entries[0].upvotes */\n      0x03\n      add\n      sload\n        /* \"contracts/AQ.sol\":2642:2683  entries[0].upvotes + entries[0].downvotes */\n      tag_98\n      swap2\n      swap1\n      tag_99\n      jump\t// in\n    tag_98:\n        /* \"contracts/AQ.sol\":2625:2683  uint threshold = entries[0].upvotes + entries[0].downvotes */\n      swap1\n      pop\n        /* \"contracts/AQ.sol\":2699:2705  uint i */\n      0x00\n        /* \"contracts/AQ.sol\":2708:2709  1 */\n      0x01\n        /* \"contracts/AQ.sol\":2699:2709  uint i = 1 */\n      swap1\n      pop\n        /* \"contracts/AQ.sol\":2694:2934  for (uint i = 1; i < entries.length; i++) {... */\n    tag_100:\n        /* \"contracts/AQ.sol\":2715:2722  entries */\n      0x02\n        /* \"contracts/AQ.sol\":2715:2729  entries.length */\n      dup1\n      sload\n      swap1\n      pop\n        /* \"contracts/AQ.sol\":2711:2712  i */\n      dup2\n        /* \"contracts/AQ.sol\":2711:2729  i < entries.length */\n      lt\n        /* \"contracts/AQ.sol\":2694:2934  for (uint i = 1; i < entries.length; i++) {... */\n      iszero\n      tag_101\n      jumpi\n        /* \"contracts/AQ.sol\":2798:2807  threshold */\n      dup2\n        /* \"contracts/AQ.sol\":2775:2782  entries */\n      0x02\n        /* \"contracts/AQ.sol\":2783:2784  i */\n      dup3\n        /* \"contracts/AQ.sol\":2775:2785  entries[i] */\n      dup2\n      sload\n      dup2\n      lt\n      tag_103\n      jumpi\n      tag_104\n      tag_93\n      jump\t// in\n    tag_104:\n    tag_103:\n      swap1\n      0x00\n      mstore\n      keccak256(0x00, 0x20)\n      swap1\n      0x05\n      mul\n      add\n        /* \"contracts/AQ.sol\":2775:2795  entries[i].downvotes */\n      0x04\n      add\n      sload\n        /* \"contracts/AQ.sol\":2754:2761  entries */\n      0x02\n        /* \"contracts/AQ.sol\":2762:2763  i */\n      dup4\n        /* \"contracts/AQ.sol\":2754:2764  entries[i] */\n      dup2\n      sload\n      dup2\n      lt\n      tag_106\n      jumpi\n      tag_107\n      tag_93\n      jump\t// in\n    tag_107:\n    tag_106:\n      swap1\n      0x00\n      mstore\n      keccak256(0x00, 0x20)\n      swap1\n      0x05\n      mul\n      add\n        /* \"contracts/AQ.sol\":2754:2772  entries[i].upvotes */\n      0x03\n      add\n      sload\n        /* \"contracts/AQ.sol\":2754:2795  entries[i].upvotes + entries[i].downvotes */\n      tag_109\n      swap2\n      swap1\n      tag_99\n      jump\t// in\n    tag_109:\n        /* \"contracts/AQ.sol\":2754:2807  entries[i].upvotes + entries[i].downvotes < threshold */\n      lt\n        /* \"contracts/AQ.sol\":2750:2924  if (entries[i].upvotes + entries[i].downvotes < threshold) {... */\n      iszero\n      tag_110\n      jumpi\n        /* \"contracts/AQ.sol\":2837:2838  i */\n      dup1\n        /* \"contracts/AQ.sol\":2827:2838  votedId = i */\n      swap3\n      pop\n        /* \"contracts/AQ.sol\":2889:2896  entries */\n      0x02\n        /* \"contracts/AQ.sol\":2897:2898  i */\n      dup2\n        /* \"contracts/AQ.sol\":2889:2899  entries[i] */\n      dup2\n      sload\n      dup2\n      lt\n      tag_111\n      jumpi\n      tag_112\n      tag_93\n      jump\t// in\n    tag_112:\n    tag_111:\n      swap1\n      0x00\n      mstore\n      keccak256(0x00, 0x20)\n      swap1\n      0x05\n      mul\n      add\n        /* \"contracts/AQ.sol\":2889:2909  entries[i].downvotes */\n      0x04\n      add\n      sload\n        /* \"contracts/AQ.sol\":2868:2875  entries */\n      0x02\n        /* \"contracts/AQ.sol\":2876:2877  i */\n      dup3\n        /* \"contracts/AQ.sol\":2868:2878  entries[i] */\n      dup2\n      sload\n      dup2\n      lt\n      tag_114\n      jumpi\n      tag_115\n      tag_93\n      jump\t// in\n    tag_115:\n    tag_114:\n      swap1\n      0x00\n      mstore\n      keccak256(0x00, 0x20)\n      swap1\n      0x05\n      mul\n      add\n        /* \"contracts/AQ.sol\":2868:2886  entries[i].upvotes */\n      0x03\n      add\n      sload\n        /* \"contracts/AQ.sol\":2868:2909  entries[i].upvotes + entries[i].downvotes */\n      tag_117\n      swap2\n      swap1\n      tag_99\n      jump\t// in\n    tag_117:\n        /* \"contracts/AQ.sol\":2856:2909  threshold = entries[i].upvotes + entries[i].downvotes */\n      swap2\n      pop\n        /* \"contracts/AQ.sol\":2750:2924  if (entries[i].upvotes + entries[i].downvotes < threshold) {... */\n    tag_110:\n        /* \"contracts/AQ.sol\":2731:2734  i++ */\n      dup1\n      dup1\n      0x01\n      add\n      swap2\n      pop\n      pop\n        /* \"contracts/AQ.sol\":2694:2934  for (uint i = 1; i < entries.length; i++) {... */\n      jump(tag_100)\n    tag_101:\n      pop\n        /* \"contracts/AQ.sol\":2951:2958  votedId */\n      dup2\n        /* \"contracts/AQ.sol\":2944:2958  return votedId */\n      swap3\n      pop\n      pop\n      pop\n        /* \"contracts/AQ.sol\":2474:2965  function getLeastVotedEntryId() public view returns (uint) {... */\n    tag_89:\n      swap1\n      jump\t// out\n        /* \"contracts/AQ.sol\":209:228  pp public paperPool */\n    tag_34:\n      0x00\n      dup1\n      sload\n      swap1\n      0x0100\n      exp\n      swap1\n      div\n      0xffffffffffffffffffffffffffffffffffffffff\n      and\n      dup2\n      jump\t// out\n        /* \"contracts/AQ.sol\":882:904  Entry[] public entries */\n    tag_40:\n      0x02\n      dup2\n      dup2\n      sload\n      dup2\n      lt\n      tag_118\n      jumpi\n      0x00\n      dup1\n      revert\n    tag_118:\n      swap1\n      0x00\n      mstore\n      keccak256(0x00, 0x20)\n      swap1\n      0x05\n      mul\n      add\n      0x00\n      swap2\n      pop\n      swap1\n      pop\n      dup1\n      0x00\n      add\n      dup1\n      sload\n      tag_120\n      swap1\n      tag_56\n      jump\t// in\n    tag_120:\n      dup1\n      0x1f\n      add\n      0x20\n      dup1\n      swap2\n      div\n      mul\n      0x20\n      add\n      mload(0x40)\n      swap1\n      dup2\n      add\n      0x40\n      mstore\n      dup1\n      swap3\n      swap2\n      swap1\n      dup2\n      dup2\n      mstore\n      0x20\n      add\n      dup3\n      dup1\n      sload\n      tag_121\n      swap1\n      tag_56\n      jump\t// in\n    tag_121:\n      dup1\n      iszero\n      tag_122\n      jumpi\n      dup1\n      0x1f\n      lt\n      tag_123\n      jumpi\n      0x0100\n      dup1\n      dup4\n      sload\n      div\n      mul\n      dup4\n      mstore\n      swap2\n      0x20\n      add\n      swap2\n      jump(tag_122)\n    tag_123:\n      dup3\n      add\n      swap2\n      swap1\n      0x00\n      mstore\n      keccak256(0x00, 0x20)\n      swap1\n    tag_124:\n      dup2\n      sload\n      dup2\n      mstore\n      swap1\n      0x01\n      add\n      swap1\n      0x20\n      add\n      dup1\n      dup4\n      gt\n      tag_124\n      jumpi\n      dup3\n      swap1\n      sub\n      0x1f\n      and\n      dup3\n      add\n      swap2\n    tag_122:\n      pop\n      pop\n      pop\n      pop\n      pop\n      swap1\n      dup1\n      0x03\n      add\n      sload\n      swap1\n      dup1\n      0x04\n      add\n      sload\n      swap1\n      pop\n      dup4\n      jump\t// out\n        /* \"contracts/AQ.sol\":1697:2300  function vote(uint id, bool upvote) public {... */\n    tag_46:\n        /* \"contracts/AQ.sol\":1775:1777  id */\n      dup2\n        /* \"contracts/AQ.sol\":1758:1765  entries */\n      0x02\n        /* \"contracts/AQ.sol\":1758:1772  entries.length */\n      dup1\n      sload\n      swap1\n      pop\n        /* \"contracts/AQ.sol\":1758:1777  entries.length > id */\n      gt\n        /* \"contracts/AQ.sol\":1750:1802  require(entries.length > id, \"Entry does not exist\") */\n      tag_126\n      jumpi\n      mload(0x40)\n      0x08c379a000000000000000000000000000000000000000000000000000000000\n      dup2\n      mstore\n      0x04\n      add\n      tag_127\n      swap1\n      tag_128\n      jump\t// in\n    tag_127:\n      mload(0x40)\n      dup1\n      swap2\n      sub\n      swap1\n      revert\n    tag_126:\n        /* \"contracts/AQ.sol\":1812:1831  Entry storage entry */\n      0x00\n        /* \"contracts/AQ.sol\":1834:1841  entries */\n      0x02\n        /* \"contracts/AQ.sol\":1842:1844  id */\n      dup4\n        /* \"contracts/AQ.sol\":1834:1845  entries[id] */\n      dup2\n      sload\n      dup2\n      lt\n      tag_129\n      jumpi\n      tag_130\n      tag_93\n      jump\t// in\n    tag_130:\n    tag_129:\n      swap1\n      0x00\n      mstore\n      keccak256(0x00, 0x20)\n      swap1\n      0x05\n      mul\n      add\n        /* \"contracts/AQ.sol\":1812:1845  Entry storage entry = entries[id] */\n      swap1\n      pop\n        /* \"contracts/AQ.sol\":1860:1866  upvote */\n      dup2\n        /* \"contracts/AQ.sol\":1856:1956  if (upvote) {... */\n      iszero\n      tag_132\n      jumpi\n        /* \"contracts/AQ.sol\":1882:1887  entry */\n      dup1\n        /* \"contracts/AQ.sol\":1882:1895  entry.upvotes */\n      0x03\n      add\n      0x00\n        /* \"contracts/AQ.sol\":1882:1897  entry.upvotes++ */\n      dup2\n      sload\n      dup1\n      swap3\n      swap2\n      swap1\n      tag_133\n      swap1\n      tag_134\n      jump\t// in\n    tag_133:\n      swap2\n      swap1\n      pop\n      sstore\n      pop\n        /* \"contracts/AQ.sol\":1856:1956  if (upvote) {... */\n      jump(tag_135)\n    tag_132:\n        /* \"contracts/AQ.sol\":1928:1933  entry */\n      dup1\n        /* \"contracts/AQ.sol\":1928:1943  entry.downvotes */\n      0x04\n      add\n      0x00\n        /* \"contracts/AQ.sol\":1928:1945  entry.downvotes++ */\n      dup2\n      sload\n      dup1\n      swap3\n      swap2\n      swap1\n      tag_136\n      swap1\n      tag_134\n      jump\t// in\n    tag_136:\n      swap2\n      swap1\n      pop\n      sstore\n      pop\n        /* \"contracts/AQ.sol\":1856:1956  if (upvote) {... */\n    tag_135:\n        /* \"contracts/AQ.sol\":2070:2071  5 */\n      0x05\n        /* \"contracts/AQ.sol\":2051:2056  entry */\n      dup2\n        /* \"contracts/AQ.sol\":2051:2066  entry.downvotes */\n      0x04\n      add\n      sload\n        /* \"contracts/AQ.sol\":2035:2040  entry */\n      dup3\n        /* \"contracts/AQ.sol\":2035:2048  entry.upvotes */\n      0x03\n      add\n      sload\n        /* \"contracts/AQ.sol\":2035:2066  entry.upvotes + entry.downvotes */\n      tag_137\n      swap2\n      swap1\n      tag_99\n      jump\t// in\n    tag_137:\n        /* \"contracts/AQ.sol\":2035:2071  entry.upvotes + entry.downvotes == 5 */\n      sub\n        /* \"contracts/AQ.sol\":2031:2294  if (entry.upvotes + entry.downvotes == 5) {... */\n      tag_138\n      jumpi\n        /* \"contracts/AQ.sol\":2087:2098  uint lastId */\n      0x00\n        /* \"contracts/AQ.sol\":2118:2119  1 */\n      0x01\n        /* \"contracts/AQ.sol\":2101:2108  entries */\n      0x02\n        /* \"contracts/AQ.sol\":2101:2115  entries.length */\n      dup1\n      sload\n      swap1\n      pop\n        /* \"contracts/AQ.sol\":2101:2119  entries.length - 1 */\n      tag_139\n      swap2\n      swap1\n      tag_140\n      jump\t// in\n    tag_139:\n        /* \"contracts/AQ.sol\":2087:2119  uint lastId = entries.length - 1 */\n      swap1\n      pop\n        /* \"contracts/AQ.sol\":2133:2142  paperPool */\n      0x00\n      dup1\n      sload\n      swap1\n      0x0100\n      exp\n      swap1\n      div\n      0xffffffffffffffffffffffffffffffffffffffff\n      and\n        /* \"contracts/AQ.sol\":2133:2151  paperPool.addPaper */\n      0xffffffffffffffffffffffffffffffffffffffff\n      and\n      0xfd3cbf95\n        /* \"contracts/AQ.sol\":2152:2159  entries */\n      0x02\n        /* \"contracts/AQ.sol\":2160:2162  id */\n      dup7\n        /* \"contracts/AQ.sol\":2152:2163  entries[id] */\n      dup2\n      sload\n      dup2\n      lt\n      tag_141\n      jumpi\n      tag_142\n      tag_93\n      jump\t// in\n    tag_142:\n    tag_141:\n      swap1\n      0x00\n      mstore\n      keccak256(0x00, 0x20)\n      swap1\n      0x05\n      mul\n      add\n        /* \"contracts/AQ.sol\":2152:2166  entries[id].id */\n      0x00\n      add\n        /* \"contracts/AQ.sol\":2168:2175  entries */\n      0x02\n        /* \"contracts/AQ.sol\":2176:2178  id */\n      dup8\n        /* \"contracts/AQ.sol\":2168:2179  entries[id] */\n      dup2\n      sload\n      dup2\n      lt\n      tag_144\n      jumpi\n      tag_145\n      tag_93\n      jump\t// in\n    tag_145:\n    tag_144:\n      swap1\n      0x00\n      mstore\n      keccak256(0x00, 0x20)\n      swap1\n      0x05\n      mul\n      add\n        /* \"contracts/AQ.sol\":2168:2189  entries[id].citations */\n      0x01\n      add\n        /* \"contracts/AQ.sol\":2191:2198  entries */\n      0x02\n        /* \"contracts/AQ.sol\":2199:2201  id */\n      dup9\n        /* \"contracts/AQ.sol\":2191:2202  entries[id] */\n      dup2\n      sload\n      dup2\n      lt\n      tag_147\n      jumpi\n      tag_148\n      tag_93\n      jump\t// in\n    tag_148:\n    tag_147:\n      swap1\n      0x00\n      mstore\n      keccak256(0x00, 0x20)\n      swap1\n      0x05\n      mul\n      add\n        /* \"contracts/AQ.sol\":2191:2212  entries[id].addresses */\n      0x02\n      add\n        /* \"contracts/AQ.sol\":2133:2213  paperPool.addPaper(entries[id].id, entries[id].citations, entries[id].addresses) */\n      mload(0x40)\n      dup5\n      0xffffffff\n      and\n      0xe0\n      shl\n      dup2\n      mstore\n      0x04\n      add\n      tag_150\n      swap4\n      swap3\n      swap2\n      swap1\n      tag_151\n      jump\t// in\n    tag_150:\n      0x00\n      mload(0x40)\n      dup1\n      dup4\n      sub\n      dup2\n      0x00\n      dup8\n      dup1\n      extcodesize\n      iszero\n      dup1\n      iszero\n      tag_152\n      jumpi\n      0x00\n      dup1\n      revert\n    tag_152:\n      pop\n      gas\n      call\n      iszero\n      dup1\n      iszero\n      tag_154\n      jumpi\n      returndatasize\n      0x00\n      dup1\n      returndatacopy\n      revert(0x00, returndatasize)\n    tag_154:\n      pop\n      pop\n      pop\n      pop\n        /* \"contracts/AQ.sol\":2241:2248  entries */\n      0x02\n        /* \"contracts/AQ.sol\":2249:2255  lastId */\n      dup2\n        /* \"contracts/AQ.sol\":2241:2256  entries[lastId] */\n      dup2\n      sload\n      dup2\n      lt\n      tag_155\n      jumpi\n      tag_156\n      tag_93\n      jump\t// in\n    tag_156:\n    tag_155:\n      swap1\n      0x00\n      mstore\n      keccak256(0x00, 0x20)\n      swap1\n      0x05\n      mul\n      add\n        /* \"contracts/AQ.sol\":2227:2234  entries */\n      0x02\n        /* \"contracts/AQ.sol\":2235:2237  id */\n      dup6\n        /* \"contracts/AQ.sol\":2227:2238  entries[id] */\n      dup2\n      sload\n      dup2\n      lt\n      tag_158\n      jumpi\n      tag_159\n      tag_93\n      jump\t// in\n    tag_159:\n    tag_158:\n      swap1\n      0x00\n      mstore\n      keccak256(0x00, 0x20)\n      swap1\n      0x05\n      mul\n      add\n        /* \"contracts/AQ.sol\":2227:2256  entries[id] = entries[lastId] */\n      0x00\n      dup3\n      add\n      dup2\n      0x00\n      add\n      swap1\n      dup2\n      tag_161\n      swap2\n      swap1\n      tag_162\n      jump\t// in\n    tag_161:\n      pop\n      0x01\n      dup3\n      add\n      dup2\n      0x01\n      add\n      swap1\n      dup1\n      sload\n      tag_163\n      swap3\n      swap2\n      swap1\n      tag_164\n      jump\t// in\n    tag_163:\n      pop\n      0x02\n      dup3\n      add\n      dup2\n      0x02\n      add\n      swap1\n      dup1\n      sload\n      tag_165\n      swap3\n      swap2\n      swap1\n      tag_166\n      jump\t// in\n    tag_165:\n      pop\n      0x03\n      dup3\n      add\n      sload\n      dup2\n      0x03\n      add\n      sstore\n      0x04\n      dup3\n      add\n      sload\n      dup2\n      0x04\n      add\n      sstore\n      swap1\n      pop\n      pop\n        /* \"contracts/AQ.sol\":2270:2277  entries */\n      0x02\n        /* \"contracts/AQ.sol\":2270:2283  entries.pop() */\n      dup1\n      sload\n      dup1\n      tag_167\n      jumpi\n      tag_168\n      tag_169\n      jump\t// in\n    tag_168:\n    tag_167:\n      0x01\n      swap1\n      sub\n      dup2\n      dup2\n      swap1\n      0x00\n      mstore\n      keccak256(0x00, 0x20)\n      swap1\n      0x05\n      mul\n      add\n      0x00\n      dup1\n      dup3\n      add\n      0x00\n      tag_171\n      swap2\n      swap1\n      tag_172\n      jump\t// in\n    tag_171:\n      0x01\n      dup3\n      add\n      0x00\n      tag_173\n      swap2\n      swap1\n      tag_174\n      jump\t// in\n    tag_173:\n      0x02\n      dup3\n      add\n      0x00\n      tag_175\n      swap2\n      swap1\n      tag_176\n      jump\t// in\n    tag_175:\n      0x03\n      dup3\n      add\n      0x00\n      swap1\n      sstore\n      0x04\n      dup3\n      add\n      0x00\n      swap1\n      sstore\n      pop\n      pop\n      swap1\n      sstore\n        /* \"contracts/AQ.sol\":2073:2294  {... */\n      pop\n        /* \"contracts/AQ.sol\":2031:2294  if (entry.upvotes + entry.downvotes == 5) {... */\n    tag_138:\n        /* \"contracts/AQ.sol\":1740:2300  {... */\n      pop\n        /* \"contracts/AQ.sol\":1697:2300  function vote(uint id, bool upvote) public {... */\n      pop\n      pop\n      jump\t// out\n        /* \"contracts/AQ.sol\":2306:2393  function toReview() public view returns (bool) {... */\n    tag_48:\n        /* \"contracts/AQ.sol\":2347:2351  bool */\n      0x00\n        /* \"contracts/AQ.sol\":2385:2386  0 */\n      dup1\n        /* \"contracts/AQ.sol\":2370:2377  entries */\n      0x02\n        /* \"contracts/AQ.sol\":2370:2384  entries.length */\n      dup1\n      sload\n      swap1\n      pop\n        /* \"contracts/AQ.sol\":2370:2386  entries.length>0 */\n      gt\n        /* \"contracts/AQ.sol\":2363:2386  return entries.length>0 */\n      swap1\n      pop\n        /* \"contracts/AQ.sol\":2306:2393  function toReview() public view returns (bool) {... */\n      swap1\n      jump\t// out\n        /* \"contracts/AQ.sol\":1334:1649  function entryExists(string memory id) private view returns (bool) {... */\n    tag_73:\n        /* \"contracts/AQ.sol\":1395:1399  bool */\n      0x00\n        /* \"contracts/AQ.sol\":1411:1431  bytes memory idBytes */\n      dup1\n        /* \"contracts/AQ.sol\":1440:1442  id */\n      dup3\n        /* \"contracts/AQ.sol\":1411:1443  bytes memory idBytes = bytes(id) */\n      swap1\n      pop\n        /* \"contracts/AQ.sol\":1457:1463  uint i */\n      0x00\n        /* \"contracts/AQ.sol\":1453:1621  for(uint i = 0; i < entries.length; i++) {... */\n    tag_179:\n        /* \"contracts/AQ.sol\":1473:1480  entries */\n      0x02\n        /* \"contracts/AQ.sol\":1473:1487  entries.length */\n      dup1\n      sload\n      swap1\n      pop\n        /* \"contracts/AQ.sol\":1469:1470  i */\n      dup2\n        /* \"contracts/AQ.sol\":1469:1487  i < entries.length */\n      lt\n        /* \"contracts/AQ.sol\":1453:1621  for(uint i = 0; i < entries.length; i++) {... */\n      iszero\n      tag_180\n      jumpi\n        /* \"contracts/AQ.sol\":1557:1564  idBytes */\n      dup2\n        /* \"contracts/AQ.sol\":1547:1565  keccak256(idBytes) */\n      dup1\n      mload\n      swap1\n      0x20\n      add\n      keccak256\n        /* \"contracts/AQ.sol\":1528:1535  entries */\n      0x02\n        /* \"contracts/AQ.sol\":1536:1537  i */\n      dup3\n        /* \"contracts/AQ.sol\":1528:1538  entries[i] */\n      dup2\n      sload\n      dup2\n      lt\n      tag_182\n      jumpi\n      tag_183\n      tag_93\n      jump\t// in\n    tag_183:\n    tag_182:\n      swap1\n      0x00\n      mstore\n      keccak256(0x00, 0x20)\n      swap1\n      0x05\n      mul\n      add\n        /* \"contracts/AQ.sol\":1528:1541  entries[i].id */\n      0x00\n      add\n        /* \"contracts/AQ.sol\":1512:1543  keccak256(bytes(entries[i].id)) */\n      mload(0x40)\n      tag_185\n      swap2\n      swap1\n      tag_186\n      jump\t// in\n    tag_185:\n      mload(0x40)\n      dup1\n      swap2\n      sub\n      swap1\n      keccak256\n        /* \"contracts/AQ.sol\":1512:1565  keccak256(bytes(entries[i].id)) == keccak256(idBytes) */\n      sub\n        /* \"contracts/AQ.sol\":1508:1611  if (keccak256(bytes(entries[i].id)) == keccak256(idBytes)) {... */\n      tag_187\n      jumpi\n        /* \"contracts/AQ.sol\":1592:1596  true */\n      0x01\n        /* \"contracts/AQ.sol\":1585:1596  return true */\n      swap3\n      pop\n      pop\n      pop\n      jump(tag_178)\n        /* \"contracts/AQ.sol\":1508:1611  if (keccak256(bytes(entries[i].id)) == keccak256(idBytes)) {... */\n    tag_187:\n        /* \"contracts/AQ.sol\":1489:1492  i++ */\n      dup1\n      dup1\n      0x01\n      add\n      swap2\n      pop\n      pop\n        /* \"contracts/AQ.sol\":1453:1621  for(uint i = 0; i < entries.length; i++) {... */\n      jump(tag_179)\n    tag_180:\n      pop\n        /* \"contracts/AQ.sol\":1637:1642  false */\n      0x00\n        /* \"contracts/AQ.sol\":1630:1642  return false */\n      swap2\n      pop\n      pop\n        /* \"contracts/AQ.sol\":1334:1649  function entryExists(string memory id) private view returns (bool) {... */\n    tag_178:\n      swap2\n      swap1\n      pop\n      jump\t// out\n    tag_81:\n      dup3\n      dup1\n      sload\n      dup3\n      dup3\n      sstore\n      swap1\n      0x00\n      mstore\n      keccak256(0x00, 0x20)\n      swap1\n      dup2\n      add\n      swap3\n      dup3\n      iszero\n      tag_188\n      jumpi\n      swap2\n      0x20\n      mul\n      dup3\n      add\n    tag_189:\n      dup3\n      dup2\n      gt\n      iszero\n      tag_190\n      jumpi\n      dup3\n      mload\n      dup3\n      swap1\n      dup2\n      tag_191\n      swap2\n      swap1\n      tag_79\n      jump\t// in\n    tag_191:\n      pop\n      swap2\n      0x20\n      add\n      swap2\n      swap1\n      0x01\n      add\n      swap1\n      jump(tag_189)\n    tag_190:\n    tag_188:\n      pop\n      swap1\n      pop\n      tag_192\n      swap2\n      swap1\n      tag_193\n      jump\t// in\n    tag_192:\n      pop\n      swap1\n      jump\t// out\n    tag_83:\n      dup3\n      dup1\n      sload\n      dup3\n      dup3\n      sstore\n      swap1\n      0x00\n      mstore\n      keccak256(0x00, 0x20)\n      swap1\n      dup2\n      add\n      swap3\n      dup3\n      iszero\n      tag_194\n      jumpi\n      swap2\n      0x20\n      mul\n      dup3\n      add\n    tag_195:\n      dup3\n      dup2\n      gt\n      iszero\n      tag_196\n      jumpi\n      dup3\n      mload\n      dup3\n      exp(0x0100, 0x00)\n      dup2\n      sload\n      dup2\n      0xffffffffffffffffffffffffffffffffffffffff\n      mul\n      not\n      and\n      swap1\n      dup4\n      0xffffffffffffffffffffffffffffffffffffffff\n      and\n      mul\n      or\n      swap1\n      sstore\n      pop\n      swap2\n      0x20\n      add\n      swap2\n      swap1\n      0x01\n      add\n      swap1\n      jump(tag_195)\n    tag_196:\n    tag_194:\n      pop\n      swap1\n      pop\n      tag_197\n      swap2\n      swap1\n      tag_198\n      jump\t// in\n    tag_197:\n      pop\n      swap1\n      jump\t// out\n    tag_164:\n      dup3\n      dup1\n      sload\n      dup3\n      dup3\n      sstore\n      swap1\n      0x00\n      mstore\n      keccak256(0x00, 0x20)\n      swap1\n      dup2\n      add\n      swap3\n      dup3\n      iszero\n      tag_199\n      jumpi\n      0x00\n      mstore\n      keccak256(0x00, 0x20)\n      swap2\n      dup3\n      add\n    tag_200:\n      dup3\n      dup2\n      gt\n      iszero\n      tag_201\n      jumpi\n      dup3\n      dup3\n      swap1\n      dup2\n      tag_202\n      swap2\n      swap1\n      tag_162\n      jump\t// in\n    tag_202:\n      pop\n      swap2\n      0x01\n      add\n      swap2\n      swap1\n      0x01\n      add\n      swap1\n      jump(tag_200)\n    tag_201:\n    tag_199:\n      pop\n      swap1\n      pop\n      tag_203\n      swap2\n      swap1\n      tag_193\n      jump\t// in\n    tag_203:\n      pop\n      swap1\n      jump\t// out\n    tag_166:\n      dup3\n      dup1\n      sload\n      dup3\n      dup3\n      sstore\n      swap1\n      0x00\n      mstore\n      keccak256(0x00, 0x20)\n      swap1\n      dup2\n      add\n      swap3\n      dup3\n      iszero\n      tag_204\n      jumpi\n      0x00\n      mstore\n      keccak256(0x00, 0x20)\n      swap2\n      dup3\n      add\n    tag_205:\n      dup3\n      dup2\n      gt\n      iszero\n      tag_206\n      jumpi\n      dup3\n      sload\n      dup3\n      sstore\n      swap2\n      0x01\n      add\n      swap2\n      swap1\n      0x01\n      add\n      swap1\n      jump(tag_205)\n    tag_206:\n    tag_204:\n      pop\n      swap1\n      pop\n      tag_207\n      swap2\n      swap1\n      tag_198\n      jump\t// in\n    tag_207:\n      pop\n      swap1\n      jump\t// out\n    tag_172:\n      pop\n      dup1\n      sload\n      tag_208\n      swap1\n      tag_56\n      jump\t// in\n    tag_208:\n      0x00\n      dup3\n      sstore\n      dup1\n      0x1f\n      lt\n      tag_210\n      jumpi\n      pop\n      jump(tag_209)\n    tag_210:\n      0x1f\n      add\n      0x20\n      swap1\n      div\n      swap1\n      0x00\n      mstore\n      keccak256(0x00, 0x20)\n      swap1\n      dup2\n      add\n      swap1\n      tag_211\n      swap2\n      swap1\n      tag_198\n      jump\t// in\n    tag_211:\n    tag_209:\n      pop\n      jump\t// out\n    tag_174:\n      pop\n      dup1\n      sload\n      0x00\n      dup3\n      sstore\n      swap1\n      0x00\n      mstore\n      keccak256(0x00, 0x20)\n      swap1\n      dup2\n      add\n      swap1\n      tag_213\n      swap2\n      swap1\n      tag_193\n      jump\t// in\n    tag_213:\n      pop\n      jump\t// out\n    tag_176:\n      pop\n      dup1\n      sload\n      0x00\n      dup3\n      sstore\n      swap1\n      0x00\n      mstore\n      keccak256(0x00, 0x20)\n      swap1\n      dup2\n      add\n      swap1\n      tag_215\n      swap2\n      swap1\n      tag_198\n      jump\t// in\n    tag_215:\n      pop\n      jump\t// out\n    tag_193:\n    tag_216:\n      dup1\n      dup3\n      gt\n      iszero\n      tag_217\n      jumpi\n      0x00\n      dup2\n      dup2\n      tag_218\n      swap2\n      swap1\n      tag_172\n      jump\t// in\n    tag_218:\n      pop\n      0x01\n      add\n      jump(tag_216)\n    tag_217:\n      pop\n      swap1\n      jump\t// out\n    tag_198:\n    tag_219:\n      dup1\n      dup3\n      gt\n      iszero\n      tag_220\n      jumpi\n      0x00\n      dup2\n      0x00\n      swap1\n      sstore\n      pop\n      0x01\n      add\n      jump(tag_219)\n    tag_220:\n      pop\n      swap1\n      jump\t// out\n        /* \"#utility.yul\":7:142   */\n    tag_221:\n        /* \"#utility.yul\":95:101   */\n      0x00\n        /* \"#utility.yul\":129:134   */\n      dup2\n        /* \"#utility.yul\":123:135   */\n      mload\n        /* \"#utility.yul\":113:135   */\n      swap1\n      pop\n        /* \"#utility.yul\":7:142   */\n      swap2\n      swap1\n      pop\n      jump\t// out\n        /* \"#utility.yul\":148:353   */\n    tag_222:\n        /* \"#utility.yul\":268:279   */\n      0x00\n        /* \"#utility.yul\":302:308   */\n      dup3\n        /* \"#utility.yul\":297:300   */\n      dup3\n        /* \"#utility.yul\":290:309   */\n      mstore\n        /* \"#utility.yul\":342:346   */\n      0x20\n        /* \"#utility.yul\":337:340   */\n      dup3\n        /* \"#utility.yul\":333:347   */\n      add\n        /* \"#utility.yul\":318:347   */\n      swap1\n      pop\n        /* \"#utility.yul\":148:353   */\n      swap3\n      swap2\n      pop\n      pop\n      jump\t// out\n        /* \"#utility.yul\":359:512   */\n    tag_223:\n        /* \"#utility.yul\":447:451   */\n      0x00\n        /* \"#utility.yul\":470:473   */\n      dup2\n        /* \"#utility.yul\":462:473   */\n      swap1\n      pop\n        /* \"#utility.yul\":500:504   */\n      0x20\n        /* \"#utility.yul\":495:498   */\n      dup3\n        /* \"#utility.yul\":491:505   */\n      add\n        /* \"#utility.yul\":483:505   */\n      swap1\n      pop\n        /* \"#utility.yul\":359:512   */\n      swap2\n      swap1\n      pop\n      jump\t// out\n        /* \"#utility.yul\":518:617   */\n    tag_224:\n        /* \"#utility.yul\":570:576   */\n      0x00\n        /* \"#utility.yul\":604:609   */\n      dup2\n        /* \"#utility.yul\":598:610   */\n      mload\n        /* \"#utility.yul\":588:610   */\n      swap1\n      pop\n        /* \"#utility.yul\":518:617   */\n      swap2\n      swap1\n      pop\n      jump\t// out\n        /* \"#utility.yul\":623:782   */\n    tag_225:\n        /* \"#utility.yul\":697:708   */\n      0x00\n        /* \"#utility.yul\":731:737   */\n      dup3\n        /* \"#utility.yul\":726:729   */\n      dup3\n        /* \"#utility.yul\":719:738   */\n      mstore\n        /* \"#utility.yul\":771:775   */\n      0x20\n        /* \"#utility.yul\":766:769   */\n      dup3\n        /* \"#utility.yul\":762:776   */\n      add\n        /* \"#utility.yul\":747:776   */\n      swap1\n      pop\n        /* \"#utility.yul\":623:782   */\n      swap3\n      swap2\n      pop\n      pop\n      jump\t// out\n        /* \"#utility.yul\":788:927   */\n    tag_226:\n        /* \"#utility.yul\":877:883   */\n      dup3\n        /* \"#utility.yul\":872:875   */\n      dup2\n        /* \"#utility.yul\":867:870   */\n      dup4\n        /* \"#utility.yul\":861:884   */\n      mcopy\n        /* \"#utility.yul\":918:919   */\n      0x00\n        /* \"#utility.yul\":909:915   */\n      dup4\n        /* \"#utility.yul\":904:907   */\n      dup4\n        /* \"#utility.yul\":900:916   */\n      add\n        /* \"#utility.yul\":893:920   */\n      mstore\n        /* \"#utility.yul\":788:927   */\n      pop\n      pop\n      pop\n      jump\t// out\n        /* \"#utility.yul\":933:1035   */\n    tag_227:\n        /* \"#utility.yul\":974:980   */\n      0x00\n        /* \"#utility.yul\":1025:1027   */\n      0x1f\n        /* \"#utility.yul\":1021:1028   */\n      not\n        /* \"#utility.yul\":1016:1018   */\n      0x1f\n        /* \"#utility.yul\":1009:1014   */\n      dup4\n        /* \"#utility.yul\":1005:1019   */\n      add\n        /* \"#utility.yul\":1001:1029   */\n      and\n        /* \"#utility.yul\":991:1029   */\n      swap1\n      pop\n        /* \"#utility.yul\":933:1035   */\n      swap2\n      swap1\n      pop\n      jump\t// out\n        /* \"#utility.yul\":1041:1398   */\n    tag_228:\n        /* \"#utility.yul\":1119:1122   */\n      0x00\n        /* \"#utility.yul\":1147:1186   */\n      tag_338\n        /* \"#utility.yul\":1180:1185   */\n      dup3\n        /* \"#utility.yul\":1147:1186   */\n      tag_224\n      jump\t// in\n    tag_338:\n        /* \"#utility.yul\":1202:1263   */\n      tag_339\n        /* \"#utility.yul\":1256:1262   */\n      dup2\n        /* \"#utility.yul\":1251:1254   */\n      dup6\n        /* \"#utility.yul\":1202:1263   */\n      tag_225\n      jump\t// in\n    tag_339:\n        /* \"#utility.yul\":1195:1263   */\n      swap4\n      pop\n        /* \"#utility.yul\":1272:1337   */\n      tag_340\n        /* \"#utility.yul\":1330:1336   */\n      dup2\n        /* \"#utility.yul\":1325:1328   */\n      dup6\n        /* \"#utility.yul\":1318:1322   */\n      0x20\n        /* \"#utility.yul\":1311:1316   */\n      dup7\n        /* \"#utility.yul\":1307:1323   */\n      add\n        /* \"#utility.yul\":1272:1337   */\n      tag_226\n      jump\t// in\n    tag_340:\n        /* \"#utility.yul\":1362:1391   */\n      tag_341\n        /* \"#utility.yul\":1384:1390   */\n      dup2\n        /* \"#utility.yul\":1362:1391   */\n      tag_227\n      jump\t// in\n    tag_341:\n        /* \"#utility.yul\":1357:1360   */\n      dup5\n        /* \"#utility.yul\":1353:1392   */\n      add\n        /* \"#utility.yul\":1346:1392   */\n      swap2\n      pop\n        /* \"#utility.yul\":1123:1398   */\n      pop\n        /* \"#utility.yul\":1041:1398   */\n      swap3\n      swap2\n      pop\n      pop\n      jump\t// out\n        /* \"#utility.yul\":1404:1528   */\n    tag_229:\n        /* \"#utility.yul\":1481:1487   */\n      0x00\n        /* \"#utility.yul\":1515:1520   */\n      dup2\n        /* \"#utility.yul\":1509:1521   */\n      mload\n        /* \"#utility.yul\":1499:1521   */\n      swap1\n      pop\n        /* \"#utility.yul\":1404:1528   */\n      swap2\n      swap1\n      pop\n      jump\t// out\n        /* \"#utility.yul\":1534:1718   */\n    tag_230:\n        /* \"#utility.yul\":1633:1644   */\n      0x00\n        /* \"#utility.yul\":1667:1673   */\n      dup3\n        /* \"#utility.yul\":1662:1665   */\n      dup3\n        /* \"#utility.yul\":1655:1674   */\n      mstore\n        /* \"#utility.yul\":1707:1711   */\n      0x20\n        /* \"#utility.yul\":1702:1705   */\n      dup3\n        /* \"#utility.yul\":1698:1712   */\n      add\n        /* \"#utility.yul\":1683:1712   */\n      swap1\n      pop\n        /* \"#utility.yul\":1534:1718   */\n      swap3\n      swap2\n      pop\n      pop\n      jump\t// out\n        /* \"#utility.yul\":1724:1866   */\n    tag_231:\n        /* \"#utility.yul\":1801:1805   */\n      0x00\n        /* \"#utility.yul\":1824:1827   */\n      dup2\n        /* \"#utility.yul\":1816:1827   */\n      swap1\n      pop\n        /* \"#utility.yul\":1854:1858   */\n      0x20\n        /* \"#utility.yul\":1849:1852   */\n      dup3\n        /* \"#utility.yul\":1845:1859   */\n      add\n        /* \"#utility.yul\":1837:1859   */\n      swap1\n      pop\n        /* \"#utility.yul\":1724:1866   */\n      swap2\n      swap1\n      pop\n      jump\t// out\n        /* \"#utility.yul\":1872:2068   */\n    tag_232:\n        /* \"#utility.yul\":1961:1971   */\n      0x00\n        /* \"#utility.yul\":1996:2062   */\n      tag_346\n        /* \"#utility.yul\":2058:2061   */\n      dup4\n        /* \"#utility.yul\":2050:2056   */\n      dup4\n        /* \"#utility.yul\":1996:2062   */\n      tag_228\n      jump\t// in\n    tag_346:\n        /* \"#utility.yul\":1982:2062   */\n      swap1\n      pop\n        /* \"#utility.yul\":1872:2068   */\n      swap3\n      swap2\n      pop\n      pop\n      jump\t// out\n        /* \"#utility.yul\":2074:2197   */\n    tag_233:\n        /* \"#utility.yul\":2154:2158   */\n      0x00\n        /* \"#utility.yul\":2186:2190   */\n      0x20\n        /* \"#utility.yul\":2181:2184   */\n      dup3\n        /* \"#utility.yul\":2177:2191   */\n      add\n        /* \"#utility.yul\":2169:2191   */\n      swap1\n      pop\n        /* \"#utility.yul\":2074:2197   */\n      swap2\n      swap1\n      pop\n      jump\t// out\n        /* \"#utility.yul\":2231:3202   */\n    tag_234:\n        /* \"#utility.yul\":2360:2363   */\n      0x00\n        /* \"#utility.yul\":2389:2453   */\n      tag_349\n        /* \"#utility.yul\":2447:2452   */\n      dup3\n        /* \"#utility.yul\":2389:2453   */\n      tag_229\n      jump\t// in\n    tag_349:\n        /* \"#utility.yul\":2469:2555   */\n      tag_350\n        /* \"#utility.yul\":2548:2554   */\n      dup2\n        /* \"#utility.yul\":2543:2546   */\n      dup6\n        /* \"#utility.yul\":2469:2555   */\n      tag_230\n      jump\t// in\n    tag_350:\n        /* \"#utility.yul\":2462:2555   */\n      swap4\n      pop\n        /* \"#utility.yul\":2581:2584   */\n      dup4\n        /* \"#utility.yul\":2626:2630   */\n      0x20\n        /* \"#utility.yul\":2618:2624   */\n      dup3\n        /* \"#utility.yul\":2614:2631   */\n      mul\n        /* \"#utility.yul\":2609:2612   */\n      dup6\n        /* \"#utility.yul\":2605:2632   */\n      add\n        /* \"#utility.yul\":2656:2722   */\n      tag_351\n        /* \"#utility.yul\":2716:2721   */\n      dup6\n        /* \"#utility.yul\":2656:2722   */\n      tag_231\n      jump\t// in\n    tag_351:\n        /* \"#utility.yul\":2745:2752   */\n      dup1\n        /* \"#utility.yul\":2776:2777   */\n      0x00\n        /* \"#utility.yul\":2761:3157   */\n    tag_352:\n        /* \"#utility.yul\":2786:2792   */\n      dup6\n        /* \"#utility.yul\":2783:2784   */\n      dup2\n        /* \"#utility.yul\":2780:2793   */\n      lt\n        /* \"#utility.yul\":2761:3157   */\n      iszero\n      tag_354\n      jumpi\n        /* \"#utility.yul\":2857:2866   */\n      dup5\n        /* \"#utility.yul\":2851:2855   */\n      dup5\n        /* \"#utility.yul\":2847:2867   */\n      sub\n        /* \"#utility.yul\":2842:2845   */\n      dup10\n        /* \"#utility.yul\":2835:2868   */\n      mstore\n        /* \"#utility.yul\":2908:2914   */\n      dup2\n        /* \"#utility.yul\":2902:2915   */\n      mload\n        /* \"#utility.yul\":2936:3020   */\n      tag_355\n        /* \"#utility.yul\":3015:3019   */\n      dup6\n        /* \"#utility.yul\":3000:3013   */\n      dup3\n        /* \"#utility.yul\":2936:3020   */\n      tag_232\n      jump\t// in\n    tag_355:\n        /* \"#utility.yul\":2928:3020   */\n      swap5\n      pop\n        /* \"#utility.yul\":3043:3113   */\n      tag_356\n        /* \"#utility.yul\":3106:3112   */\n      dup4\n        /* \"#utility.yul\":3043:3113   */\n      tag_233\n      jump\t// in\n    tag_356:\n        /* \"#utility.yul\":3033:3113   */\n      swap3\n      pop\n        /* \"#utility.yul\":3142:3146   */\n      0x20\n        /* \"#utility.yul\":3137:3140   */\n      dup11\n        /* \"#utility.yul\":3133:3147   */\n      add\n        /* \"#utility.yul\":3126:3147   */\n      swap10\n      pop\n        /* \"#utility.yul\":2821:3157   */\n      pop\n        /* \"#utility.yul\":2808:2809   */\n      0x01\n        /* \"#utility.yul\":2805:2806   */\n      dup2\n        /* \"#utility.yul\":2801:2810   */\n      add\n        /* \"#utility.yul\":2796:2810   */\n      swap1\n      pop\n        /* \"#utility.yul\":2761:3157   */\n      jump(tag_352)\n    tag_354:\n        /* \"#utility.yul\":2765:2779   */\n      pop\n        /* \"#utility.yul\":3173:3177   */\n      dup3\n        /* \"#utility.yul\":3166:3177   */\n      swap8\n      pop\n        /* \"#utility.yul\":3193:3196   */\n      dup8\n        /* \"#utility.yul\":3186:3196   */\n      swap6\n      pop\n        /* \"#utility.yul\":2365:3202   */\n      pop\n      pop\n      pop\n      pop\n      pop\n        /* \"#utility.yul\":2231:3202   */\n      swap3\n      swap2\n      pop\n      pop\n      jump\t// out\n        /* \"#utility.yul\":3208:3322   */\n    tag_235:\n        /* \"#utility.yul\":3275:3281   */\n      0x00\n        /* \"#utility.yul\":3309:3314   */\n      dup2\n        /* \"#utility.yul\":3303:3315   */\n      mload\n        /* \"#utility.yul\":3293:3315   */\n      swap1\n      pop\n        /* \"#utility.yul\":3208:3322   */\n      swap2\n      swap1\n      pop\n      jump\t// out\n        /* \"#utility.yul\":3328:3502   */\n    tag_236:\n        /* \"#utility.yul\":3417:3428   */\n      0x00\n        /* \"#utility.yul\":3451:3457   */\n      dup3\n        /* \"#utility.yul\":3446:3449   */\n      dup3\n        /* \"#utility.yul\":3439:3458   */\n      mstore\n        /* \"#utility.yul\":3491:3495   */\n      0x20\n        /* \"#utility.yul\":3486:3489   */\n      dup3\n        /* \"#utility.yul\":3482:3496   */\n      add\n        /* \"#utility.yul\":3467:3496   */\n      swap1\n      pop\n        /* \"#utility.yul\":3328:3502   */\n      swap3\n      swap2\n      pop\n      pop\n      jump\t// out\n        /* \"#utility.yul\":3508:3640   */\n    tag_237:\n        /* \"#utility.yul\":3575:3579   */\n      0x00\n        /* \"#utility.yul\":3598:3601   */\n      dup2\n        /* \"#utility.yul\":3590:3601   */\n      swap1\n      pop\n        /* \"#utility.yul\":3628:3632   */\n      0x20\n        /* \"#utility.yul\":3623:3626   */\n      dup3\n        /* \"#utility.yul\":3619:3633   */\n      add\n        /* \"#utility.yul\":3611:3633   */\n      swap1\n      pop\n        /* \"#utility.yul\":3508:3640   */\n      swap2\n      swap1\n      pop\n      jump\t// out\n        /* \"#utility.yul\":3646:3772   */\n    tag_238:\n        /* \"#utility.yul\":3683:3690   */\n      0x00\n        /* \"#utility.yul\":3723:3765   */\n      0xffffffffffffffffffffffffffffffffffffffff\n        /* \"#utility.yul\":3716:3721   */\n      dup3\n        /* \"#utility.yul\":3712:3766   */\n      and\n        /* \"#utility.yul\":3701:3766   */\n      swap1\n      pop\n        /* \"#utility.yul\":3646:3772   */\n      swap2\n      swap1\n      pop\n      jump\t// out\n        /* \"#utility.yul\":3778:3874   */\n    tag_239:\n        /* \"#utility.yul\":3815:3822   */\n      0x00\n        /* \"#utility.yul\":3844:3868   */\n      tag_362\n        /* \"#utility.yul\":3862:3867   */\n      dup3\n        /* \"#utility.yul\":3844:3868   */\n      tag_238\n      jump\t// in\n    tag_362:\n        /* \"#utility.yul\":3833:3868   */\n      swap1\n      pop\n        /* \"#utility.yul\":3778:3874   */\n      swap2\n      swap1\n      pop\n      jump\t// out\n        /* \"#utility.yul\":3880:3988   */\n    tag_240:\n        /* \"#utility.yul\":3957:3981   */\n      tag_364\n        /* \"#utility.yul\":3975:3980   */\n      dup2\n        /* \"#utility.yul\":3957:3981   */\n      tag_239\n      jump\t// in\n    tag_364:\n        /* \"#utility.yul\":3952:3955   */\n      dup3\n        /* \"#utility.yul\":3945:3982   */\n      mstore\n        /* \"#utility.yul\":3880:3988   */\n      pop\n      pop\n      jump\t// out\n        /* \"#utility.yul\":3994:4173   */\n    tag_241:\n        /* \"#utility.yul\":4063:4073   */\n      0x00\n        /* \"#utility.yul\":4084:4130   */\n      tag_366\n        /* \"#utility.yul\":4126:4129   */\n      dup4\n        /* \"#utility.yul\":4118:4124   */\n      dup4\n        /* \"#utility.yul\":4084:4130   */\n      tag_240\n      jump\t// in\n    tag_366:\n        /* \"#utility.yul\":4162:4166   */\n      0x20\n        /* \"#utility.yul\":4157:4160   */\n      dup4\n        /* \"#utility.yul\":4153:4167   */\n      add\n        /* \"#utility.yul\":4139:4167   */\n      swap1\n      pop\n        /* \"#utility.yul\":3994:4173   */\n      swap3\n      swap2\n      pop\n      pop\n      jump\t// out\n        /* \"#utility.yul\":4179:4292   */\n    tag_242:\n        /* \"#utility.yul\":4249:4253   */\n      0x00\n        /* \"#utility.yul\":4281:4285   */\n      0x20\n        /* \"#utility.yul\":4276:4279   */\n      dup3\n        /* \"#utility.yul\":4272:4286   */\n      add\n        /* \"#utility.yul\":4264:4286   */\n      swap1\n      pop\n        /* \"#utility.yul\":4179:4292   */\n      swap2\n      swap1\n      pop\n      jump\t// out\n        /* \"#utility.yul\":4328:5040   */\n    tag_243:\n        /* \"#utility.yul\":4437:4440   */\n      0x00\n        /* \"#utility.yul\":4466:4520   */\n      tag_369\n        /* \"#utility.yul\":4514:4519   */\n      dup3\n        /* \"#utility.yul\":4466:4520   */\n      tag_235\n      jump\t// in\n    tag_369:\n        /* \"#utility.yul\":4536:4612   */\n      tag_370\n        /* \"#utility.yul\":4605:4611   */\n      dup2\n        /* \"#utility.yul\":4600:4603   */\n      dup6\n        /* \"#utility.yul\":4536:4612   */\n      tag_236\n      jump\t// in\n    tag_370:\n        /* \"#utility.yul\":4529:4612   */\n      swap4\n      pop\n        /* \"#utility.yul\":4636:4692   */\n      tag_371\n        /* \"#utility.yul\":4686:4691   */\n      dup4\n        /* \"#utility.yul\":4636:4692   */\n      tag_237\n      jump\t// in\n    tag_371:\n        /* \"#utility.yul\":4715:4722   */\n      dup1\n        /* \"#utility.yul\":4746:4747   */\n      0x00\n        /* \"#utility.yul\":4731:5015   */\n    tag_372:\n        /* \"#utility.yul\":4756:4762   */\n      dup4\n        /* \"#utility.yul\":4753:4754   */\n      dup2\n        /* \"#utility.yul\":4750:4763   */\n      lt\n        /* \"#utility.yul\":4731:5015   */\n      iszero\n      tag_374\n      jumpi\n        /* \"#utility.yul\":4832:4838   */\n      dup2\n        /* \"#utility.yul\":4826:4839   */\n      mload\n        /* \"#utility.yul\":4859:4922   */\n      tag_375\n        /* \"#utility.yul\":4918:4921   */\n      dup9\n        /* \"#utility.yul\":4903:4916   */\n      dup3\n        /* \"#utility.yul\":4859:4922   */\n      tag_241\n      jump\t// in\n    tag_375:\n        /* \"#utility.yul\":4852:4922   */\n      swap8\n      pop\n        /* \"#utility.yul\":4945:5005   */\n      tag_376\n        /* \"#utility.yul\":4998:5004   */\n      dup4\n        /* \"#utility.yul\":4945:5005   */\n      tag_242\n      jump\t// in\n    tag_376:\n        /* \"#utility.yul\":4935:5005   */\n      swap3\n      pop\n        /* \"#utility.yul\":4791:5015   */\n      pop\n        /* \"#utility.yul\":4778:4779   */\n      0x01\n        /* \"#utility.yul\":4775:4776   */\n      dup2\n        /* \"#utility.yul\":4771:4780   */\n      add\n        /* \"#utility.yul\":4766:4780   */\n      swap1\n      pop\n        /* \"#utility.yul\":4731:5015   */\n      jump(tag_372)\n    tag_374:\n        /* \"#utility.yul\":4735:4749   */\n      pop\n        /* \"#utility.yul\":5031:5034   */\n      dup6\n        /* \"#utility.yul\":5024:5034   */\n      swap4\n      pop\n        /* \"#utility.yul\":4442:5040   */\n      pop\n      pop\n      pop\n        /* \"#utility.yul\":4328:5040   */\n      swap3\n      swap2\n      pop\n      pop\n      jump\t// out\n        /* \"#utility.yul\":5046:5123   */\n    tag_244:\n        /* \"#utility.yul\":5083:5090   */\n      0x00\n        /* \"#utility.yul\":5112:5117   */\n      dup2\n        /* \"#utility.yul\":5101:5117   */\n      swap1\n      pop\n        /* \"#utility.yul\":5046:5123   */\n      swap2\n      swap1\n      pop\n      jump\t// out\n        /* \"#utility.yul\":5129:5237   */\n    tag_245:\n        /* \"#utility.yul\":5206:5230   */\n      tag_379\n        /* \"#utility.yul\":5224:5229   */\n      dup2\n        /* \"#utility.yul\":5206:5230   */\n      tag_244\n      jump\t// in\n    tag_379:\n        /* \"#utility.yul\":5201:5204   */\n      dup3\n        /* \"#utility.yul\":5194:5231   */\n      mstore\n        /* \"#utility.yul\":5129:5237   */\n      pop\n      pop\n      jump\t// out\n        /* \"#utility.yul\":5307:6655   */\n    tag_246:\n        /* \"#utility.yul\":5408:5411   */\n      0x00\n        /* \"#utility.yul\":5444:5448   */\n      0xa0\n        /* \"#utility.yul\":5439:5442   */\n      dup4\n        /* \"#utility.yul\":5435:5449   */\n      add\n        /* \"#utility.yul\":5529:5533   */\n      0x00\n        /* \"#utility.yul\":5522:5527   */\n      dup4\n        /* \"#utility.yul\":5518:5534   */\n      add\n        /* \"#utility.yul\":5512:5535   */\n      mload\n        /* \"#utility.yul\":5582:5585   */\n      dup5\n        /* \"#utility.yul\":5576:5580   */\n      dup3\n        /* \"#utility.yul\":5572:5586   */\n      sub\n        /* \"#utility.yul\":5565:5569   */\n      0x00\n        /* \"#utility.yul\":5560:5563   */\n      dup7\n        /* \"#utility.yul\":5556:5570   */\n      add\n        /* \"#utility.yul\":5549:5587   */\n      mstore\n        /* \"#utility.yul\":5608:5681   */\n      tag_381\n        /* \"#utility.yul\":5676:5680   */\n      dup3\n        /* \"#utility.yul\":5662:5674   */\n      dup3\n        /* \"#utility.yul\":5608:5681   */\n      tag_228\n      jump\t// in\n    tag_381:\n        /* \"#utility.yul\":5600:5681   */\n      swap2\n      pop\n        /* \"#utility.yul\":5459:5692   */\n      pop\n        /* \"#utility.yul\":5779:5783   */\n      0x20\n        /* \"#utility.yul\":5772:5777   */\n      dup4\n        /* \"#utility.yul\":5768:5784   */\n      add\n        /* \"#utility.yul\":5762:5785   */\n      mload\n        /* \"#utility.yul\":5832:5835   */\n      dup5\n        /* \"#utility.yul\":5826:5830   */\n      dup3\n        /* \"#utility.yul\":5822:5836   */\n      sub\n        /* \"#utility.yul\":5815:5819   */\n      0x20\n        /* \"#utility.yul\":5810:5813   */\n      dup7\n        /* \"#utility.yul\":5806:5820   */\n      add\n        /* \"#utility.yul\":5799:5837   */\n      mstore\n        /* \"#utility.yul\":5858:5981   */\n      tag_382\n        /* \"#utility.yul\":5976:5980   */\n      dup3\n        /* \"#utility.yul\":5962:5974   */\n      dup3\n        /* \"#utility.yul\":5858:5981   */\n      tag_234\n      jump\t// in\n    tag_382:\n        /* \"#utility.yul\":5850:5981   */\n      swap2\n      pop\n        /* \"#utility.yul\":5702:5992   */\n      pop\n        /* \"#utility.yul\":6079:6083   */\n      0x40\n        /* \"#utility.yul\":6072:6077   */\n      dup4\n        /* \"#utility.yul\":6068:6084   */\n      add\n        /* \"#utility.yul\":6062:6085   */\n      mload\n        /* \"#utility.yul\":6132:6135   */\n      dup5\n        /* \"#utility.yul\":6126:6130   */\n      dup3\n        /* \"#utility.yul\":6122:6136   */\n      sub\n        /* \"#utility.yul\":6115:6119   */\n      0x40\n        /* \"#utility.yul\":6110:6113   */\n      dup7\n        /* \"#utility.yul\":6106:6120   */\n      add\n        /* \"#utility.yul\":6099:6137   */\n      mstore\n        /* \"#utility.yul\":6158:6261   */\n      tag_383\n        /* \"#utility.yul\":6256:6260   */\n      dup3\n        /* \"#utility.yul\":6242:6254   */\n      dup3\n        /* \"#utility.yul\":6158:6261   */\n      tag_243\n      jump\t// in\n    tag_383:\n        /* \"#utility.yul\":6150:6261   */\n      swap2\n      pop\n        /* \"#utility.yul\":6002:6272   */\n      pop\n        /* \"#utility.yul\":6357:6361   */\n      0x60\n        /* \"#utility.yul\":6350:6355   */\n      dup4\n        /* \"#utility.yul\":6346:6362   */\n      add\n        /* \"#utility.yul\":6340:6363   */\n      mload\n        /* \"#utility.yul\":6376:6439   */\n      tag_384\n        /* \"#utility.yul\":6433:6437   */\n      0x60\n        /* \"#utility.yul\":6428:6431   */\n      dup7\n        /* \"#utility.yul\":6424:6438   */\n      add\n        /* \"#utility.yul\":6410:6422   */\n      dup3\n        /* \"#utility.yul\":6376:6439   */\n      tag_245\n      jump\t// in\n    tag_384:\n        /* \"#utility.yul\":6282:6449   */\n      pop\n        /* \"#utility.yul\":6536:6540   */\n      0x80\n        /* \"#utility.yul\":6529:6534   */\n      dup4\n        /* \"#utility.yul\":6525:6541   */\n      add\n        /* \"#utility.yul\":6519:6542   */\n      mload\n        /* \"#utility.yul\":6555:6618   */\n      tag_385\n        /* \"#utility.yul\":6612:6616   */\n      0x80\n        /* \"#utility.yul\":6607:6610   */\n      dup7\n        /* \"#utility.yul\":6603:6617   */\n      add\n        /* \"#utility.yul\":6589:6601   */\n      dup3\n        /* \"#utility.yul\":6555:6618   */\n      tag_245\n      jump\t// in\n    tag_385:\n        /* \"#utility.yul\":6459:6628   */\n      pop\n        /* \"#utility.yul\":6645:6649   */\n      dup1\n        /* \"#utility.yul\":6638:6649   */\n      swap2\n      pop\n        /* \"#utility.yul\":5413:6655   */\n      pop\n        /* \"#utility.yul\":5307:6655   */\n      swap3\n      swap2\n      pop\n      pop\n      jump\t// out\n        /* \"#utility.yul\":6661:6901   */\n    tag_247:\n        /* \"#utility.yul\":6772:6782   */\n      0x00\n        /* \"#utility.yul\":6807:6895   */\n      tag_387\n        /* \"#utility.yul\":6891:6894   */\n      dup4\n        /* \"#utility.yul\":6883:6889   */\n      dup4\n        /* \"#utility.yul\":6807:6895   */\n      tag_246\n      jump\t// in\n    tag_387:\n        /* \"#utility.yul\":6793:6895   */\n      swap1\n      pop\n        /* \"#utility.yul\":6661:6901   */\n      swap3\n      swap2\n      pop\n      pop\n      jump\t// out\n        /* \"#utility.yul\":6907:7041   */\n    tag_248:\n        /* \"#utility.yul\":6998:7002   */\n      0x00\n        /* \"#utility.yul\":7030:7034   */\n      0x20\n        /* \"#utility.yul\":7025:7028   */\n      dup3\n        /* \"#utility.yul\":7021:7035   */\n      add\n        /* \"#utility.yul\":7013:7035   */\n      swap1\n      pop\n        /* \"#utility.yul\":6907:7041   */\n      swap2\n      swap1\n      pop\n      jump\t// out\n        /* \"#utility.yul\":7115:8194   */\n    tag_249:\n        /* \"#utility.yul\":7276:7279   */\n      0x00\n        /* \"#utility.yul\":7305:7380   */\n      tag_390\n        /* \"#utility.yul\":7374:7379   */\n      dup3\n        /* \"#utility.yul\":7305:7380   */\n      tag_221\n      jump\t// in\n    tag_390:\n        /* \"#utility.yul\":7396:7503   */\n      tag_391\n        /* \"#utility.yul\":7496:7502   */\n      dup2\n        /* \"#utility.yul\":7491:7494   */\n      dup6\n        /* \"#utility.yul\":7396:7503   */\n      tag_222\n      jump\t// in\n    tag_391:\n        /* \"#utility.yul\":7389:7503   */\n      swap4\n      pop\n        /* \"#utility.yul\":7529:7532   */\n      dup4\n        /* \"#utility.yul\":7574:7578   */\n      0x20\n        /* \"#utility.yul\":7566:7572   */\n      dup3\n        /* \"#utility.yul\":7562:7579   */\n      mul\n        /* \"#utility.yul\":7557:7560   */\n      dup6\n        /* \"#utility.yul\":7553:7580   */\n      add\n        /* \"#utility.yul\":7604:7681   */\n      tag_392\n        /* \"#utility.yul\":7675:7680   */\n      dup6\n        /* \"#utility.yul\":7604:7681   */\n      tag_223\n      jump\t// in\n    tag_392:\n        /* \"#utility.yul\":7704:7711   */\n      dup1\n        /* \"#utility.yul\":7735:7736   */\n      0x00\n        /* \"#utility.yul\":7720:8149   */\n    tag_393:\n        /* \"#utility.yul\":7745:7751   */\n      dup6\n        /* \"#utility.yul\":7742:7743   */\n      dup2\n        /* \"#utility.yul\":7739:7752   */\n      lt\n        /* \"#utility.yul\":7720:8149   */\n      iszero\n      tag_395\n      jumpi\n        /* \"#utility.yul\":7816:7825   */\n      dup5\n        /* \"#utility.yul\":7810:7814   */\n      dup5\n        /* \"#utility.yul\":7806:7826   */\n      sub\n        /* \"#utility.yul\":7801:7804   */\n      dup10\n        /* \"#utility.yul\":7794:7827   */\n      mstore\n        /* \"#utility.yul\":7867:7873   */\n      dup2\n        /* \"#utility.yul\":7861:7874   */\n      mload\n        /* \"#utility.yul\":7895:8001   */\n      tag_396\n        /* \"#utility.yul\":7996:8000   */\n      dup6\n        /* \"#utility.yul\":7981:7994   */\n      dup3\n        /* \"#utility.yul\":7895:8001   */\n      tag_247\n      jump\t// in\n    tag_396:\n        /* \"#utility.yul\":7887:8001   */\n      swap5\n      pop\n        /* \"#utility.yul\":8024:8105   */\n      tag_397\n        /* \"#utility.yul\":8098:8104   */\n      dup4\n        /* \"#utility.yul\":8024:8105   */\n      tag_248\n      jump\t// in\n    tag_397:\n        /* \"#utility.yul\":8014:8105   */\n      swap3\n      pop\n        /* \"#utility.yul\":8134:8138   */\n      0x20\n        /* \"#utility.yul\":8129:8132   */\n      dup11\n        /* \"#utility.yul\":8125:8139   */\n      add\n        /* \"#utility.yul\":8118:8139   */\n      swap10\n      pop\n        /* \"#utility.yul\":7780:8149   */\n      pop\n        /* \"#utility.yul\":7767:7768   */\n      0x01\n        /* \"#utility.yul\":7764:7765   */\n      dup2\n        /* \"#utility.yul\":7760:7769   */\n      add\n        /* \"#utility.yul\":7755:7769   */\n      swap1\n      pop\n        /* \"#utility.yul\":7720:8149   */\n      jump(tag_393)\n    tag_395:\n        /* \"#utility.yul\":7724:7738   */\n      pop\n        /* \"#utility.yul\":8165:8169   */\n      dup3\n        /* \"#utility.yul\":8158:8169   */\n      swap8\n      pop\n        /* \"#utility.yul\":8185:8188   */\n      dup8\n        /* \"#utility.yul\":8178:8188   */\n      swap6\n      pop\n        /* \"#utility.yul\":7281:8194   */\n      pop\n      pop\n      pop\n      pop\n      pop\n        /* \"#utility.yul\":7115:8194   */\n      swap3\n      swap2\n      pop\n      pop\n      jump\t// out\n        /* \"#utility.yul\":8200:8657   */\n    tag_16:\n        /* \"#utility.yul\":8385:8389   */\n      0x00\n        /* \"#utility.yul\":8423:8425   */\n      0x20\n        /* \"#utility.yul\":8412:8421   */\n      dup3\n        /* \"#utility.yul\":8408:8426   */\n      add\n        /* \"#utility.yul\":8400:8426   */\n      swap1\n      pop\n        /* \"#utility.yul\":8472:8481   */\n      dup2\n        /* \"#utility.yul\":8466:8470   */\n      dup2\n        /* \"#utility.yul\":8462:8482   */\n      sub\n        /* \"#utility.yul\":8458:8459   */\n      0x00\n        /* \"#utility.yul\":8447:8456   */\n      dup4\n        /* \"#utility.yul\":8443:8460   */\n      add\n        /* \"#utility.yul\":8436:8483   */\n      mstore\n        /* \"#utility.yul\":8500:8650   */\n      tag_399\n        /* \"#utility.yul\":8645:8649   */\n      dup2\n        /* \"#utility.yul\":8636:8642   */\n      dup5\n        /* \"#utility.yul\":8500:8650   */\n      tag_249\n      jump\t// in\n    tag_399:\n        /* \"#utility.yul\":8492:8650   */\n      swap1\n      pop\n        /* \"#utility.yul\":8200:8657   */\n      swap3\n      swap2\n      pop\n      pop\n      jump\t// out\n        /* \"#utility.yul\":8663:8738   */\n    tag_250:\n        /* \"#utility.yul\":8696:8702   */\n      0x00\n        /* \"#utility.yul\":8729:8731   */\n      0x40\n        /* \"#utility.yul\":8723:8732   */\n      mload\n        /* \"#utility.yul\":8713:8732   */\n      swap1\n      pop\n        /* \"#utility.yul\":8663:8738   */\n      swap1\n      jump\t// out\n        /* \"#utility.yul\":8744:8861   */\n    tag_251:\n        /* \"#utility.yul\":8853:8854   */\n      0x00\n        /* \"#utility.yul\":8850:8851   */\n      dup1\n        /* \"#utility.yul\":8843:8855   */\n      revert\n        /* \"#utility.yul\":8867:8984   */\n    tag_252:\n        /* \"#utility.yul\":8976:8977   */\n      0x00\n        /* \"#utility.yul\":8973:8974   */\n      dup1\n        /* \"#utility.yul\":8966:8978   */\n      revert\n        /* \"#utility.yul\":8990:9107   */\n    tag_253:\n        /* \"#utility.yul\":9099:9100   */\n      0x00\n        /* \"#utility.yul\":9096:9097   */\n      dup1\n        /* \"#utility.yul\":9089:9101   */\n      revert\n        /* \"#utility.yul\":9113:9230   */\n    tag_254:\n        /* \"#utility.yul\":9222:9223   */\n      0x00\n        /* \"#utility.yul\":9219:9220   */\n      dup1\n        /* \"#utility.yul\":9212:9224   */\n      revert\n        /* \"#utility.yul\":9236:9416   */\n    tag_255:\n        /* \"#utility.yul\":9284:9361   */\n      0x4e487b7100000000000000000000000000000000000000000000000000000000\n        /* \"#utility.yul\":9281:9282   */\n      0x00\n        /* \"#utility.yul\":9274:9362   */\n      mstore\n        /* \"#utility.yul\":9381:9385   */\n      0x41\n        /* \"#utility.yul\":9378:9379   */\n      0x04\n        /* \"#utility.yul\":9371:9386   */\n      mstore\n        /* \"#utility.yul\":9405:9409   */\n      0x24\n        /* \"#utility.yul\":9402:9403   */\n      0x00\n        /* \"#utility.yul\":9395:9410   */\n      revert\n        /* \"#utility.yul\":9422:9703   */\n    tag_256:\n        /* \"#utility.yul\":9505:9532   */\n      tag_407\n        /* \"#utility.yul\":9527:9531   */\n      dup3\n        /* \"#utility.yul\":9505:9532   */\n      tag_227\n      jump\t// in\n    tag_407:\n        /* \"#utility.yul\":9497:9503   */\n      dup2\n        /* \"#utility.yul\":9493:9533   */\n      add\n        /* \"#utility.yul\":9635:9641   */\n      dup2\n        /* \"#utility.yul\":9623:9633   */\n      dup2\n        /* \"#utility.yul\":9620:9642   */\n      lt\n        /* \"#utility.yul\":9599:9617   */\n      0xffffffffffffffff\n        /* \"#utility.yul\":9587:9597   */\n      dup3\n        /* \"#utility.yul\":9584:9618   */\n      gt\n        /* \"#utility.yul\":9581:9643   */\n      or\n        /* \"#utility.yul\":9578:9666   */\n      iszero\n      tag_408\n      jumpi\n        /* \"#utility.yul\":9646:9664   */\n      tag_409\n      tag_255\n      jump\t// in\n    tag_409:\n        /* \"#utility.yul\":9578:9666   */\n    tag_408:\n        /* \"#utility.yul\":9686:9696   */\n      dup1\n        /* \"#utility.yul\":9682:9684   */\n      0x40\n        /* \"#utility.yul\":9675:9697   */\n      mstore\n        /* \"#utility.yul\":9465:9703   */\n      pop\n        /* \"#utility.yul\":9422:9703   */\n      pop\n      pop\n      jump\t// out\n        /* \"#utility.yul\":9709:9838   */\n    tag_257:\n        /* \"#utility.yul\":9743:9749   */\n      0x00\n        /* \"#utility.yul\":9770:9790   */\n      tag_411\n      tag_250\n      jump\t// in\n    tag_411:\n        /* \"#utility.yul\":9760:9790   */\n      swap1\n      pop\n        /* \"#utility.yul\":9799:9832   */\n      tag_412\n        /* \"#utility.yul\":9827:9831   */\n      dup3\n        /* \"#utility.yul\":9819:9825   */\n      dup3\n        /* \"#utility.yul\":9799:9832   */\n      tag_256\n      jump\t// in\n    tag_412:\n        /* \"#utility.yul\":9709:9838   */\n      swap2\n      swap1\n      pop\n      jump\t// out\n        /* \"#utility.yul\":9844:10152   */\n    tag_258:\n        /* \"#utility.yul\":9906:9910   */\n      0x00\n        /* \"#utility.yul\":9996:10014   */\n      0xffffffffffffffff\n        /* \"#utility.yul\":9988:9994   */\n      dup3\n        /* \"#utility.yul\":9985:10015   */\n      gt\n        /* \"#utility.yul\":9982:10038   */\n      iszero\n      tag_414\n      jumpi\n        /* \"#utility.yul\":10018:10036   */\n      tag_415\n      tag_255\n      jump\t// in\n    tag_415:\n        /* \"#utility.yul\":9982:10038   */\n    tag_414:\n        /* \"#utility.yul\":10056:10085   */\n      tag_416\n        /* \"#utility.yul\":10078:10084   */\n      dup3\n        /* \"#utility.yul\":10056:10085   */\n      tag_227\n      jump\t// in\n    tag_416:\n        /* \"#utility.yul\":10048:10085   */\n      swap1\n      pop\n        /* \"#utility.yul\":10140:10144   */\n      0x20\n        /* \"#utility.yul\":10134:10138   */\n      dup2\n        /* \"#utility.yul\":10130:10145   */\n      add\n        /* \"#utility.yul\":10122:10145   */\n      swap1\n      pop\n        /* \"#utility.yul\":9844:10152   */\n      swap2\n      swap1\n      pop\n      jump\t// out\n        /* \"#utility.yul\":10158:10306   */\n    tag_259:\n        /* \"#utility.yul\":10256:10262   */\n      dup3\n        /* \"#utility.yul\":10251:10254   */\n      dup2\n        /* \"#utility.yul\":10246:10249   */\n      dup4\n        /* \"#utility.yul\":10233:10263   */\n      calldatacopy\n        /* \"#utility.yul\":10297:10298   */\n      0x00\n        /* \"#utility.yul\":10288:10294   */\n      dup4\n        /* \"#utility.yul\":10283:10286   */\n      dup4\n        /* \"#utility.yul\":10279:10295   */\n      add\n        /* \"#utility.yul\":10272:10299   */\n      mstore\n        /* \"#utility.yul\":10158:10306   */\n      pop\n      pop\n      pop\n      jump\t// out\n        /* \"#utility.yul\":10312:10737   */\n    tag_260:\n        /* \"#utility.yul\":10390:10395   */\n      0x00\n        /* \"#utility.yul\":10415:10481   */\n      tag_419\n        /* \"#utility.yul\":10431:10480   */\n      tag_420\n        /* \"#utility.yul\":10473:10479   */\n      dup5\n        /* \"#utility.yul\":10431:10480   */\n      tag_258\n      jump\t// in\n    tag_420:\n        /* \"#utility.yul\":10415:10481   */\n      tag_257\n      jump\t// in\n    tag_419:\n        /* \"#utility.yul\":10406:10481   */\n      swap1\n      pop\n        /* \"#utility.yul\":10504:10510   */\n      dup3\n        /* \"#utility.yul\":10497:10502   */\n      dup2\n        /* \"#utility.yul\":10490:10511   */\n      mstore\n        /* \"#utility.yul\":10542:10546   */\n      0x20\n        /* \"#utility.yul\":10535:10540   */\n      dup2\n        /* \"#utility.yul\":10531:10547   */\n      add\n        /* \"#utility.yul\":10580:10583   */\n      dup5\n        /* \"#utility.yul\":10571:10577   */\n      dup5\n        /* \"#utility.yul\":10566:10569   */\n      dup5\n        /* \"#utility.yul\":10562:10578   */\n      add\n        /* \"#utility.yul\":10559:10584   */\n      gt\n        /* \"#utility.yul\":10556:10668   */\n      iszero\n      tag_421\n      jumpi\n        /* \"#utility.yul\":10587:10666   */\n      tag_422\n      tag_254\n      jump\t// in\n    tag_422:\n        /* \"#utility.yul\":10556:10668   */\n    tag_421:\n        /* \"#utility.yul\":10677:10731   */\n      tag_423\n        /* \"#utility.yul\":10724:10730   */\n      dup5\n        /* \"#utility.yul\":10719:10722   */\n      dup3\n        /* \"#utility.yul\":10714:10717   */\n      dup6\n        /* \"#utility.yul\":10677:10731   */\n      tag_259\n      jump\t// in\n    tag_423:\n        /* \"#utility.yul\":10396:10737   */\n      pop\n        /* \"#utility.yul\":10312:10737   */\n      swap4\n      swap3\n      pop\n      pop\n      pop\n      jump\t// out\n        /* \"#utility.yul\":10757:11097   */\n    tag_261:\n        /* \"#utility.yul\":10813:10818   */\n      0x00\n        /* \"#utility.yul\":10862:10865   */\n      dup3\n        /* \"#utility.yul\":10855:10859   */\n      0x1f\n        /* \"#utility.yul\":10847:10853   */\n      dup4\n        /* \"#utility.yul\":10843:10860   */\n      add\n        /* \"#utility.yul\":10839:10866   */\n      slt\n        /* \"#utility.yul\":10829:10951   */\n      tag_425\n      jumpi\n        /* \"#utility.yul\":10870:10949   */\n      tag_426\n      tag_253\n      jump\t// in\n    tag_426:\n        /* \"#utility.yul\":10829:10951   */\n    tag_425:\n        /* \"#utility.yul\":10987:10993   */\n      dup2\n        /* \"#utility.yul\":10974:10994   */\n      calldataload\n        /* \"#utility.yul\":11012:11091   */\n      tag_427\n        /* \"#utility.yul\":11087:11090   */\n      dup5\n        /* \"#utility.yul\":11079:11085   */\n      dup3\n        /* \"#utility.yul\":11072:11076   */\n      0x20\n        /* \"#utility.yul\":11064:11070   */\n      dup7\n        /* \"#utility.yul\":11060:11077   */\n      add\n        /* \"#utility.yul\":11012:11091   */\n      tag_260\n      jump\t// in\n    tag_427:\n        /* \"#utility.yul\":11003:11091   */\n      swap2\n      pop\n        /* \"#utility.yul\":10819:11097   */\n      pop\n        /* \"#utility.yul\":10757:11097   */\n      swap3\n      swap2\n      pop\n      pop\n      jump\t// out\n        /* \"#utility.yul\":11103:11424   */\n    tag_262:\n        /* \"#utility.yul\":11190:11194   */\n      0x00\n        /* \"#utility.yul\":11280:11298   */\n      0xffffffffffffffff\n        /* \"#utility.yul\":11272:11278   */\n      dup3\n        /* \"#utility.yul\":11269:11299   */\n      gt\n        /* \"#utility.yul\":11266:11322   */\n      iszero\n      tag_429\n      jumpi\n        /* \"#utility.yul\":11302:11320   */\n      tag_430\n      tag_255\n      jump\t// in\n    tag_430:\n        /* \"#utility.yul\":11266:11322   */\n    tag_429:\n        /* \"#utility.yul\":11352:11356   */\n      0x20\n        /* \"#utility.yul\":11344:11350   */\n      dup3\n        /* \"#utility.yul\":11340:11357   */\n      mul\n        /* \"#utility.yul\":11332:11357   */\n      swap1\n      pop\n        /* \"#utility.yul\":11412:11416   */\n      0x20\n        /* \"#utility.yul\":11406:11410   */\n      dup2\n        /* \"#utility.yul\":11402:11417   */\n      add\n        /* \"#utility.yul\":11394:11417   */\n      swap1\n      pop\n        /* \"#utility.yul\":11103:11424   */\n      swap2\n      swap1\n      pop\n      jump\t// out\n        /* \"#utility.yul\":11430:11547   */\n    tag_263:\n        /* \"#utility.yul\":11539:11540   */\n      0x00\n        /* \"#utility.yul\":11536:11537   */\n      dup1\n        /* \"#utility.yul\":11529:11541   */\n      revert\n        /* \"#utility.yul\":11569:12514   */\n    tag_264:\n        /* \"#utility.yul\":11675:11680   */\n      0x00\n        /* \"#utility.yul\":11700:11791   */\n      tag_433\n        /* \"#utility.yul\":11716:11790   */\n      tag_434\n        /* \"#utility.yul\":11783:11789   */\n      dup5\n        /* \"#utility.yul\":11716:11790   */\n      tag_262\n      jump\t// in\n    tag_434:\n        /* \"#utility.yul\":11700:11791   */\n      tag_257\n      jump\t// in\n    tag_433:\n        /* \"#utility.yul\":11691:11791   */\n      swap1\n      pop\n        /* \"#utility.yul\":11811:11816   */\n      dup1\n        /* \"#utility.yul\":11840:11846   */\n      dup4\n        /* \"#utility.yul\":11833:11838   */\n      dup3\n        /* \"#utility.yul\":11826:11847   */\n      mstore\n        /* \"#utility.yul\":11874:11878   */\n      0x20\n        /* \"#utility.yul\":11867:11872   */\n      dup3\n        /* \"#utility.yul\":11863:11879   */\n      add\n        /* \"#utility.yul\":11856:11879   */\n      swap1\n      pop\n        /* \"#utility.yul\":11927:11931   */\n      0x20\n        /* \"#utility.yul\":11919:11925   */\n      dup5\n        /* \"#utility.yul\":11915:11932   */\n      mul\n        /* \"#utility.yul\":11907:11913   */\n      dup4\n        /* \"#utility.yul\":11903:11933   */\n      add\n        /* \"#utility.yul\":11956:11959   */\n      dup6\n        /* \"#utility.yul\":11948:11954   */\n      dup2\n        /* \"#utility.yul\":11945:11960   */\n      gt\n        /* \"#utility.yul\":11942:12064   */\n      iszero\n      tag_435\n      jumpi\n        /* \"#utility.yul\":11975:12054   */\n      tag_436\n      tag_263\n      jump\t// in\n    tag_436:\n        /* \"#utility.yul\":11942:12064   */\n    tag_435:\n        /* \"#utility.yul\":12090:12096   */\n      dup4\n        /* \"#utility.yul\":12073:12508   */\n    tag_437:\n        /* \"#utility.yul\":12107:12113   */\n      dup2\n        /* \"#utility.yul\":12102:12105   */\n      dup2\n        /* \"#utility.yul\":12099:12114   */\n      lt\n        /* \"#utility.yul\":12073:12508   */\n      iszero\n      tag_439\n      jumpi\n        /* \"#utility.yul\":12196:12199   */\n      dup1\n        /* \"#utility.yul\":12183:12200   */\n      calldataload\n        /* \"#utility.yul\":12232:12250   */\n      0xffffffffffffffff\n        /* \"#utility.yul\":12219:12230   */\n      dup2\n        /* \"#utility.yul\":12216:12251   */\n      gt\n        /* \"#utility.yul\":12213:12335   */\n      iszero\n      tag_440\n      jumpi\n        /* \"#utility.yul\":12254:12333   */\n      tag_441\n      tag_253\n      jump\t// in\n    tag_441:\n        /* \"#utility.yul\":12213:12335   */\n    tag_440:\n        /* \"#utility.yul\":12378:12389   */\n      dup1\n        /* \"#utility.yul\":12370:12376   */\n      dup7\n        /* \"#utility.yul\":12366:12390   */\n      add\n        /* \"#utility.yul\":12416:12463   */\n      tag_442\n        /* \"#utility.yul\":12459:12462   */\n      dup10\n        /* \"#utility.yul\":12447:12457   */\n      dup3\n        /* \"#utility.yul\":12416:12463   */\n      tag_261\n      jump\t// in\n    tag_442:\n        /* \"#utility.yul\":12411:12414   */\n      dup6\n        /* \"#utility.yul\":12404:12464   */\n      mstore\n        /* \"#utility.yul\":12493:12497   */\n      0x20\n        /* \"#utility.yul\":12488:12491   */\n      dup6\n        /* \"#utility.yul\":12484:12498   */\n      add\n        /* \"#utility.yul\":12477:12498   */\n      swap5\n      pop\n        /* \"#utility.yul\":12149:12508   */\n      pop\n      pop\n        /* \"#utility.yul\":12133:12137   */\n      0x20\n        /* \"#utility.yul\":12128:12131   */\n      dup2\n        /* \"#utility.yul\":12124:12138   */\n      add\n        /* \"#utility.yul\":12117:12138   */\n      swap1\n      pop\n        /* \"#utility.yul\":12073:12508   */\n      jump(tag_437)\n    tag_439:\n        /* \"#utility.yul\":12077:12098   */\n      pop\n        /* \"#utility.yul\":11681:12514   */\n      pop\n      pop\n        /* \"#utility.yul\":11569:12514   */\n      swap4\n      swap3\n      pop\n      pop\n      pop\n      jump\t// out\n        /* \"#utility.yul\":12536:12926   */\n    tag_265:\n        /* \"#utility.yul\":12617:12622   */\n      0x00\n        /* \"#utility.yul\":12666:12669   */\n      dup3\n        /* \"#utility.yul\":12659:12663   */\n      0x1f\n        /* \"#utility.yul\":12651:12657   */\n      dup4\n        /* \"#utility.yul\":12647:12664   */\n      add\n        /* \"#utility.yul\":12643:12670   */\n      slt\n        /* \"#utility.yul\":12633:12755   */\n      tag_444\n      jumpi\n        /* \"#utility.yul\":12674:12753   */\n      tag_445\n      tag_253\n      jump\t// in\n    tag_445:\n        /* \"#utility.yul\":12633:12755   */\n    tag_444:\n        /* \"#utility.yul\":12791:12797   */\n      dup2\n        /* \"#utility.yul\":12778:12798   */\n      calldataload\n        /* \"#utility.yul\":12816:12920   */\n      tag_446\n        /* \"#utility.yul\":12916:12919   */\n      dup5\n        /* \"#utility.yul\":12908:12914   */\n      dup3\n        /* \"#utility.yul\":12901:12905   */\n      0x20\n        /* \"#utility.yul\":12893:12899   */\n      dup7\n        /* \"#utility.yul\":12889:12906   */\n      add\n        /* \"#utility.yul\":12816:12920   */\n      tag_264\n      jump\t// in\n    tag_446:\n        /* \"#utility.yul\":12807:12920   */\n      swap2\n      pop\n        /* \"#utility.yul\":12623:12926   */\n      pop\n        /* \"#utility.yul\":12536:12926   */\n      swap3\n      swap2\n      pop\n      pop\n      jump\t// out\n        /* \"#utility.yul\":12932:13243   */\n    tag_266:\n        /* \"#utility.yul\":13009:13013   */\n      0x00\n        /* \"#utility.yul\":13099:13117   */\n      0xffffffffffffffff\n        /* \"#utility.yul\":13091:13097   */\n      dup3\n        /* \"#utility.yul\":13088:13118   */\n      gt\n        /* \"#utility.yul\":13085:13141   */\n      iszero\n      tag_448\n      jumpi\n        /* \"#utility.yul\":13121:13139   */\n      tag_449\n      tag_255\n      jump\t// in\n    tag_449:\n        /* \"#utility.yul\":13085:13141   */\n    tag_448:\n        /* \"#utility.yul\":13171:13175   */\n      0x20\n        /* \"#utility.yul\":13163:13169   */\n      dup3\n        /* \"#utility.yul\":13159:13176   */\n      mul\n        /* \"#utility.yul\":13151:13176   */\n      swap1\n      pop\n        /* \"#utility.yul\":13231:13235   */\n      0x20\n        /* \"#utility.yul\":13225:13229   */\n      dup2\n        /* \"#utility.yul\":13221:13236   */\n      add\n        /* \"#utility.yul\":13213:13236   */\n      swap1\n      pop\n        /* \"#utility.yul\":12932:13243   */\n      swap2\n      swap1\n      pop\n      jump\t// out\n        /* \"#utility.yul\":13249:13371   */\n    tag_267:\n        /* \"#utility.yul\":13322:13346   */\n      tag_451\n        /* \"#utility.yul\":13340:13345   */\n      dup2\n        /* \"#utility.yul\":13322:13346   */\n      tag_239\n      jump\t// in\n    tag_451:\n        /* \"#utility.yul\":13315:13320   */\n      dup2\n        /* \"#utility.yul\":13312:13347   */\n      eq\n        /* \"#utility.yul\":13302:13365   */\n      tag_452\n      jumpi\n        /* \"#utility.yul\":13361:13362   */\n      0x00\n        /* \"#utility.yul\":13358:13359   */\n      dup1\n        /* \"#utility.yul\":13351:13363   */\n      revert\n        /* \"#utility.yul\":13302:13365   */\n    tag_452:\n        /* \"#utility.yul\":13249:13371   */\n      pop\n      jump\t// out\n        /* \"#utility.yul\":13377:13516   */\n    tag_268:\n        /* \"#utility.yul\":13423:13428   */\n      0x00\n        /* \"#utility.yul\":13461:13467   */\n      dup2\n        /* \"#utility.yul\":13448:13468   */\n      calldataload\n        /* \"#utility.yul\":13439:13468   */\n      swap1\n      pop\n        /* \"#utility.yul\":13477:13510   */\n      tag_454\n        /* \"#utility.yul\":13504:13509   */\n      dup2\n        /* \"#utility.yul\":13477:13510   */\n      tag_267\n      jump\t// in\n    tag_454:\n        /* \"#utility.yul\":13377:13516   */\n      swap3\n      swap2\n      pop\n      pop\n      jump\t// out\n        /* \"#utility.yul\":13539:14249   */\n    tag_269:\n        /* \"#utility.yul\":13635:13640   */\n      0x00\n        /* \"#utility.yul\":13660:13741   */\n      tag_456\n        /* \"#utility.yul\":13676:13740   */\n      tag_457\n        /* \"#utility.yul\":13733:13739   */\n      dup5\n        /* \"#utility.yul\":13676:13740   */\n      tag_266\n      jump\t// in\n    tag_457:\n        /* \"#utility.yul\":13660:13741   */\n      tag_257\n      jump\t// in\n    tag_456:\n        /* \"#utility.yul\":13651:13741   */\n      swap1\n      pop\n        /* \"#utility.yul\":13761:13766   */\n      dup1\n        /* \"#utility.yul\":13790:13796   */\n      dup4\n        /* \"#utility.yul\":13783:13788   */\n      dup3\n        /* \"#utility.yul\":13776:13797   */\n      mstore\n        /* \"#utility.yul\":13824:13828   */\n      0x20\n        /* \"#utility.yul\":13817:13822   */\n      dup3\n        /* \"#utility.yul\":13813:13829   */\n      add\n        /* \"#utility.yul\":13806:13829   */\n      swap1\n      pop\n        /* \"#utility.yul\":13877:13881   */\n      0x20\n        /* \"#utility.yul\":13869:13875   */\n      dup5\n        /* \"#utility.yul\":13865:13882   */\n      mul\n        /* \"#utility.yul\":13857:13863   */\n      dup4\n        /* \"#utility.yul\":13853:13883   */\n      add\n        /* \"#utility.yul\":13906:13909   */\n      dup6\n        /* \"#utility.yul\":13898:13904   */\n      dup2\n        /* \"#utility.yul\":13895:13910   */\n      gt\n        /* \"#utility.yul\":13892:14014   */\n      iszero\n      tag_458\n      jumpi\n        /* \"#utility.yul\":13925:14004   */\n      tag_459\n      tag_263\n      jump\t// in\n    tag_459:\n        /* \"#utility.yul\":13892:14014   */\n    tag_458:\n        /* \"#utility.yul\":14040:14046   */\n      dup4\n        /* \"#utility.yul\":14023:14243   */\n    tag_460:\n        /* \"#utility.yul\":14057:14063   */\n      dup2\n        /* \"#utility.yul\":14052:14055   */\n      dup2\n        /* \"#utility.yul\":14049:14064   */\n      lt\n        /* \"#utility.yul\":14023:14243   */\n      iszero\n      tag_462\n      jumpi\n        /* \"#utility.yul\":14132:14135   */\n      dup1\n        /* \"#utility.yul\":14161:14198   */\n      tag_463\n        /* \"#utility.yul\":14194:14197   */\n      dup9\n        /* \"#utility.yul\":14182:14192   */\n      dup3\n        /* \"#utility.yul\":14161:14198   */\n      tag_268\n      jump\t// in\n    tag_463:\n        /* \"#utility.yul\":14156:14159   */\n      dup5\n        /* \"#utility.yul\":14149:14199   */\n      mstore\n        /* \"#utility.yul\":14228:14232   */\n      0x20\n        /* \"#utility.yul\":14223:14226   */\n      dup5\n        /* \"#utility.yul\":14219:14233   */\n      add\n        /* \"#utility.yul\":14212:14233   */\n      swap4\n      pop\n        /* \"#utility.yul\":14099:14243   */\n      pop\n        /* \"#utility.yul\":14083:14087   */\n      0x20\n        /* \"#utility.yul\":14078:14081   */\n      dup2\n        /* \"#utility.yul\":14074:14088   */\n      add\n        /* \"#utility.yul\":14067:14088   */\n      swap1\n      pop\n        /* \"#utility.yul\":14023:14243   */\n      jump(tag_460)\n    tag_462:\n        /* \"#utility.yul\":14027:14048   */\n      pop\n        /* \"#utility.yul\":13641:14249   */\n      pop\n      pop\n        /* \"#utility.yul\":13539:14249   */\n      swap4\n      swap3\n      pop\n      pop\n      pop\n      jump\t// out\n        /* \"#utility.yul\":14272:14642   */\n    tag_270:\n        /* \"#utility.yul\":14343:14348   */\n      0x00\n        /* \"#utility.yul\":14392:14395   */\n      dup3\n        /* \"#utility.yul\":14385:14389   */\n      0x1f\n        /* \"#utility.yul\":14377:14383   */\n      dup4\n        /* \"#utility.yul\":14373:14390   */\n      add\n        /* \"#utility.yul\":14369:14396   */\n      slt\n        /* \"#utility.yul\":14359:14481   */\n      tag_465\n      jumpi\n        /* \"#utility.yul\":14400:14479   */\n      tag_466\n      tag_253\n      jump\t// in\n    tag_466:\n        /* \"#utility.yul\":14359:14481   */\n    tag_465:\n        /* \"#utility.yul\":14517:14523   */\n      dup2\n        /* \"#utility.yul\":14504:14524   */\n      calldataload\n        /* \"#utility.yul\":14542:14636   */\n      tag_467\n        /* \"#utility.yul\":14632:14635   */\n      dup5\n        /* \"#utility.yul\":14624:14630   */\n      dup3\n        /* \"#utility.yul\":14617:14621   */\n      0x20\n        /* \"#utility.yul\":14609:14615   */\n      dup7\n        /* \"#utility.yul\":14605:14622   */\n      add\n        /* \"#utility.yul\":14542:14636   */\n      tag_269\n      jump\t// in\n    tag_467:\n        /* \"#utility.yul\":14533:14636   */\n      swap2\n      pop\n        /* \"#utility.yul\":14349:14642   */\n      pop\n        /* \"#utility.yul\":14272:14642   */\n      swap3\n      swap2\n      pop\n      pop\n      jump\t// out\n        /* \"#utility.yul\":14648:15887   */\n    tag_19:\n        /* \"#utility.yul\":14795:14801   */\n      0x00\n        /* \"#utility.yul\":14803:14809   */\n      dup1\n        /* \"#utility.yul\":14811:14817   */\n      0x00\n        /* \"#utility.yul\":14860:14862   */\n      0x60\n        /* \"#utility.yul\":14848:14857   */\n      dup5\n        /* \"#utility.yul\":14839:14846   */\n      dup7\n        /* \"#utility.yul\":14835:14858   */\n      sub\n        /* \"#utility.yul\":14831:14863   */\n      slt\n        /* \"#utility.yul\":14828:14947   */\n      iszero\n      tag_469\n      jumpi\n        /* \"#utility.yul\":14866:14945   */\n      tag_470\n      tag_251\n      jump\t// in\n    tag_470:\n        /* \"#utility.yul\":14828:14947   */\n    tag_469:\n        /* \"#utility.yul\":15014:15015   */\n      0x00\n        /* \"#utility.yul\":15003:15012   */\n      dup5\n        /* \"#utility.yul\":14999:15016   */\n      add\n        /* \"#utility.yul\":14986:15017   */\n      calldataload\n        /* \"#utility.yul\":15044:15062   */\n      0xffffffffffffffff\n        /* \"#utility.yul\":15036:15042   */\n      dup2\n        /* \"#utility.yul\":15033:15063   */\n      gt\n        /* \"#utility.yul\":15030:15147   */\n      iszero\n      tag_471\n      jumpi\n        /* \"#utility.yul\":15066:15145   */\n      tag_472\n      tag_252\n      jump\t// in\n    tag_472:\n        /* \"#utility.yul\":15030:15147   */\n    tag_471:\n        /* \"#utility.yul\":15171:15234   */\n      tag_473\n        /* \"#utility.yul\":15226:15233   */\n      dup7\n        /* \"#utility.yul\":15217:15223   */\n      dup3\n        /* \"#utility.yul\":15206:15215   */\n      dup8\n        /* \"#utility.yul\":15202:15224   */\n      add\n        /* \"#utility.yul\":15171:15234   */\n      tag_261\n      jump\t// in\n    tag_473:\n        /* \"#utility.yul\":15161:15234   */\n      swap4\n      pop\n        /* \"#utility.yul\":14957:15244   */\n      pop\n        /* \"#utility.yul\":15311:15313   */\n      0x20\n        /* \"#utility.yul\":15300:15309   */\n      dup5\n        /* \"#utility.yul\":15296:15314   */\n      add\n        /* \"#utility.yul\":15283:15315   */\n      calldataload\n        /* \"#utility.yul\":15342:15360   */\n      0xffffffffffffffff\n        /* \"#utility.yul\":15334:15340   */\n      dup2\n        /* \"#utility.yul\":15331:15361   */\n      gt\n        /* \"#utility.yul\":15328:15445   */\n      iszero\n      tag_474\n      jumpi\n        /* \"#utility.yul\":15364:15443   */\n      tag_475\n      tag_252\n      jump\t// in\n    tag_475:\n        /* \"#utility.yul\":15328:15445   */\n    tag_474:\n        /* \"#utility.yul\":15469:15557   */\n      tag_476\n        /* \"#utility.yul\":15549:15556   */\n      dup7\n        /* \"#utility.yul\":15540:15546   */\n      dup3\n        /* \"#utility.yul\":15529:15538   */\n      dup8\n        /* \"#utility.yul\":15525:15547   */\n      add\n        /* \"#utility.yul\":15469:15557   */\n      tag_265\n      jump\t// in\n    tag_476:\n        /* \"#utility.yul\":15459:15557   */\n      swap3\n      pop\n        /* \"#utility.yul\":15254:15567   */\n      pop\n        /* \"#utility.yul\":15634:15636   */\n      0x40\n        /* \"#utility.yul\":15623:15632   */\n      dup5\n        /* \"#utility.yul\":15619:15637   */\n      add\n        /* \"#utility.yul\":15606:15638   */\n      calldataload\n        /* \"#utility.yul\":15665:15683   */\n      0xffffffffffffffff\n        /* \"#utility.yul\":15657:15663   */\n      dup2\n        /* \"#utility.yul\":15654:15684   */\n      gt\n        /* \"#utility.yul\":15651:15768   */\n      iszero\n      tag_477\n      jumpi\n        /* \"#utility.yul\":15687:15766   */\n      tag_478\n      tag_252\n      jump\t// in\n    tag_478:\n        /* \"#utility.yul\":15651:15768   */\n    tag_477:\n        /* \"#utility.yul\":15792:15870   */\n      tag_479\n        /* \"#utility.yul\":15862:15869   */\n      dup7\n        /* \"#utility.yul\":15853:15859   */\n      dup3\n        /* \"#utility.yul\":15842:15851   */\n      dup8\n        /* \"#utility.yul\":15838:15860   */\n      add\n        /* \"#utility.yul\":15792:15870   */\n      tag_270\n      jump\t// in\n    tag_479:\n        /* \"#utility.yul\":15782:15870   */\n      swap2\n      pop\n        /* \"#utility.yul\":15577:15880   */\n      pop\n        /* \"#utility.yul\":14648:15887   */\n      swap3\n      pop\n      swap3\n      pop\n      swap3\n      jump\t// out\n        /* \"#utility.yul\":15893:16222   */\n    tag_23:\n        /* \"#utility.yul\":15952:15958   */\n      0x00\n        /* \"#utility.yul\":16001:16003   */\n      0x20\n        /* \"#utility.yul\":15989:15998   */\n      dup3\n        /* \"#utility.yul\":15980:15987   */\n      dup5\n        /* \"#utility.yul\":15976:15999   */\n      sub\n        /* \"#utility.yul\":15972:16004   */\n      slt\n        /* \"#utility.yul\":15969:16088   */\n      iszero\n      tag_481\n      jumpi\n        /* \"#utility.yul\":16007:16086   */\n      tag_482\n      tag_251\n      jump\t// in\n    tag_482:\n        /* \"#utility.yul\":15969:16088   */\n    tag_481:\n        /* \"#utility.yul\":16127:16128   */\n      0x00\n        /* \"#utility.yul\":16152:16205   */\n      tag_483\n        /* \"#utility.yul\":16197:16204   */\n      dup5\n        /* \"#utility.yul\":16188:16194   */\n      dup3\n        /* \"#utility.yul\":16177:16186   */\n      dup6\n        /* \"#utility.yul\":16173:16195   */\n      add\n        /* \"#utility.yul\":16152:16205   */\n      tag_268\n      jump\t// in\n    tag_483:\n        /* \"#utility.yul\":16142:16205   */\n      swap2\n      pop\n        /* \"#utility.yul\":16098:16215   */\n      pop\n        /* \"#utility.yul\":15893:16222   */\n      swap3\n      swap2\n      pop\n      pop\n      jump\t// out\n        /* \"#utility.yul\":16228:16346   */\n    tag_271:\n        /* \"#utility.yul\":16315:16339   */\n      tag_485\n        /* \"#utility.yul\":16333:16338   */\n      dup2\n        /* \"#utility.yul\":16315:16339   */\n      tag_239\n      jump\t// in\n    tag_485:\n        /* \"#utility.yul\":16310:16313   */\n      dup3\n        /* \"#utility.yul\":16303:16340   */\n      mstore\n        /* \"#utility.yul\":16228:16346   */\n      pop\n      pop\n      jump\t// out\n        /* \"#utility.yul\":16352:16574   */\n    tag_28:\n        /* \"#utility.yul\":16445:16449   */\n      0x00\n        /* \"#utility.yul\":16483:16485   */\n      0x20\n        /* \"#utility.yul\":16472:16481   */\n      dup3\n        /* \"#utility.yul\":16468:16486   */\n      add\n        /* \"#utility.yul\":16460:16486   */\n      swap1\n      pop\n        /* \"#utility.yul\":16496:16567   */\n      tag_487\n        /* \"#utility.yul\":16564:16565   */\n      0x00\n        /* \"#utility.yul\":16553:16562   */\n      dup4\n        /* \"#utility.yul\":16549:16566   */\n      add\n        /* \"#utility.yul\":16540:16546   */\n      dup5\n        /* \"#utility.yul\":16496:16567   */\n      tag_271\n      jump\t// in\n    tag_487:\n        /* \"#utility.yul\":16352:16574   */\n      swap3\n      swap2\n      pop\n      pop\n      jump\t// out\n        /* \"#utility.yul\":16580:16698   */\n    tag_272:\n        /* \"#utility.yul\":16667:16691   */\n      tag_489\n        /* \"#utility.yul\":16685:16690   */\n      dup2\n        /* \"#utility.yul\":16667:16691   */\n      tag_244\n      jump\t// in\n    tag_489:\n        /* \"#utility.yul\":16662:16665   */\n      dup3\n        /* \"#utility.yul\":16655:16692   */\n      mstore\n        /* \"#utility.yul\":16580:16698   */\n      pop\n      pop\n      jump\t// out\n        /* \"#utility.yul\":16704:16926   */\n    tag_32:\n        /* \"#utility.yul\":16797:16801   */\n      0x00\n        /* \"#utility.yul\":16835:16837   */\n      0x20\n        /* \"#utility.yul\":16824:16833   */\n      dup3\n        /* \"#utility.yul\":16820:16838   */\n      add\n        /* \"#utility.yul\":16812:16838   */\n      swap1\n      pop\n        /* \"#utility.yul\":16848:16919   */\n      tag_491\n        /* \"#utility.yul\":16916:16917   */\n      0x00\n        /* \"#utility.yul\":16905:16914   */\n      dup4\n        /* \"#utility.yul\":16901:16918   */\n      add\n        /* \"#utility.yul\":16892:16898   */\n      dup5\n        /* \"#utility.yul\":16848:16919   */\n      tag_272\n      jump\t// in\n    tag_491:\n        /* \"#utility.yul\":16704:16926   */\n      swap3\n      swap2\n      pop\n      pop\n      jump\t// out\n        /* \"#utility.yul\":16932:16992   */\n    tag_273:\n        /* \"#utility.yul\":16960:16963   */\n      0x00\n        /* \"#utility.yul\":16981:16986   */\n      dup2\n        /* \"#utility.yul\":16974:16986   */\n      swap1\n      pop\n        /* \"#utility.yul\":16932:16992   */\n      swap2\n      swap1\n      pop\n      jump\t// out\n        /* \"#utility.yul\":16998:17140   */\n    tag_274:\n        /* \"#utility.yul\":17048:17057   */\n      0x00\n        /* \"#utility.yul\":17081:17134   */\n      tag_494\n        /* \"#utility.yul\":17099:17133   */\n      tag_495\n        /* \"#utility.yul\":17108:17132   */\n      tag_496\n        /* \"#utility.yul\":17126:17131   */\n      dup5\n        /* \"#utility.yul\":17108:17132   */\n      tag_238\n      jump\t// in\n    tag_496:\n        /* \"#utility.yul\":17099:17133   */\n      tag_273\n      jump\t// in\n    tag_495:\n        /* \"#utility.yul\":17081:17134   */\n      tag_238\n      jump\t// in\n    tag_494:\n        /* \"#utility.yul\":17068:17134   */\n      swap1\n      pop\n        /* \"#utility.yul\":16998:17140   */\n      swap2\n      swap1\n      pop\n      jump\t// out\n        /* \"#utility.yul\":17146:17272   */\n    tag_275:\n        /* \"#utility.yul\":17196:17205   */\n      0x00\n        /* \"#utility.yul\":17229:17266   */\n      tag_498\n        /* \"#utility.yul\":17260:17265   */\n      dup3\n        /* \"#utility.yul\":17229:17266   */\n      tag_274\n      jump\t// in\n    tag_498:\n        /* \"#utility.yul\":17216:17266   */\n      swap1\n      pop\n        /* \"#utility.yul\":17146:17272   */\n      swap2\n      swap1\n      pop\n      jump\t// out\n        /* \"#utility.yul\":17278:17413   */\n    tag_276:\n        /* \"#utility.yul\":17337:17346   */\n      0x00\n        /* \"#utility.yul\":17370:17407   */\n      tag_500\n        /* \"#utility.yul\":17401:17406   */\n      dup3\n        /* \"#utility.yul\":17370:17407   */\n      tag_275\n      jump\t// in\n    tag_500:\n        /* \"#utility.yul\":17357:17407   */\n      swap1\n      pop\n        /* \"#utility.yul\":17278:17413   */\n      swap2\n      swap1\n      pop\n      jump\t// out\n        /* \"#utility.yul\":17419:17568   */\n    tag_277:\n        /* \"#utility.yul\":17515:17561   */\n      tag_502\n        /* \"#utility.yul\":17555:17560   */\n      dup2\n        /* \"#utility.yul\":17515:17561   */\n      tag_276\n      jump\t// in\n    tag_502:\n        /* \"#utility.yul\":17510:17513   */\n      dup3\n        /* \"#utility.yul\":17503:17562   */\n      mstore\n        /* \"#utility.yul\":17419:17568   */\n      pop\n      pop\n      jump\t// out\n        /* \"#utility.yul\":17574:17814   */\n    tag_36:\n        /* \"#utility.yul\":17676:17680   */\n      0x00\n        /* \"#utility.yul\":17714:17716   */\n      0x20\n        /* \"#utility.yul\":17703:17712   */\n      dup3\n        /* \"#utility.yul\":17699:17717   */\n      add\n        /* \"#utility.yul\":17691:17717   */\n      swap1\n      pop\n        /* \"#utility.yul\":17727:17807   */\n      tag_504\n        /* \"#utility.yul\":17804:17805   */\n      0x00\n        /* \"#utility.yul\":17793:17802   */\n      dup4\n        /* \"#utility.yul\":17789:17806   */\n      add\n        /* \"#utility.yul\":17780:17786   */\n      dup5\n        /* \"#utility.yul\":17727:17807   */\n      tag_277\n      jump\t// in\n    tag_504:\n        /* \"#utility.yul\":17574:17814   */\n      swap3\n      swap2\n      pop\n      pop\n      jump\t// out\n        /* \"#utility.yul\":17820:17942   */\n    tag_278:\n        /* \"#utility.yul\":17893:17917   */\n      tag_506\n        /* \"#utility.yul\":17911:17916   */\n      dup2\n        /* \"#utility.yul\":17893:17917   */\n      tag_244\n      jump\t// in\n    tag_506:\n        /* \"#utility.yul\":17886:17891   */\n      dup2\n        /* \"#utility.yul\":17883:17918   */\n      eq\n        /* \"#utility.yul\":17873:17936   */\n      tag_507\n      jumpi\n        /* \"#utility.yul\":17932:17933   */\n      0x00\n        /* \"#utility.yul\":17929:17930   */\n      dup1\n        /* \"#utility.yul\":17922:17934   */\n      revert\n        /* \"#utility.yul\":17873:17936   */\n    tag_507:\n        /* \"#utility.yul\":17820:17942   */\n      pop\n      jump\t// out\n        /* \"#utility.yul\":17948:18087   */\n    tag_279:\n        /* \"#utility.yul\":17994:17999   */\n      0x00\n        /* \"#utility.yul\":18032:18038   */\n      dup2\n        /* \"#utility.yul\":18019:18039   */\n      calldataload\n        /* \"#utility.yul\":18010:18039   */\n      swap1\n      pop\n        /* \"#utility.yul\":18048:18081   */\n      tag_509\n        /* \"#utility.yul\":18075:18080   */\n      dup2\n        /* \"#utility.yul\":18048:18081   */\n      tag_278\n      jump\t// in\n    tag_509:\n        /* \"#utility.yul\":17948:18087   */\n      swap3\n      swap2\n      pop\n      pop\n      jump\t// out\n        /* \"#utility.yul\":18093:18422   */\n    tag_39:\n        /* \"#utility.yul\":18152:18158   */\n      0x00\n        /* \"#utility.yul\":18201:18203   */\n      0x20\n        /* \"#utility.yul\":18189:18198   */\n      dup3\n        /* \"#utility.yul\":18180:18187   */\n      dup5\n        /* \"#utility.yul\":18176:18199   */\n      sub\n        /* \"#utility.yul\":18172:18204   */\n      slt\n        /* \"#utility.yul\":18169:18288   */\n      iszero\n      tag_511\n      jumpi\n        /* \"#utility.yul\":18207:18286   */\n      tag_512\n      tag_251\n      jump\t// in\n    tag_512:\n        /* \"#utility.yul\":18169:18288   */\n    tag_511:\n        /* \"#utility.yul\":18327:18328   */\n      0x00\n        /* \"#utility.yul\":18352:18405   */\n      tag_513\n        /* \"#utility.yul\":18397:18404   */\n      dup5\n        /* \"#utility.yul\":18388:18394   */\n      dup3\n        /* \"#utility.yul\":18377:18386   */\n      dup6\n        /* \"#utility.yul\":18373:18395   */\n      add\n        /* \"#utility.yul\":18352:18405   */\n      tag_279\n      jump\t// in\n    tag_513:\n        /* \"#utility.yul\":18342:18405   */\n      swap2\n      pop\n        /* \"#utility.yul\":18298:18415   */\n      pop\n        /* \"#utility.yul\":18093:18422   */\n      swap3\n      swap2\n      pop\n      pop\n      jump\t// out\n        /* \"#utility.yul\":18428:18597   */\n    tag_280:\n        /* \"#utility.yul\":18512:18523   */\n      0x00\n        /* \"#utility.yul\":18546:18552   */\n      dup3\n        /* \"#utility.yul\":18541:18544   */\n      dup3\n        /* \"#utility.yul\":18534:18553   */\n      mstore\n        /* \"#utility.yul\":18586:18590   */\n      0x20\n        /* \"#utility.yul\":18581:18584   */\n      dup3\n        /* \"#utility.yul\":18577:18591   */\n      add\n        /* \"#utility.yul\":18562:18591   */\n      swap1\n      pop\n        /* \"#utility.yul\":18428:18597   */\n      swap3\n      swap2\n      pop\n      pop\n      jump\t// out\n        /* \"#utility.yul\":18603:18980   */\n    tag_281:\n        /* \"#utility.yul\":18691:18694   */\n      0x00\n        /* \"#utility.yul\":18719:18758   */\n      tag_516\n        /* \"#utility.yul\":18752:18757   */\n      dup3\n        /* \"#utility.yul\":18719:18758   */\n      tag_224\n      jump\t// in\n    tag_516:\n        /* \"#utility.yul\":18774:18845   */\n      tag_517\n        /* \"#utility.yul\":18838:18844   */\n      dup2\n        /* \"#utility.yul\":18833:18836   */\n      dup6\n        /* \"#utility.yul\":18774:18845   */\n      tag_280\n      jump\t// in\n    tag_517:\n        /* \"#utility.yul\":18767:18845   */\n      swap4\n      pop\n        /* \"#utility.yul\":18854:18919   */\n      tag_518\n        /* \"#utility.yul\":18912:18918   */\n      dup2\n        /* \"#utility.yul\":18907:18910   */\n      dup6\n        /* \"#utility.yul\":18900:18904   */\n      0x20\n        /* \"#utility.yul\":18893:18898   */\n      dup7\n        /* \"#utility.yul\":18889:18905   */\n      add\n        /* \"#utility.yul\":18854:18919   */\n      tag_226\n      jump\t// in\n    tag_518:\n        /* \"#utility.yul\":18944:18973   */\n      tag_519\n        /* \"#utility.yul\":18966:18972   */\n      dup2\n        /* \"#utility.yul\":18944:18973   */\n      tag_227\n      jump\t// in\n    tag_519:\n        /* \"#utility.yul\":18939:18942   */\n      dup5\n        /* \"#utility.yul\":18935:18974   */\n      add\n        /* \"#utility.yul\":18928:18974   */\n      swap2\n      pop\n        /* \"#utility.yul\":18695:18980   */\n      pop\n        /* \"#utility.yul\":18603:18980   */\n      swap3\n      swap2\n      pop\n      pop\n      jump\t// out\n        /* \"#utility.yul\":18986:19519   */\n    tag_42:\n        /* \"#utility.yul\":19155:19159   */\n      0x00\n        /* \"#utility.yul\":19193:19195   */\n      0x60\n        /* \"#utility.yul\":19182:19191   */\n      dup3\n        /* \"#utility.yul\":19178:19196   */\n      add\n        /* \"#utility.yul\":19170:19196   */\n      swap1\n      pop\n        /* \"#utility.yul\":19242:19251   */\n      dup2\n        /* \"#utility.yul\":19236:19240   */\n      dup2\n        /* \"#utility.yul\":19232:19252   */\n      sub\n        /* \"#utility.yul\":19228:19229   */\n      0x00\n        /* \"#utility.yul\":19217:19226   */\n      dup4\n        /* \"#utility.yul\":19213:19230   */\n      add\n        /* \"#utility.yul\":19206:19253   */\n      mstore\n        /* \"#utility.yul\":19270:19348   */\n      tag_521\n        /* \"#utility.yul\":19343:19347   */\n      dup2\n        /* \"#utility.yul\":19334:19340   */\n      dup7\n        /* \"#utility.yul\":19270:19348   */\n      tag_281\n      jump\t// in\n    tag_521:\n        /* \"#utility.yul\":19262:19348   */\n      swap1\n      pop\n        /* \"#utility.yul\":19358:19430   */\n      tag_522\n        /* \"#utility.yul\":19426:19428   */\n      0x20\n        /* \"#utility.yul\":19415:19424   */\n      dup4\n        /* \"#utility.yul\":19411:19429   */\n      add\n        /* \"#utility.yul\":19402:19408   */\n      dup6\n        /* \"#utility.yul\":19358:19430   */\n      tag_272\n      jump\t// in\n    tag_522:\n        /* \"#utility.yul\":19440:19512   */\n      tag_523\n        /* \"#utility.yul\":19508:19510   */\n      0x40\n        /* \"#utility.yul\":19497:19506   */\n      dup4\n        /* \"#utility.yul\":19493:19511   */\n      add\n        /* \"#utility.yul\":19484:19490   */\n      dup5\n        /* \"#utility.yul\":19440:19512   */\n      tag_272\n      jump\t// in\n    tag_523:\n        /* \"#utility.yul\":18986:19519   */\n      swap5\n      swap4\n      pop\n      pop\n      pop\n      pop\n      jump\t// out\n        /* \"#utility.yul\":19525:19615   */\n    tag_282:\n        /* \"#utility.yul\":19559:19566   */\n      0x00\n        /* \"#utility.yul\":19602:19607   */\n      dup2\n        /* \"#utility.yul\":19595:19608   */\n      iszero\n        /* \"#utility.yul\":19588:19609   */\n      iszero\n        /* \"#utility.yul\":19577:19609   */\n      swap1\n      pop\n        /* \"#utility.yul\":19525:19615   */\n      swap2\n      swap1\n      pop\n      jump\t// out\n        /* \"#utility.yul\":19621:19737   */\n    tag_283:\n        /* \"#utility.yul\":19691:19712   */\n      tag_526\n        /* \"#utility.yul\":19706:19711   */\n      dup2\n        /* \"#utility.yul\":19691:19712   */\n      tag_282\n      jump\t// in\n    tag_526:\n        /* \"#utility.yul\":19684:19689   */\n      dup2\n        /* \"#utility.yul\":19681:19713   */\n      eq\n        /* \"#utility.yul\":19671:19731   */\n      tag_527\n      jumpi\n        /* \"#utility.yul\":19727:19728   */\n      0x00\n        /* \"#utility.yul\":19724:19725   */\n      dup1\n        /* \"#utility.yul\":19717:19729   */\n      revert\n        /* \"#utility.yul\":19671:19731   */\n    tag_527:\n        /* \"#utility.yul\":19621:19737   */\n      pop\n      jump\t// out\n        /* \"#utility.yul\":19743:19876   */\n    tag_284:\n        /* \"#utility.yul\":19786:19791   */\n      0x00\n        /* \"#utility.yul\":19824:19830   */\n      dup2\n        /* \"#utility.yul\":19811:19831   */\n      calldataload\n        /* \"#utility.yul\":19802:19831   */\n      swap1\n      pop\n        /* \"#utility.yul\":19840:19870   */\n      tag_529\n        /* \"#utility.yul\":19864:19869   */\n      dup2\n        /* \"#utility.yul\":19840:19870   */\n      tag_283\n      jump\t// in\n    tag_529:\n        /* \"#utility.yul\":19743:19876   */\n      swap3\n      swap2\n      pop\n      pop\n      jump\t// out\n        /* \"#utility.yul\":19882:20350   */\n    tag_45:\n        /* \"#utility.yul\":19947:19953   */\n      0x00\n        /* \"#utility.yul\":19955:19961   */\n      dup1\n        /* \"#utility.yul\":20004:20006   */\n      0x40\n        /* \"#utility.yul\":19992:20001   */\n      dup4\n        /* \"#utility.yul\":19983:19990   */\n      dup6\n        /* \"#utility.yul\":19979:20002   */\n      sub\n        /* \"#utility.yul\":19975:20007   */\n      slt\n        /* \"#utility.yul\":19972:20091   */\n      iszero\n      tag_531\n      jumpi\n        /* \"#utility.yul\":20010:20089   */\n      tag_532\n      tag_251\n      jump\t// in\n    tag_532:\n        /* \"#utility.yul\":19972:20091   */\n    tag_531:\n        /* \"#utility.yul\":20130:20131   */\n      0x00\n        /* \"#utility.yul\":20155:20208   */\n      tag_533\n        /* \"#utility.yul\":20200:20207   */\n      dup6\n        /* \"#utility.yul\":20191:20197   */\n      dup3\n        /* \"#utility.yul\":20180:20189   */\n      dup7\n        /* \"#utility.yul\":20176:20198   */\n      add\n        /* \"#utility.yul\":20155:20208   */\n      tag_279\n      jump\t// in\n    tag_533:\n        /* \"#utility.yul\":20145:20208   */\n      swap3\n      pop\n        /* \"#utility.yul\":20101:20218   */\n      pop\n        /* \"#utility.yul\":20257:20259   */\n      0x20\n        /* \"#utility.yul\":20283:20333   */\n      tag_534\n        /* \"#utility.yul\":20325:20332   */\n      dup6\n        /* \"#utility.yul\":20316:20322   */\n      dup3\n        /* \"#utility.yul\":20305:20314   */\n      dup7\n        /* \"#utility.yul\":20301:20323   */\n      add\n        /* \"#utility.yul\":20283:20333   */\n      tag_284\n      jump\t// in\n    tag_534:\n        /* \"#utility.yul\":20273:20333   */\n      swap2\n      pop\n        /* \"#utility.yul\":20228:20343   */\n      pop\n        /* \"#utility.yul\":19882:20350   */\n      swap3\n      pop\n      swap3\n      swap1\n      pop\n      jump\t// out\n        /* \"#utility.yul\":20356:20465   */\n    tag_285:\n        /* \"#utility.yul\":20437:20458   */\n      tag_536\n        /* \"#utility.yul\":20452:20457   */\n      dup2\n        /* \"#utility.yul\":20437:20458   */\n      tag_282\n      jump\t// in\n    tag_536:\n        /* \"#utility.yul\":20432:20435   */\n      dup3\n        /* \"#utility.yul\":20425:20459   */\n      mstore\n        /* \"#utility.yul\":20356:20465   */\n      pop\n      pop\n      jump\t// out\n        /* \"#utility.yul\":20471:20681   */\n    tag_50:\n        /* \"#utility.yul\":20558:20562   */\n      0x00\n        /* \"#utility.yul\":20596:20598   */\n      0x20\n        /* \"#utility.yul\":20585:20594   */\n      dup3\n        /* \"#utility.yul\":20581:20599   */\n      add\n        /* \"#utility.yul\":20573:20599   */\n      swap1\n      pop\n        /* \"#utility.yul\":20609:20674   */\n      tag_538\n        /* \"#utility.yul\":20671:20672   */\n      0x00\n        /* \"#utility.yul\":20660:20669   */\n      dup4\n        /* \"#utility.yul\":20656:20673   */\n      add\n        /* \"#utility.yul\":20647:20653   */\n      dup5\n        /* \"#utility.yul\":20609:20674   */\n      tag_285\n      jump\t// in\n    tag_538:\n        /* \"#utility.yul\":20471:20681   */\n      swap3\n      swap2\n      pop\n      pop\n      jump\t// out\n        /* \"#utility.yul\":20687:20867   */\n    tag_286:\n        /* \"#utility.yul\":20735:20812   */\n      0x4e487b7100000000000000000000000000000000000000000000000000000000\n        /* \"#utility.yul\":20732:20733   */\n      0x00\n        /* \"#utility.yul\":20725:20813   */\n      mstore\n        /* \"#utility.yul\":20832:20836   */\n      0x22\n        /* \"#utility.yul\":20829:20830   */\n      0x04\n        /* \"#utility.yul\":20822:20837   */\n      mstore\n        /* \"#utility.yul\":20856:20860   */\n      0x24\n        /* \"#utility.yul\":20853:20854   */\n      0x00\n        /* \"#utility.yul\":20846:20861   */\n      revert\n        /* \"#utility.yul\":20873:21193   */\n    tag_56:\n        /* \"#utility.yul\":20917:20923   */\n      0x00\n        /* \"#utility.yul\":20954:20955   */\n      0x02\n        /* \"#utility.yul\":20948:20952   */\n      dup3\n        /* \"#utility.yul\":20944:20956   */\n      div\n        /* \"#utility.yul\":20934:20956   */\n      swap1\n      pop\n        /* \"#utility.yul\":21001:21002   */\n      0x01\n        /* \"#utility.yul\":20995:20999   */\n      dup3\n        /* \"#utility.yul\":20991:21003   */\n      and\n        /* \"#utility.yul\":21022:21040   */\n      dup1\n        /* \"#utility.yul\":21012:21093   */\n      tag_541\n      jumpi\n        /* \"#utility.yul\":21078:21082   */\n      0x7f\n        /* \"#utility.yul\":21070:21076   */\n      dup3\n        /* \"#utility.yul\":21066:21083   */\n      and\n        /* \"#utility.yul\":21056:21083   */\n      swap2\n      pop\n        /* \"#utility.yul\":21012:21093   */\n    tag_541:\n        /* \"#utility.yul\":21140:21142   */\n      0x20\n        /* \"#utility.yul\":21132:21138   */\n      dup3\n        /* \"#utility.yul\":21129:21143   */\n      lt\n        /* \"#utility.yul\":21109:21127   */\n      dup2\n        /* \"#utility.yul\":21106:21144   */\n      sub\n        /* \"#utility.yul\":21103:21187   */\n      tag_542\n      jumpi\n        /* \"#utility.yul\":21159:21177   */\n      tag_543\n      tag_286\n      jump\t// in\n    tag_543:\n        /* \"#utility.yul\":21103:21187   */\n    tag_542:\n        /* \"#utility.yul\":20924:21193   */\n      pop\n        /* \"#utility.yul\":20873:21193   */\n      swap2\n      swap1\n      pop\n      jump\t// out\n        /* \"#utility.yul\":21199:21372   */\n    tag_287:\n        /* \"#utility.yul\":21339:21364   */\n      0x456e747279204944206d75737420626520756e69717565000000000000000000\n        /* \"#utility.yul\":21335:21336   */\n      0x00\n        /* \"#utility.yul\":21327:21333   */\n      dup3\n        /* \"#utility.yul\":21323:21337   */\n      add\n        /* \"#utility.yul\":21316:21365   */\n      mstore\n        /* \"#utility.yul\":21199:21372   */\n      pop\n      jump\t// out\n        /* \"#utility.yul\":21378:21744   */\n    tag_288:\n        /* \"#utility.yul\":21520:21523   */\n      0x00\n        /* \"#utility.yul\":21541:21608   */\n      tag_546\n        /* \"#utility.yul\":21605:21607   */\n      0x17\n        /* \"#utility.yul\":21600:21603   */\n      dup4\n        /* \"#utility.yul\":21541:21608   */\n      tag_280\n      jump\t// in\n    tag_546:\n        /* \"#utility.yul\":21534:21608   */\n      swap2\n      pop\n        /* \"#utility.yul\":21617:21710   */\n      tag_547\n        /* \"#utility.yul\":21706:21709   */\n      dup3\n        /* \"#utility.yul\":21617:21710   */\n      tag_287\n      jump\t// in\n    tag_547:\n        /* \"#utility.yul\":21735:21737   */\n      0x20\n        /* \"#utility.yul\":21730:21733   */\n      dup3\n        /* \"#utility.yul\":21726:21738   */\n      add\n        /* \"#utility.yul\":21719:21738   */\n      swap1\n      pop\n        /* \"#utility.yul\":21378:21744   */\n      swap2\n      swap1\n      pop\n      jump\t// out\n        /* \"#utility.yul\":21750:22169   */\n    tag_76:\n        /* \"#utility.yul\":21916:21920   */\n      0x00\n        /* \"#utility.yul\":21954:21956   */\n      0x20\n        /* \"#utility.yul\":21943:21952   */\n      dup3\n        /* \"#utility.yul\":21939:21957   */\n      add\n        /* \"#utility.yul\":21931:21957   */\n      swap1\n      pop\n        /* \"#utility.yul\":22003:22012   */\n      dup2\n        /* \"#utility.yul\":21997:22001   */\n      dup2\n        /* \"#utility.yul\":21993:22013   */\n      sub\n        /* \"#utility.yul\":21989:21990   */\n      0x00\n        /* \"#utility.yul\":21978:21987   */\n      dup4\n        /* \"#utility.yul\":21974:21991   */\n      add\n        /* \"#utility.yul\":21967:22014   */\n      mstore\n        /* \"#utility.yul\":22031:22162   */\n      tag_549\n        /* \"#utility.yul\":22157:22161   */\n      dup2\n        /* \"#utility.yul\":22031:22162   */\n      tag_288\n      jump\t// in\n    tag_549:\n        /* \"#utility.yul\":22023:22162   */\n      swap1\n      pop\n        /* \"#utility.yul\":21750:22169   */\n      swap2\n      swap1\n      pop\n      jump\t// out\n        /* \"#utility.yul\":22175:22316   */\n    tag_289:\n        /* \"#utility.yul\":22224:22228   */\n      0x00\n        /* \"#utility.yul\":22247:22250   */\n      dup2\n        /* \"#utility.yul\":22239:22250   */\n      swap1\n      pop\n        /* \"#utility.yul\":22270:22273   */\n      dup2\n        /* \"#utility.yul\":22267:22268   */\n      0x00\n        /* \"#utility.yul\":22260:22274   */\n      mstore\n        /* \"#utility.yul\":22304:22308   */\n      0x20\n        /* \"#utility.yul\":22301:22302   */\n      0x00\n        /* \"#utility.yul\":22291:22309   */\n      keccak256\n        /* \"#utility.yul\":22283:22309   */\n      swap1\n      pop\n        /* \"#utility.yul\":22175:22316   */\n      swap2\n      swap1\n      pop\n      jump\t// out\n        /* \"#utility.yul\":22322:22415   */\n    tag_290:\n        /* \"#utility.yul\":22359:22365   */\n      0x00\n        /* \"#utility.yul\":22406:22408   */\n      0x20\n        /* \"#utility.yul\":22401:22403   */\n      0x1f\n        /* \"#utility.yul\":22394:22399   */\n      dup4\n        /* \"#utility.yul\":22390:22404   */\n      add\n        /* \"#utility.yul\":22386:22409   */\n      div\n        /* \"#utility.yul\":22376:22409   */\n      swap1\n      pop\n        /* \"#utility.yul\":22322:22415   */\n      swap2\n      swap1\n      pop\n      jump\t// out\n        /* \"#utility.yul\":22421:22528   */\n    tag_291:\n        /* \"#utility.yul\":22465:22473   */\n      0x00\n        /* \"#utility.yul\":22515:22520   */\n      dup3\n        /* \"#utility.yul\":22509:22513   */\n      dup3\n        /* \"#utility.yul\":22505:22521   */\n      shl\n        /* \"#utility.yul\":22484:22521   */\n      swap1\n      pop\n        /* \"#utility.yul\":22421:22528   */\n      swap3\n      swap2\n      pop\n      pop\n      jump\t// out\n        /* \"#utility.yul\":22534:22927   */\n    tag_292:\n        /* \"#utility.yul\":22603:22609   */\n      0x00\n        /* \"#utility.yul\":22653:22654   */\n      0x08\n        /* \"#utility.yul\":22641:22651   */\n      dup4\n        /* \"#utility.yul\":22637:22655   */\n      mul\n        /* \"#utility.yul\":22676:22773   */\n      tag_554\n        /* \"#utility.yul\":22706:22772   */\n      0xffffffffffffffffffffffffffffffffffffffffffffffffffffffffffffffff\n        /* \"#utility.yul\":22695:22704   */\n      dup3\n        /* \"#utility.yul\":22676:22773   */\n      tag_291\n      jump\t// in\n    tag_554:\n        /* \"#utility.yul\":22794:22833   */\n      tag_555\n        /* \"#utility.yul\":22824:22832   */\n      dup7\n        /* \"#utility.yul\":22813:22822   */\n      dup4\n        /* \"#utility.yul\":22794:22833   */\n      tag_291\n      jump\t// in\n    tag_555:\n        /* \"#utility.yul\":22782:22833   */\n      swap6\n      pop\n        /* \"#utility.yul\":22866:22870   */\n      dup1\n        /* \"#utility.yul\":22862:22871   */\n      not\n        /* \"#utility.yul\":22855:22860   */\n      dup5\n        /* \"#utility.yul\":22851:22872   */\n      and\n        /* \"#utility.yul\":22842:22872   */\n      swap4\n      pop\n        /* \"#utility.yul\":22915:22919   */\n      dup1\n        /* \"#utility.yul\":22905:22913   */\n      dup7\n        /* \"#utility.yul\":22901:22920   */\n      and\n        /* \"#utility.yul\":22894:22899   */\n      dup5\n        /* \"#utility.yul\":22891:22921   */\n      or\n        /* \"#utility.yul\":22881:22921   */\n      swap3\n      pop\n        /* \"#utility.yul\":22610:22927   */\n      pop\n      pop\n        /* \"#utility.yul\":22534:22927   */\n      swap4\n      swap3\n      pop\n      pop\n      pop\n      jump\t// out\n        /* \"#utility.yul\":22933:23075   */\n    tag_293:\n        /* \"#utility.yul\":22983:22992   */\n      0x00\n        /* \"#utility.yul\":23016:23069   */\n      tag_557\n        /* \"#utility.yul\":23034:23068   */\n      tag_558\n        /* \"#utility.yul\":23043:23067   */\n      tag_559\n        /* \"#utility.yul\":23061:23066   */\n      dup5\n        /* \"#utility.yul\":23043:23067   */\n      tag_244\n      jump\t// in\n    tag_559:\n        /* \"#utility.yul\":23034:23068   */\n      tag_273\n      jump\t// in\n    tag_558:\n        /* \"#utility.yul\":23016:23069   */\n      tag_244\n      jump\t// in\n    tag_557:\n        /* \"#utility.yul\":23003:23069   */\n      swap1\n      pop\n        /* \"#utility.yul\":22933:23075   */\n      swap2\n      swap1\n      pop\n      jump\t// out\n        /* \"#utility.yul\":23081:23156   */\n    tag_294:\n        /* \"#utility.yul\":23124:23127   */\n      0x00\n        /* \"#utility.yul\":23145:23150   */\n      dup2\n        /* \"#utility.yul\":23138:23150   */\n      swap1\n      pop\n        /* \"#utility.yul\":23081:23156   */\n      swap2\n      swap1\n      pop\n      jump\t// out\n        /* \"#utility.yul\":23162:23431   */\n    tag_295:\n        /* \"#utility.yul\":23272:23311   */\n      tag_562\n        /* \"#utility.yul\":23303:23310   */\n      dup4\n        /* \"#utility.yul\":23272:23311   */\n      tag_293\n      jump\t// in\n    tag_562:\n        /* \"#utility.yul\":23333:23424   */\n      tag_563\n        /* \"#utility.yul\":23382:23423   */\n      tag_564\n        /* \"#utility.yul\":23406:23422   */\n      dup3\n        /* \"#utility.yul\":23382:23423   */\n      tag_294\n      jump\t// in\n    tag_564:\n        /* \"#utility.yul\":23374:23380   */\n      dup5\n        /* \"#utility.yul\":23367:23371   */\n      dup5\n        /* \"#utility.yul\":23361:23372   */\n      sload\n        /* \"#utility.yul\":23333:23424   */\n      tag_292\n      jump\t// in\n    tag_563:\n        /* \"#utility.yul\":23327:23331   */\n      dup3\n        /* \"#utility.yul\":23320:23425   */\n      sstore\n        /* \"#utility.yul\":23238:23431   */\n      pop\n        /* \"#utility.yul\":23162:23431   */\n      pop\n      pop\n      pop\n      jump\t// out\n        /* \"#utility.yul\":23437:23510   */\n    tag_296:\n        /* \"#utility.yul\":23482:23485   */\n      0x00\n        /* \"#utility.yul\":23437:23510   */\n      swap1\n      jump\t// out\n        /* \"#utility.yul\":23516:23705   */\n    tag_297:\n        /* \"#utility.yul\":23593:23625   */\n      tag_567\n      tag_296\n      jump\t// in\n    tag_567:\n        /* \"#utility.yul\":23634:23699   */\n      tag_568\n        /* \"#utility.yul\":23692:23698   */\n      dup2\n        /* \"#utility.yul\":23684:23690   */\n      dup5\n        /* \"#utility.yul\":23678:23682   */\n      dup5\n        /* \"#utility.yul\":23634:23699   */\n      tag_295\n      jump\t// in\n    tag_568:\n        /* \"#utility.yul\":23569:23705   */\n      pop\n        /* \"#utility.yul\":23516:23705   */\n      pop\n      pop\n      jump\t// out\n        /* \"#utility.yul\":23711:23897   */\n    tag_298:\n        /* \"#utility.yul\":23771:23891   */\n    tag_570:\n        /* \"#utility.yul\":23788:23791   */\n      dup2\n        /* \"#utility.yul\":23781:23786   */\n      dup2\n        /* \"#utility.yul\":23778:23792   */\n      lt\n        /* \"#utility.yul\":23771:23891   */\n      iszero\n      tag_572\n      jumpi\n        /* \"#utility.yul\":23842:23881   */\n      tag_573\n        /* \"#utility.yul\":23879:23880   */\n      0x00\n        /* \"#utility.yul\":23872:23877   */\n      dup3\n        /* \"#utility.yul\":23842:23881   */\n      tag_297\n      jump\t// in\n    tag_573:\n        /* \"#utility.yul\":23815:23816   */\n      0x01\n        /* \"#utility.yul\":23808:23813   */\n      dup2\n        /* \"#utility.yul\":23804:23817   */\n      add\n        /* \"#utility.yul\":23795:23817   */\n      swap1\n      pop\n        /* \"#utility.yul\":23771:23891   */\n      jump(tag_570)\n    tag_572:\n        /* \"#utility.yul\":23711:23897   */\n      pop\n      pop\n      jump\t// out\n        /* \"#utility.yul\":23903:24446   */\n    tag_299:\n        /* \"#utility.yul\":24004:24006   */\n      0x1f\n        /* \"#utility.yul\":23999:24002   */\n      dup3\n        /* \"#utility.yul\":23996:24007   */\n      gt\n        /* \"#utility.yul\":23993:24439   */\n      iszero\n      tag_575\n      jumpi\n        /* \"#utility.yul\":24038:24076   */\n      tag_576\n        /* \"#utility.yul\":24070:24075   */\n      dup2\n        /* \"#utility.yul\":24038:24076   */\n      tag_289\n      jump\t// in\n    tag_576:\n        /* \"#utility.yul\":24122:24151   */\n      tag_577\n        /* \"#utility.yul\":24140:24150   */\n      dup5\n        /* \"#utility.yul\":24122:24151   */\n      tag_290\n      jump\t// in\n    tag_577:\n        /* \"#utility.yul\":24112:24120   */\n      dup2\n        /* \"#utility.yul\":24108:24152   */\n      add\n        /* \"#utility.yul\":24305:24307   */\n      0x20\n        /* \"#utility.yul\":24293:24303   */\n      dup6\n        /* \"#utility.yul\":24290:24308   */\n      lt\n        /* \"#utility.yul\":24287:24336   */\n      iszero\n      tag_578\n      jumpi\n        /* \"#utility.yul\":24326:24334   */\n      dup2\n        /* \"#utility.yul\":24311:24334   */\n      swap1\n      pop\n        /* \"#utility.yul\":24287:24336   */\n    tag_578:\n        /* \"#utility.yul\":24349:24429   */\n      tag_579\n        /* \"#utility.yul\":24405:24427   */\n      tag_580\n        /* \"#utility.yul\":24423:24426   */\n      dup6\n        /* \"#utility.yul\":24405:24427   */\n      tag_290\n      jump\t// in\n    tag_580:\n        /* \"#utility.yul\":24395:24403   */\n      dup4\n        /* \"#utility.yul\":24391:24428   */\n      add\n        /* \"#utility.yul\":24378:24389   */\n      dup3\n        /* \"#utility.yul\":24349:24429   */\n      tag_298\n      jump\t// in\n    tag_579:\n        /* \"#utility.yul\":24008:24439   */\n      pop\n      pop\n        /* \"#utility.yul\":23993:24439   */\n    tag_575:\n        /* \"#utility.yul\":23903:24446   */\n      pop\n      pop\n      pop\n      jump\t// out\n        /* \"#utility.yul\":24452:24569   */\n    tag_300:\n        /* \"#utility.yul\":24506:24514   */\n      0x00\n        /* \"#utility.yul\":24556:24561   */\n      dup3\n        /* \"#utility.yul\":24550:24554   */\n      dup3\n        /* \"#utility.yul\":24546:24562   */\n      shr\n        /* \"#utility.yul\":24525:24562   */\n      swap1\n      pop\n        /* \"#utility.yul\":24452:24569   */\n      swap3\n      swap2\n      pop\n      pop\n      jump\t// out\n        /* \"#utility.yul\":24575:24744   */\n    tag_301:\n        /* \"#utility.yul\":24619:24625   */\n      0x00\n        /* \"#utility.yul\":24652:24703   */\n      tag_583\n        /* \"#utility.yul\":24700:24701   */\n      0x00\n        /* \"#utility.yul\":24696:24702   */\n      not\n        /* \"#utility.yul\":24688:24693   */\n      dup5\n        /* \"#utility.yul\":24685:24686   */\n      0x08\n        /* \"#utility.yul\":24681:24694   */\n      mul\n        /* \"#utility.yul\":24652:24703   */\n      tag_300\n      jump\t// in\n    tag_583:\n        /* \"#utility.yul\":24648:24704   */\n      not\n        /* \"#utility.yul\":24733:24737   */\n      dup1\n        /* \"#utility.yul\":24727:24731   */\n      dup4\n        /* \"#utility.yul\":24723:24738   */\n      and\n        /* \"#utility.yul\":24713:24738   */\n      swap2\n      pop\n        /* \"#utility.yul\":24626:24744   */\n      pop\n        /* \"#utility.yul\":24575:24744   */\n      swap3\n      swap2\n      pop\n      pop\n      jump\t// out\n        /* \"#utility.yul\":24749:25044   */\n    tag_302:\n        /* \"#utility.yul\":24825:24829   */\n      0x00\n        /* \"#utility.yul\":24971:25000   */\n      tag_585\n        /* \"#utility.yul\":24996:24999   */\n      dup4\n        /* \"#utility.yul\":24990:24994   */\n      dup4\n        /* \"#utility.yul\":24971:25000   */\n      tag_301\n      jump\t// in\n    tag_585:\n        /* \"#utility.yul\":24963:25000   */\n      swap2\n      pop\n        /* \"#utility.yul\":25033:25036   */\n      dup3\n        /* \"#utility.yul\":25030:25031   */\n      0x02\n        /* \"#utility.yul\":25026:25037   */\n      mul\n        /* \"#utility.yul\":25020:25024   */\n      dup3\n        /* \"#utility.yul\":25017:25038   */\n      or\n        /* \"#utility.yul\":25009:25038   */\n      swap1\n      pop\n        /* \"#utility.yul\":24749:25044   */\n      swap3\n      swap2\n      pop\n      pop\n      jump\t// out\n        /* \"#utility.yul\":25049:26444   */\n    tag_79:\n        /* \"#utility.yul\":25166:25203   */\n      tag_587\n        /* \"#utility.yul\":25199:25202   */\n      dup3\n        /* \"#utility.yul\":25166:25203   */\n      tag_224\n      jump\t// in\n    tag_587:\n        /* \"#utility.yul\":25268:25286   */\n      0xffffffffffffffff\n        /* \"#utility.yul\":25260:25266   */\n      dup2\n        /* \"#utility.yul\":25257:25287   */\n      gt\n        /* \"#utility.yul\":25254:25310   */\n      iszero\n      tag_588\n      jumpi\n        /* \"#utility.yul\":25290:25308   */\n      tag_589\n      tag_255\n      jump\t// in\n    tag_589:\n        /* \"#utility.yul\":25254:25310   */\n    tag_588:\n        /* \"#utility.yul\":25334:25372   */\n      tag_590\n        /* \"#utility.yul\":25366:25370   */\n      dup3\n        /* \"#utility.yul\":25360:25371   */\n      sload\n        /* \"#utility.yul\":25334:25372   */\n      tag_56\n      jump\t// in\n    tag_590:\n        /* \"#utility.yul\":25419:25486   */\n      tag_591\n        /* \"#utility.yul\":25479:25485   */\n      dup3\n        /* \"#utility.yul\":25471:25477   */\n      dup3\n        /* \"#utility.yul\":25465:25469   */\n      dup6\n        /* \"#utility.yul\":25419:25486   */\n      tag_299\n      jump\t// in\n    tag_591:\n        /* \"#utility.yul\":25513:25514   */\n      0x00\n        /* \"#utility.yul\":25537:25541   */\n      0x20\n        /* \"#utility.yul\":25524:25541   */\n      swap1\n      pop\n        /* \"#utility.yul\":25569:25571   */\n      0x1f\n        /* \"#utility.yul\":25561:25567   */\n      dup4\n        /* \"#utility.yul\":25558:25572   */\n      gt\n        /* \"#utility.yul\":25586:25587   */\n      0x01\n        /* \"#utility.yul\":25581:26199   */\n      dup2\n      eq\n      tag_593\n      jumpi\n        /* \"#utility.yul\":26243:26244   */\n      0x00\n        /* \"#utility.yul\":26260:26266   */\n      dup5\n        /* \"#utility.yul\":26257:26334   */\n      iszero\n      tag_594\n      jumpi\n        /* \"#utility.yul\":26309:26318   */\n      dup3\n        /* \"#utility.yul\":26304:26307   */\n      dup8\n        /* \"#utility.yul\":26300:26319   */\n      add\n        /* \"#utility.yul\":26294:26320   */\n      mload\n        /* \"#utility.yul\":26285:26320   */\n      swap1\n      pop\n        /* \"#utility.yul\":26257:26334   */\n    tag_594:\n        /* \"#utility.yul\":26360:26427   */\n      tag_595\n        /* \"#utility.yul\":26420:26426   */\n      dup6\n        /* \"#utility.yul\":26413:26418   */\n      dup3\n        /* \"#utility.yul\":26360:26427   */\n      tag_302\n      jump\t// in\n    tag_595:\n        /* \"#utility.yul\":26354:26358   */\n      dup7\n        /* \"#utility.yul\":26347:26428   */\n      sstore\n        /* \"#utility.yul\":26216:26438   */\n      pop\n        /* \"#utility.yul\":25551:26438   */\n      jump(tag_592)\n        /* \"#utility.yul\":25581:26199   */\n    tag_593:\n        /* \"#utility.yul\":25633:25637   */\n      0x1f\n        /* \"#utility.yul\":25629:25638   */\n      not\n        /* \"#utility.yul\":25621:25627   */\n      dup5\n        /* \"#utility.yul\":25617:25639   */\n      and\n        /* \"#utility.yul\":25667:25704   */\n      tag_596\n        /* \"#utility.yul\":25699:25703   */\n      dup7\n        /* \"#utility.yul\":25667:25704   */\n      tag_289\n      jump\t// in\n    tag_596:\n        /* \"#utility.yul\":25726:25727   */\n      0x00\n        /* \"#utility.yul\":25740:25948   */\n    tag_597:\n        /* \"#utility.yul\":25754:25761   */\n      dup3\n        /* \"#utility.yul\":25751:25752   */\n      dup2\n        /* \"#utility.yul\":25748:25762   */\n      lt\n        /* \"#utility.yul\":25740:25948   */\n      iszero\n      tag_599\n      jumpi\n        /* \"#utility.yul\":25833:25842   */\n      dup5\n        /* \"#utility.yul\":25828:25831   */\n      dup10\n        /* \"#utility.yul\":25824:25843   */\n      add\n        /* \"#utility.yul\":25818:25844   */\n      mload\n        /* \"#utility.yul\":25810:25816   */\n      dup3\n        /* \"#utility.yul\":25803:25845   */\n      sstore\n        /* \"#utility.yul\":25884:25885   */\n      0x01\n        /* \"#utility.yul\":25876:25882   */\n      dup3\n        /* \"#utility.yul\":25872:25886   */\n      add\n        /* \"#utility.yul\":25862:25886   */\n      swap2\n      pop\n        /* \"#utility.yul\":25931:25933   */\n      0x20\n        /* \"#utility.yul\":25920:25929   */\n      dup6\n        /* \"#utility.yul\":25916:25934   */\n      add\n        /* \"#utility.yul\":25903:25934   */\n      swap5\n      pop\n        /* \"#utility.yul\":25777:25781   */\n      0x20\n        /* \"#utility.yul\":25774:25775   */\n      dup2\n        /* \"#utility.yul\":25770:25782   */\n      add\n        /* \"#utility.yul\":25765:25782   */\n      swap1\n      pop\n        /* \"#utility.yul\":25740:25948   */\n      jump(tag_597)\n    tag_599:\n        /* \"#utility.yul\":25976:25982   */\n      dup7\n        /* \"#utility.yul\":25967:25974   */\n      dup4\n        /* \"#utility.yul\":25964:25983   */\n      lt\n        /* \"#utility.yul\":25961:26140   */\n      iszero\n      tag_600\n      jumpi\n        /* \"#utility.yul\":26034:26043   */\n      dup5\n        /* \"#utility.yul\":26029:26032   */\n      dup10\n        /* \"#utility.yul\":26025:26044   */\n      add\n        /* \"#utility.yul\":26019:26045   */\n      mload\n        /* \"#utility.yul\":26077:26125   */\n      tag_601\n        /* \"#utility.yul\":26119:26123   */\n      0x1f\n        /* \"#utility.yul\":26111:26117   */\n      dup10\n        /* \"#utility.yul\":26107:26124   */\n      and\n        /* \"#utility.yul\":26096:26105   */\n      dup3\n        /* \"#utility.yul\":26077:26125   */\n      tag_301\n      jump\t// in\n    tag_601:\n        /* \"#utility.yul\":26069:26075   */\n      dup4\n        /* \"#utility.yul\":26062:26126   */\n      sstore\n        /* \"#utility.yul\":25984:26140   */\n      pop\n        /* \"#utility.yul\":25961:26140   */\n    tag_600:\n        /* \"#utility.yul\":26186:26187   */\n      0x01\n        /* \"#utility.yul\":26182:26183   */\n      0x02\n        /* \"#utility.yul\":26174:26180   */\n      dup9\n        /* \"#utility.yul\":26170:26184   */\n      mul\n        /* \"#utility.yul\":26166:26188   */\n      add\n        /* \"#utility.yul\":26160:26164   */\n      dup9\n        /* \"#utility.yul\":26153:26189   */\n      sstore\n        /* \"#utility.yul\":25588:26199   */\n      pop\n      pop\n      pop\n        /* \"#utility.yul\":25551:26438   */\n    tag_592:\n      pop\n        /* \"#utility.yul\":25141:26444   */\n      pop\n      pop\n      pop\n        /* \"#utility.yul\":25049:26444   */\n      pop\n      pop\n      jump\t// out\n        /* \"#utility.yul\":26450:26622   */\n    tag_303:\n        /* \"#utility.yul\":26590:26614   */\n      0x596f7520617265206e6f7420746865206f776e65722e00000000000000000000\n        /* \"#utility.yul\":26586:26587   */\n      0x00\n        /* \"#utility.yul\":26578:26584   */\n      dup3\n        /* \"#utility.yul\":26574:26588   */\n      add\n        /* \"#utility.yul\":26567:26615   */\n      mstore\n        /* \"#utility.yul\":26450:26622   */\n      pop\n      jump\t// out\n        /* \"#utility.yul\":26628:26994   */\n    tag_304:\n        /* \"#utility.yul\":26770:26773   */\n      0x00\n        /* \"#utility.yul\":26791:26858   */\n      tag_604\n        /* \"#utility.yul\":26855:26857   */\n      0x16\n        /* \"#utility.yul\":26850:26853   */\n      dup4\n        /* \"#utility.yul\":26791:26858   */\n      tag_280\n      jump\t// in\n    tag_604:\n        /* \"#utility.yul\":26784:26858   */\n      swap2\n      pop\n        /* \"#utility.yul\":26867:26960   */\n      tag_605\n        /* \"#utility.yul\":26956:26959   */\n      dup3\n        /* \"#utility.yul\":26867:26960   */\n      tag_303\n      jump\t// in\n    tag_605:\n        /* \"#utility.yul\":26985:26987   */\n      0x20\n        /* \"#utility.yul\":26980:26983   */\n      dup3\n        /* \"#utility.yul\":26976:26988   */\n      add\n        /* \"#utility.yul\":26969:26988   */\n      swap1\n      pop\n        /* \"#utility.yul\":26628:26994   */\n      swap2\n      swap1\n      pop\n      jump\t// out\n        /* \"#utility.yul\":27000:27419   */\n    tag_87:\n        /* \"#utility.yul\":27166:27170   */\n      0x00\n        /* \"#utility.yul\":27204:27206   */\n      0x20\n        /* \"#utility.yul\":27193:27202   */\n      dup3\n        /* \"#utility.yul\":27189:27207   */\n      add\n        /* \"#utility.yul\":27181:27207   */\n      swap1\n      pop\n        /* \"#utility.yul\":27253:27262   */\n      dup2\n        /* \"#utility.yul\":27247:27251   */\n      dup2\n        /* \"#utility.yul\":27243:27263   */\n      sub\n        /* \"#utility.yul\":27239:27240   */\n      0x00\n        /* \"#utility.yul\":27228:27237   */\n      dup4\n        /* \"#utility.yul\":27224:27241   */\n      add\n        /* \"#utility.yul\":27217:27264   */\n      mstore\n        /* \"#utility.yul\":27281:27412   */\n      tag_607\n        /* \"#utility.yul\":27407:27411   */\n      dup2\n        /* \"#utility.yul\":27281:27412   */\n      tag_304\n      jump\t// in\n    tag_607:\n        /* \"#utility.yul\":27273:27412   */\n      swap1\n      pop\n        /* \"#utility.yul\":27000:27419   */\n      swap2\n      swap1\n      pop\n      jump\t// out\n        /* \"#utility.yul\":27425:27605   */\n    tag_93:\n        /* \"#utility.yul\":27473:27550   */\n      0x4e487b7100000000000000000000000000000000000000000000000000000000\n        /* \"#utility.yul\":27470:27471   */\n      0x00\n        /* \"#utility.yul\":27463:27551   */\n      mstore\n        /* \"#utility.yul\":27570:27574   */\n      0x32\n        /* \"#utility.yul\":27567:27568   */\n      0x04\n        /* \"#utility.yul\":27560:27575   */\n      mstore\n        /* \"#utility.yul\":27594:27598   */\n      0x24\n        /* \"#utility.yul\":27591:27592   */\n      0x00\n        /* \"#utility.yul\":27584:27599   */\n      revert\n        /* \"#utility.yul\":27611:27791   */\n    tag_305:\n        /* \"#utility.yul\":27659:27736   */\n      0x4e487b7100000000000000000000000000000000000000000000000000000000\n        /* \"#utility.yul\":27656:27657   */\n      0x00\n        /* \"#utility.yul\":27649:27737   */\n      mstore\n        /* \"#utility.yul\":27756:27760   */\n      0x11\n        /* \"#utility.yul\":27753:27754   */\n      0x04\n        /* \"#utility.yul\":27746:27761   */\n      mstore\n        /* \"#utility.yul\":27780:27784   */\n      0x24\n        /* \"#utility.yul\":27777:27778   */\n      0x00\n        /* \"#utility.yul\":27770:27785   */\n      revert\n        /* \"#utility.yul\":27797:27988   */\n    tag_99:\n        /* \"#utility.yul\":27837:27840   */\n      0x00\n        /* \"#utility.yul\":27856:27876   */\n      tag_611\n        /* \"#utility.yul\":27874:27875   */\n      dup3\n        /* \"#utility.yul\":27856:27876   */\n      tag_244\n      jump\t// in\n    tag_611:\n        /* \"#utility.yul\":27851:27876   */\n      swap2\n      pop\n        /* \"#utility.yul\":27890:27910   */\n      tag_612\n        /* \"#utility.yul\":27908:27909   */\n      dup4\n        /* \"#utility.yul\":27890:27910   */\n      tag_244\n      jump\t// in\n    tag_612:\n        /* \"#utility.yul\":27885:27910   */\n      swap3\n      pop\n        /* \"#utility.yul\":27933:27934   */\n      dup3\n        /* \"#utility.yul\":27930:27931   */\n      dup3\n        /* \"#utility.yul\":27926:27935   */\n      add\n        /* \"#utility.yul\":27919:27935   */\n      swap1\n      pop\n        /* \"#utility.yul\":27954:27957   */\n      dup1\n        /* \"#utility.yul\":27951:27952   */\n      dup3\n        /* \"#utility.yul\":27948:27958   */\n      gt\n        /* \"#utility.yul\":27945:27981   */\n      iszero\n      tag_613\n      jumpi\n        /* \"#utility.yul\":27961:27979   */\n      tag_614\n      tag_305\n      jump\t// in\n    tag_614:\n        /* \"#utility.yul\":27945:27981   */\n    tag_613:\n        /* \"#utility.yul\":27797:27988   */\n      swap3\n      swap2\n      pop\n      pop\n      jump\t// out\n        /* \"#utility.yul\":27994:28164   */\n    tag_306:\n        /* \"#utility.yul\":28134:28156   */\n      0x456e74727920646f6573206e6f74206578697374000000000000000000000000\n        /* \"#utility.yul\":28130:28131   */\n      0x00\n        /* \"#utility.yul\":28122:28128   */\n      dup3\n        /* \"#utility.yul\":28118:28132   */\n      add\n        /* \"#utility.yul\":28111:28157   */\n      mstore\n        /* \"#utility.yul\":27994:28164   */\n      pop\n      jump\t// out\n        /* \"#utility.yul\":28170:28536   */\n    tag_307:\n        /* \"#utility.yul\":28312:28315   */\n      0x00\n        /* \"#utility.yul\":28333:28400   */\n      tag_617\n        /* \"#utility.yul\":28397:28399   */\n      0x14\n        /* \"#utility.yul\":28392:28395   */\n      dup4\n        /* \"#utility.yul\":28333:28400   */\n      tag_280\n      jump\t// in\n    tag_617:\n        /* \"#utility.yul\":28326:28400   */\n      swap2\n      pop\n        /* \"#utility.yul\":28409:28502   */\n      tag_618\n        /* \"#utility.yul\":28498:28501   */\n      dup3\n        /* \"#utility.yul\":28409:28502   */\n      tag_306\n      jump\t// in\n    tag_618:\n        /* \"#utility.yul\":28527:28529   */\n      0x20\n        /* \"#utility.yul\":28522:28525   */\n      dup3\n        /* \"#utility.yul\":28518:28530   */\n      add\n        /* \"#utility.yul\":28511:28530   */\n      swap1\n      pop\n        /* \"#utility.yul\":28170:28536   */\n      swap2\n      swap1\n      pop\n      jump\t// out\n        /* \"#utility.yul\":28542:28961   */\n    tag_128:\n        /* \"#utility.yul\":28708:28712   */\n      0x00\n        /* \"#utility.yul\":28746:28748   */\n      0x20\n        /* \"#utility.yul\":28735:28744   */\n      dup3\n        /* \"#utility.yul\":28731:28749   */\n      add\n        /* \"#utility.yul\":28723:28749   */\n      swap1\n      pop\n        /* \"#utility.yul\":28795:28804   */\n      dup2\n        /* \"#utility.yul\":28789:28793   */\n      dup2\n        /* \"#utility.yul\":28785:28805   */\n      sub\n        /* \"#utility.yul\":28781:28782   */\n      0x00\n        /* \"#utility.yul\":28770:28779   */\n      dup4\n        /* \"#utility.yul\":28766:28783   */\n      add\n        /* \"#utility.yul\":28759:28806   */\n      mstore\n        /* \"#utility.yul\":28823:28954   */\n      tag_620\n        /* \"#utility.yul\":28949:28953   */\n      dup2\n        /* \"#utility.yul\":28823:28954   */\n      tag_307\n      jump\t// in\n    tag_620:\n        /* \"#utility.yul\":28815:28954   */\n      swap1\n      pop\n        /* \"#utility.yul\":28542:28961   */\n      swap2\n      swap1\n      pop\n      jump\t// out\n        /* \"#utility.yul\":28967:29200   */\n    tag_134:\n        /* \"#utility.yul\":29006:29009   */\n      0x00\n        /* \"#utility.yul\":29029:29053   */\n      tag_622\n        /* \"#utility.yul\":29047:29052   */\n      dup3\n        /* \"#utility.yul\":29029:29053   */\n      tag_244\n      jump\t// in\n    tag_622:\n        /* \"#utility.yul\":29020:29053   */\n      swap2\n      pop\n        /* \"#utility.yul\":29075:29141   */\n      0xffffffffffffffffffffffffffffffffffffffffffffffffffffffffffffffff\n        /* \"#utility.yul\":29068:29073   */\n      dup3\n        /* \"#utility.yul\":29065:29142   */\n      sub\n        /* \"#utility.yul\":29062:29165   */\n      tag_623\n      jumpi\n        /* \"#utility.yul\":29145:29163   */\n      tag_624\n      tag_305\n      jump\t// in\n    tag_624:\n        /* \"#utility.yul\":29062:29165   */\n    tag_623:\n        /* \"#utility.yul\":29192:29193   */\n      0x01\n        /* \"#utility.yul\":29185:29190   */\n      dup3\n        /* \"#utility.yul\":29181:29194   */\n      add\n        /* \"#utility.yul\":29174:29194   */\n      swap1\n      pop\n        /* \"#utility.yul\":28967:29200   */\n      swap2\n      swap1\n      pop\n      jump\t// out\n        /* \"#utility.yul\":29206:29400   */\n    tag_140:\n        /* \"#utility.yul\":29246:29250   */\n      0x00\n        /* \"#utility.yul\":29266:29286   */\n      tag_626\n        /* \"#utility.yul\":29284:29285   */\n      dup3\n        /* \"#utility.yul\":29266:29286   */\n      tag_244\n      jump\t// in\n    tag_626:\n        /* \"#utility.yul\":29261:29286   */\n      swap2\n      pop\n        /* \"#utility.yul\":29300:29320   */\n      tag_627\n        /* \"#utility.yul\":29318:29319   */\n      dup4\n        /* \"#utility.yul\":29300:29320   */\n      tag_244\n      jump\t// in\n    tag_627:\n        /* \"#utility.yul\":29295:29320   */\n      swap3\n      pop\n        /* \"#utility.yul\":29344:29345   */\n      dup3\n        /* \"#utility.yul\":29341:29342   */\n      dup3\n        /* \"#utility.yul\":29337:29346   */\n      sub\n        /* \"#utility.yul\":29329:29346   */\n      swap1\n      pop\n        /* \"#utility.yul\":29368:29369   */\n      dup2\n        /* \"#utility.yul\":29362:29366   */\n      dup2\n        /* \"#utility.yul\":29359:29370   */\n      gt\n        /* \"#utility.yul\":29356:29393   */\n      iszero\n      tag_628\n      jumpi\n        /* \"#utility.yul\":29373:29391   */\n      tag_629\n      tag_305\n      jump\t// in\n    tag_629:\n        /* \"#utility.yul\":29356:29393   */\n    tag_628:\n        /* \"#utility.yul\":29206:29400   */\n      swap3\n      swap2\n      pop\n      pop\n      jump\t// out\n        /* \"#utility.yul\":29430:30261   */\n    tag_308:\n        /* \"#utility.yul\":29515:29518   */\n      0x00\n        /* \"#utility.yul\":29552:29557   */\n      dup2\n        /* \"#utility.yul\":29546:29558   */\n      sload\n        /* \"#utility.yul\":29581:29617   */\n      tag_631\n        /* \"#utility.yul\":29607:29616   */\n      dup2\n        /* \"#utility.yul\":29581:29617   */\n      tag_56\n      jump\t// in\n    tag_631:\n        /* \"#utility.yul\":29633:29704   */\n      tag_632\n        /* \"#utility.yul\":29697:29703   */\n      dup2\n        /* \"#utility.yul\":29692:29695   */\n      dup7\n        /* \"#utility.yul\":29633:29704   */\n      tag_280\n      jump\t// in\n    tag_632:\n        /* \"#utility.yul\":29626:29704   */\n      swap5\n      pop\n        /* \"#utility.yul\":29735:29736   */\n      0x01\n        /* \"#utility.yul\":29724:29733   */\n      dup3\n        /* \"#utility.yul\":29720:29737   */\n      and\n        /* \"#utility.yul\":29751:29752   */\n      0x00\n        /* \"#utility.yul\":29746:29910   */\n      dup2\n      eq\n      tag_634\n      jumpi\n        /* \"#utility.yul\":29924:29925   */\n      0x01\n        /* \"#utility.yul\":29919:30255   */\n      dup2\n      eq\n      tag_635\n      jumpi\n        /* \"#utility.yul\":29713:30255   */\n      jump(tag_633)\n        /* \"#utility.yul\":29746:29910   */\n    tag_634:\n        /* \"#utility.yul\":29830:29834   */\n      0xff\n        /* \"#utility.yul\":29826:29835   */\n      not\n        /* \"#utility.yul\":29815:29824   */\n      dup4\n        /* \"#utility.yul\":29811:29836   */\n      and\n        /* \"#utility.yul\":29806:29809   */\n      dup7\n        /* \"#utility.yul\":29799:29837   */\n      mstore\n        /* \"#utility.yul\":29890:29896   */\n      dup2\n        /* \"#utility.yul\":29883:29897   */\n      iszero\n        /* \"#utility.yul\":29876:29898   */\n      iszero\n        /* \"#utility.yul\":29870:29874   */\n      0x20\n        /* \"#utility.yul\":29866:29899   */\n      mul\n        /* \"#utility.yul\":29861:29864   */\n      dup7\n        /* \"#utility.yul\":29857:29900   */\n      add\n        /* \"#utility.yul\":29850:29900   */\n      swap4\n      pop\n        /* \"#utility.yul\":29746:29910   */\n      jump(tag_633)\n        /* \"#utility.yul\":29919:30255   */\n    tag_635:\n        /* \"#utility.yul\":29986:30024   */\n      tag_636\n        /* \"#utility.yul\":30018:30023   */\n      dup6\n        /* \"#utility.yul\":29986:30024   */\n      tag_289\n      jump\t// in\n    tag_636:\n        /* \"#utility.yul\":30046:30047   */\n      0x00\n        /* \"#utility.yul\":30060:30214   */\n    tag_637:\n        /* \"#utility.yul\":30074:30080   */\n      dup4\n        /* \"#utility.yul\":30071:30072   */\n      dup2\n        /* \"#utility.yul\":30068:30081   */\n      lt\n        /* \"#utility.yul\":30060:30214   */\n      iszero\n      tag_639\n      jumpi\n        /* \"#utility.yul\":30148:30155   */\n      dup2\n        /* \"#utility.yul\":30142:30156   */\n      sload\n        /* \"#utility.yul\":30138:30139   */\n      dup2\n        /* \"#utility.yul\":30133:30136   */\n      dup10\n        /* \"#utility.yul\":30129:30140   */\n      add\n        /* \"#utility.yul\":30122:30157   */\n      mstore\n        /* \"#utility.yul\":30198:30199   */\n      0x01\n        /* \"#utility.yul\":30189:30196   */\n      dup3\n        /* \"#utility.yul\":30185:30200   */\n      add\n        /* \"#utility.yul\":30174:30200   */\n      swap2\n      pop\n        /* \"#utility.yul\":30096:30100   */\n      0x20\n        /* \"#utility.yul\":30093:30094   */\n      dup2\n        /* \"#utility.yul\":30089:30101   */\n      add\n        /* \"#utility.yul\":30084:30101   */\n      swap1\n      pop\n        /* \"#utility.yul\":30060:30214   */\n      jump(tag_637)\n    tag_639:\n        /* \"#utility.yul\":30243:30244   */\n      dup1\n        /* \"#utility.yul\":30238:30241   */\n      dup9\n        /* \"#utility.yul\":30234:30245   */\n      add\n        /* \"#utility.yul\":30227:30245   */\n      swap6\n      pop\n        /* \"#utility.yul\":29926:30255   */\n      pop\n      pop\n        /* \"#utility.yul\":29713:30255   */\n    tag_633:\n      pop\n        /* \"#utility.yul\":29519:30261   */\n      pop\n      pop\n        /* \"#utility.yul\":29430:30261   */\n      swap3\n      swap2\n      pop\n      pop\n      jump\t// out\n        /* \"#utility.yul\":30267:30385   */\n    tag_309:\n        /* \"#utility.yul\":30338:30344   */\n      0x00\n        /* \"#utility.yul\":30372:30377   */\n      dup2\n        /* \"#utility.yul\":30366:30378   */\n      sload\n        /* \"#utility.yul\":30356:30378   */\n      swap1\n      pop\n        /* \"#utility.yul\":30267:30385   */\n      swap2\n      swap1\n      pop\n      jump\t// out\n        /* \"#utility.yul\":30391:30585   */\n    tag_310:\n        /* \"#utility.yul\":30500:30511   */\n      0x00\n        /* \"#utility.yul\":30534:30540   */\n      dup3\n        /* \"#utility.yul\":30529:30532   */\n      dup3\n        /* \"#utility.yul\":30522:30541   */\n      mstore\n        /* \"#utility.yul\":30574:30578   */\n      0x20\n        /* \"#utility.yul\":30569:30572   */\n      dup3\n        /* \"#utility.yul\":30565:30579   */\n      add\n        /* \"#utility.yul\":30550:30579   */\n      swap1\n      pop\n        /* \"#utility.yul\":30391:30585   */\n      swap3\n      swap2\n      pop\n      pop\n      jump\t// out\n        /* \"#utility.yul\":30591:30754   */\n    tag_311:\n        /* \"#utility.yul\":30662:30666   */\n      0x00\n        /* \"#utility.yul\":30685:30688   */\n      dup2\n        /* \"#utility.yul\":30677:30688   */\n      swap1\n      pop\n        /* \"#utility.yul\":30708:30711   */\n      dup2\n        /* \"#utility.yul\":30705:30706   */\n      0x00\n        /* \"#utility.yul\":30698:30712   */\n      mstore\n        /* \"#utility.yul\":30742:30746   */\n      0x20\n        /* \"#utility.yul\":30739:30740   */\n      0x00\n        /* \"#utility.yul\":30729:30747   */\n      keccak256\n        /* \"#utility.yul\":30721:30747   */\n      swap1\n      pop\n        /* \"#utility.yul\":30591:30754   */\n      swap2\n      swap1\n      pop\n      jump\t// out\n        /* \"#utility.yul\":30784:31595   */\n    tag_312:\n        /* \"#utility.yul\":30859:30862   */\n      0x00\n        /* \"#utility.yul\":30896:30901   */\n      dup2\n        /* \"#utility.yul\":30890:30902   */\n      sload\n        /* \"#utility.yul\":30925:30961   */\n      tag_644\n        /* \"#utility.yul\":30951:30960   */\n      dup2\n        /* \"#utility.yul\":30925:30961   */\n      tag_56\n      jump\t// in\n    tag_644:\n        /* \"#utility.yul\":30977:31038   */\n      tag_645\n        /* \"#utility.yul\":31031:31037   */\n      dup2\n        /* \"#utility.yul\":31026:31029   */\n      dup7\n        /* \"#utility.yul\":30977:31038   */\n      tag_225\n      jump\t// in\n    tag_645:\n        /* \"#utility.yul\":30970:31038   */\n      swap5\n      pop\n        /* \"#utility.yul\":31069:31070   */\n      0x01\n        /* \"#utility.yul\":31058:31067   */\n      dup3\n        /* \"#utility.yul\":31054:31071   */\n      and\n        /* \"#utility.yul\":31085:31086   */\n      0x00\n        /* \"#utility.yul\":31080:31244   */\n      dup2\n      eq\n      tag_647\n      jumpi\n        /* \"#utility.yul\":31258:31259   */\n      0x01\n        /* \"#utility.yul\":31253:31589   */\n      dup2\n      eq\n      tag_648\n      jumpi\n        /* \"#utility.yul\":31047:31589   */\n      jump(tag_646)\n        /* \"#utility.yul\":31080:31244   */\n    tag_647:\n        /* \"#utility.yul\":31164:31168   */\n      0xff\n        /* \"#utility.yul\":31160:31169   */\n      not\n        /* \"#utility.yul\":31149:31158   */\n      dup4\n        /* \"#utility.yul\":31145:31170   */\n      and\n        /* \"#utility.yul\":31140:31143   */\n      dup7\n        /* \"#utility.yul\":31133:31171   */\n      mstore\n        /* \"#utility.yul\":31224:31230   */\n      dup2\n        /* \"#utility.yul\":31217:31231   */\n      iszero\n        /* \"#utility.yul\":31210:31232   */\n      iszero\n        /* \"#utility.yul\":31204:31208   */\n      0x20\n        /* \"#utility.yul\":31200:31233   */\n      mul\n        /* \"#utility.yul\":31195:31198   */\n      dup7\n        /* \"#utility.yul\":31191:31234   */\n      add\n        /* \"#utility.yul\":31184:31234   */\n      swap4\n      pop\n        /* \"#utility.yul\":31080:31244   */\n      jump(tag_646)\n        /* \"#utility.yul\":31253:31589   */\n    tag_648:\n        /* \"#utility.yul\":31320:31358   */\n      tag_649\n        /* \"#utility.yul\":31352:31357   */\n      dup6\n        /* \"#utility.yul\":31320:31358   */\n      tag_289\n      jump\t// in\n    tag_649:\n        /* \"#utility.yul\":31380:31381   */\n      0x00\n        /* \"#utility.yul\":31394:31548   */\n    tag_650:\n        /* \"#utility.yul\":31408:31414   */\n      dup4\n        /* \"#utility.yul\":31405:31406   */\n      dup2\n        /* \"#utility.yul\":31402:31415   */\n      lt\n        /* \"#utility.yul\":31394:31548   */\n      iszero\n      tag_652\n      jumpi\n        /* \"#utility.yul\":31482:31489   */\n      dup2\n        /* \"#utility.yul\":31476:31490   */\n      sload\n        /* \"#utility.yul\":31472:31473   */\n      dup2\n        /* \"#utility.yul\":31467:31470   */\n      dup10\n        /* \"#utility.yul\":31463:31474   */\n      add\n        /* \"#utility.yul\":31456:31491   */\n      mstore\n        /* \"#utility.yul\":31532:31533   */\n      0x01\n        /* \"#utility.yul\":31523:31530   */\n      dup3\n        /* \"#utility.yul\":31519:31534   */\n      add\n        /* \"#utility.yul\":31508:31534   */\n      swap2\n      pop\n        /* \"#utility.yul\":31430:31434   */\n      0x20\n        /* \"#utility.yul\":31427:31428   */\n      dup2\n        /* \"#utility.yul\":31423:31435   */\n      add\n        /* \"#utility.yul\":31418:31435   */\n      swap1\n      pop\n        /* \"#utility.yul\":31394:31548   */\n      jump(tag_650)\n    tag_652:\n        /* \"#utility.yul\":31577:31578   */\n      dup1\n        /* \"#utility.yul\":31572:31575   */\n      dup9\n        /* \"#utility.yul\":31568:31579   */\n      add\n        /* \"#utility.yul\":31561:31579   */\n      swap6\n      pop\n        /* \"#utility.yul\":31260:31589   */\n      pop\n      pop\n        /* \"#utility.yul\":31047:31589   */\n    tag_646:\n      pop\n        /* \"#utility.yul\":30863:31595   */\n      pop\n      pop\n        /* \"#utility.yul\":30784:31595   */\n      swap3\n      swap2\n      pop\n      pop\n      jump\t// out\n        /* \"#utility.yul\":31601:31791   */\n    tag_313:\n        /* \"#utility.yul\":31687:31697   */\n      0x00\n        /* \"#utility.yul\":31722:31785   */\n      tag_654\n        /* \"#utility.yul\":31781:31784   */\n      dup4\n        /* \"#utility.yul\":31773:31779   */\n      dup4\n        /* \"#utility.yul\":31722:31785   */\n      tag_312\n      jump\t// in\n    tag_654:\n        /* \"#utility.yul\":31708:31785   */\n      swap1\n      pop\n        /* \"#utility.yul\":31601:31791   */\n      swap3\n      swap2\n      pop\n      pop\n      jump\t// out\n        /* \"#utility.yul\":31797:31914   */\n    tag_314:\n        /* \"#utility.yul\":31871:31875   */\n      0x00\n        /* \"#utility.yul\":31903:31907   */\n      0x01\n        /* \"#utility.yul\":31898:31901   */\n      dup3\n        /* \"#utility.yul\":31894:31908   */\n      add\n        /* \"#utility.yul\":31886:31908   */\n      swap1\n      pop\n        /* \"#utility.yul\":31797:31914   */\n      swap2\n      swap1\n      pop\n      jump\t// out\n        /* \"#utility.yul\":31948:32905   */\n    tag_315:\n        /* \"#utility.yul\":32081:32084   */\n      0x00\n        /* \"#utility.yul\":32110:32168   */\n      tag_657\n        /* \"#utility.yul\":32162:32167   */\n      dup3\n        /* \"#utility.yul\":32110:32168   */\n      tag_309\n      jump\t// in\n    tag_657:\n        /* \"#utility.yul\":32184:32280   */\n      tag_658\n        /* \"#utility.yul\":32273:32279   */\n      dup2\n        /* \"#utility.yul\":32268:32271   */\n      dup6\n        /* \"#utility.yul\":32184:32280   */\n      tag_310\n      jump\t// in\n    tag_658:\n        /* \"#utility.yul\":32177:32280   */\n      swap4\n      pop\n        /* \"#utility.yul\":32306:32309   */\n      dup4\n        /* \"#utility.yul\":32351:32355   */\n      0x20\n        /* \"#utility.yul\":32343:32349   */\n      dup3\n        /* \"#utility.yul\":32339:32356   */\n      mul\n        /* \"#utility.yul\":32334:32337   */\n      dup6\n        /* \"#utility.yul\":32330:32357   */\n      add\n        /* \"#utility.yul\":32381:32441   */\n      tag_659\n        /* \"#utility.yul\":32435:32440   */\n      dup6\n        /* \"#utility.yul\":32381:32441   */\n      tag_311\n      jump\t// in\n    tag_659:\n        /* \"#utility.yul\":32464:32471   */\n      dup1\n        /* \"#utility.yul\":32495:32496   */\n      0x00\n        /* \"#utility.yul\":32480:32860   */\n    tag_660:\n        /* \"#utility.yul\":32505:32511   */\n      dup6\n        /* \"#utility.yul\":32502:32503   */\n      dup2\n        /* \"#utility.yul\":32499:32512   */\n      lt\n        /* \"#utility.yul\":32480:32860   */\n      iszero\n      tag_662\n      jumpi\n        /* \"#utility.yul\":32576:32585   */\n      dup5\n        /* \"#utility.yul\":32570:32574   */\n      dup5\n        /* \"#utility.yul\":32566:32586   */\n      sub\n        /* \"#utility.yul\":32561:32564   */\n      dup10\n        /* \"#utility.yul\":32554:32587   */\n      mstore\n        /* \"#utility.yul\":32621:32627   */\n      dup2\n        /* \"#utility.yul\":32648:32729   */\n      tag_663\n        /* \"#utility.yul\":32724:32728   */\n      dup6\n        /* \"#utility.yul\":32709:32722   */\n      dup3\n        /* \"#utility.yul\":32648:32729   */\n      tag_313\n      jump\t// in\n    tag_663:\n        /* \"#utility.yul\":32640:32729   */\n      swap5\n      pop\n        /* \"#utility.yul\":32752:32816   */\n      tag_664\n        /* \"#utility.yul\":32809:32815   */\n      dup4\n        /* \"#utility.yul\":32752:32816   */\n      tag_314\n      jump\t// in\n    tag_664:\n        /* \"#utility.yul\":32742:32816   */\n      swap3\n      pop\n        /* \"#utility.yul\":32845:32849   */\n      0x20\n        /* \"#utility.yul\":32840:32843   */\n      dup11\n        /* \"#utility.yul\":32836:32850   */\n      add\n        /* \"#utility.yul\":32829:32850   */\n      swap10\n      pop\n        /* \"#utility.yul\":32540:32860   */\n      pop\n        /* \"#utility.yul\":32527:32528   */\n      0x01\n        /* \"#utility.yul\":32524:32525   */\n      dup2\n        /* \"#utility.yul\":32520:32529   */\n      add\n        /* \"#utility.yul\":32515:32529   */\n      swap1\n      pop\n        /* \"#utility.yul\":32480:32860   */\n      jump(tag_660)\n    tag_662:\n        /* \"#utility.yul\":32484:32498   */\n      pop\n        /* \"#utility.yul\":32876:32880   */\n      dup3\n        /* \"#utility.yul\":32869:32880   */\n      swap8\n      pop\n        /* \"#utility.yul\":32896:32899   */\n      dup8\n        /* \"#utility.yul\":32889:32899   */\n      swap6\n      pop\n        /* \"#utility.yul\":32086:32905   */\n      pop\n      pop\n      pop\n      pop\n      pop\n        /* \"#utility.yul\":31948:32905   */\n      swap3\n      swap2\n      pop\n      pop\n      jump\t// out\n        /* \"#utility.yul\":32911:33022   */\n    tag_316:\n        /* \"#utility.yul\":32975:32981   */\n      0x00\n        /* \"#utility.yul\":33009:33014   */\n      dup2\n        /* \"#utility.yul\":33003:33015   */\n      sload\n        /* \"#utility.yul\":32993:33015   */\n      swap1\n      pop\n        /* \"#utility.yul\":32911:33022   */\n      swap2\n      swap1\n      pop\n      jump\t// out\n        /* \"#utility.yul\":33028:33212   */\n    tag_317:\n        /* \"#utility.yul\":33127:33138   */\n      0x00\n        /* \"#utility.yul\":33161:33167   */\n      dup3\n        /* \"#utility.yul\":33156:33159   */\n      dup3\n        /* \"#utility.yul\":33149:33168   */\n      mstore\n        /* \"#utility.yul\":33201:33205   */\n      0x20\n        /* \"#utility.yul\":33196:33199   */\n      dup3\n        /* \"#utility.yul\":33192:33206   */\n      add\n        /* \"#utility.yul\":33177:33206   */\n      swap1\n      pop\n        /* \"#utility.yul\":33028:33212   */\n      swap3\n      swap2\n      pop\n      pop\n      jump\t// out\n        /* \"#utility.yul\":33218:33374   */\n    tag_318:\n        /* \"#utility.yul\":33282:33286   */\n      0x00\n        /* \"#utility.yul\":33305:33308   */\n      dup2\n        /* \"#utility.yul\":33297:33308   */\n      swap1\n      pop\n        /* \"#utility.yul\":33328:33331   */\n      dup2\n        /* \"#utility.yul\":33325:33326   */\n      0x00\n        /* \"#utility.yul\":33318:33332   */\n      mstore\n        /* \"#utility.yul\":33362:33366   */\n      0x20\n        /* \"#utility.yul\":33359:33360   */\n      0x00\n        /* \"#utility.yul\":33349:33367   */\n      keccak256\n        /* \"#utility.yul\":33341:33367   */\n      swap1\n      pop\n        /* \"#utility.yul\":33218:33374   */\n      swap2\n      swap1\n      pop\n      jump\t// out\n        /* \"#utility.yul\":33380:33482   */\n    tag_319:\n        /* \"#utility.yul\":33422:33430   */\n      0x00\n        /* \"#utility.yul\":33469:33474   */\n      dup2\n        /* \"#utility.yul\":33466:33467   */\n      0x00\n        /* \"#utility.yul\":33462:33475   */\n      shr\n        /* \"#utility.yul\":33441:33475   */\n      swap1\n      pop\n        /* \"#utility.yul\":33380:33482   */\n      swap2\n      swap1\n      pop\n      jump\t// out\n        /* \"#utility.yul\":33488:33627   */\n    tag_320:\n        /* \"#utility.yul\":33538:33545   */\n      0x00\n        /* \"#utility.yul\":33578:33620   */\n      0xffffffffffffffffffffffffffffffffffffffff\n        /* \"#utility.yul\":33571:33576   */\n      dup3\n        /* \"#utility.yul\":33567:33621   */\n      and\n        /* \"#utility.yul\":33556:33621   */\n      swap1\n      pop\n        /* \"#utility.yul\":33488:33627   */\n      swap2\n      swap1\n      pop\n      jump\t// out\n        /* \"#utility.yul\":33633:33799   */\n    tag_321:\n        /* \"#utility.yul\":33702:33707   */\n      0x00\n        /* \"#utility.yul\":33727:33793   */\n      tag_671\n        /* \"#utility.yul\":33758:33792   */\n      tag_672\n        /* \"#utility.yul\":33781:33791   */\n      dup4\n        /* \"#utility.yul\":33758:33792   */\n      tag_319\n      jump\t// in\n    tag_672:\n        /* \"#utility.yul\":33727:33793   */\n      tag_320\n      jump\t// in\n    tag_671:\n        /* \"#utility.yul\":33718:33793   */\n      swap1\n      pop\n        /* \"#utility.yul\":33633:33799   */\n      swap2\n      swap1\n      pop\n      jump\t// out\n        /* \"#utility.yul\":33805:33949   */\n    tag_322:\n        /* \"#utility.yul\":33860:33865   */\n      0x00\n        /* \"#utility.yul\":33885:33942   */\n      tag_674\n        /* \"#utility.yul\":33936:33940   */\n      dup3\n        /* \"#utility.yul\":33930:33941   */\n      sload\n        /* \"#utility.yul\":33885:33942   */\n      tag_321\n      jump\t// in\n    tag_674:\n        /* \"#utility.yul\":33876:33942   */\n      swap1\n      pop\n        /* \"#utility.yul\":33805:33949   */\n      swap2\n      swap1\n      pop\n      jump\t// out\n        /* \"#utility.yul\":33955:34065   */\n    tag_323:\n        /* \"#utility.yul\":34022:34026   */\n      0x00\n        /* \"#utility.yul\":34054:34058   */\n      0x01\n        /* \"#utility.yul\":34049:34052   */\n      dup3\n        /* \"#utility.yul\":34045:34059   */\n      add\n        /* \"#utility.yul\":34037:34059   */\n      swap1\n      pop\n        /* \"#utility.yul\":33955:34065   */\n      swap2\n      swap1\n      pop\n      jump\t// out\n        /* \"#utility.yul\":34101:34852   */\n    tag_324:\n        /* \"#utility.yul\":34217:34220   */\n      0x00\n        /* \"#utility.yul\":34246:34297   */\n      tag_677\n        /* \"#utility.yul\":34291:34296   */\n      dup3\n        /* \"#utility.yul\":34246:34297   */\n      tag_316\n      jump\t// in\n    tag_677:\n        /* \"#utility.yul\":34313:34399   */\n      tag_678\n        /* \"#utility.yul\":34392:34398   */\n      dup2\n        /* \"#utility.yul\":34387:34390   */\n      dup6\n        /* \"#utility.yul\":34313:34399   */\n      tag_317\n      jump\t// in\n    tag_678:\n        /* \"#utility.yul\":34306:34399   */\n      swap4\n      pop\n        /* \"#utility.yul\":34423:34476   */\n      tag_679\n        /* \"#utility.yul\":34470:34475   */\n      dup4\n        /* \"#utility.yul\":34423:34476   */\n      tag_318\n      jump\t// in\n    tag_679:\n        /* \"#utility.yul\":34499:34506   */\n      dup1\n        /* \"#utility.yul\":34530:34531   */\n      0x00\n        /* \"#utility.yul\":34515:34827   */\n    tag_680:\n        /* \"#utility.yul\":34540:34546   */\n      dup4\n        /* \"#utility.yul\":34537:34538   */\n      dup2\n        /* \"#utility.yul\":34534:34547   */\n      lt\n        /* \"#utility.yul\":34515:34827   */\n      iszero\n      tag_682\n      jumpi\n        /* \"#utility.yul\":34610:34654   */\n      tag_683\n        /* \"#utility.yul\":34647:34653   */\n      dup3\n        /* \"#utility.yul\":34610:34654   */\n      tag_322\n      jump\t// in\n    tag_683:\n        /* \"#utility.yul\":34674:34737   */\n      tag_684\n        /* \"#utility.yul\":34733:34736   */\n      dup9\n        /* \"#utility.yul\":34718:34731   */\n      dup3\n        /* \"#utility.yul\":34674:34737   */\n      tag_241\n      jump\t// in\n    tag_684:\n        /* \"#utility.yul\":34667:34737   */\n      swap8\n      pop\n        /* \"#utility.yul\":34760:34817   */\n      tag_685\n        /* \"#utility.yul\":34810:34816   */\n      dup4\n        /* \"#utility.yul\":34760:34817   */\n      tag_323\n      jump\t// in\n    tag_685:\n        /* \"#utility.yul\":34750:34817   */\n      swap3\n      pop\n        /* \"#utility.yul\":34575:34827   */\n      pop\n        /* \"#utility.yul\":34562:34563   */\n      0x01\n        /* \"#utility.yul\":34559:34560   */\n      dup2\n        /* \"#utility.yul\":34555:34564   */\n      add\n        /* \"#utility.yul\":34550:34564   */\n      swap1\n      pop\n        /* \"#utility.yul\":34515:34827   */\n      jump(tag_680)\n    tag_682:\n        /* \"#utility.yul\":34519:34533   */\n      pop\n        /* \"#utility.yul\":34843:34846   */\n      dup6\n        /* \"#utility.yul\":34836:34846   */\n      swap4\n      pop\n        /* \"#utility.yul\":34222:34852   */\n      pop\n      pop\n      pop\n        /* \"#utility.yul\":34101:34852   */\n      swap3\n      swap2\n      pop\n      pop\n      jump\t// out\n        /* \"#utility.yul\":34858:35709   */\n    tag_151:\n        /* \"#utility.yul\":35135:35139   */\n      0x00\n        /* \"#utility.yul\":35173:35175   */\n      0x60\n        /* \"#utility.yul\":35162:35171   */\n      dup3\n        /* \"#utility.yul\":35158:35176   */\n      add\n        /* \"#utility.yul\":35150:35176   */\n      swap1\n      pop\n        /* \"#utility.yul\":35222:35231   */\n      dup2\n        /* \"#utility.yul\":35216:35220   */\n      dup2\n        /* \"#utility.yul\":35212:35232   */\n      sub\n        /* \"#utility.yul\":35208:35209   */\n      0x00\n        /* \"#utility.yul\":35197:35206   */\n      dup4\n        /* \"#utility.yul\":35193:35210   */\n      add\n        /* \"#utility.yul\":35186:35233   */\n      mstore\n        /* \"#utility.yul\":35250:35325   */\n      tag_687\n        /* \"#utility.yul\":35320:35324   */\n      dup2\n        /* \"#utility.yul\":35311:35317   */\n      dup7\n        /* \"#utility.yul\":35250:35325   */\n      tag_308\n      jump\t// in\n    tag_687:\n        /* \"#utility.yul\":35242:35325   */\n      swap1\n      pop\n        /* \"#utility.yul\":35372:35381   */\n      dup2\n        /* \"#utility.yul\":35366:35370   */\n      dup2\n        /* \"#utility.yul\":35362:35382   */\n      sub\n        /* \"#utility.yul\":35357:35359   */\n      0x20\n        /* \"#utility.yul\":35346:35355   */\n      dup4\n        /* \"#utility.yul\":35342:35360   */\n      add\n        /* \"#utility.yul\":35335:35383   */\n      mstore\n        /* \"#utility.yul\":35400:35522   */\n      tag_688\n        /* \"#utility.yul\":35517:35521   */\n      dup2\n        /* \"#utility.yul\":35508:35514   */\n      dup6\n        /* \"#utility.yul\":35400:35522   */\n      tag_315\n      jump\t// in\n    tag_688:\n        /* \"#utility.yul\":35392:35522   */\n      swap1\n      pop\n        /* \"#utility.yul\":35569:35578   */\n      dup2\n        /* \"#utility.yul\":35563:35567   */\n      dup2\n        /* \"#utility.yul\":35559:35579   */\n      sub\n        /* \"#utility.yul\":35554:35556   */\n      0x40\n        /* \"#utility.yul\":35543:35552   */\n      dup4\n        /* \"#utility.yul\":35539:35557   */\n      add\n        /* \"#utility.yul\":35532:35580   */\n      mstore\n        /* \"#utility.yul\":35597:35702   */\n      tag_689\n        /* \"#utility.yul\":35697:35701   */\n      dup2\n        /* \"#utility.yul\":35688:35694   */\n      dup5\n        /* \"#utility.yul\":35597:35702   */\n      tag_324\n      jump\t// in\n    tag_689:\n        /* \"#utility.yul\":35589:35702   */\n      swap1\n      pop\n        /* \"#utility.yul\":34858:35709   */\n      swap5\n      swap4\n      pop\n      pop\n      pop\n      pop\n      jump\t// out\n        /* \"#utility.yul\":35715:35864   */\n    tag_325:\n        /* \"#utility.yul\":35764:35770   */\n      0x00\n        /* \"#utility.yul\":35798:35803   */\n      dup2\n        /* \"#utility.yul\":35792:35804   */\n      sload\n        /* \"#utility.yul\":35782:35804   */\n      swap1\n      pop\n        /* \"#utility.yul\":35824:35857   */\n      tag_691\n        /* \"#utility.yul\":35850:35856   */\n      dup2\n        /* \"#utility.yul\":35824:35857   */\n      tag_56\n      jump\t// in\n    tag_691:\n        /* \"#utility.yul\":35814:35857   */\n      swap1\n      pop\n        /* \"#utility.yul\":35715:35864   */\n      swap2\n      swap1\n      pop\n      jump\t// out\n        /* \"#utility.yul\":35870:37321   */\n    tag_162:\n        /* \"#utility.yul\":35981:35984   */\n      dup2\n        /* \"#utility.yul\":35975:35979   */\n      dup2\n        /* \"#utility.yul\":35972:35985   */\n      sub\n        /* \"#utility.yul\":35969:35995   */\n      tag_693\n      jumpi\n        /* \"#utility.yul\":35988:35993   */\n      pop\n      pop\n      jump(tag_692)\n        /* \"#utility.yul\":35969:35995   */\n    tag_693:\n        /* \"#utility.yul\":36019:36053   */\n      tag_694\n        /* \"#utility.yul\":36049:36052   */\n      dup3\n        /* \"#utility.yul\":36019:36053   */\n      tag_325\n      jump\t// in\n    tag_694:\n        /* \"#utility.yul\":36118:36136   */\n      0xffffffffffffffff\n        /* \"#utility.yul\":36110:36116   */\n      dup2\n        /* \"#utility.yul\":36107:36137   */\n      gt\n        /* \"#utility.yul\":36104:36160   */\n      iszero\n      tag_695\n      jumpi\n        /* \"#utility.yul\":36140:36158   */\n      tag_696\n      tag_255\n      jump\t// in\n    tag_696:\n        /* \"#utility.yul\":36104:36160   */\n    tag_695:\n        /* \"#utility.yul\":36184:36222   */\n      tag_697\n        /* \"#utility.yul\":36216:36220   */\n      dup3\n        /* \"#utility.yul\":36210:36221   */\n      sload\n        /* \"#utility.yul\":36184:36222   */\n      tag_56\n      jump\t// in\n    tag_697:\n        /* \"#utility.yul\":36269:36336   */\n      tag_698\n        /* \"#utility.yul\":36329:36335   */\n      dup3\n        /* \"#utility.yul\":36321:36327   */\n      dup3\n        /* \"#utility.yul\":36315:36319   */\n      dup6\n        /* \"#utility.yul\":36269:36336   */\n      tag_299\n      jump\t// in\n    tag_698:\n        /* \"#utility.yul\":36363:36364   */\n      0x00\n        /* \"#utility.yul\":36392:36394   */\n      0x1f\n        /* \"#utility.yul\":36384:36390   */\n      dup4\n        /* \"#utility.yul\":36381:36395   */\n      gt\n        /* \"#utility.yul\":36409:36410   */\n      0x01\n        /* \"#utility.yul\":36404:37076   */\n      dup2\n      eq\n      tag_700\n      jumpi\n        /* \"#utility.yul\":37120:37121   */\n      0x00\n        /* \"#utility.yul\":37137:37143   */\n      dup5\n        /* \"#utility.yul\":37134:37211   */\n      iszero\n      tag_701\n      jumpi\n        /* \"#utility.yul\":37186:37195   */\n      dup3\n        /* \"#utility.yul\":37181:37184   */\n      dup8\n        /* \"#utility.yul\":37177:37196   */\n      add\n        /* \"#utility.yul\":37171:37197   */\n      sload\n        /* \"#utility.yul\":37162:37197   */\n      swap1\n      pop\n        /* \"#utility.yul\":37134:37211   */\n    tag_701:\n        /* \"#utility.yul\":37237:37304   */\n      tag_702\n        /* \"#utility.yul\":37297:37303   */\n      dup6\n        /* \"#utility.yul\":37290:37295   */\n      dup3\n        /* \"#utility.yul\":37237:37304   */\n      tag_302\n      jump\t// in\n    tag_702:\n        /* \"#utility.yul\":37231:37235   */\n      dup7\n        /* \"#utility.yul\":37224:37305   */\n      sstore\n        /* \"#utility.yul\":37093:37315   */\n      pop\n        /* \"#utility.yul\":36374:37315   */\n      jump(tag_699)\n        /* \"#utility.yul\":36404:37076   */\n    tag_700:\n        /* \"#utility.yul\":36456:36460   */\n      0x1f\n        /* \"#utility.yul\":36452:36461   */\n      not\n        /* \"#utility.yul\":36444:36450   */\n      dup5\n        /* \"#utility.yul\":36440:36462   */\n      and\n        /* \"#utility.yul\":36482:36518   */\n      tag_703\n        /* \"#utility.yul\":36514:36517   */\n      dup8\n        /* \"#utility.yul\":36482:36518   */\n      tag_289\n      jump\t// in\n    tag_703:\n        /* \"#utility.yul\":36475:36518   */\n      swap7\n      pop\n        /* \"#utility.yul\":36545:36582   */\n      tag_704\n        /* \"#utility.yul\":36577:36581   */\n      dup7\n        /* \"#utility.yul\":36545:36582   */\n      tag_289\n      jump\t// in\n    tag_704:\n        /* \"#utility.yul\":36604:36605   */\n      0x00\n        /* \"#utility.yul\":36618:36825   */\n    tag_705:\n        /* \"#utility.yul\":36632:36639   */\n      dup3\n        /* \"#utility.yul\":36629:36630   */\n      dup2\n        /* \"#utility.yul\":36626:36640   */\n      lt\n        /* \"#utility.yul\":36618:36825   */\n      iszero\n      tag_707\n      jumpi\n        /* \"#utility.yul\":36711:36720   */\n      dup5\n        /* \"#utility.yul\":36706:36709   */\n      dup10\n        /* \"#utility.yul\":36702:36721   */\n      add\n        /* \"#utility.yul\":36696:36722   */\n      sload\n        /* \"#utility.yul\":36688:36694   */\n      dup3\n        /* \"#utility.yul\":36681:36723   */\n      sstore\n        /* \"#utility.yul\":36762:36763   */\n      0x01\n        /* \"#utility.yul\":36754:36760   */\n      dup3\n        /* \"#utility.yul\":36750:36764   */\n      add\n        /* \"#utility.yul\":36740:36764   */\n      swap2\n      pop\n        /* \"#utility.yul\":36809:36810   */\n      0x01\n        /* \"#utility.yul\":36798:36807   */\n      dup6\n        /* \"#utility.yul\":36794:36811   */\n      add\n        /* \"#utility.yul\":36781:36811   */\n      swap5\n      pop\n        /* \"#utility.yul\":36655:36659   */\n      0x20\n        /* \"#utility.yul\":36652:36653   */\n      dup2\n        /* \"#utility.yul\":36648:36660   */\n      add\n        /* \"#utility.yul\":36643:36660   */\n      swap1\n      pop\n        /* \"#utility.yul\":36618:36825   */\n      jump(tag_705)\n    tag_707:\n        /* \"#utility.yul\":36853:36859   */\n      dup7\n        /* \"#utility.yul\":36844:36851   */\n      dup4\n        /* \"#utility.yul\":36841:36860   */\n      lt\n        /* \"#utility.yul\":36838:37017   */\n      iszero\n      tag_708\n      jumpi\n        /* \"#utility.yul\":36911:36920   */\n      dup5\n        /* \"#utility.yul\":36906:36909   */\n      dup10\n        /* \"#utility.yul\":36902:36921   */\n      add\n        /* \"#utility.yul\":36896:36922   */\n      sload\n        /* \"#utility.yul\":36954:37002   */\n      tag_709\n        /* \"#utility.yul\":36996:37000   */\n      0x1f\n        /* \"#utility.yul\":36988:36994   */\n      dup10\n        /* \"#utility.yul\":36984:37001   */\n      and\n        /* \"#utility.yul\":36973:36982   */\n      dup3\n        /* \"#utility.yul\":36954:37002   */\n      tag_301\n      jump\t// in\n    tag_709:\n        /* \"#utility.yul\":36946:36952   */\n      dup4\n        /* \"#utility.yul\":36939:37003   */\n      sstore\n        /* \"#utility.yul\":36861:37017   */\n      pop\n        /* \"#utility.yul\":36838:37017   */\n    tag_708:\n        /* \"#utility.yul\":37063:37064   */\n      0x01\n        /* \"#utility.yul\":37059:37060   */\n      0x02\n        /* \"#utility.yul\":37051:37057   */\n      dup9\n        /* \"#utility.yul\":37047:37061   */\n      mul\n        /* \"#utility.yul\":37043:37065   */\n      add\n        /* \"#utility.yul\":37037:37041   */\n      dup9\n        /* \"#utility.yul\":37030:37066   */\n      sstore\n        /* \"#utility.yul\":36411:37076   */\n      pop\n      pop\n      pop\n        /* \"#utility.yul\":36374:37315   */\n    tag_699:\n      pop\n        /* \"#utility.yul\":35959:37321   */\n      pop\n      pop\n      pop\n        /* \"#utility.yul\":35870:37321   */\n      pop\n      pop\n    tag_692:\n      jump\t// out\n        /* \"#utility.yul\":37327:37507   */\n    tag_169:\n        /* \"#utility.yul\":37375:37452   */\n      0x4e487b7100000000000000000000000000000000000000000000000000000000\n        /* \"#utility.yul\":37372:37373   */\n      0x00\n        /* \"#utility.yul\":37365:37453   */\n      mstore\n        /* \"#utility.yul\":37472:37476   */\n      0x31\n        /* \"#utility.yul\":37469:37470   */\n      0x04\n        /* \"#utility.yul\":37462:37477   */\n      mstore\n        /* \"#utility.yul\":37496:37500   */\n      0x24\n        /* \"#utility.yul\":37493:37494   */\n      0x00\n        /* \"#utility.yul\":37486:37501   */\n      revert\n        /* \"#utility.yul\":37513:37660   */\n    tag_326:\n        /* \"#utility.yul\":37614:37625   */\n      0x00\n        /* \"#utility.yul\":37651:37654   */\n      dup2\n        /* \"#utility.yul\":37636:37654   */\n      swap1\n      pop\n        /* \"#utility.yul\":37513:37660   */\n      swap3\n      swap2\n      pop\n      pop\n      jump\t// out\n        /* \"#utility.yul\":37666:37810   */\n    tag_327:\n        /* \"#utility.yul\":37718:37722   */\n      0x00\n        /* \"#utility.yul\":37741:37744   */\n      dup2\n        /* \"#utility.yul\":37733:37744   */\n      swap1\n      pop\n        /* \"#utility.yul\":37764:37767   */\n      dup2\n        /* \"#utility.yul\":37761:37762   */\n      0x00\n        /* \"#utility.yul\":37754:37768   */\n      mstore\n        /* \"#utility.yul\":37798:37802   */\n      0x20\n        /* \"#utility.yul\":37795:37796   */\n      0x00\n        /* \"#utility.yul\":37785:37803   */\n      keccak256\n        /* \"#utility.yul\":37777:37803   */\n      swap1\n      pop\n        /* \"#utility.yul\":37666:37810   */\n      swap2\n      swap1\n      pop\n      jump\t// out\n        /* \"#utility.yul\":37838:38716   */\n    tag_328:\n        /* \"#utility.yul\":37943:37946   */\n      0x00\n        /* \"#utility.yul\":37980:37985   */\n      dup2\n        /* \"#utility.yul\":37974:37986   */\n      sload\n        /* \"#utility.yul\":38009:38045   */\n      tag_714\n        /* \"#utility.yul\":38035:38044   */\n      dup2\n        /* \"#utility.yul\":38009:38045   */\n      tag_56\n      jump\t// in\n    tag_714:\n        /* \"#utility.yul\":38061:38149   */\n      tag_715\n        /* \"#utility.yul\":38142:38148   */\n      dup2\n        /* \"#utility.yul\":38137:38140   */\n      dup7\n        /* \"#utility.yul\":38061:38149   */\n      tag_326\n      jump\t// in\n    tag_715:\n        /* \"#utility.yul\":38054:38149   */\n      swap5\n      pop\n        /* \"#utility.yul\":38180:38181   */\n      0x01\n        /* \"#utility.yul\":38169:38178   */\n      dup3\n        /* \"#utility.yul\":38165:38182   */\n      and\n        /* \"#utility.yul\":38196:38197   */\n      0x00\n        /* \"#utility.yul\":38191:38357   */\n      dup2\n      eq\n      tag_717\n      jumpi\n        /* \"#utility.yul\":38371:38372   */\n      0x01\n        /* \"#utility.yul\":38366:38710   */\n      dup2\n      eq\n      tag_718\n      jumpi\n        /* \"#utility.yul\":38158:38710   */\n      jump(tag_716)\n        /* \"#utility.yul\":38191:38357   */\n    tag_717:\n        /* \"#utility.yul\":38275:38279   */\n      0xff\n        /* \"#utility.yul\":38271:38280   */\n      not\n        /* \"#utility.yul\":38260:38269   */\n      dup4\n        /* \"#utility.yul\":38256:38281   */\n      and\n        /* \"#utility.yul\":38251:38254   */\n      dup7\n        /* \"#utility.yul\":38244:38282   */\n      mstore\n        /* \"#utility.yul\":38337:38343   */\n      dup2\n        /* \"#utility.yul\":38330:38344   */\n      iszero\n        /* \"#utility.yul\":38323:38345   */\n      iszero\n        /* \"#utility.yul\":38315:38321   */\n      dup3\n        /* \"#utility.yul\":38311:38346   */\n      mul\n        /* \"#utility.yul\":38306:38309   */\n      dup7\n        /* \"#utility.yul\":38302:38347   */\n      add\n        /* \"#utility.yul\":38295:38347   */\n      swap4\n      pop\n        /* \"#utility.yul\":38191:38357   */\n      jump(tag_716)\n        /* \"#utility.yul\":38366:38710   */\n    tag_718:\n        /* \"#utility.yul\":38433:38474   */\n      tag_719\n        /* \"#utility.yul\":38468:38473   */\n      dup6\n        /* \"#utility.yul\":38433:38474   */\n      tag_327\n      jump\t// in\n    tag_719:\n        /* \"#utility.yul\":38496:38497   */\n      0x00\n        /* \"#utility.yul\":38510:38664   */\n    tag_720:\n        /* \"#utility.yul\":38524:38530   */\n      dup4\n        /* \"#utility.yul\":38521:38522   */\n      dup2\n        /* \"#utility.yul\":38518:38531   */\n      lt\n        /* \"#utility.yul\":38510:38664   */\n      iszero\n      tag_722\n      jumpi\n        /* \"#utility.yul\":38598:38605   */\n      dup2\n        /* \"#utility.yul\":38592:38606   */\n      sload\n        /* \"#utility.yul\":38588:38589   */\n      dup2\n        /* \"#utility.yul\":38583:38586   */\n      dup10\n        /* \"#utility.yul\":38579:38590   */\n      add\n        /* \"#utility.yul\":38572:38607   */\n      mstore\n        /* \"#utility.yul\":38648:38649   */\n      0x01\n        /* \"#utility.yul\":38639:38646   */\n      dup3\n        /* \"#utility.yul\":38635:38650   */\n      add\n        /* \"#utility.yul\":38624:38650   */\n      swap2\n      pop\n        /* \"#utility.yul\":38546:38550   */\n      0x20\n        /* \"#utility.yul\":38543:38544   */\n      dup2\n        /* \"#utility.yul\":38539:38551   */\n      add\n        /* \"#utility.yul\":38534:38551   */\n      swap1\n      pop\n        /* \"#utility.yul\":38510:38664   */\n      jump(tag_720)\n    tag_722:\n        /* \"#utility.yul\":38693:38699   */\n      dup4\n        /* \"#utility.yul\":38688:38691   */\n      dup9\n        /* \"#utility.yul\":38684:38700   */\n      add\n        /* \"#utility.yul\":38677:38700   */\n      swap6\n      pop\n        /* \"#utility.yul\":38373:38710   */\n      pop\n      pop\n        /* \"#utility.yul\":38158:38710   */\n    tag_716:\n      pop\n        /* \"#utility.yul\":37947:38716   */\n      pop\n      pop\n        /* \"#utility.yul\":37838:38716   */\n      swap3\n      swap2\n      pop\n      pop\n      jump\t// out\n        /* \"#utility.yul\":38722:38995   */\n    tag_186:\n        /* \"#utility.yul\":38853:38856   */\n      0x00\n        /* \"#utility.yul\":38875:38969   */\n      tag_724\n        /* \"#utility.yul\":38965:38968   */\n      dup3\n        /* \"#utility.yul\":38956:38962   */\n      dup5\n        /* \"#utility.yul\":38875:38969   */\n      tag_328\n      jump\t// in\n    tag_724:\n        /* \"#utility.yul\":38868:38969   */\n      swap2\n      pop\n        /* \"#utility.yul\":38986:38989   */\n      dup2\n        /* \"#utility.yul\":38979:38989   */\n      swap1\n      pop\n        /* \"#utility.yul\":38722:38995   */\n      swap3\n      swap2\n      pop\n      pop\n      jump\t// out\n\n    auxdata: 0xa26469706673582212205def4922eadf75f0cb9c34c0078b40cbe1c813eb23b8c611b5e8051223a3ebf064736f6c63430008190033\n}\n",
				"bytecode": {
					"linkReferences": {},
					"object": "6080604052348015600e575f80fd5b503360015f6101000a81548173ffffffffffffffffffffffffffffffffffffffff021916908373ffffffffffffffffffffffffffffffffffffffff1602179055506121578061005c5f395ff3fe608060405234801561000f575f80fd5b5060043610610091575f3560e01c8063a0a0a81511610064578063a0a0a81514610109578063a302de1614610127578063b30906d414610145578063c9d27afe14610177578063cebbb33e1461019357610091565b806317be85c31461009557806322fae27d146100b35780632dcc4387146100cf5780638da5cb5b146100eb575b5f80fd5b61009d6101b1565b6040516100aa9190611120565b60405180910390f35b6100cd60048036038101906100c89190611449565b61040f565b005b6100e960048036038101906100e491906114ed565b610510565b005b6100f36105e1565b6040516101009190611527565b60405180910390f35b610111610606565b60405161011e919061154f565b60405180910390f35b61012f61074f565b60405161013c91906115c3565b60405180910390f35b61015f600480360381019061015a9190611606565b610772565b60405161016e93929190611679565b60405180910390f35b610191600480360381019061018c91906116ea565b61082d565b005b61019b610af5565b6040516101a89190611737565b60405180910390f35b60606002805480602002602001604051908101604052809291908181526020015f905b82821015610406578382905f5260205f2090600502016040518060a00160405290815f820180546102049061177d565b80601f01602080910402602001604051908101604052809291908181526020018280546102309061177d565b801561027b5780601f106102525761010080835404028352916020019161027b565b820191905f5260205f20905b81548152906001019060200180831161025e57829003601f168201915b5050505050815260200160018201805480602002602001604051908101604052809291908181526020015f905b82821015610350578382905f5260205f200180546102c59061177d565b80601f01602080910402602001604051908101604052809291908181526020018280546102f19061177d565b801561033c5780601f106103135761010080835404028352916020019161033c565b820191905f5260205f20905b81548152906001019060200180831161031f57829003601f168201915b5050505050815260200190600101906102a8565b505050508152602001600282018054806020026020016040519081016040528092919081815260200182805480156103da57602002820191905f5260205f20905b815f9054906101000a900473ffffffffffffffffffffffffffffffffffffffff1673ffffffffffffffffffffffffffffffffffffffff1681526020019060010190808311610391575b5050505050815260200160038201548152602001600482015481525050815260200190600101906101d4565b50505050905090565b61041883610b03565b15610458576040517f08c379a000000000000000000000000000000000000000000000000000000000815260040161044f906117f7565b60405180910390fd5b60026040518060a001604052808581526020018481526020018381526020015f81526020015f815250908060018154018082558091505060019003905f5260205f2090600502015f909190919091505f820151815f0190816104ba91906119a9565b5060208201518160010190805190602001906104d7929190610b7e565b5060408201518160020190805190602001906104f4929190610bd5565b5060608201518160030155608082015181600401555050505050565b60015f9054906101000a900473ffffffffffffffffffffffffffffffffffffffff1673ffffffffffffffffffffffffffffffffffffffff163373ffffffffffffffffffffffffffffffffffffffff161461059f576040517f08c379a000000000000000000000000000000000000000000000000000000000815260040161059690611ac2565b60405180910390fd5b805f806101000a81548173ffffffffffffffffffffffffffffffffffffffff021916908373ffffffffffffffffffffffffffffffffffffffff16021790555050565b60015f9054906101000a900473ffffffffffffffffffffffffffffffffffffffff1681565b5f806002805490500361061e576201869f905061074c565b5f8060025f8154811061063457610633611ae0565b5b905f5260205f2090600502016004015460025f8154811061065857610657611ae0565b5b905f5260205f209060050201600301546106729190611b3a565b90505f600190505b60028054905081101561074557816002828154811061069c5761069b611ae0565b5b905f5260205f20906005020160040154600283815481106106c0576106bf611ae0565b5b905f5260205f209060050201600301546106da9190611b3a565b101561073857809250600281815481106106f7576106f6611ae0565b5b905f5260205f209060050201600401546002828154811061071b5761071a611ae0565b5b905f5260205f209060050201600301546107359190611b3a565b91505b808060010191505061067a565b5081925050505b90565b5f8054906101000a900473ffffffffffffffffffffffffffffffffffffffff1681565b60028181548110610781575f80fd5b905f5260205f2090600502015f91509050805f0180546107a09061177d565b80601f01602080910402602001604051908101604052809291908181526020018280546107cc9061177d565b80156108175780601f106107ee57610100808354040283529160200191610817565b820191905f5260205f20905b8154815290600101906020018083116107fa57829003601f168201915b5050505050908060030154908060040154905083565b8160028054905011610874576040517f08c379a000000000000000000000000000000000000000000000000000000000815260040161086b90611bb7565b60405180910390fd5b5f6002838154811061088957610888611ae0565b5b905f5260205f209060050201905081156108bb57806003015f8154809291906108b190611bd5565b91905055506108d5565b806004015f8154809291906108cf90611bd5565b91905055505b6005816004015482600301546108eb9190611b3a565b03610af0575f60016002805490506109039190611c1c565b90505f8054906101000a900473ffffffffffffffffffffffffffffffffffffffff1673ffffffffffffffffffffffffffffffffffffffff1663fd3cbf956002868154811061095457610953611ae0565b5b905f5260205f2090600502015f016002878154811061097657610975611ae0565b5b905f5260205f2090600502016001016002888154811061099957610998611ae0565b5b905f5260205f2090600502016002016040518463ffffffff1660e01b81526004016109c693929190611efe565b5f604051808303815f87803b1580156109dd575f80fd5b505af11580156109ef573d5f803e3d5ffd5b5050505060028181548110610a0757610a06611ae0565b5b905f5260205f20906005020160028581548110610a2757610a26611ae0565b5b905f5260205f2090600502015f8201815f019081610a459190611f5d565b506001820181600101908054610a5c929190610c5c565b506002820181600201908054610a73929190610cb5565b5060038201548160030155600482015481600401559050506002805480610a9d57610a9c612042565b5b600190038181905f5260205f2090600502015f8082015f610abe9190610d03565b600182015f610acd9190610d40565b600282015f610adc9190610d5e565b600382015f9055600482015f905550509055505b505050565b5f8060028054905011905090565b5f808290505f5b600280549050811015610b7357818051906020012060028281548110610b3357610b32611ae0565b5b905f5260205f2090600502015f01604051610b4e919061210b565b604051809103902003610b6657600192505050610b79565b8080600101915050610b0a565b505f9150505b919050565b828054828255905f5260205f20908101928215610bc4579160200282015b82811115610bc3578251829081610bb391906119a9565b5091602001919060010190610b9c565b5b509050610bd19190610d7c565b5090565b828054828255905f5260205f20908101928215610c4b579160200282015b82811115610c4a578251825f6101000a81548173ffffffffffffffffffffffffffffffffffffffff021916908373ffffffffffffffffffffffffffffffffffffffff16021790555091602001919060010190610bf3565b5b509050610c589190610d9f565b5090565b828054828255905f5260205f20908101928215610ca4575f5260205f209182015b82811115610ca35782829081610c939190611f5d565b5091600101919060010190610c7d565b5b509050610cb19190610d7c565b5090565b828054828255905f5260205f20908101928215610cf2575f5260205f209182015b82811115610cf1578254825591600101919060010190610cd6565b5b509050610cff9190610d9f565b5090565b508054610d0f9061177d565b5f825580601f10610d205750610d3d565b601f0160209004905f5260205f2090810190610d3c9190610d9f565b5b50565b5080545f8255905f5260205f2090810190610d5b9190610d7c565b50565b5080545f8255905f5260205f2090810190610d799190610d9f565b50565b5b80821115610d9b575f8181610d929190610d03565b50600101610d7d565b5090565b5b80821115610db6575f815f905550600101610da0565b5090565b5f81519050919050565b5f82825260208201905092915050565b5f819050602082019050919050565b5f81519050919050565b5f82825260208201905092915050565b8281835e5f83830152505050565b5f601f19601f8301169050919050565b5f610e2582610de3565b610e2f8185610ded565b9350610e3f818560208601610dfd565b610e4881610e0b565b840191505092915050565b5f81519050919050565b5f82825260208201905092915050565b5f819050602082019050919050565b5f610e878383610e1b565b905092915050565b5f602082019050919050565b5f610ea582610e53565b610eaf8185610e5d565b935083602082028501610ec185610e6d565b805f5b85811015610efc5784840389528151610edd8582610e7c565b9450610ee883610e8f565b925060208a01995050600181019050610ec4565b50829750879550505050505092915050565b5f81519050919050565b5f82825260208201905092915050565b5f819050602082019050919050565b5f73ffffffffffffffffffffffffffffffffffffffff82169050919050565b5f610f6082610f37565b9050919050565b610f7081610f56565b82525050565b5f610f818383610f67565b60208301905092915050565b5f602082019050919050565b5f610fa382610f0e565b610fad8185610f18565b9350610fb883610f28565b805f5b83811015610fe8578151610fcf8882610f76565b9750610fda83610f8d565b925050600181019050610fbb565b5085935050505092915050565b5f819050919050565b61100781610ff5565b82525050565b5f60a083015f8301518482035f8601526110278282610e1b565b915050602083015184820360208601526110418282610e9b565b9150506040830151848203604086015261105b8282610f99565b91505060608301516110706060860182610ffe565b5060808301516110836080860182610ffe565b508091505092915050565b5f611099838361100d565b905092915050565b5f602082019050919050565b5f6110b782610dba565b6110c18185610dc4565b9350836020820285016110d385610dd4565b805f5b8581101561110e57848403895281516110ef858261108e565b94506110fa836110a1565b925060208a019950506001810190506110d6565b50829750879550505050505092915050565b5f6020820190508181035f83015261113881846110ad565b905092915050565b5f604051905090565b5f80fd5b5f80fd5b5f80fd5b5f80fd5b7f4e487b71000000000000000000000000000000000000000000000000000000005f52604160045260245ffd5b61118f82610e0b565b810181811067ffffffffffffffff821117156111ae576111ad611159565b5b80604052505050565b5f6111c0611140565b90506111cc8282611186565b919050565b5f67ffffffffffffffff8211156111eb576111ea611159565b5b6111f482610e0b565b9050602081019050919050565b828183375f83830152505050565b5f61122161121c846111d1565b6111b7565b90508281526020810184848401111561123d5761123c611155565b5b611248848285611201565b509392505050565b5f82601f83011261126457611263611151565b5b813561127484826020860161120f565b91505092915050565b5f67ffffffffffffffff82111561129757611296611159565b5b602082029050602081019050919050565b5f80fd5b5f6112be6112b98461127d565b6111b7565b905080838252602082019050602084028301858111156112e1576112e06112a8565b5b835b8181101561132857803567ffffffffffffffff81111561130657611305611151565b5b8086016113138982611250565b855260208501945050506020810190506112e3565b5050509392505050565b5f82601f83011261134657611345611151565b5b81356113568482602086016112ac565b91505092915050565b5f67ffffffffffffffff82111561137957611378611159565b5b602082029050602081019050919050565b61139381610f56565b811461139d575f80fd5b50565b5f813590506113ae8161138a565b92915050565b5f6113c66113c18461135f565b6111b7565b905080838252602082019050602084028301858111156113e9576113e86112a8565b5b835b8181101561141257806113fe88826113a0565b8452602084019350506020810190506113eb565b5050509392505050565b5f82601f8301126114305761142f611151565b5b81356114408482602086016113b4565b91505092915050565b5f805f606084860312156114605761145f611149565b5b5f84013567ffffffffffffffff81111561147d5761147c61114d565b5b61148986828701611250565b935050602084013567ffffffffffffffff8111156114aa576114a961114d565b5b6114b686828701611332565b925050604084013567ffffffffffffffff8111156114d7576114d661114d565b5b6114e38682870161141c565b9150509250925092565b5f6020828403121561150257611501611149565b5b5f61150f848285016113a0565b91505092915050565b61152181610f56565b82525050565b5f60208201905061153a5f830184611518565b92915050565b61154981610ff5565b82525050565b5f6020820190506115625f830184611540565b92915050565b5f819050919050565b5f61158b61158661158184610f37565b611568565b610f37565b9050919050565b5f61159c82611571565b9050919050565b5f6115ad82611592565b9050919050565b6115bd816115a3565b82525050565b5f6020820190506115d65f8301846115b4565b92915050565b6115e581610ff5565b81146115ef575f80fd5b50565b5f81359050611600816115dc565b92915050565b5f6020828403121561161b5761161a611149565b5b5f611628848285016115f2565b91505092915050565b5f82825260208201905092915050565b5f61164b82610de3565b6116558185611631565b9350611665818560208601610dfd565b61166e81610e0b565b840191505092915050565b5f6060820190508181035f8301526116918186611641565b90506116a06020830185611540565b6116ad6040830184611540565b949350505050565b5f8115159050919050565b6116c9816116b5565b81146116d3575f80fd5b50565b5f813590506116e4816116c0565b92915050565b5f8060408385031215611700576116ff611149565b5b5f61170d858286016115f2565b925050602061171e858286016116d6565b9150509250929050565b611731816116b5565b82525050565b5f60208201905061174a5f830184611728565b92915050565b7f4e487b71000000000000000000000000000000000000000000000000000000005f52602260045260245ffd5b5f600282049050600182168061179457607f821691505b6020821081036117a7576117a6611750565b5b50919050565b7f456e747279204944206d75737420626520756e697175650000000000000000005f82015250565b5f6117e1601783611631565b91506117ec826117ad565b602082019050919050565b5f6020820190508181035f83015261180e816117d5565b9050919050565b5f819050815f5260205f209050919050565b5f6020601f8301049050919050565b5f82821b905092915050565b5f600883026118717fffffffffffffffffffffffffffffffffffffffffffffffffffffffffffffffff82611836565b61187b8683611836565b95508019841693508086168417925050509392505050565b5f6118ad6118a86118a384610ff5565b611568565b610ff5565b9050919050565b5f819050919050565b6118c683611893565b6118da6118d2826118b4565b848454611842565b825550505050565b5f90565b6118ee6118e2565b6118f98184846118bd565b505050565b5b8181101561191c576119115f826118e6565b6001810190506118ff565b5050565b601f8211156119615761193281611815565b61193b84611827565b8101602085101561194a578190505b61195e61195685611827565b8301826118fe565b50505b505050565b5f82821c905092915050565b5f6119815f1984600802611966565b1980831691505092915050565b5f6119998383611972565b9150826002028217905092915050565b6119b282610de3565b67ffffffffffffffff8111156119cb576119ca611159565b5b6119d5825461177d565b6119e0828285611920565b5f60209050601f831160018114611a11575f84156119ff578287015190505b611a09858261198e565b865550611a70565b601f198416611a1f86611815565b5f5b82811015611a4657848901518255600182019150602085019450602081019050611a21565b86831015611a635784890151611a5f601f891682611972565b8355505b6001600288020188555050505b505050505050565b7f596f7520617265206e6f7420746865206f776e65722e000000000000000000005f82015250565b5f611aac601683611631565b9150611ab782611a78565b602082019050919050565b5f6020820190508181035f830152611ad981611aa0565b9050919050565b7f4e487b71000000000000000000000000000000000000000000000000000000005f52603260045260245ffd5b7f4e487b71000000000000000000000000000000000000000000000000000000005f52601160045260245ffd5b5f611b4482610ff5565b9150611b4f83610ff5565b9250828201905080821115611b6757611b66611b0d565b5b92915050565b7f456e74727920646f6573206e6f742065786973740000000000000000000000005f82015250565b5f611ba1601483611631565b9150611bac82611b6d565b602082019050919050565b5f6020820190508181035f830152611bce81611b95565b9050919050565b5f611bdf82610ff5565b91507fffffffffffffffffffffffffffffffffffffffffffffffffffffffffffffffff8203611c1157611c10611b0d565b5b600182019050919050565b5f611c2682610ff5565b9150611c3183610ff5565b9250828203905081811115611c4957611c48611b0d565b5b92915050565b5f8154611c5b8161177d565b611c658186611631565b9450600182165f8114611c7f5760018114611c9557611cc7565b60ff198316865281151560200286019350611cc7565b611c9e85611815565b5f5b83811015611cbf57815481890152600182019150602081019050611ca0565b808801955050505b50505092915050565b5f81549050919050565b5f82825260208201905092915050565b5f819050815f5260205f209050919050565b5f8154611d088161177d565b611d128186610ded565b9450600182165f8114611d2c5760018114611d4257611d74565b60ff198316865281151560200286019350611d74565b611d4b85611815565b5f5b83811015611d6c57815481890152600182019150602081019050611d4d565b808801955050505b50505092915050565b5f611d888383611cfc565b905092915050565b5f600182019050919050565b5f611da682611cd0565b611db08185611cda565b935083602082028501611dc285611cea565b805f5b85811015611dfc57848403895281611ddd8582611d7d565b9450611de883611d90565b925060208a01995050600181019050611dc5565b50829750879550505050505092915050565b5f81549050919050565b5f82825260208201905092915050565b5f819050815f5260205f209050919050565b5f815f1c9050919050565b5f73ffffffffffffffffffffffffffffffffffffffff82169050919050565b5f611e76611e7183611e3a565b611e45565b9050919050565b5f611e888254611e64565b9050919050565b5f600182019050919050565b5f611ea582611e0e565b611eaf8185611e18565b9350611eba83611e28565b805f5b83811015611ef157611ece82611e7d565b611ed88882610f76565b9750611ee383611e8f565b925050600181019050611ebd565b5085935050505092915050565b5f6060820190508181035f830152611f168186611c4f565b90508181036020830152611f2a8185611d9c565b90508181036040830152611f3e8184611e9b565b9050949350505050565b5f81549050611f568161177d565b9050919050565b818103611f6b575050612040565b611f7482611f48565b67ffffffffffffffff811115611f8d57611f8c611159565b5b611f97825461177d565b611fa2828285611920565b5f601f831160018114611fcf575f8415611fbd578287015490505b611fc7858261198e565b865550612039565b601f198416611fdd87611815565b9650611fe886611815565b5f5b8281101561200f57848901548255600182019150600185019450602081019050611fea565b8683101561202c5784890154612028601f891682611972565b8355505b6001600288020188555050505b5050505050505b565b7f4e487b71000000000000000000000000000000000000000000000000000000005f52603160045260245ffd5b5f81905092915050565b5f819050815f5260205f209050919050565b5f81546120978161177d565b6120a1818661206f565b9450600182165f81146120bb57600181146120d057612102565b60ff1983168652811515820286019350612102565b6120d985612079565b5f5b838110156120fa578154818901526001820191506020810190506120db565b838801955050505b50505092915050565b5f612116828461208b565b91508190509291505056fea26469706673582212205def4922eadf75f0cb9c34c0078b40cbe1c813eb23b8c611b5e8051223a3ebf064736f6c63430008190033",
					"opcodes": "PUSH1 0x80 PUSH1 0x40 MSTORE CALLVALUE DUP1 ISZERO PUSH1 0xE JUMPI PUSH0 DUP1 REVERT JUMPDEST POP CALLER PUSH1 0x1 PUSH0 PUSH2 0x100 EXP DUP2 SLOAD DUP2 PUSH20 0xFFFFFFFFFFFFFFFFFFFFFFFFFFFFFFFFFFFFFFFF MUL NOT AND SWAP1 DUP4 PUSH20 0xFFFFFFFFFFFFFFFFFFFFFFFFFFFFFFFFFFFFFFFF AND MUL OR SWAP1 SSTORE POP PUSH2 0x2157 DUP1 PUSH2 0x5C PUSH0 CODECOPY PUSH0 RETURN INVALID PUSH1 0x80 PUSH1 0x40 MSTORE CALLVALUE DUP1 ISZERO PUSH2 0xF JUMPI PUSH0 DUP1 REVERT JUMPDEST POP PUSH1 0x4 CALLDATASIZE LT PUSH2 0x91 JUMPI PUSH0 CALLDATALOAD PUSH1 0xE0 SHR DUP1 PUSH4 0xA0A0A815 GT PUSH2 0x64 JUMPI DUP1 PUSH4 0xA0A0A815 EQ PUSH2 0x109 JUMPI DUP1 PUSH4 0xA302DE16 EQ PUSH2 0x127 JUMPI DUP1 PUSH4 0xB30906D4 EQ PUSH2 0x145 JUMPI DUP1 PUSH4 0xC9D27AFE EQ PUSH2 0x177 JUMPI DUP1 PUSH4 0xCEBBB33E EQ PUSH2 0x193 JUMPI PUSH2 0x91 JUMP JUMPDEST DUP1 PUSH4 0x17BE85C3 EQ PUSH2 0x95 JUMPI DUP1 PUSH4 0x22FAE27D EQ PUSH2 0xB3 JUMPI DUP1 PUSH4 0x2DCC4387 EQ PUSH2 0xCF JUMPI DUP1 PUSH4 0x8DA5CB5B EQ PUSH2 0xEB JUMPI JUMPDEST PUSH0 DUP1 REVERT JUMPDEST PUSH2 0x9D PUSH2 0x1B1 JUMP JUMPDEST PUSH1 0x40 MLOAD PUSH2 0xAA SWAP2 SWAP1 PUSH2 0x1120 JUMP JUMPDEST PUSH1 0x40 MLOAD DUP1 SWAP2 SUB SWAP1 RETURN JUMPDEST PUSH2 0xCD PUSH1 0x4 DUP1 CALLDATASIZE SUB DUP2 ADD SWAP1 PUSH2 0xC8 SWAP2 SWAP1 PUSH2 0x1449 JUMP JUMPDEST PUSH2 0x40F JUMP JUMPDEST STOP JUMPDEST PUSH2 0xE9 PUSH1 0x4 DUP1 CALLDATASIZE SUB DUP2 ADD SWAP1 PUSH2 0xE4 SWAP2 SWAP1 PUSH2 0x14ED JUMP JUMPDEST PUSH2 0x510 JUMP JUMPDEST STOP JUMPDEST PUSH2 0xF3 PUSH2 0x5E1 JUMP JUMPDEST PUSH1 0x40 MLOAD PUSH2 0x100 SWAP2 SWAP1 PUSH2 0x1527 JUMP JUMPDEST PUSH1 0x40 MLOAD DUP1 SWAP2 SUB SWAP1 RETURN JUMPDEST PUSH2 0x111 PUSH2 0x606 JUMP JUMPDEST PUSH1 0x40 MLOAD PUSH2 0x11E SWAP2 SWAP1 PUSH2 0x154F JUMP JUMPDEST PUSH1 0x40 MLOAD DUP1 SWAP2 SUB SWAP1 RETURN JUMPDEST PUSH2 0x12F PUSH2 0x74F JUMP JUMPDEST PUSH1 0x40 MLOAD PUSH2 0x13C SWAP2 SWAP1 PUSH2 0x15C3 JUMP JUMPDEST PUSH1 0x40 MLOAD DUP1 SWAP2 SUB SWAP1 RETURN JUMPDEST PUSH2 0x15F PUSH1 0x4 DUP1 CALLDATASIZE SUB DUP2 ADD SWAP1 PUSH2 0x15A SWAP2 SWAP1 PUSH2 0x1606 JUMP JUMPDEST PUSH2 0x772 JUMP JUMPDEST PUSH1 0x40 MLOAD PUSH2 0x16E SWAP4 SWAP3 SWAP2 SWAP1 PUSH2 0x1679 JUMP JUMPDEST PUSH1 0x40 MLOAD DUP1 SWAP2 SUB SWAP1 RETURN JUMPDEST PUSH2 0x191 PUSH1 0x4 DUP1 CALLDATASIZE SUB DUP2 ADD SWAP1 PUSH2 0x18C SWAP2 SWAP1 PUSH2 0x16EA JUMP JUMPDEST PUSH2 0x82D JUMP JUMPDEST STOP JUMPDEST PUSH2 0x19B PUSH2 0xAF5 JUMP JUMPDEST PUSH1 0x40 MLOAD PUSH2 0x1A8 SWAP2 SWAP1 PUSH2 0x1737 JUMP JUMPDEST PUSH1 0x40 MLOAD DUP1 SWAP2 SUB SWAP1 RETURN JUMPDEST PUSH1 0x60 PUSH1 0x2 DUP1 SLOAD DUP1 PUSH1 0x20 MUL PUSH1 0x20 ADD PUSH1 0x40 MLOAD SWAP1 DUP2 ADD PUSH1 0x40 MSTORE DUP1 SWAP3 SWAP2 SWAP1 DUP2 DUP2 MSTORE PUSH1 0x20 ADD PUSH0 SWAP1 JUMPDEST DUP3 DUP3 LT ISZERO PUSH2 0x406 JUMPI DUP4 DUP3 SWAP1 PUSH0 MSTORE PUSH1 0x20 PUSH0 KECCAK256 SWAP1 PUSH1 0x5 MUL ADD PUSH1 0x40 MLOAD DUP1 PUSH1 0xA0 ADD PUSH1 0x40 MSTORE SWAP1 DUP2 PUSH0 DUP3 ADD DUP1 SLOAD PUSH2 0x204 SWAP1 PUSH2 0x177D JUMP JUMPDEST DUP1 PUSH1 0x1F ADD PUSH1 0x20 DUP1 SWAP2 DIV MUL PUSH1 0x20 ADD PUSH1 0x40 MLOAD SWAP1 DUP2 ADD PUSH1 0x40 MSTORE DUP1 SWAP3 SWAP2 SWAP1 DUP2 DUP2 MSTORE PUSH1 0x20 ADD DUP3 DUP1 SLOAD PUSH2 0x230 SWAP1 PUSH2 0x177D JUMP JUMPDEST DUP1 ISZERO PUSH2 0x27B JUMPI DUP1 PUSH1 0x1F LT PUSH2 0x252 JUMPI PUSH2 0x100 DUP1 DUP4 SLOAD DIV MUL DUP4 MSTORE SWAP2 PUSH1 0x20 ADD SWAP2 PUSH2 0x27B JUMP JUMPDEST DUP3 ADD SWAP2 SWAP1 PUSH0 MSTORE PUSH1 0x20 PUSH0 KECCAK256 SWAP1 JUMPDEST DUP2 SLOAD DUP2 MSTORE SWAP1 PUSH1 0x1 ADD SWAP1 PUSH1 0x20 ADD DUP1 DUP4 GT PUSH2 0x25E JUMPI DUP3 SWAP1 SUB PUSH1 0x1F AND DUP3 ADD SWAP2 JUMPDEST POP POP POP POP POP DUP2 MSTORE PUSH1 0x20 ADD PUSH1 0x1 DUP3 ADD DUP1 SLOAD DUP1 PUSH1 0x20 MUL PUSH1 0x20 ADD PUSH1 0x40 MLOAD SWAP1 DUP2 ADD PUSH1 0x40 MSTORE DUP1 SWAP3 SWAP2 SWAP1 DUP2 DUP2 MSTORE PUSH1 0x20 ADD PUSH0 SWAP1 JUMPDEST DUP3 DUP3 LT ISZERO PUSH2 0x350 JUMPI DUP4 DUP3 SWAP1 PUSH0 MSTORE PUSH1 0x20 PUSH0 KECCAK256 ADD DUP1 SLOAD PUSH2 0x2C5 SWAP1 PUSH2 0x177D JUMP JUMPDEST DUP1 PUSH1 0x1F ADD PUSH1 0x20 DUP1 SWAP2 DIV MUL PUSH1 0x20 ADD PUSH1 0x40 MLOAD SWAP1 DUP2 ADD PUSH1 0x40 MSTORE DUP1 SWAP3 SWAP2 SWAP1 DUP2 DUP2 MSTORE PUSH1 0x20 ADD DUP3 DUP1 SLOAD PUSH2 0x2F1 SWAP1 PUSH2 0x177D JUMP JUMPDEST DUP1 ISZERO PUSH2 0x33C JUMPI DUP1 PUSH1 0x1F LT PUSH2 0x313 JUMPI PUSH2 0x100 DUP1 DUP4 SLOAD DIV MUL DUP4 MSTORE SWAP2 PUSH1 0x20 ADD SWAP2 PUSH2 0x33C JUMP JUMPDEST DUP3 ADD SWAP2 SWAP1 PUSH0 MSTORE PUSH1 0x20 PUSH0 KECCAK256 SWAP1 JUMPDEST DUP2 SLOAD DUP2 MSTORE SWAP1 PUSH1 0x1 ADD SWAP1 PUSH1 0x20 ADD DUP1 DUP4 GT PUSH2 0x31F JUMPI DUP3 SWAP1 SUB PUSH1 0x1F AND DUP3 ADD SWAP2 JUMPDEST POP POP POP POP POP DUP2 MSTORE PUSH1 0x20 ADD SWAP1 PUSH1 0x1 ADD SWAP1 PUSH2 0x2A8 JUMP JUMPDEST POP POP POP POP DUP2 MSTORE PUSH1 0x20 ADD PUSH1 0x2 DUP3 ADD DUP1 SLOAD DUP1 PUSH1 0x20 MUL PUSH1 0x20 ADD PUSH1 0x40 MLOAD SWAP1 DUP2 ADD PUSH1 0x40 MSTORE DUP1 SWAP3 SWAP2 SWAP1 DUP2 DUP2 MSTORE PUSH1 0x20 ADD DUP3 DUP1 SLOAD DUP1 ISZERO PUSH2 0x3DA JUMPI PUSH1 0x20 MUL DUP3 ADD SWAP2 SWAP1 PUSH0 MSTORE PUSH1 0x20 PUSH0 KECCAK256 SWAP1 JUMPDEST DUP2 PUSH0 SWAP1 SLOAD SWAP1 PUSH2 0x100 EXP SWAP1 DIV PUSH20 0xFFFFFFFFFFFFFFFFFFFFFFFFFFFFFFFFFFFFFFFF AND PUSH20 0xFFFFFFFFFFFFFFFFFFFFFFFFFFFFFFFFFFFFFFFF AND DUP2 MSTORE PUSH1 0x20 ADD SWAP1 PUSH1 0x1 ADD SWAP1 DUP1 DUP4 GT PUSH2 0x391 JUMPI JUMPDEST POP POP POP POP POP DUP2 MSTORE PUSH1 0x20 ADD PUSH1 0x3 DUP3 ADD SLOAD DUP2 MSTORE PUSH1 0x20 ADD PUSH1 0x4 DUP3 ADD SLOAD DUP2 MSTORE POP POP DUP2 MSTORE PUSH1 0x20 ADD SWAP1 PUSH1 0x1 ADD SWAP1 PUSH2 0x1D4 JUMP JUMPDEST POP POP POP POP SWAP1 POP SWAP1 JUMP JUMPDEST PUSH2 0x418 DUP4 PUSH2 0xB03 JUMP JUMPDEST ISZERO PUSH2 0x458 JUMPI PUSH1 0x40 MLOAD PUSH32 0x8C379A000000000000000000000000000000000000000000000000000000000 DUP2 MSTORE PUSH1 0x4 ADD PUSH2 0x44F SWAP1 PUSH2 0x17F7 JUMP JUMPDEST PUSH1 0x40 MLOAD DUP1 SWAP2 SUB SWAP1 REVERT JUMPDEST PUSH1 0x2 PUSH1 0x40 MLOAD DUP1 PUSH1 0xA0 ADD PUSH1 0x40 MSTORE DUP1 DUP6 DUP2 MSTORE PUSH1 0x20 ADD DUP5 DUP2 MSTORE PUSH1 0x20 ADD DUP4 DUP2 MSTORE PUSH1 0x20 ADD PUSH0 DUP2 MSTORE PUSH1 0x20 ADD PUSH0 DUP2 MSTORE POP SWAP1 DUP1 PUSH1 0x1 DUP2 SLOAD ADD DUP1 DUP3 SSTORE DUP1 SWAP2 POP POP PUSH1 0x1 SWAP1 SUB SWAP1 PUSH0 MSTORE PUSH1 0x20 PUSH0 KECCAK256 SWAP1 PUSH1 0x5 MUL ADD PUSH0 SWAP1 SWAP2 SWAP1 SWAP2 SWAP1 SWAP2 POP PUSH0 DUP3 ADD MLOAD DUP2 PUSH0 ADD SWAP1 DUP2 PUSH2 0x4BA SWAP2 SWAP1 PUSH2 0x19A9 JUMP JUMPDEST POP PUSH1 0x20 DUP3 ADD MLOAD DUP2 PUSH1 0x1 ADD SWAP1 DUP1 MLOAD SWAP1 PUSH1 0x20 ADD SWAP1 PUSH2 0x4D7 SWAP3 SWAP2 SWAP1 PUSH2 0xB7E JUMP JUMPDEST POP PUSH1 0x40 DUP3 ADD MLOAD DUP2 PUSH1 0x2 ADD SWAP1 DUP1 MLOAD SWAP1 PUSH1 0x20 ADD SWAP1 PUSH2 0x4F4 SWAP3 SWAP2 SWAP1 PUSH2 0xBD5 JUMP JUMPDEST POP PUSH1 0x60 DUP3 ADD MLOAD DUP2 PUSH1 0x3 ADD SSTORE PUSH1 0x80 DUP3 ADD MLOAD DUP2 PUSH1 0x4 ADD SSTORE POP POP POP POP POP JUMP JUMPDEST PUSH1 0x1 PUSH0 SWAP1 SLOAD SWAP1 PUSH2 0x100 EXP SWAP1 DIV PUSH20 0xFFFFFFFFFFFFFFFFFFFFFFFFFFFFFFFFFFFFFFFF AND PUSH20 0xFFFFFFFFFFFFFFFFFFFFFFFFFFFFFFFFFFFFFFFF AND CALLER PUSH20 0xFFFFFFFFFFFFFFFFFFFFFFFFFFFFFFFFFFFFFFFF AND EQ PUSH2 0x59F JUMPI PUSH1 0x40 MLOAD PUSH32 0x8C379A000000000000000000000000000000000000000000000000000000000 DUP2 MSTORE PUSH1 0x4 ADD PUSH2 0x596 SWAP1 PUSH2 0x1AC2 JUMP JUMPDEST PUSH1 0x40 MLOAD DUP1 SWAP2 SUB SWAP1 REVERT JUMPDEST DUP1 PUSH0 DUP1 PUSH2 0x100 EXP DUP2 SLOAD DUP2 PUSH20 0xFFFFFFFFFFFFFFFFFFFFFFFFFFFFFFFFFFFFFFFF MUL NOT AND SWAP1 DUP4 PUSH20 0xFFFFFFFFFFFFFFFFFFFFFFFFFFFFFFFFFFFFFFFF AND MUL OR SWAP1 SSTORE POP POP JUMP JUMPDEST PUSH1 0x1 PUSH0 SWAP1 SLOAD SWAP1 PUSH2 0x100 EXP SWAP1 DIV PUSH20 0xFFFFFFFFFFFFFFFFFFFFFFFFFFFFFFFFFFFFFFFF AND DUP2 JUMP JUMPDEST PUSH0 DUP1 PUSH1 0x2 DUP1 SLOAD SWAP1 POP SUB PUSH2 0x61E JUMPI PUSH3 0x1869F SWAP1 POP PUSH2 0x74C JUMP JUMPDEST PUSH0 DUP1 PUSH1 0x2 PUSH0 DUP2 SLOAD DUP2 LT PUSH2 0x634 JUMPI PUSH2 0x633 PUSH2 0x1AE0 JUMP JUMPDEST JUMPDEST SWAP1 PUSH0 MSTORE PUSH1 0x20 PUSH0 KECCAK256 SWAP1 PUSH1 0x5 MUL ADD PUSH1 0x4 ADD SLOAD PUSH1 0x2 PUSH0 DUP2 SLOAD DUP2 LT PUSH2 0x658 JUMPI PUSH2 0x657 PUSH2 0x1AE0 JUMP JUMPDEST JUMPDEST SWAP1 PUSH0 MSTORE PUSH1 0x20 PUSH0 KECCAK256 SWAP1 PUSH1 0x5 MUL ADD PUSH1 0x3 ADD SLOAD PUSH2 0x672 SWAP2 SWAP1 PUSH2 0x1B3A JUMP JUMPDEST SWAP1 POP PUSH0 PUSH1 0x1 SWAP1 POP JUMPDEST PUSH1 0x2 DUP1 SLOAD SWAP1 POP DUP2 LT ISZERO PUSH2 0x745 JUMPI DUP2 PUSH1 0x2 DUP3 DUP2 SLOAD DUP2 LT PUSH2 0x69C JUMPI PUSH2 0x69B PUSH2 0x1AE0 JUMP JUMPDEST JUMPDEST SWAP1 PUSH0 MSTORE PUSH1 0x20 PUSH0 KECCAK256 SWAP1 PUSH1 0x5 MUL ADD PUSH1 0x4 ADD SLOAD PUSH1 0x2 DUP4 DUP2 SLOAD DUP2 LT PUSH2 0x6C0 JUMPI PUSH2 0x6BF PUSH2 0x1AE0 JUMP JUMPDEST JUMPDEST SWAP1 PUSH0 MSTORE PUSH1 0x20 PUSH0 KECCAK256 SWAP1 PUSH1 0x5 MUL ADD PUSH1 0x3 ADD SLOAD PUSH2 0x6DA SWAP2 SWAP1 PUSH2 0x1B3A JUMP JUMPDEST LT ISZERO PUSH2 0x738 JUMPI DUP1 SWAP3 POP PUSH1 0x2 DUP2 DUP2 SLOAD DUP2 LT PUSH2 0x6F7 JUMPI PUSH2 0x6F6 PUSH2 0x1AE0 JUMP JUMPDEST JUMPDEST SWAP1 PUSH0 MSTORE PUSH1 0x20 PUSH0 KECCAK256 SWAP1 PUSH1 0x5 MUL ADD PUSH1 0x4 ADD SLOAD PUSH1 0x2 DUP3 DUP2 SLOAD DUP2 LT PUSH2 0x71B JUMPI PUSH2 0x71A PUSH2 0x1AE0 JUMP JUMPDEST JUMPDEST SWAP1 PUSH0 MSTORE PUSH1 0x20 PUSH0 KECCAK256 SWAP1 PUSH1 0x5 MUL ADD PUSH1 0x3 ADD SLOAD PUSH2 0x735 SWAP2 SWAP1 PUSH2 0x1B3A JUMP JUMPDEST SWAP2 POP JUMPDEST DUP1 DUP1 PUSH1 0x1 ADD SWAP2 POP POP PUSH2 0x67A JUMP JUMPDEST POP DUP2 SWAP3 POP POP POP JUMPDEST SWAP1 JUMP JUMPDEST PUSH0 DUP1 SLOAD SWAP1 PUSH2 0x100 EXP SWAP1 DIV PUSH20 0xFFFFFFFFFFFFFFFFFFFFFFFFFFFFFFFFFFFFFFFF AND DUP2 JUMP JUMPDEST PUSH1 0x2 DUP2 DUP2 SLOAD DUP2 LT PUSH2 0x781 JUMPI PUSH0 DUP1 REVERT JUMPDEST SWAP1 PUSH0 MSTORE PUSH1 0x20 PUSH0 KECCAK256 SWAP1 PUSH1 0x5 MUL ADD PUSH0 SWAP2 POP SWAP1 POP DUP1 PUSH0 ADD DUP1 SLOAD PUSH2 0x7A0 SWAP1 PUSH2 0x177D JUMP JUMPDEST DUP1 PUSH1 0x1F ADD PUSH1 0x20 DUP1 SWAP2 DIV MUL PUSH1 0x20 ADD PUSH1 0x40 MLOAD SWAP1 DUP2 ADD PUSH1 0x40 MSTORE DUP1 SWAP3 SWAP2 SWAP1 DUP2 DUP2 MSTORE PUSH1 0x20 ADD DUP3 DUP1 SLOAD PUSH2 0x7CC SWAP1 PUSH2 0x177D JUMP JUMPDEST DUP1 ISZERO PUSH2 0x817 JUMPI DUP1 PUSH1 0x1F LT PUSH2 0x7EE JUMPI PUSH2 0x100 DUP1 DUP4 SLOAD DIV MUL DUP4 MSTORE SWAP2 PUSH1 0x20 ADD SWAP2 PUSH2 0x817 JUMP JUMPDEST DUP3 ADD SWAP2 SWAP1 PUSH0 MSTORE PUSH1 0x20 PUSH0 KECCAK256 SWAP1 JUMPDEST DUP2 SLOAD DUP2 MSTORE SWAP1 PUSH1 0x1 ADD SWAP1 PUSH1 0x20 ADD DUP1 DUP4 GT PUSH2 0x7FA JUMPI DUP3 SWAP1 SUB PUSH1 0x1F AND DUP3 ADD SWAP2 JUMPDEST POP POP POP POP POP SWAP1 DUP1 PUSH1 0x3 ADD SLOAD SWAP1 DUP1 PUSH1 0x4 ADD SLOAD SWAP1 POP DUP4 JUMP JUMPDEST DUP2 PUSH1 0x2 DUP1 SLOAD SWAP1 POP GT PUSH2 0x874 JUMPI PUSH1 0x40 MLOAD PUSH32 0x8C379A000000000000000000000000000000000000000000000000000000000 DUP2 MSTORE PUSH1 0x4 ADD PUSH2 0x86B SWAP1 PUSH2 0x1BB7 JUMP JUMPDEST PUSH1 0x40 MLOAD DUP1 SWAP2 SUB SWAP1 REVERT JUMPDEST PUSH0 PUSH1 0x2 DUP4 DUP2 SLOAD DUP2 LT PUSH2 0x889 JUMPI PUSH2 0x888 PUSH2 0x1AE0 JUMP JUMPDEST JUMPDEST SWAP1 PUSH0 MSTORE PUSH1 0x20 PUSH0 KECCAK256 SWAP1 PUSH1 0x5 MUL ADD SWAP1 POP DUP2 ISZERO PUSH2 0x8BB JUMPI DUP1 PUSH1 0x3 ADD PUSH0 DUP2 SLOAD DUP1 SWAP3 SWAP2 SWAP1 PUSH2 0x8B1 SWAP1 PUSH2 0x1BD5 JUMP JUMPDEST SWAP2 SWAP1 POP SSTORE POP PUSH2 0x8D5 JUMP JUMPDEST DUP1 PUSH1 0x4 ADD PUSH0 DUP2 SLOAD DUP1 SWAP3 SWAP2 SWAP1 PUSH2 0x8CF SWAP1 PUSH2 0x1BD5 JUMP JUMPDEST SWAP2 SWAP1 POP SSTORE POP JUMPDEST PUSH1 0x5 DUP2 PUSH1 0x4 ADD SLOAD DUP3 PUSH1 0x3 ADD SLOAD PUSH2 0x8EB SWAP2 SWAP1 PUSH2 0x1B3A JUMP JUMPDEST SUB PUSH2 0xAF0 JUMPI PUSH0 PUSH1 0x1 PUSH1 0x2 DUP1 SLOAD SWAP1 POP PUSH2 0x903 SWAP2 SWAP1 PUSH2 0x1C1C JUMP JUMPDEST SWAP1 POP PUSH0 DUP1 SLOAD SWAP1 PUSH2 0x100 EXP SWAP1 DIV PUSH20 0xFFFFFFFFFFFFFFFFFFFFFFFFFFFFFFFFFFFFFFFF AND PUSH20 0xFFFFFFFFFFFFFFFFFFFFFFFFFFFFFFFFFFFFFFFF AND PUSH4 0xFD3CBF95 PUSH1 0x2 DUP7 DUP2 SLOAD DUP2 LT PUSH2 0x954 JUMPI PUSH2 0x953 PUSH2 0x1AE0 JUMP JUMPDEST JUMPDEST SWAP1 PUSH0 MSTORE PUSH1 0x20 PUSH0 KECCAK256 SWAP1 PUSH1 0x5 MUL ADD PUSH0 ADD PUSH1 0x2 DUP8 DUP2 SLOAD DUP2 LT PUSH2 0x976 JUMPI PUSH2 0x975 PUSH2 0x1AE0 JUMP JUMPDEST JUMPDEST SWAP1 PUSH0 MSTORE PUSH1 0x20 PUSH0 KECCAK256 SWAP1 PUSH1 0x5 MUL ADD PUSH1 0x1 ADD PUSH1 0x2 DUP9 DUP2 SLOAD DUP2 LT PUSH2 0x999 JUMPI PUSH2 0x998 PUSH2 0x1AE0 JUMP JUMPDEST JUMPDEST SWAP1 PUSH0 MSTORE PUSH1 0x20 PUSH0 KECCAK256 SWAP1 PUSH1 0x5 MUL ADD PUSH1 0x2 ADD PUSH1 0x40 MLOAD DUP5 PUSH4 0xFFFFFFFF AND PUSH1 0xE0 SHL DUP2 MSTORE PUSH1 0x4 ADD PUSH2 0x9C6 SWAP4 SWAP3 SWAP2 SWAP1 PUSH2 0x1EFE JUMP JUMPDEST PUSH0 PUSH1 0x40 MLOAD DUP1 DUP4 SUB DUP2 PUSH0 DUP8 DUP1 EXTCODESIZE ISZERO DUP1 ISZERO PUSH2 0x9DD JUMPI PUSH0 DUP1 REVERT JUMPDEST POP GAS CALL ISZERO DUP1 ISZERO PUSH2 0x9EF JUMPI RETURNDATASIZE PUSH0 DUP1 RETURNDATACOPY RETURNDATASIZE PUSH0 REVERT JUMPDEST POP POP POP POP PUSH1 0x2 DUP2 DUP2 SLOAD DUP2 LT PUSH2 0xA07 JUMPI PUSH2 0xA06 PUSH2 0x1AE0 JUMP JUMPDEST JUMPDEST SWAP1 PUSH0 MSTORE PUSH1 0x20 PUSH0 KECCAK256 SWAP1 PUSH1 0x5 MUL ADD PUSH1 0x2 DUP6 DUP2 SLOAD DUP2 LT PUSH2 0xA27 JUMPI PUSH2 0xA26 PUSH2 0x1AE0 JUMP JUMPDEST JUMPDEST SWAP1 PUSH0 MSTORE PUSH1 0x20 PUSH0 KECCAK256 SWAP1 PUSH1 0x5 MUL ADD PUSH0 DUP3 ADD DUP2 PUSH0 ADD SWAP1 DUP2 PUSH2 0xA45 SWAP2 SWAP1 PUSH2 0x1F5D JUMP JUMPDEST POP PUSH1 0x1 DUP3 ADD DUP2 PUSH1 0x1 ADD SWAP1 DUP1 SLOAD PUSH2 0xA5C SWAP3 SWAP2 SWAP1 PUSH2 0xC5C JUMP JUMPDEST POP PUSH1 0x2 DUP3 ADD DUP2 PUSH1 0x2 ADD SWAP1 DUP1 SLOAD PUSH2 0xA73 SWAP3 SWAP2 SWAP1 PUSH2 0xCB5 JUMP JUMPDEST POP PUSH1 0x3 DUP3 ADD SLOAD DUP2 PUSH1 0x3 ADD SSTORE PUSH1 0x4 DUP3 ADD SLOAD DUP2 PUSH1 0x4 ADD SSTORE SWAP1 POP POP PUSH1 0x2 DUP1 SLOAD DUP1 PUSH2 0xA9D JUMPI PUSH2 0xA9C PUSH2 0x2042 JUMP JUMPDEST JUMPDEST PUSH1 0x1 SWAP1 SUB DUP2 DUP2 SWAP1 PUSH0 MSTORE PUSH1 0x20 PUSH0 KECCAK256 SWAP1 PUSH1 0x5 MUL ADD PUSH0 DUP1 DUP3 ADD PUSH0 PUSH2 0xABE SWAP2 SWAP1 PUSH2 0xD03 JUMP JUMPDEST PUSH1 0x1 DUP3 ADD PUSH0 PUSH2 0xACD SWAP2 SWAP1 PUSH2 0xD40 JUMP JUMPDEST PUSH1 0x2 DUP3 ADD PUSH0 PUSH2 0xADC SWAP2 SWAP1 PUSH2 0xD5E JUMP JUMPDEST PUSH1 0x3 DUP3 ADD PUSH0 SWAP1 SSTORE PUSH1 0x4 DUP3 ADD PUSH0 SWAP1 SSTORE POP POP SWAP1 SSTORE POP JUMPDEST POP POP POP JUMP JUMPDEST PUSH0 DUP1 PUSH1 0x2 DUP1 SLOAD SWAP1 POP GT SWAP1 POP SWAP1 JUMP JUMPDEST PUSH0 DUP1 DUP3 SWAP1 POP PUSH0 JUMPDEST PUSH1 0x2 DUP1 SLOAD SWAP1 POP DUP2 LT ISZERO PUSH2 0xB73 JUMPI DUP2 DUP1 MLOAD SWAP1 PUSH1 0x20 ADD KECCAK256 PUSH1 0x2 DUP3 DUP2 SLOAD DUP2 LT PUSH2 0xB33 JUMPI PUSH2 0xB32 PUSH2 0x1AE0 JUMP JUMPDEST JUMPDEST SWAP1 PUSH0 MSTORE PUSH1 0x20 PUSH0 KECCAK256 SWAP1 PUSH1 0x5 MUL ADD PUSH0 ADD PUSH1 0x40 MLOAD PUSH2 0xB4E SWAP2 SWAP1 PUSH2 0x210B JUMP JUMPDEST PUSH1 0x40 MLOAD DUP1 SWAP2 SUB SWAP1 KECCAK256 SUB PUSH2 0xB66 JUMPI PUSH1 0x1 SWAP3 POP POP POP PUSH2 0xB79 JUMP JUMPDEST DUP1 DUP1 PUSH1 0x1 ADD SWAP2 POP POP PUSH2 0xB0A JUMP JUMPDEST POP PUSH0 SWAP2 POP POP JUMPDEST SWAP2 SWAP1 POP JUMP JUMPDEST DUP3 DUP1 SLOAD DUP3 DUP3 SSTORE SWAP1 PUSH0 MSTORE PUSH1 0x20 PUSH0 KECCAK256 SWAP1 DUP2 ADD SWAP3 DUP3 ISZERO PUSH2 0xBC4 JUMPI SWAP2 PUSH1 0x20 MUL DUP3 ADD JUMPDEST DUP3 DUP2 GT ISZERO PUSH2 0xBC3 JUMPI DUP3 MLOAD DUP3 SWAP1 DUP2 PUSH2 0xBB3 SWAP2 SWAP1 PUSH2 0x19A9 JUMP JUMPDEST POP SWAP2 PUSH1 0x20 ADD SWAP2 SWAP1 PUSH1 0x1 ADD SWAP1 PUSH2 0xB9C JUMP JUMPDEST JUMPDEST POP SWAP1 POP PUSH2 0xBD1 SWAP2 SWAP1 PUSH2 0xD7C JUMP JUMPDEST POP SWAP1 JUMP JUMPDEST DUP3 DUP1 SLOAD DUP3 DUP3 SSTORE SWAP1 PUSH0 MSTORE PUSH1 0x20 PUSH0 KECCAK256 SWAP1 DUP2 ADD SWAP3 DUP3 ISZERO PUSH2 0xC4B JUMPI SWAP2 PUSH1 0x20 MUL DUP3 ADD JUMPDEST DUP3 DUP2 GT ISZERO PUSH2 0xC4A JUMPI DUP3 MLOAD DUP3 PUSH0 PUSH2 0x100 EXP DUP2 SLOAD DUP2 PUSH20 0xFFFFFFFFFFFFFFFFFFFFFFFFFFFFFFFFFFFFFFFF MUL NOT AND SWAP1 DUP4 PUSH20 0xFFFFFFFFFFFFFFFFFFFFFFFFFFFFFFFFFFFFFFFF AND MUL OR SWAP1 SSTORE POP SWAP2 PUSH1 0x20 ADD SWAP2 SWAP1 PUSH1 0x1 ADD SWAP1 PUSH2 0xBF3 JUMP JUMPDEST JUMPDEST POP SWAP1 POP PUSH2 0xC58 SWAP2 SWAP1 PUSH2 0xD9F JUMP JUMPDEST POP SWAP1 JUMP JUMPDEST DUP3 DUP1 SLOAD DUP3 DUP3 SSTORE SWAP1 PUSH0 MSTORE PUSH1 0x20 PUSH0 KECCAK256 SWAP1 DUP2 ADD SWAP3 DUP3 ISZERO PUSH2 0xCA4 JUMPI PUSH0 MSTORE PUSH1 0x20 PUSH0 KECCAK256 SWAP2 DUP3 ADD JUMPDEST DUP3 DUP2 GT ISZERO PUSH2 0xCA3 JUMPI DUP3 DUP3 SWAP1 DUP2 PUSH2 0xC93 SWAP2 SWAP1 PUSH2 0x1F5D JUMP JUMPDEST POP SWAP2 PUSH1 0x1 ADD SWAP2 SWAP1 PUSH1 0x1 ADD SWAP1 PUSH2 0xC7D JUMP JUMPDEST JUMPDEST POP SWAP1 POP PUSH2 0xCB1 SWAP2 SWAP1 PUSH2 0xD7C JUMP JUMPDEST POP SWAP1 JUMP JUMPDEST DUP3 DUP1 SLOAD DUP3 DUP3 SSTORE SWAP1 PUSH0 MSTORE PUSH1 0x20 PUSH0 KECCAK256 SWAP1 DUP2 ADD SWAP3 DUP3 ISZERO PUSH2 0xCF2 JUMPI PUSH0 MSTORE PUSH1 0x20 PUSH0 KECCAK256 SWAP2 DUP3 ADD JUMPDEST DUP3 DUP2 GT ISZERO PUSH2 0xCF1 JUMPI DUP3 SLOAD DUP3 SSTORE SWAP2 PUSH1 0x1 ADD SWAP2 SWAP1 PUSH1 0x1 ADD SWAP1 PUSH2 0xCD6 JUMP JUMPDEST JUMPDEST POP SWAP1 POP PUSH2 0xCFF SWAP2 SWAP1 PUSH2 0xD9F JUMP JUMPDEST POP SWAP1 JUMP JUMPDEST POP DUP1 SLOAD PUSH2 0xD0F SWAP1 PUSH2 0x177D JUMP JUMPDEST PUSH0 DUP3 SSTORE DUP1 PUSH1 0x1F LT PUSH2 0xD20 JUMPI POP PUSH2 0xD3D JUMP JUMPDEST PUSH1 0x1F ADD PUSH1 0x20 SWAP1 DIV SWAP1 PUSH0 MSTORE PUSH1 0x20 PUSH0 KECCAK256 SWAP1 DUP2 ADD SWAP1 PUSH2 0xD3C SWAP2 SWAP1 PUSH2 0xD9F JUMP JUMPDEST JUMPDEST POP JUMP JUMPDEST POP DUP1 SLOAD PUSH0 DUP3 SSTORE SWAP1 PUSH0 MSTORE PUSH1 0x20 PUSH0 KECCAK256 SWAP1 DUP2 ADD SWAP1 PUSH2 0xD5B SWAP2 SWAP1 PUSH2 0xD7C JUMP JUMPDEST POP JUMP JUMPDEST POP DUP1 SLOAD PUSH0 DUP3 SSTORE SWAP1 PUSH0 MSTORE PUSH1 0x20 PUSH0 KECCAK256 SWAP1 DUP2 ADD SWAP1 PUSH2 0xD79 SWAP2 SWAP1 PUSH2 0xD9F JUMP JUMPDEST POP JUMP JUMPDEST JUMPDEST DUP1 DUP3 GT ISZERO PUSH2 0xD9B JUMPI PUSH0 DUP2 DUP2 PUSH2 0xD92 SWAP2 SWAP1 PUSH2 0xD03 JUMP JUMPDEST POP PUSH1 0x1 ADD PUSH2 0xD7D JUMP JUMPDEST POP SWAP1 JUMP JUMPDEST JUMPDEST DUP1 DUP3 GT ISZERO PUSH2 0xDB6 JUMPI PUSH0 DUP2 PUSH0 SWAP1 SSTORE POP PUSH1 0x1 ADD PUSH2 0xDA0 JUMP JUMPDEST POP SWAP1 JUMP JUMPDEST PUSH0 DUP2 MLOAD SWAP1 POP SWAP2 SWAP1 POP JUMP JUMPDEST PUSH0 DUP3 DUP3 MSTORE PUSH1 0x20 DUP3 ADD SWAP1 POP SWAP3 SWAP2 POP POP JUMP JUMPDEST PUSH0 DUP2 SWAP1 POP PUSH1 0x20 DUP3 ADD SWAP1 POP SWAP2 SWAP1 POP JUMP JUMPDEST PUSH0 DUP2 MLOAD SWAP1 POP SWAP2 SWAP1 POP JUMP JUMPDEST PUSH0 DUP3 DUP3 MSTORE PUSH1 0x20 DUP3 ADD SWAP1 POP SWAP3 SWAP2 POP POP JUMP JUMPDEST DUP3 DUP2 DUP4 MCOPY PUSH0 DUP4 DUP4 ADD MSTORE POP POP POP JUMP JUMPDEST PUSH0 PUSH1 0x1F NOT PUSH1 0x1F DUP4 ADD AND SWAP1 POP SWAP2 SWAP1 POP JUMP JUMPDEST PUSH0 PUSH2 0xE25 DUP3 PUSH2 0xDE3 JUMP JUMPDEST PUSH2 0xE2F DUP2 DUP6 PUSH2 0xDED JUMP JUMPDEST SWAP4 POP PUSH2 0xE3F DUP2 DUP6 PUSH1 0x20 DUP7 ADD PUSH2 0xDFD JUMP JUMPDEST PUSH2 0xE48 DUP2 PUSH2 0xE0B JUMP JUMPDEST DUP5 ADD SWAP2 POP POP SWAP3 SWAP2 POP POP JUMP JUMPDEST PUSH0 DUP2 MLOAD SWAP1 POP SWAP2 SWAP1 POP JUMP JUMPDEST PUSH0 DUP3 DUP3 MSTORE PUSH1 0x20 DUP3 ADD SWAP1 POP SWAP3 SWAP2 POP POP JUMP JUMPDEST PUSH0 DUP2 SWAP1 POP PUSH1 0x20 DUP3 ADD SWAP1 POP SWAP2 SWAP1 POP JUMP JUMPDEST PUSH0 PUSH2 0xE87 DUP4 DUP4 PUSH2 0xE1B JUMP JUMPDEST SWAP1 POP SWAP3 SWAP2 POP POP JUMP JUMPDEST PUSH0 PUSH1 0x20 DUP3 ADD SWAP1 POP SWAP2 SWAP1 POP JUMP JUMPDEST PUSH0 PUSH2 0xEA5 DUP3 PUSH2 0xE53 JUMP JUMPDEST PUSH2 0xEAF DUP2 DUP6 PUSH2 0xE5D JUMP JUMPDEST SWAP4 POP DUP4 PUSH1 0x20 DUP3 MUL DUP6 ADD PUSH2 0xEC1 DUP6 PUSH2 0xE6D JUMP JUMPDEST DUP1 PUSH0 JUMPDEST DUP6 DUP2 LT ISZERO PUSH2 0xEFC JUMPI DUP5 DUP5 SUB DUP10 MSTORE DUP2 MLOAD PUSH2 0xEDD DUP6 DUP3 PUSH2 0xE7C JUMP JUMPDEST SWAP5 POP PUSH2 0xEE8 DUP4 PUSH2 0xE8F JUMP JUMPDEST SWAP3 POP PUSH1 0x20 DUP11 ADD SWAP10 POP POP PUSH1 0x1 DUP2 ADD SWAP1 POP PUSH2 0xEC4 JUMP JUMPDEST POP DUP3 SWAP8 POP DUP8 SWAP6 POP POP POP POP POP POP SWAP3 SWAP2 POP POP JUMP JUMPDEST PUSH0 DUP2 MLOAD SWAP1 POP SWAP2 SWAP1 POP JUMP JUMPDEST PUSH0 DUP3 DUP3 MSTORE PUSH1 0x20 DUP3 ADD SWAP1 POP SWAP3 SWAP2 POP POP JUMP JUMPDEST PUSH0 DUP2 SWAP1 POP PUSH1 0x20 DUP3 ADD SWAP1 POP SWAP2 SWAP1 POP JUMP JUMPDEST PUSH0 PUSH20 0xFFFFFFFFFFFFFFFFFFFFFFFFFFFFFFFFFFFFFFFF DUP3 AND SWAP1 POP SWAP2 SWAP1 POP JUMP JUMPDEST PUSH0 PUSH2 0xF60 DUP3 PUSH2 0xF37 JUMP JUMPDEST SWAP1 POP SWAP2 SWAP1 POP JUMP JUMPDEST PUSH2 0xF70 DUP2 PUSH2 0xF56 JUMP JUMPDEST DUP3 MSTORE POP POP JUMP JUMPDEST PUSH0 PUSH2 0xF81 DUP4 DUP4 PUSH2 0xF67 JUMP JUMPDEST PUSH1 0x20 DUP4 ADD SWAP1 POP SWAP3 SWAP2 POP POP JUMP JUMPDEST PUSH0 PUSH1 0x20 DUP3 ADD SWAP1 POP SWAP2 SWAP1 POP JUMP JUMPDEST PUSH0 PUSH2 0xFA3 DUP3 PUSH2 0xF0E JUMP JUMPDEST PUSH2 0xFAD DUP2 DUP6 PUSH2 0xF18 JUMP JUMPDEST SWAP4 POP PUSH2 0xFB8 DUP4 PUSH2 0xF28 JUMP JUMPDEST DUP1 PUSH0 JUMPDEST DUP4 DUP2 LT ISZERO PUSH2 0xFE8 JUMPI DUP2 MLOAD PUSH2 0xFCF DUP9 DUP3 PUSH2 0xF76 JUMP JUMPDEST SWAP8 POP PUSH2 0xFDA DUP4 PUSH2 0xF8D JUMP JUMPDEST SWAP3 POP POP PUSH1 0x1 DUP2 ADD SWAP1 POP PUSH2 0xFBB JUMP JUMPDEST POP DUP6 SWAP4 POP POP POP POP SWAP3 SWAP2 POP POP JUMP JUMPDEST PUSH0 DUP2 SWAP1 POP SWAP2 SWAP1 POP JUMP JUMPDEST PUSH2 0x1007 DUP2 PUSH2 0xFF5 JUMP JUMPDEST DUP3 MSTORE POP POP JUMP JUMPDEST PUSH0 PUSH1 0xA0 DUP4 ADD PUSH0 DUP4 ADD MLOAD DUP5 DUP3 SUB PUSH0 DUP7 ADD MSTORE PUSH2 0x1027 DUP3 DUP3 PUSH2 0xE1B JUMP JUMPDEST SWAP2 POP POP PUSH1 0x20 DUP4 ADD MLOAD DUP5 DUP3 SUB PUSH1 0x20 DUP7 ADD MSTORE PUSH2 0x1041 DUP3 DUP3 PUSH2 0xE9B JUMP JUMPDEST SWAP2 POP POP PUSH1 0x40 DUP4 ADD MLOAD DUP5 DUP3 SUB PUSH1 0x40 DUP7 ADD MSTORE PUSH2 0x105B DUP3 DUP3 PUSH2 0xF99 JUMP JUMPDEST SWAP2 POP POP PUSH1 0x60 DUP4 ADD MLOAD PUSH2 0x1070 PUSH1 0x60 DUP7 ADD DUP3 PUSH2 0xFFE JUMP JUMPDEST POP PUSH1 0x80 DUP4 ADD MLOAD PUSH2 0x1083 PUSH1 0x80 DUP7 ADD DUP3 PUSH2 0xFFE JUMP JUMPDEST POP DUP1 SWAP2 POP POP SWAP3 SWAP2 POP POP JUMP JUMPDEST PUSH0 PUSH2 0x1099 DUP4 DUP4 PUSH2 0x100D JUMP JUMPDEST SWAP1 POP SWAP3 SWAP2 POP POP JUMP JUMPDEST PUSH0 PUSH1 0x20 DUP3 ADD SWAP1 POP SWAP2 SWAP1 POP JUMP JUMPDEST PUSH0 PUSH2 0x10B7 DUP3 PUSH2 0xDBA JUMP JUMPDEST PUSH2 0x10C1 DUP2 DUP6 PUSH2 0xDC4 JUMP JUMPDEST SWAP4 POP DUP4 PUSH1 0x20 DUP3 MUL DUP6 ADD PUSH2 0x10D3 DUP6 PUSH2 0xDD4 JUMP JUMPDEST DUP1 PUSH0 JUMPDEST DUP6 DUP2 LT ISZERO PUSH2 0x110E JUMPI DUP5 DUP5 SUB DUP10 MSTORE DUP2 MLOAD PUSH2 0x10EF DUP6 DUP3 PUSH2 0x108E JUMP JUMPDEST SWAP5 POP PUSH2 0x10FA DUP4 PUSH2 0x10A1 JUMP JUMPDEST SWAP3 POP PUSH1 0x20 DUP11 ADD SWAP10 POP POP PUSH1 0x1 DUP2 ADD SWAP1 POP PUSH2 0x10D6 JUMP JUMPDEST POP DUP3 SWAP8 POP DUP8 SWAP6 POP POP POP POP POP POP SWAP3 SWAP2 POP POP JUMP JUMPDEST PUSH0 PUSH1 0x20 DUP3 ADD SWAP1 POP DUP2 DUP2 SUB PUSH0 DUP4 ADD MSTORE PUSH2 0x1138 DUP2 DUP5 PUSH2 0x10AD JUMP JUMPDEST SWAP1 POP SWAP3 SWAP2 POP POP JUMP JUMPDEST PUSH0 PUSH1 0x40 MLOAD SWAP1 POP SWAP1 JUMP JUMPDEST PUSH0 DUP1 REVERT JUMPDEST PUSH0 DUP1 REVERT JUMPDEST PUSH0 DUP1 REVERT JUMPDEST PUSH0 DUP1 REVERT JUMPDEST PUSH32 0x4E487B7100000000000000000000000000000000000000000000000000000000 PUSH0 MSTORE PUSH1 0x41 PUSH1 0x4 MSTORE PUSH1 0x24 PUSH0 REVERT JUMPDEST PUSH2 0x118F DUP3 PUSH2 0xE0B JUMP JUMPDEST DUP2 ADD DUP2 DUP2 LT PUSH8 0xFFFFFFFFFFFFFFFF DUP3 GT OR ISZERO PUSH2 0x11AE JUMPI PUSH2 0x11AD PUSH2 0x1159 JUMP JUMPDEST JUMPDEST DUP1 PUSH1 0x40 MSTORE POP POP POP JUMP JUMPDEST PUSH0 PUSH2 0x11C0 PUSH2 0x1140 JUMP JUMPDEST SWAP1 POP PUSH2 0x11CC DUP3 DUP3 PUSH2 0x1186 JUMP JUMPDEST SWAP2 SWAP1 POP JUMP JUMPDEST PUSH0 PUSH8 0xFFFFFFFFFFFFFFFF DUP3 GT ISZERO PUSH2 0x11EB JUMPI PUSH2 0x11EA PUSH2 0x1159 JUMP JUMPDEST JUMPDEST PUSH2 0x11F4 DUP3 PUSH2 0xE0B JUMP JUMPDEST SWAP1 POP PUSH1 0x20 DUP2 ADD SWAP1 POP SWAP2 SWAP1 POP JUMP JUMPDEST DUP3 DUP2 DUP4 CALLDATACOPY PUSH0 DUP4 DUP4 ADD MSTORE POP POP POP JUMP JUMPDEST PUSH0 PUSH2 0x1221 PUSH2 0x121C DUP5 PUSH2 0x11D1 JUMP JUMPDEST PUSH2 0x11B7 JUMP JUMPDEST SWAP1 POP DUP3 DUP2 MSTORE PUSH1 0x20 DUP2 ADD DUP5 DUP5 DUP5 ADD GT ISZERO PUSH2 0x123D JUMPI PUSH2 0x123C PUSH2 0x1155 JUMP JUMPDEST JUMPDEST PUSH2 0x1248 DUP5 DUP3 DUP6 PUSH2 0x1201 JUMP JUMPDEST POP SWAP4 SWAP3 POP POP POP JUMP JUMPDEST PUSH0 DUP3 PUSH1 0x1F DUP4 ADD SLT PUSH2 0x1264 JUMPI PUSH2 0x1263 PUSH2 0x1151 JUMP JUMPDEST JUMPDEST DUP2 CALLDATALOAD PUSH2 0x1274 DUP5 DUP3 PUSH1 0x20 DUP7 ADD PUSH2 0x120F JUMP JUMPDEST SWAP2 POP POP SWAP3 SWAP2 POP POP JUMP JUMPDEST PUSH0 PUSH8 0xFFFFFFFFFFFFFFFF DUP3 GT ISZERO PUSH2 0x1297 JUMPI PUSH2 0x1296 PUSH2 0x1159 JUMP JUMPDEST JUMPDEST PUSH1 0x20 DUP3 MUL SWAP1 POP PUSH1 0x20 DUP2 ADD SWAP1 POP SWAP2 SWAP1 POP JUMP JUMPDEST PUSH0 DUP1 REVERT JUMPDEST PUSH0 PUSH2 0x12BE PUSH2 0x12B9 DUP5 PUSH2 0x127D JUMP JUMPDEST PUSH2 0x11B7 JUMP JUMPDEST SWAP1 POP DUP1 DUP4 DUP3 MSTORE PUSH1 0x20 DUP3 ADD SWAP1 POP PUSH1 0x20 DUP5 MUL DUP4 ADD DUP6 DUP2 GT ISZERO PUSH2 0x12E1 JUMPI PUSH2 0x12E0 PUSH2 0x12A8 JUMP JUMPDEST JUMPDEST DUP4 JUMPDEST DUP2 DUP2 LT ISZERO PUSH2 0x1328 JUMPI DUP1 CALLDATALOAD PUSH8 0xFFFFFFFFFFFFFFFF DUP2 GT ISZERO PUSH2 0x1306 JUMPI PUSH2 0x1305 PUSH2 0x1151 JUMP JUMPDEST JUMPDEST DUP1 DUP7 ADD PUSH2 0x1313 DUP10 DUP3 PUSH2 0x1250 JUMP JUMPDEST DUP6 MSTORE PUSH1 0x20 DUP6 ADD SWAP5 POP POP POP PUSH1 0x20 DUP2 ADD SWAP1 POP PUSH2 0x12E3 JUMP JUMPDEST POP POP POP SWAP4 SWAP3 POP POP POP JUMP JUMPDEST PUSH0 DUP3 PUSH1 0x1F DUP4 ADD SLT PUSH2 0x1346 JUMPI PUSH2 0x1345 PUSH2 0x1151 JUMP JUMPDEST JUMPDEST DUP2 CALLDATALOAD PUSH2 0x1356 DUP5 DUP3 PUSH1 0x20 DUP7 ADD PUSH2 0x12AC JUMP JUMPDEST SWAP2 POP POP SWAP3 SWAP2 POP POP JUMP JUMPDEST PUSH0 PUSH8 0xFFFFFFFFFFFFFFFF DUP3 GT ISZERO PUSH2 0x1379 JUMPI PUSH2 0x1378 PUSH2 0x1159 JUMP JUMPDEST JUMPDEST PUSH1 0x20 DUP3 MUL SWAP1 POP PUSH1 0x20 DUP2 ADD SWAP1 POP SWAP2 SWAP1 POP JUMP JUMPDEST PUSH2 0x1393 DUP2 PUSH2 0xF56 JUMP JUMPDEST DUP2 EQ PUSH2 0x139D JUMPI PUSH0 DUP1 REVERT JUMPDEST POP JUMP JUMPDEST PUSH0 DUP2 CALLDATALOAD SWAP1 POP PUSH2 0x13AE DUP2 PUSH2 0x138A JUMP JUMPDEST SWAP3 SWAP2 POP POP JUMP JUMPDEST PUSH0 PUSH2 0x13C6 PUSH2 0x13C1 DUP5 PUSH2 0x135F JUMP JUMPDEST PUSH2 0x11B7 JUMP JUMPDEST SWAP1 POP DUP1 DUP4 DUP3 MSTORE PUSH1 0x20 DUP3 ADD SWAP1 POP PUSH1 0x20 DUP5 MUL DUP4 ADD DUP6 DUP2 GT ISZERO PUSH2 0x13E9 JUMPI PUSH2 0x13E8 PUSH2 0x12A8 JUMP JUMPDEST JUMPDEST DUP4 JUMPDEST DUP2 DUP2 LT ISZERO PUSH2 0x1412 JUMPI DUP1 PUSH2 0x13FE DUP9 DUP3 PUSH2 0x13A0 JUMP JUMPDEST DUP5 MSTORE PUSH1 0x20 DUP5 ADD SWAP4 POP POP PUSH1 0x20 DUP2 ADD SWAP1 POP PUSH2 0x13EB JUMP JUMPDEST POP POP POP SWAP4 SWAP3 POP POP POP JUMP JUMPDEST PUSH0 DUP3 PUSH1 0x1F DUP4 ADD SLT PUSH2 0x1430 JUMPI PUSH2 0x142F PUSH2 0x1151 JUMP JUMPDEST JUMPDEST DUP2 CALLDATALOAD PUSH2 0x1440 DUP5 DUP3 PUSH1 0x20 DUP7 ADD PUSH2 0x13B4 JUMP JUMPDEST SWAP2 POP POP SWAP3 SWAP2 POP POP JUMP JUMPDEST PUSH0 DUP1 PUSH0 PUSH1 0x60 DUP5 DUP7 SUB SLT ISZERO PUSH2 0x1460 JUMPI PUSH2 0x145F PUSH2 0x1149 JUMP JUMPDEST JUMPDEST PUSH0 DUP5 ADD CALLDATALOAD PUSH8 0xFFFFFFFFFFFFFFFF DUP2 GT ISZERO PUSH2 0x147D JUMPI PUSH2 0x147C PUSH2 0x114D JUMP JUMPDEST JUMPDEST PUSH2 0x1489 DUP7 DUP3 DUP8 ADD PUSH2 0x1250 JUMP JUMPDEST SWAP4 POP POP PUSH1 0x20 DUP5 ADD CALLDATALOAD PUSH8 0xFFFFFFFFFFFFFFFF DUP2 GT ISZERO PUSH2 0x14AA JUMPI PUSH2 0x14A9 PUSH2 0x114D JUMP JUMPDEST JUMPDEST PUSH2 0x14B6 DUP7 DUP3 DUP8 ADD PUSH2 0x1332 JUMP JUMPDEST SWAP3 POP POP PUSH1 0x40 DUP5 ADD CALLDATALOAD PUSH8 0xFFFFFFFFFFFFFFFF DUP2 GT ISZERO PUSH2 0x14D7 JUMPI PUSH2 0x14D6 PUSH2 0x114D JUMP JUMPDEST JUMPDEST PUSH2 0x14E3 DUP7 DUP3 DUP8 ADD PUSH2 0x141C JUMP JUMPDEST SWAP2 POP POP SWAP3 POP SWAP3 POP SWAP3 JUMP JUMPDEST PUSH0 PUSH1 0x20 DUP3 DUP5 SUB SLT ISZERO PUSH2 0x1502 JUMPI PUSH2 0x1501 PUSH2 0x1149 JUMP JUMPDEST JUMPDEST PUSH0 PUSH2 0x150F DUP5 DUP3 DUP6 ADD PUSH2 0x13A0 JUMP JUMPDEST SWAP2 POP POP SWAP3 SWAP2 POP POP JUMP JUMPDEST PUSH2 0x1521 DUP2 PUSH2 0xF56 JUMP JUMPDEST DUP3 MSTORE POP POP JUMP JUMPDEST PUSH0 PUSH1 0x20 DUP3 ADD SWAP1 POP PUSH2 0x153A PUSH0 DUP4 ADD DUP5 PUSH2 0x1518 JUMP JUMPDEST SWAP3 SWAP2 POP POP JUMP JUMPDEST PUSH2 0x1549 DUP2 PUSH2 0xFF5 JUMP JUMPDEST DUP3 MSTORE POP POP JUMP JUMPDEST PUSH0 PUSH1 0x20 DUP3 ADD SWAP1 POP PUSH2 0x1562 PUSH0 DUP4 ADD DUP5 PUSH2 0x1540 JUMP JUMPDEST SWAP3 SWAP2 POP POP JUMP JUMPDEST PUSH0 DUP2 SWAP1 POP SWAP2 SWAP1 POP JUMP JUMPDEST PUSH0 PUSH2 0x158B PUSH2 0x1586 PUSH2 0x1581 DUP5 PUSH2 0xF37 JUMP JUMPDEST PUSH2 0x1568 JUMP JUMPDEST PUSH2 0xF37 JUMP JUMPDEST SWAP1 POP SWAP2 SWAP1 POP JUMP JUMPDEST PUSH0 PUSH2 0x159C DUP3 PUSH2 0x1571 JUMP JUMPDEST SWAP1 POP SWAP2 SWAP1 POP JUMP JUMPDEST PUSH0 PUSH2 0x15AD DUP3 PUSH2 0x1592 JUMP JUMPDEST SWAP1 POP SWAP2 SWAP1 POP JUMP JUMPDEST PUSH2 0x15BD DUP2 PUSH2 0x15A3 JUMP JUMPDEST DUP3 MSTORE POP POP JUMP JUMPDEST PUSH0 PUSH1 0x20 DUP3 ADD SWAP1 POP PUSH2 0x15D6 PUSH0 DUP4 ADD DUP5 PUSH2 0x15B4 JUMP JUMPDEST SWAP3 SWAP2 POP POP JUMP JUMPDEST PUSH2 0x15E5 DUP2 PUSH2 0xFF5 JUMP JUMPDEST DUP2 EQ PUSH2 0x15EF JUMPI PUSH0 DUP1 REVERT JUMPDEST POP JUMP JUMPDEST PUSH0 DUP2 CALLDATALOAD SWAP1 POP PUSH2 0x1600 DUP2 PUSH2 0x15DC JUMP JUMPDEST SWAP3 SWAP2 POP POP JUMP JUMPDEST PUSH0 PUSH1 0x20 DUP3 DUP5 SUB SLT ISZERO PUSH2 0x161B JUMPI PUSH2 0x161A PUSH2 0x1149 JUMP JUMPDEST JUMPDEST PUSH0 PUSH2 0x1628 DUP5 DUP3 DUP6 ADD PUSH2 0x15F2 JUMP JUMPDEST SWAP2 POP POP SWAP3 SWAP2 POP POP JUMP JUMPDEST PUSH0 DUP3 DUP3 MSTORE PUSH1 0x20 DUP3 ADD SWAP1 POP SWAP3 SWAP2 POP POP JUMP JUMPDEST PUSH0 PUSH2 0x164B DUP3 PUSH2 0xDE3 JUMP JUMPDEST PUSH2 0x1655 DUP2 DUP6 PUSH2 0x1631 JUMP JUMPDEST SWAP4 POP PUSH2 0x1665 DUP2 DUP6 PUSH1 0x20 DUP7 ADD PUSH2 0xDFD JUMP JUMPDEST PUSH2 0x166E DUP2 PUSH2 0xE0B JUMP JUMPDEST DUP5 ADD SWAP2 POP POP SWAP3 SWAP2 POP POP JUMP JUMPDEST PUSH0 PUSH1 0x60 DUP3 ADD SWAP1 POP DUP2 DUP2 SUB PUSH0 DUP4 ADD MSTORE PUSH2 0x1691 DUP2 DUP7 PUSH2 0x1641 JUMP JUMPDEST SWAP1 POP PUSH2 0x16A0 PUSH1 0x20 DUP4 ADD DUP6 PUSH2 0x1540 JUMP JUMPDEST PUSH2 0x16AD PUSH1 0x40 DUP4 ADD DUP5 PUSH2 0x1540 JUMP JUMPDEST SWAP5 SWAP4 POP POP POP POP JUMP JUMPDEST PUSH0 DUP2 ISZERO ISZERO SWAP1 POP SWAP2 SWAP1 POP JUMP JUMPDEST PUSH2 0x16C9 DUP2 PUSH2 0x16B5 JUMP JUMPDEST DUP2 EQ PUSH2 0x16D3 JUMPI PUSH0 DUP1 REVERT JUMPDEST POP JUMP JUMPDEST PUSH0 DUP2 CALLDATALOAD SWAP1 POP PUSH2 0x16E4 DUP2 PUSH2 0x16C0 JUMP JUMPDEST SWAP3 SWAP2 POP POP JUMP JUMPDEST PUSH0 DUP1 PUSH1 0x40 DUP4 DUP6 SUB SLT ISZERO PUSH2 0x1700 JUMPI PUSH2 0x16FF PUSH2 0x1149 JUMP JUMPDEST JUMPDEST PUSH0 PUSH2 0x170D DUP6 DUP3 DUP7 ADD PUSH2 0x15F2 JUMP JUMPDEST SWAP3 POP POP PUSH1 0x20 PUSH2 0x171E DUP6 DUP3 DUP7 ADD PUSH2 0x16D6 JUMP JUMPDEST SWAP2 POP POP SWAP3 POP SWAP3 SWAP1 POP JUMP JUMPDEST PUSH2 0x1731 DUP2 PUSH2 0x16B5 JUMP JUMPDEST DUP3 MSTORE POP POP JUMP JUMPDEST PUSH0 PUSH1 0x20 DUP3 ADD SWAP1 POP PUSH2 0x174A PUSH0 DUP4 ADD DUP5 PUSH2 0x1728 JUMP JUMPDEST SWAP3 SWAP2 POP POP JUMP JUMPDEST PUSH32 0x4E487B7100000000000000000000000000000000000000000000000000000000 PUSH0 MSTORE PUSH1 0x22 PUSH1 0x4 MSTORE PUSH1 0x24 PUSH0 REVERT JUMPDEST PUSH0 PUSH1 0x2 DUP3 DIV SWAP1 POP PUSH1 0x1 DUP3 AND DUP1 PUSH2 0x1794 JUMPI PUSH1 0x7F DUP3 AND SWAP2 POP JUMPDEST PUSH1 0x20 DUP3 LT DUP2 SUB PUSH2 0x17A7 JUMPI PUSH2 0x17A6 PUSH2 0x1750 JUMP JUMPDEST JUMPDEST POP SWAP2 SWAP1 POP JUMP JUMPDEST PUSH32 0x456E747279204944206D75737420626520756E69717565000000000000000000 PUSH0 DUP3 ADD MSTORE POP JUMP JUMPDEST PUSH0 PUSH2 0x17E1 PUSH1 0x17 DUP4 PUSH2 0x1631 JUMP JUMPDEST SWAP2 POP PUSH2 0x17EC DUP3 PUSH2 0x17AD JUMP JUMPDEST PUSH1 0x20 DUP3 ADD SWAP1 POP SWAP2 SWAP1 POP JUMP JUMPDEST PUSH0 PUSH1 0x20 DUP3 ADD SWAP1 POP DUP2 DUP2 SUB PUSH0 DUP4 ADD MSTORE PUSH2 0x180E DUP2 PUSH2 0x17D5 JUMP JUMPDEST SWAP1 POP SWAP2 SWAP1 POP JUMP JUMPDEST PUSH0 DUP2 SWAP1 POP DUP2 PUSH0 MSTORE PUSH1 0x20 PUSH0 KECCAK256 SWAP1 POP SWAP2 SWAP1 POP JUMP JUMPDEST PUSH0 PUSH1 0x20 PUSH1 0x1F DUP4 ADD DIV SWAP1 POP SWAP2 SWAP1 POP JUMP JUMPDEST PUSH0 DUP3 DUP3 SHL SWAP1 POP SWAP3 SWAP2 POP POP JUMP JUMPDEST PUSH0 PUSH1 0x8 DUP4 MUL PUSH2 0x1871 PUSH32 0xFFFFFFFFFFFFFFFFFFFFFFFFFFFFFFFFFFFFFFFFFFFFFFFFFFFFFFFFFFFFFFFF DUP3 PUSH2 0x1836 JUMP JUMPDEST PUSH2 0x187B DUP7 DUP4 PUSH2 0x1836 JUMP JUMPDEST SWAP6 POP DUP1 NOT DUP5 AND SWAP4 POP DUP1 DUP7 AND DUP5 OR SWAP3 POP POP POP SWAP4 SWAP3 POP POP POP JUMP JUMPDEST PUSH0 PUSH2 0x18AD PUSH2 0x18A8 PUSH2 0x18A3 DUP5 PUSH2 0xFF5 JUMP JUMPDEST PUSH2 0x1568 JUMP JUMPDEST PUSH2 0xFF5 JUMP JUMPDEST SWAP1 POP SWAP2 SWAP1 POP JUMP JUMPDEST PUSH0 DUP2 SWAP1 POP SWAP2 SWAP1 POP JUMP JUMPDEST PUSH2 0x18C6 DUP4 PUSH2 0x1893 JUMP JUMPDEST PUSH2 0x18DA PUSH2 0x18D2 DUP3 PUSH2 0x18B4 JUMP JUMPDEST DUP5 DUP5 SLOAD PUSH2 0x1842 JUMP JUMPDEST DUP3 SSTORE POP POP POP POP JUMP JUMPDEST PUSH0 SWAP1 JUMP JUMPDEST PUSH2 0x18EE PUSH2 0x18E2 JUMP JUMPDEST PUSH2 0x18F9 DUP2 DUP5 DUP5 PUSH2 0x18BD JUMP JUMPDEST POP POP POP JUMP JUMPDEST JUMPDEST DUP2 DUP2 LT ISZERO PUSH2 0x191C JUMPI PUSH2 0x1911 PUSH0 DUP3 PUSH2 0x18E6 JUMP JUMPDEST PUSH1 0x1 DUP2 ADD SWAP1 POP PUSH2 0x18FF JUMP JUMPDEST POP POP JUMP JUMPDEST PUSH1 0x1F DUP3 GT ISZERO PUSH2 0x1961 JUMPI PUSH2 0x1932 DUP2 PUSH2 0x1815 JUMP JUMPDEST PUSH2 0x193B DUP5 PUSH2 0x1827 JUMP JUMPDEST DUP2 ADD PUSH1 0x20 DUP6 LT ISZERO PUSH2 0x194A JUMPI DUP2 SWAP1 POP JUMPDEST PUSH2 0x195E PUSH2 0x1956 DUP6 PUSH2 0x1827 JUMP JUMPDEST DUP4 ADD DUP3 PUSH2 0x18FE JUMP JUMPDEST POP POP JUMPDEST POP POP POP JUMP JUMPDEST PUSH0 DUP3 DUP3 SHR SWAP1 POP SWAP3 SWAP2 POP POP JUMP JUMPDEST PUSH0 PUSH2 0x1981 PUSH0 NOT DUP5 PUSH1 0x8 MUL PUSH2 0x1966 JUMP JUMPDEST NOT DUP1 DUP4 AND SWAP2 POP POP SWAP3 SWAP2 POP POP JUMP JUMPDEST PUSH0 PUSH2 0x1999 DUP4 DUP4 PUSH2 0x1972 JUMP JUMPDEST SWAP2 POP DUP3 PUSH1 0x2 MUL DUP3 OR SWAP1 POP SWAP3 SWAP2 POP POP JUMP JUMPDEST PUSH2 0x19B2 DUP3 PUSH2 0xDE3 JUMP JUMPDEST PUSH8 0xFFFFFFFFFFFFFFFF DUP2 GT ISZERO PUSH2 0x19CB JUMPI PUSH2 0x19CA PUSH2 0x1159 JUMP JUMPDEST JUMPDEST PUSH2 0x19D5 DUP3 SLOAD PUSH2 0x177D JUMP JUMPDEST PUSH2 0x19E0 DUP3 DUP3 DUP6 PUSH2 0x1920 JUMP JUMPDEST PUSH0 PUSH1 0x20 SWAP1 POP PUSH1 0x1F DUP4 GT PUSH1 0x1 DUP2 EQ PUSH2 0x1A11 JUMPI PUSH0 DUP5 ISZERO PUSH2 0x19FF JUMPI DUP3 DUP8 ADD MLOAD SWAP1 POP JUMPDEST PUSH2 0x1A09 DUP6 DUP3 PUSH2 0x198E JUMP JUMPDEST DUP7 SSTORE POP PUSH2 0x1A70 JUMP JUMPDEST PUSH1 0x1F NOT DUP5 AND PUSH2 0x1A1F DUP7 PUSH2 0x1815 JUMP JUMPDEST PUSH0 JUMPDEST DUP3 DUP2 LT ISZERO PUSH2 0x1A46 JUMPI DUP5 DUP10 ADD MLOAD DUP3 SSTORE PUSH1 0x1 DUP3 ADD SWAP2 POP PUSH1 0x20 DUP6 ADD SWAP5 POP PUSH1 0x20 DUP2 ADD SWAP1 POP PUSH2 0x1A21 JUMP JUMPDEST DUP7 DUP4 LT ISZERO PUSH2 0x1A63 JUMPI DUP5 DUP10 ADD MLOAD PUSH2 0x1A5F PUSH1 0x1F DUP10 AND DUP3 PUSH2 0x1972 JUMP JUMPDEST DUP4 SSTORE POP JUMPDEST PUSH1 0x1 PUSH1 0x2 DUP9 MUL ADD DUP9 SSTORE POP POP POP JUMPDEST POP POP POP POP POP POP JUMP JUMPDEST PUSH32 0x596F7520617265206E6F7420746865206F776E65722E00000000000000000000 PUSH0 DUP3 ADD MSTORE POP JUMP JUMPDEST PUSH0 PUSH2 0x1AAC PUSH1 0x16 DUP4 PUSH2 0x1631 JUMP JUMPDEST SWAP2 POP PUSH2 0x1AB7 DUP3 PUSH2 0x1A78 JUMP JUMPDEST PUSH1 0x20 DUP3 ADD SWAP1 POP SWAP2 SWAP1 POP JUMP JUMPDEST PUSH0 PUSH1 0x20 DUP3 ADD SWAP1 POP DUP2 DUP2 SUB PUSH0 DUP4 ADD MSTORE PUSH2 0x1AD9 DUP2 PUSH2 0x1AA0 JUMP JUMPDEST SWAP1 POP SWAP2 SWAP1 POP JUMP JUMPDEST PUSH32 0x4E487B7100000000000000000000000000000000000000000000000000000000 PUSH0 MSTORE PUSH1 0x32 PUSH1 0x4 MSTORE PUSH1 0x24 PUSH0 REVERT JUMPDEST PUSH32 0x4E487B7100000000000000000000000000000000000000000000000000000000 PUSH0 MSTORE PUSH1 0x11 PUSH1 0x4 MSTORE PUSH1 0x24 PUSH0 REVERT JUMPDEST PUSH0 PUSH2 0x1B44 DUP3 PUSH2 0xFF5 JUMP JUMPDEST SWAP2 POP PUSH2 0x1B4F DUP4 PUSH2 0xFF5 JUMP JUMPDEST SWAP3 POP DUP3 DUP3 ADD SWAP1 POP DUP1 DUP3 GT ISZERO PUSH2 0x1B67 JUMPI PUSH2 0x1B66 PUSH2 0x1B0D JUMP JUMPDEST JUMPDEST SWAP3 SWAP2 POP POP JUMP JUMPDEST PUSH32 0x456E74727920646F6573206E6F74206578697374000000000000000000000000 PUSH0 DUP3 ADD MSTORE POP JUMP JUMPDEST PUSH0 PUSH2 0x1BA1 PUSH1 0x14 DUP4 PUSH2 0x1631 JUMP JUMPDEST SWAP2 POP PUSH2 0x1BAC DUP3 PUSH2 0x1B6D JUMP JUMPDEST PUSH1 0x20 DUP3 ADD SWAP1 POP SWAP2 SWAP1 POP JUMP JUMPDEST PUSH0 PUSH1 0x20 DUP3 ADD SWAP1 POP DUP2 DUP2 SUB PUSH0 DUP4 ADD MSTORE PUSH2 0x1BCE DUP2 PUSH2 0x1B95 JUMP JUMPDEST SWAP1 POP SWAP2 SWAP1 POP JUMP JUMPDEST PUSH0 PUSH2 0x1BDF DUP3 PUSH2 0xFF5 JUMP JUMPDEST SWAP2 POP PUSH32 0xFFFFFFFFFFFFFFFFFFFFFFFFFFFFFFFFFFFFFFFFFFFFFFFFFFFFFFFFFFFFFFFF DUP3 SUB PUSH2 0x1C11 JUMPI PUSH2 0x1C10 PUSH2 0x1B0D JUMP JUMPDEST JUMPDEST PUSH1 0x1 DUP3 ADD SWAP1 POP SWAP2 SWAP1 POP JUMP JUMPDEST PUSH0 PUSH2 0x1C26 DUP3 PUSH2 0xFF5 JUMP JUMPDEST SWAP2 POP PUSH2 0x1C31 DUP4 PUSH2 0xFF5 JUMP JUMPDEST SWAP3 POP DUP3 DUP3 SUB SWAP1 POP DUP2 DUP2 GT ISZERO PUSH2 0x1C49 JUMPI PUSH2 0x1C48 PUSH2 0x1B0D JUMP JUMPDEST JUMPDEST SWAP3 SWAP2 POP POP JUMP JUMPDEST PUSH0 DUP2 SLOAD PUSH2 0x1C5B DUP2 PUSH2 0x177D JUMP JUMPDEST PUSH2 0x1C65 DUP2 DUP7 PUSH2 0x1631 JUMP JUMPDEST SWAP5 POP PUSH1 0x1 DUP3 AND PUSH0 DUP2 EQ PUSH2 0x1C7F JUMPI PUSH1 0x1 DUP2 EQ PUSH2 0x1C95 JUMPI PUSH2 0x1CC7 JUMP JUMPDEST PUSH1 0xFF NOT DUP4 AND DUP7 MSTORE DUP2 ISZERO ISZERO PUSH1 0x20 MUL DUP7 ADD SWAP4 POP PUSH2 0x1CC7 JUMP JUMPDEST PUSH2 0x1C9E DUP6 PUSH2 0x1815 JUMP JUMPDEST PUSH0 JUMPDEST DUP4 DUP2 LT ISZERO PUSH2 0x1CBF JUMPI DUP2 SLOAD DUP2 DUP10 ADD MSTORE PUSH1 0x1 DUP3 ADD SWAP2 POP PUSH1 0x20 DUP2 ADD SWAP1 POP PUSH2 0x1CA0 JUMP JUMPDEST DUP1 DUP9 ADD SWAP6 POP POP POP JUMPDEST POP POP POP SWAP3 SWAP2 POP POP JUMP JUMPDEST PUSH0 DUP2 SLOAD SWAP1 POP SWAP2 SWAP1 POP JUMP JUMPDEST PUSH0 DUP3 DUP3 MSTORE PUSH1 0x20 DUP3 ADD SWAP1 POP SWAP3 SWAP2 POP POP JUMP JUMPDEST PUSH0 DUP2 SWAP1 POP DUP2 PUSH0 MSTORE PUSH1 0x20 PUSH0 KECCAK256 SWAP1 POP SWAP2 SWAP1 POP JUMP JUMPDEST PUSH0 DUP2 SLOAD PUSH2 0x1D08 DUP2 PUSH2 0x177D JUMP JUMPDEST PUSH2 0x1D12 DUP2 DUP7 PUSH2 0xDED JUMP JUMPDEST SWAP5 POP PUSH1 0x1 DUP3 AND PUSH0 DUP2 EQ PUSH2 0x1D2C JUMPI PUSH1 0x1 DUP2 EQ PUSH2 0x1D42 JUMPI PUSH2 0x1D74 JUMP JUMPDEST PUSH1 0xFF NOT DUP4 AND DUP7 MSTORE DUP2 ISZERO ISZERO PUSH1 0x20 MUL DUP7 ADD SWAP4 POP PUSH2 0x1D74 JUMP JUMPDEST PUSH2 0x1D4B DUP6 PUSH2 0x1815 JUMP JUMPDEST PUSH0 JUMPDEST DUP4 DUP2 LT ISZERO PUSH2 0x1D6C JUMPI DUP2 SLOAD DUP2 DUP10 ADD MSTORE PUSH1 0x1 DUP3 ADD SWAP2 POP PUSH1 0x20 DUP2 ADD SWAP1 POP PUSH2 0x1D4D JUMP JUMPDEST DUP1 DUP9 ADD SWAP6 POP POP POP JUMPDEST POP POP POP SWAP3 SWAP2 POP POP JUMP JUMPDEST PUSH0 PUSH2 0x1D88 DUP4 DUP4 PUSH2 0x1CFC JUMP JUMPDEST SWAP1 POP SWAP3 SWAP2 POP POP JUMP JUMPDEST PUSH0 PUSH1 0x1 DUP3 ADD SWAP1 POP SWAP2 SWAP1 POP JUMP JUMPDEST PUSH0 PUSH2 0x1DA6 DUP3 PUSH2 0x1CD0 JUMP JUMPDEST PUSH2 0x1DB0 DUP2 DUP6 PUSH2 0x1CDA JUMP JUMPDEST SWAP4 POP DUP4 PUSH1 0x20 DUP3 MUL DUP6 ADD PUSH2 0x1DC2 DUP6 PUSH2 0x1CEA JUMP JUMPDEST DUP1 PUSH0 JUMPDEST DUP6 DUP2 LT ISZERO PUSH2 0x1DFC JUMPI DUP5 DUP5 SUB DUP10 MSTORE DUP2 PUSH2 0x1DDD DUP6 DUP3 PUSH2 0x1D7D JUMP JUMPDEST SWAP5 POP PUSH2 0x1DE8 DUP4 PUSH2 0x1D90 JUMP JUMPDEST SWAP3 POP PUSH1 0x20 DUP11 ADD SWAP10 POP POP PUSH1 0x1 DUP2 ADD SWAP1 POP PUSH2 0x1DC5 JUMP JUMPDEST POP DUP3 SWAP8 POP DUP8 SWAP6 POP POP POP POP POP POP SWAP3 SWAP2 POP POP JUMP JUMPDEST PUSH0 DUP2 SLOAD SWAP1 POP SWAP2 SWAP1 POP JUMP JUMPDEST PUSH0 DUP3 DUP3 MSTORE PUSH1 0x20 DUP3 ADD SWAP1 POP SWAP3 SWAP2 POP POP JUMP JUMPDEST PUSH0 DUP2 SWAP1 POP DUP2 PUSH0 MSTORE PUSH1 0x20 PUSH0 KECCAK256 SWAP1 POP SWAP2 SWAP1 POP JUMP JUMPDEST PUSH0 DUP2 PUSH0 SHR SWAP1 POP SWAP2 SWAP1 POP JUMP JUMPDEST PUSH0 PUSH20 0xFFFFFFFFFFFFFFFFFFFFFFFFFFFFFFFFFFFFFFFF DUP3 AND SWAP1 POP SWAP2 SWAP1 POP JUMP JUMPDEST PUSH0 PUSH2 0x1E76 PUSH2 0x1E71 DUP4 PUSH2 0x1E3A JUMP JUMPDEST PUSH2 0x1E45 JUMP JUMPDEST SWAP1 POP SWAP2 SWAP1 POP JUMP JUMPDEST PUSH0 PUSH2 0x1E88 DUP3 SLOAD PUSH2 0x1E64 JUMP JUMPDEST SWAP1 POP SWAP2 SWAP1 POP JUMP JUMPDEST PUSH0 PUSH1 0x1 DUP3 ADD SWAP1 POP SWAP2 SWAP1 POP JUMP JUMPDEST PUSH0 PUSH2 0x1EA5 DUP3 PUSH2 0x1E0E JUMP JUMPDEST PUSH2 0x1EAF DUP2 DUP6 PUSH2 0x1E18 JUMP JUMPDEST SWAP4 POP PUSH2 0x1EBA DUP4 PUSH2 0x1E28 JUMP JUMPDEST DUP1 PUSH0 JUMPDEST DUP4 DUP2 LT ISZERO PUSH2 0x1EF1 JUMPI PUSH2 0x1ECE DUP3 PUSH2 0x1E7D JUMP JUMPDEST PUSH2 0x1ED8 DUP9 DUP3 PUSH2 0xF76 JUMP JUMPDEST SWAP8 POP PUSH2 0x1EE3 DUP4 PUSH2 0x1E8F JUMP JUMPDEST SWAP3 POP POP PUSH1 0x1 DUP2 ADD SWAP1 POP PUSH2 0x1EBD JUMP JUMPDEST POP DUP6 SWAP4 POP POP POP POP SWAP3 SWAP2 POP POP JUMP JUMPDEST PUSH0 PUSH1 0x60 DUP3 ADD SWAP1 POP DUP2 DUP2 SUB PUSH0 DUP4 ADD MSTORE PUSH2 0x1F16 DUP2 DUP7 PUSH2 0x1C4F JUMP JUMPDEST SWAP1 POP DUP2 DUP2 SUB PUSH1 0x20 DUP4 ADD MSTORE PUSH2 0x1F2A DUP2 DUP6 PUSH2 0x1D9C JUMP JUMPDEST SWAP1 POP DUP2 DUP2 SUB PUSH1 0x40 DUP4 ADD MSTORE PUSH2 0x1F3E DUP2 DUP5 PUSH2 0x1E9B JUMP JUMPDEST SWAP1 POP SWAP5 SWAP4 POP POP POP POP JUMP JUMPDEST PUSH0 DUP2 SLOAD SWAP1 POP PUSH2 0x1F56 DUP2 PUSH2 0x177D JUMP JUMPDEST SWAP1 POP SWAP2 SWAP1 POP JUMP JUMPDEST DUP2 DUP2 SUB PUSH2 0x1F6B JUMPI POP POP PUSH2 0x2040 JUMP JUMPDEST PUSH2 0x1F74 DUP3 PUSH2 0x1F48 JUMP JUMPDEST PUSH8 0xFFFFFFFFFFFFFFFF DUP2 GT ISZERO PUSH2 0x1F8D JUMPI PUSH2 0x1F8C PUSH2 0x1159 JUMP JUMPDEST JUMPDEST PUSH2 0x1F97 DUP3 SLOAD PUSH2 0x177D JUMP JUMPDEST PUSH2 0x1FA2 DUP3 DUP3 DUP6 PUSH2 0x1920 JUMP JUMPDEST PUSH0 PUSH1 0x1F DUP4 GT PUSH1 0x1 DUP2 EQ PUSH2 0x1FCF JUMPI PUSH0 DUP5 ISZERO PUSH2 0x1FBD JUMPI DUP3 DUP8 ADD SLOAD SWAP1 POP JUMPDEST PUSH2 0x1FC7 DUP6 DUP3 PUSH2 0x198E JUMP JUMPDEST DUP7 SSTORE POP PUSH2 0x2039 JUMP JUMPDEST PUSH1 0x1F NOT DUP5 AND PUSH2 0x1FDD DUP8 PUSH2 0x1815 JUMP JUMPDEST SWAP7 POP PUSH2 0x1FE8 DUP7 PUSH2 0x1815 JUMP JUMPDEST PUSH0 JUMPDEST DUP3 DUP2 LT ISZERO PUSH2 0x200F JUMPI DUP5 DUP10 ADD SLOAD DUP3 SSTORE PUSH1 0x1 DUP3 ADD SWAP2 POP PUSH1 0x1 DUP6 ADD SWAP5 POP PUSH1 0x20 DUP2 ADD SWAP1 POP PUSH2 0x1FEA JUMP JUMPDEST DUP7 DUP4 LT ISZERO PUSH2 0x202C JUMPI DUP5 DUP10 ADD SLOAD PUSH2 0x2028 PUSH1 0x1F DUP10 AND DUP3 PUSH2 0x1972 JUMP JUMPDEST DUP4 SSTORE POP JUMPDEST PUSH1 0x1 PUSH1 0x2 DUP9 MUL ADD DUP9 SSTORE POP POP POP JUMPDEST POP POP POP POP POP POP JUMPDEST JUMP JUMPDEST PUSH32 0x4E487B7100000000000000000000000000000000000000000000000000000000 PUSH0 MSTORE PUSH1 0x31 PUSH1 0x4 MSTORE PUSH1 0x24 PUSH0 REVERT JUMPDEST PUSH0 DUP2 SWAP1 POP SWAP3 SWAP2 POP POP JUMP JUMPDEST PUSH0 DUP2 SWAP1 POP DUP2 PUSH0 MSTORE PUSH1 0x20 PUSH0 KECCAK256 SWAP1 POP SWAP2 SWAP1 POP JUMP JUMPDEST PUSH0 DUP2 SLOAD PUSH2 0x2097 DUP2 PUSH2 0x177D JUMP JUMPDEST PUSH2 0x20A1 DUP2 DUP7 PUSH2 0x206F JUMP JUMPDEST SWAP5 POP PUSH1 0x1 DUP3 AND PUSH0 DUP2 EQ PUSH2 0x20BB JUMPI PUSH1 0x1 DUP2 EQ PUSH2 0x20D0 JUMPI PUSH2 0x2102 JUMP JUMPDEST PUSH1 0xFF NOT DUP4 AND DUP7 MSTORE DUP2 ISZERO ISZERO DUP3 MUL DUP7 ADD SWAP4 POP PUSH2 0x2102 JUMP JUMPDEST PUSH2 0x20D9 DUP6 PUSH2 0x2079 JUMP JUMPDEST PUSH0 JUMPDEST DUP4 DUP2 LT ISZERO PUSH2 0x20FA JUMPI DUP2 SLOAD DUP2 DUP10 ADD MSTORE PUSH1 0x1 DUP3 ADD SWAP2 POP PUSH1 0x20 DUP2 ADD SWAP1 POP PUSH2 0x20DB JUMP JUMPDEST DUP4 DUP9 ADD SWAP6 POP POP POP JUMPDEST POP POP POP SWAP3 SWAP2 POP POP JUMP JUMPDEST PUSH0 PUSH2 0x2116 DUP3 DUP5 PUSH2 0x208B JUMP JUMPDEST SWAP2 POP DUP2 SWAP1 POP SWAP3 SWAP2 POP POP JUMP INVALID LOG2 PUSH5 0x6970667358 0x22 SLT KECCAK256 TSTORE 0xEF BLOBHASH 0x22 0xEA 0xDF PUSH22 0xF0CB9C34C0078B40CBE1C813EB23B8C611B5E8051223 LOG3 0xEB CREATE PUSH5 0x736F6C6343 STOP ADDMOD NOT STOP CALLER "
				},
				"gasEstimates": {
					"creation": {
						"codeDepositCost": "1707000",
						"executionCost": "26055",
						"totalCost": "1733055"
					},
					"external": {
						"addEntry(string,string[],address[])": "infinite",
						"entries(uint256)": "infinite",
						"getEntries()": "infinite",
						"getLeastVotedEntryId()": "infinite",
						"owner()": "2575",
						"paperPool()": "infinite",
						"toReview()": "2540",
						"updatePaperPool(address)": "26929",
						"vote(uint256,bool)": "infinite"
					},
					"internal": {
						"entryExists(string memory)": "infinite"
					}
				},
				"methodIdentifiers": {
					"addEntry(string,string[],address[])": "22fae27d",
					"entries(uint256)": "b30906d4",
					"getEntries()": "17be85c3",
					"getLeastVotedEntryId()": "a0a0a815",
					"owner()": "8da5cb5b",
					"paperPool()": "a302de16",
					"toReview()": "cebbb33e",
					"updatePaperPool(address)": "2dcc4387",
					"vote(uint256,bool)": "c9d27afe"
				}
			},
			"storageLayout": {
				"storage": [
					{
						"astId": 16,
						"contract": "contracts/AQ.sol:ApprovalQueue",
						"label": "paperPool",
						"offset": 0,
						"slot": "0",
						"type": "t_contract(pp)13"
					},
					{
						"astId": 18,
						"contract": "contracts/AQ.sol:ApprovalQueue",
						"label": "owner",
						"offset": 0,
						"slot": "1",
						"type": "t_address"
					},
					{
						"astId": 70,
						"contract": "contracts/AQ.sol:ApprovalQueue",
						"label": "entries",
						"offset": 0,
						"slot": "2",
						"type": "t_array(t_struct(Entry)66_storage)dyn_storage"
					}
				],
				"types": {
					"t_address": {
						"encoding": "inplace",
						"label": "address",
						"numberOfBytes": "20"
					},
					"t_array(t_address)dyn_storage": {
						"base": "t_address",
						"encoding": "dynamic_array",
						"label": "address[]",
						"numberOfBytes": "32"
					},
					"t_array(t_string_storage)dyn_storage": {
						"base": "t_string_storage",
						"encoding": "dynamic_array",
						"label": "string[]",
						"numberOfBytes": "32"
					},
					"t_array(t_struct(Entry)66_storage)dyn_storage": {
						"base": "t_struct(Entry)66_storage",
						"encoding": "dynamic_array",
						"label": "struct ApprovalQueue.Entry[]",
						"numberOfBytes": "32"
					},
					"t_contract(pp)13": {
						"encoding": "inplace",
						"label": "contract pp",
						"numberOfBytes": "20"
					},
					"t_string_storage": {
						"encoding": "bytes",
						"label": "string",
						"numberOfBytes": "32"
					},
					"t_struct(Entry)66_storage": {
						"encoding": "inplace",
						"label": "struct ApprovalQueue.Entry",
						"members": [
							{
								"astId": 55,
								"contract": "contracts/AQ.sol:ApprovalQueue",
								"label": "id",
								"offset": 0,
								"slot": "0",
								"type": "t_string_storage"
							},
							{
								"astId": 58,
								"contract": "contracts/AQ.sol:ApprovalQueue",
								"label": "citations",
								"offset": 0,
								"slot": "1",
								"type": "t_array(t_string_storage)dyn_storage"
							},
							{
								"astId": 61,
								"contract": "contracts/AQ.sol:ApprovalQueue",
								"label": "addresses",
								"offset": 0,
								"slot": "2",
								"type": "t_array(t_address)dyn_storage"
							},
							{
								"astId": 63,
								"contract": "contracts/AQ.sol:ApprovalQueue",
								"label": "upvotes",
								"offset": 0,
								"slot": "3",
								"type": "t_uint256"
							},
							{
								"astId": 65,
								"contract": "contracts/AQ.sol:ApprovalQueue",
								"label": "downvotes",
								"offset": 0,
								"slot": "4",
								"type": "t_uint256"
							}
						],
						"numberOfBytes": "160"
					},
					"t_uint256": {
						"encoding": "inplace",
						"label": "uint256",
						"numberOfBytes": "32"
					}
				}
			},
			"userdoc": {
				"kind": "user",
				"methods": {},
				"version": 1
			}
		}
	}
}