{
	"data": {
		"bytecode": {
			"linkReferences": {},
			"object": "6080604052348015600e575f80fd5b50611a368061001c5f395ff3fe608060405234801561000f575f80fd5b5060043610610055575f3560e01c806317be85c31461005957806322fae27d14610077578063a0a0a81514610093578063b30906d4146100b1578063c9d27afe146100e3575b5f80fd5b6100616100ff565b60405161006e9190610e46565b60405180910390f35b610091600480360381019061008c919061116f565b61035c565b005b61009b61045c565b6040516100a89190611222565b60405180910390f35b6100cb60048036038101906100c69190611265565b61059d565b6040516100da939291906112d8565b60405180910390f35b6100fd60048036038101906100f89190611349565b610657565b005b60605f805480602002602001604051908101604052809291908181526020015f905b82821015610353578382905f5260205f2090600502016040518060a00160405290815f82018054610151906113b4565b80601f016020809104026020016040519081016040528092919081815260200182805461017d906113b4565b80156101c85780601f1061019f576101008083540402835291602001916101c8565b820191905f5260205f20905b8154815290600101906020018083116101ab57829003601f168201915b5050505050815260200160018201805480602002602001604051908101604052809291908181526020015f905b8282101561029d578382905f5260205f20018054610212906113b4565b80601f016020809104026020016040519081016040528092919081815260200182805461023e906113b4565b80156102895780601f1061026057610100808354040283529160200191610289565b820191905f5260205f20905b81548152906001019060200180831161026c57829003601f168201915b5050505050815260200190600101906101f5565b5050505081526020016002820180548060200260200160405190810160405280929190818152602001828054801561032757602002820191905f5260205f20905b815f9054906101000a900473ffffffffffffffffffffffffffffffffffffffff1673ffffffffffffffffffffffffffffffffffffffff16815260200190600101908083116102de575b505050505081526020016003820154815260200160048201548152505081526020019060010190610121565b50505050905090565b6103658361082b565b156103a5576040517f08c379a000000000000000000000000000000000000000000000000000000000815260040161039c9061142e565b60405180910390fd5b5f6040518060a001604052808581526020018481526020018381526020015f81526020015f815250908060018154018082558091505060019003905f5260205f2090600502015f909190919091505f820151815f01908161040691906115e9565b5060208201518160010190805190602001906104239291906108a4565b5060408201518160020190805190602001906104409291906108fb565b5060608201518160030155608082015181600401555050505050565b5f805f8054905003610473576201869f905061059a565b5f80805f81548110610488576104876116b8565b5b905f5260205f209060050201600401545f80815481106104ab576104aa6116b8565b5b905f5260205f209060050201600301546104c59190611712565b90505f600190505b5f8054905081101561059357815f82815481106104ed576104ec6116b8565b5b905f5260205f209060050201600401545f83815481106105105761050f6116b8565b5b905f5260205f2090600502016003015461052a9190611712565b1015610586578092505f8181548110610546576105456116b8565b5b905f5260205f209060050201600401545f8281548110610569576105686116b8565b5b905f5260205f209060050201600301546105839190611712565b91505b80806001019150506104cd565b5081925050505b90565b5f81815481106105ab575f80fd5b905f5260205f2090600502015f91509050805f0180546105ca906113b4565b80601f01602080910402602001604051908101604052809291908181526020018280546105f6906113b4565b80156106415780601f1061061857610100808354040283529160200191610641565b820191905f5260205f20905b81548152906001019060200180831161062457829003601f168201915b5050505050908060030154908060040154905083565b815f805490501161069d576040517f08c379a00000000000000000000000000000000000000000000000000000000081526004016106949061178f565b60405180910390fd5b5f8083815481106106b1576106b06116b8565b5b905f5260205f209060050201905081156106e357806003015f8154809291906106d9906117ad565b91905055506106fd565b806004015f8154809291906106f7906117ad565b91905055505b6005816004015482600301546107139190611712565b03610826575f60015f8054905061072a91906117f4565b90505f818154811061073f5761073e6116b8565b5b905f5260205f2090600502015f858154811061075e5761075d6116b8565b5b905f5260205f2090600502015f8201815f01908161077c919061183c565b506001820181600101908054610793929190610982565b5060028201816002019080546107aa9291906109db565b5060038201548160030155600482015481600401559050505f8054806107d3576107d2611921565b5b600190038181905f5260205f2090600502015f8082015f6107f49190610a29565b600182015f6108039190610a66565b600282015f6108129190610a84565b600382015f9055600482015f905550509055505b505050565b5f808290505f5b5f805490508110156108995781805190602001205f8281548110610859576108586116b8565b5b905f5260205f2090600502015f0160405161087491906119ea565b60405180910390200361088c5760019250505061089f565b8080600101915050610832565b505f9150505b919050565b828054828255905f5260205f209081019282156108ea579160200282015b828111156108e95782518290816108d991906115e9565b50916020019190600101906108c2565b5b5090506108f79190610aa2565b5090565b828054828255905f5260205f20908101928215610971579160200282015b82811115610970578251825f6101000a81548173ffffffffffffffffffffffffffffffffffffffff021916908373ffffffffffffffffffffffffffffffffffffffff16021790555091602001919060010190610919565b5b50905061097e9190610ac5565b5090565b828054828255905f5260205f209081019282156109ca575f5260205f209182015b828111156109c957828290816109b9919061183c565b50916001019190600101906109a3565b5b5090506109d79190610aa2565b5090565b828054828255905f5260205f20908101928215610a18575f5260205f209182015b82811115610a175782548255916001019190600101906109fc565b5b509050610a259190610ac5565b5090565b508054610a35906113b4565b5f825580601f10610a465750610a63565b601f0160209004905f5260205f2090810190610a629190610ac5565b5b50565b5080545f8255905f5260205f2090810190610a819190610aa2565b50565b5080545f8255905f5260205f2090810190610a9f9190610ac5565b50565b5b80821115610ac1575f8181610ab89190610a29565b50600101610aa3565b5090565b5b80821115610adc575f815f905550600101610ac6565b5090565b5f81519050919050565b5f82825260208201905092915050565b5f819050602082019050919050565b5f81519050919050565b5f82825260208201905092915050565b8281835e5f83830152505050565b5f601f19601f8301169050919050565b5f610b4b82610b09565b610b558185610b13565b9350610b65818560208601610b23565b610b6e81610b31565b840191505092915050565b5f81519050919050565b5f82825260208201905092915050565b5f819050602082019050919050565b5f610bad8383610b41565b905092915050565b5f602082019050919050565b5f610bcb82610b79565b610bd58185610b83565b935083602082028501610be785610b93565b805f5b85811015610c225784840389528151610c038582610ba2565b9450610c0e83610bb5565b925060208a01995050600181019050610bea565b50829750879550505050505092915050565b5f81519050919050565b5f82825260208201905092915050565b5f819050602082019050919050565b5f73ffffffffffffffffffffffffffffffffffffffff82169050919050565b5f610c8682610c5d565b9050919050565b610c9681610c7c565b82525050565b5f610ca78383610c8d565b60208301905092915050565b5f602082019050919050565b5f610cc982610c34565b610cd38185610c3e565b9350610cde83610c4e565b805f5b83811015610d0e578151610cf58882610c9c565b9750610d0083610cb3565b925050600181019050610ce1565b5085935050505092915050565b5f819050919050565b610d2d81610d1b565b82525050565b5f60a083015f8301518482035f860152610d4d8282610b41565b91505060208301518482036020860152610d678282610bc1565b91505060408301518482036040860152610d818282610cbf565b9150506060830151610d966060860182610d24565b506080830151610da96080860182610d24565b508091505092915050565b5f610dbf8383610d33565b905092915050565b5f602082019050919050565b5f610ddd82610ae0565b610de78185610aea565b935083602082028501610df985610afa565b805f5b85811015610e345784840389528151610e158582610db4565b9450610e2083610dc7565b925060208a01995050600181019050610dfc565b50829750879550505050505092915050565b5f6020820190508181035f830152610e5e8184610dd3565b905092915050565b5f604051905090565b5f80fd5b5f80fd5b5f80fd5b5f80fd5b7f4e487b71000000000000000000000000000000000000000000000000000000005f52604160045260245ffd5b610eb582610b31565b810181811067ffffffffffffffff82111715610ed457610ed3610e7f565b5b80604052505050565b5f610ee6610e66565b9050610ef28282610eac565b919050565b5f67ffffffffffffffff821115610f1157610f10610e7f565b5b610f1a82610b31565b9050602081019050919050565b828183375f83830152505050565b5f610f47610f4284610ef7565b610edd565b905082815260208101848484011115610f6357610f62610e7b565b5b610f6e848285610f27565b509392505050565b5f82601f830112610f8a57610f89610e77565b5b8135610f9a848260208601610f35565b91505092915050565b5f67ffffffffffffffff821115610fbd57610fbc610e7f565b5b602082029050602081019050919050565b5f80fd5b5f610fe4610fdf84610fa3565b610edd565b9050808382526020820190506020840283018581111561100757611006610fce565b5b835b8181101561104e57803567ffffffffffffffff81111561102c5761102b610e77565b5b8086016110398982610f76565b85526020850194505050602081019050611009565b5050509392505050565b5f82601f83011261106c5761106b610e77565b5b813561107c848260208601610fd2565b91505092915050565b5f67ffffffffffffffff82111561109f5761109e610e7f565b5b602082029050602081019050919050565b6110b981610c7c565b81146110c3575f80fd5b50565b5f813590506110d4816110b0565b92915050565b5f6110ec6110e784611085565b610edd565b9050808382526020820190506020840283018581111561110f5761110e610fce565b5b835b81811015611138578061112488826110c6565b845260208401935050602081019050611111565b5050509392505050565b5f82601f83011261115657611155610e77565b5b81356111668482602086016110da565b91505092915050565b5f805f6060848603121561118657611185610e6f565b5b5f84013567ffffffffffffffff8111156111a3576111a2610e73565b5b6111af86828701610f76565b935050602084013567ffffffffffffffff8111156111d0576111cf610e73565b5b6111dc86828701611058565b925050604084013567ffffffffffffffff8111156111fd576111fc610e73565b5b61120986828701611142565b9150509250925092565b61121c81610d1b565b82525050565b5f6020820190506112355f830184611213565b92915050565b61124481610d1b565b811461124e575f80fd5b50565b5f8135905061125f8161123b565b92915050565b5f6020828403121561127a57611279610e6f565b5b5f61128784828501611251565b91505092915050565b5f82825260208201905092915050565b5f6112aa82610b09565b6112b48185611290565b93506112c4818560208601610b23565b6112cd81610b31565b840191505092915050565b5f6060820190508181035f8301526112f081866112a0565b90506112ff6020830185611213565b61130c6040830184611213565b949350505050565b5f8115159050919050565b61132881611314565b8114611332575f80fd5b50565b5f813590506113438161131f565b92915050565b5f806040838503121561135f5761135e610e6f565b5b5f61136c85828601611251565b925050602061137d85828601611335565b9150509250929050565b7f4e487b71000000000000000000000000000000000000000000000000000000005f52602260045260245ffd5b5f60028204905060018216806113cb57607f821691505b6020821081036113de576113dd611387565b5b50919050565b7f456e747279204944206d75737420626520756e697175650000000000000000005f82015250565b5f611418601783611290565b9150611423826113e4565b602082019050919050565b5f6020820190508181035f8301526114458161140c565b9050919050565b5f819050815f5260205f209050919050565b5f6020601f8301049050919050565b5f82821b905092915050565b5f600883026114a87fffffffffffffffffffffffffffffffffffffffffffffffffffffffffffffffff8261146d565b6114b2868361146d565b95508019841693508086168417925050509392505050565b5f819050919050565b5f6114ed6114e86114e384610d1b565b6114ca565b610d1b565b9050919050565b5f819050919050565b611506836114d3565b61151a611512826114f4565b848454611479565b825550505050565b5f90565b61152e611522565b6115398184846114fd565b505050565b5b8181101561155c576115515f82611526565b60018101905061153f565b5050565b601f8211156115a1576115728161144c565b61157b8461145e565b8101602085101561158a578190505b61159e6115968561145e565b83018261153e565b50505b505050565b5f82821c905092915050565b5f6115c15f19846008026115a6565b1980831691505092915050565b5f6115d983836115b2565b9150826002028217905092915050565b6115f282610b09565b67ffffffffffffffff81111561160b5761160a610e7f565b5b61161582546113b4565b611620828285611560565b5f60209050601f831160018114611651575f841561163f578287015190505b61164985826115ce565b8655506116b0565b601f19841661165f8661144c565b5f5b8281101561168657848901518255600182019150602085019450602081019050611661565b868310156116a3578489015161169f601f8916826115b2565b8355505b6001600288020188555050505b505050505050565b7f4e487b71000000000000000000000000000000000000000000000000000000005f52603260045260245ffd5b7f4e487b71000000000000000000000000000000000000000000000000000000005f52601160045260245ffd5b5f61171c82610d1b565b915061172783610d1b565b925082820190508082111561173f5761173e6116e5565b5b92915050565b7f456e74727920646f6573206e6f742065786973740000000000000000000000005f82015250565b5f611779601483611290565b915061178482611745565b602082019050919050565b5f6020820190508181035f8301526117a68161176d565b9050919050565b5f6117b782610d1b565b91507fffffffffffffffffffffffffffffffffffffffffffffffffffffffffffffffff82036117e9576117e86116e5565b5b600182019050919050565b5f6117fe82610d1b565b915061180983610d1b565b9250828203905081811115611821576118206116e5565b5b92915050565b5f81549050611835816113b4565b9050919050565b81810361184a57505061191f565b61185382611827565b67ffffffffffffffff81111561186c5761186b610e7f565b5b61187682546113b4565b611881828285611560565b5f601f8311600181146118ae575f841561189c578287015490505b6118a685826115ce565b865550611918565b601f1984166118bc8761144c565b96506118c78661144c565b5f5b828110156118ee578489015482556001820191506001850194506020810190506118c9565b8683101561190b5784890154611907601f8916826115b2565b8355505b6001600288020188555050505b5050505050505b565b7f4e487b71000000000000000000000000000000000000000000000000000000005f52603160045260245ffd5b5f81905092915050565b5f819050815f5260205f209050919050565b5f8154611976816113b4565b611980818661194e565b9450600182165f811461199a57600181146119af576119e1565b60ff19831686528115158202860193506119e1565b6119b885611958565b5f5b838110156119d9578154818901526001820191506020810190506119ba565b838801955050505b50505092915050565b5f6119f5828461196a565b91508190509291505056fea2646970667358221220fd8d1757ebe427e4e9dacd7c213b4f05560c1f3f60e31f65cf305337cb20050064736f6c63430008190033",
			"opcodes": "PUSH1 0x80 PUSH1 0x40 MSTORE CALLVALUE DUP1 ISZERO PUSH1 0xE JUMPI PUSH0 DUP1 REVERT JUMPDEST POP PUSH2 0x1A36 DUP1 PUSH2 0x1C PUSH0 CODECOPY PUSH0 RETURN INVALID PUSH1 0x80 PUSH1 0x40 MSTORE CALLVALUE DUP1 ISZERO PUSH2 0xF JUMPI PUSH0 DUP1 REVERT JUMPDEST POP PUSH1 0x4 CALLDATASIZE LT PUSH2 0x55 JUMPI PUSH0 CALLDATALOAD PUSH1 0xE0 SHR DUP1 PUSH4 0x17BE85C3 EQ PUSH2 0x59 JUMPI DUP1 PUSH4 0x22FAE27D EQ PUSH2 0x77 JUMPI DUP1 PUSH4 0xA0A0A815 EQ PUSH2 0x93 JUMPI DUP1 PUSH4 0xB30906D4 EQ PUSH2 0xB1 JUMPI DUP1 PUSH4 0xC9D27AFE EQ PUSH2 0xE3 JUMPI JUMPDEST PUSH0 DUP1 REVERT JUMPDEST PUSH2 0x61 PUSH2 0xFF JUMP JUMPDEST PUSH1 0x40 MLOAD PUSH2 0x6E SWAP2 SWAP1 PUSH2 0xE46 JUMP JUMPDEST PUSH1 0x40 MLOAD DUP1 SWAP2 SUB SWAP1 RETURN JUMPDEST PUSH2 0x91 PUSH1 0x4 DUP1 CALLDATASIZE SUB DUP2 ADD SWAP1 PUSH2 0x8C SWAP2 SWAP1 PUSH2 0x116F JUMP JUMPDEST PUSH2 0x35C JUMP JUMPDEST STOP JUMPDEST PUSH2 0x9B PUSH2 0x45C JUMP JUMPDEST PUSH1 0x40 MLOAD PUSH2 0xA8 SWAP2 SWAP1 PUSH2 0x1222 JUMP JUMPDEST PUSH1 0x40 MLOAD DUP1 SWAP2 SUB SWAP1 RETURN JUMPDEST PUSH2 0xCB PUSH1 0x4 DUP1 CALLDATASIZE SUB DUP2 ADD SWAP1 PUSH2 0xC6 SWAP2 SWAP1 PUSH2 0x1265 JUMP JUMPDEST PUSH2 0x59D JUMP JUMPDEST PUSH1 0x40 MLOAD PUSH2 0xDA SWAP4 SWAP3 SWAP2 SWAP1 PUSH2 0x12D8 JUMP JUMPDEST PUSH1 0x40 MLOAD DUP1 SWAP2 SUB SWAP1 RETURN JUMPDEST PUSH2 0xFD PUSH1 0x4 DUP1 CALLDATASIZE SUB DUP2 ADD SWAP1 PUSH2 0xF8 SWAP2 SWAP1 PUSH2 0x1349 JUMP JUMPDEST PUSH2 0x657 JUMP JUMPDEST STOP JUMPDEST PUSH1 0x60 PUSH0 DUP1 SLOAD DUP1 PUSH1 0x20 MUL PUSH1 0x20 ADD PUSH1 0x40 MLOAD SWAP1 DUP2 ADD PUSH1 0x40 MSTORE DUP1 SWAP3 SWAP2 SWAP1 DUP2 DUP2 MSTORE PUSH1 0x20 ADD PUSH0 SWAP1 JUMPDEST DUP3 DUP3 LT ISZERO PUSH2 0x353 JUMPI DUP4 DUP3 SWAP1 PUSH0 MSTORE PUSH1 0x20 PUSH0 KECCAK256 SWAP1 PUSH1 0x5 MUL ADD PUSH1 0x40 MLOAD DUP1 PUSH1 0xA0 ADD PUSH1 0x40 MSTORE SWAP1 DUP2 PUSH0 DUP3 ADD DUP1 SLOAD PUSH2 0x151 SWAP1 PUSH2 0x13B4 JUMP JUMPDEST DUP1 PUSH1 0x1F ADD PUSH1 0x20 DUP1 SWAP2 DIV MUL PUSH1 0x20 ADD PUSH1 0x40 MLOAD SWAP1 DUP2 ADD PUSH1 0x40 MSTORE DUP1 SWAP3 SWAP2 SWAP1 DUP2 DUP2 MSTORE PUSH1 0x20 ADD DUP3 DUP1 SLOAD PUSH2 0x17D SWAP1 PUSH2 0x13B4 JUMP JUMPDEST DUP1 ISZERO PUSH2 0x1C8 JUMPI DUP1 PUSH1 0x1F LT PUSH2 0x19F JUMPI PUSH2 0x100 DUP1 DUP4 SLOAD DIV MUL DUP4 MSTORE SWAP2 PUSH1 0x20 ADD SWAP2 PUSH2 0x1C8 JUMP JUMPDEST DUP3 ADD SWAP2 SWAP1 PUSH0 MSTORE PUSH1 0x20 PUSH0 KECCAK256 SWAP1 JUMPDEST DUP2 SLOAD DUP2 MSTORE SWAP1 PUSH1 0x1 ADD SWAP1 PUSH1 0x20 ADD DUP1 DUP4 GT PUSH2 0x1AB JUMPI DUP3 SWAP1 SUB PUSH1 0x1F AND DUP3 ADD SWAP2 JUMPDEST POP POP POP POP POP DUP2 MSTORE PUSH1 0x20 ADD PUSH1 0x1 DUP3 ADD DUP1 SLOAD DUP1 PUSH1 0x20 MUL PUSH1 0x20 ADD PUSH1 0x40 MLOAD SWAP1 DUP2 ADD PUSH1 0x40 MSTORE DUP1 SWAP3 SWAP2 SWAP1 DUP2 DUP2 MSTORE PUSH1 0x20 ADD PUSH0 SWAP1 JUMPDEST DUP3 DUP3 LT ISZERO PUSH2 0x29D JUMPI DUP4 DUP3 SWAP1 PUSH0 MSTORE PUSH1 0x20 PUSH0 KECCAK256 ADD DUP1 SLOAD PUSH2 0x212 SWAP1 PUSH2 0x13B4 JUMP JUMPDEST DUP1 PUSH1 0x1F ADD PUSH1 0x20 DUP1 SWAP2 DIV MUL PUSH1 0x20 ADD PUSH1 0x40 MLOAD SWAP1 DUP2 ADD PUSH1 0x40 MSTORE DUP1 SWAP3 SWAP2 SWAP1 DUP2 DUP2 MSTORE PUSH1 0x20 ADD DUP3 DUP1 SLOAD PUSH2 0x23E SWAP1 PUSH2 0x13B4 JUMP JUMPDEST DUP1 ISZERO PUSH2 0x289 JUMPI DUP1 PUSH1 0x1F LT PUSH2 0x260 JUMPI PUSH2 0x100 DUP1 DUP4 SLOAD DIV MUL DUP4 MSTORE SWAP2 PUSH1 0x20 ADD SWAP2 PUSH2 0x289 JUMP JUMPDEST DUP3 ADD SWAP2 SWAP1 PUSH0 MSTORE PUSH1 0x20 PUSH0 KECCAK256 SWAP1 JUMPDEST DUP2 SLOAD DUP2 MSTORE SWAP1 PUSH1 0x1 ADD SWAP1 PUSH1 0x20 ADD DUP1 DUP4 GT PUSH2 0x26C JUMPI DUP3 SWAP1 SUB PUSH1 0x1F AND DUP3 ADD SWAP2 JUMPDEST POP POP POP POP POP DUP2 MSTORE PUSH1 0x20 ADD SWAP1 PUSH1 0x1 ADD SWAP1 PUSH2 0x1F5 JUMP JUMPDEST POP POP POP POP DUP2 MSTORE PUSH1 0x20 ADD PUSH1 0x2 DUP3 ADD DUP1 SLOAD DUP1 PUSH1 0x20 MUL PUSH1 0x20 ADD PUSH1 0x40 MLOAD SWAP1 DUP2 ADD PUSH1 0x40 MSTORE DUP1 SWAP3 SWAP2 SWAP1 DUP2 DUP2 MSTORE PUSH1 0x20 ADD DUP3 DUP1 SLOAD DUP1 ISZERO PUSH2 0x327 JUMPI PUSH1 0x20 MUL DUP3 ADD SWAP2 SWAP1 PUSH0 MSTORE PUSH1 0x20 PUSH0 KECCAK256 SWAP1 JUMPDEST DUP2 PUSH0 SWAP1 SLOAD SWAP1 PUSH2 0x100 EXP SWAP1 DIV PUSH20 0xFFFFFFFFFFFFFFFFFFFFFFFFFFFFFFFFFFFFFFFF AND PUSH20 0xFFFFFFFFFFFFFFFFFFFFFFFFFFFFFFFFFFFFFFFF AND DUP2 MSTORE PUSH1 0x20 ADD SWAP1 PUSH1 0x1 ADD SWAP1 DUP1 DUP4 GT PUSH2 0x2DE JUMPI JUMPDEST POP POP POP POP POP DUP2 MSTORE PUSH1 0x20 ADD PUSH1 0x3 DUP3 ADD SLOAD DUP2 MSTORE PUSH1 0x20 ADD PUSH1 0x4 DUP3 ADD SLOAD DUP2 MSTORE POP POP DUP2 MSTORE PUSH1 0x20 ADD SWAP1 PUSH1 0x1 ADD SWAP1 PUSH2 0x121 JUMP JUMPDEST POP POP POP POP SWAP1 POP SWAP1 JUMP JUMPDEST PUSH2 0x365 DUP4 PUSH2 0x82B JUMP JUMPDEST ISZERO PUSH2 0x3A5 JUMPI PUSH1 0x40 MLOAD PUSH32 0x8C379A000000000000000000000000000000000000000000000000000000000 DUP2 MSTORE PUSH1 0x4 ADD PUSH2 0x39C SWAP1 PUSH2 0x142E JUMP JUMPDEST PUSH1 0x40 MLOAD DUP1 SWAP2 SUB SWAP1 REVERT JUMPDEST PUSH0 PUSH1 0x40 MLOAD DUP1 PUSH1 0xA0 ADD PUSH1 0x40 MSTORE DUP1 DUP6 DUP2 MSTORE PUSH1 0x20 ADD DUP5 DUP2 MSTORE PUSH1 0x20 ADD DUP4 DUP2 MSTORE PUSH1 0x20 ADD PUSH0 DUP2 MSTORE PUSH1 0x20 ADD PUSH0 DUP2 MSTORE POP SWAP1 DUP1 PUSH1 0x1 DUP2 SLOAD ADD DUP1 DUP3 SSTORE DUP1 SWAP2 POP POP PUSH1 0x1 SWAP1 SUB SWAP1 PUSH0 MSTORE PUSH1 0x20 PUSH0 KECCAK256 SWAP1 PUSH1 0x5 MUL ADD PUSH0 SWAP1 SWAP2 SWAP1 SWAP2 SWAP1 SWAP2 POP PUSH0 DUP3 ADD MLOAD DUP2 PUSH0 ADD SWAP1 DUP2 PUSH2 0x406 SWAP2 SWAP1 PUSH2 0x15E9 JUMP JUMPDEST POP PUSH1 0x20 DUP3 ADD MLOAD DUP2 PUSH1 0x1 ADD SWAP1 DUP1 MLOAD SWAP1 PUSH1 0x20 ADD SWAP1 PUSH2 0x423 SWAP3 SWAP2 SWAP1 PUSH2 0x8A4 JUMP JUMPDEST POP PUSH1 0x40 DUP3 ADD MLOAD DUP2 PUSH1 0x2 ADD SWAP1 DUP1 MLOAD SWAP1 PUSH1 0x20 ADD SWAP1 PUSH2 0x440 SWAP3 SWAP2 SWAP1 PUSH2 0x8FB JUMP JUMPDEST POP PUSH1 0x60 DUP3 ADD MLOAD DUP2 PUSH1 0x3 ADD SSTORE PUSH1 0x80 DUP3 ADD MLOAD DUP2 PUSH1 0x4 ADD SSTORE POP POP POP POP POP JUMP JUMPDEST PUSH0 DUP1 PUSH0 DUP1 SLOAD SWAP1 POP SUB PUSH2 0x473 JUMPI PUSH3 0x1869F SWAP1 POP PUSH2 0x59A JUMP JUMPDEST PUSH0 DUP1 DUP1 PUSH0 DUP2 SLOAD DUP2 LT PUSH2 0x488 JUMPI PUSH2 0x487 PUSH2 0x16B8 JUMP JUMPDEST JUMPDEST SWAP1 PUSH0 MSTORE PUSH1 0x20 PUSH0 KECCAK256 SWAP1 PUSH1 0x5 MUL ADD PUSH1 0x4 ADD SLOAD PUSH0 DUP1 DUP2 SLOAD DUP2 LT PUSH2 0x4AB JUMPI PUSH2 0x4AA PUSH2 0x16B8 JUMP JUMPDEST JUMPDEST SWAP1 PUSH0 MSTORE PUSH1 0x20 PUSH0 KECCAK256 SWAP1 PUSH1 0x5 MUL ADD PUSH1 0x3 ADD SLOAD PUSH2 0x4C5 SWAP2 SWAP1 PUSH2 0x1712 JUMP JUMPDEST SWAP1 POP PUSH0 PUSH1 0x1 SWAP1 POP JUMPDEST PUSH0 DUP1 SLOAD SWAP1 POP DUP2 LT ISZERO PUSH2 0x593 JUMPI DUP2 PUSH0 DUP3 DUP2 SLOAD DUP2 LT PUSH2 0x4ED JUMPI PUSH2 0x4EC PUSH2 0x16B8 JUMP JUMPDEST JUMPDEST SWAP1 PUSH0 MSTORE PUSH1 0x20 PUSH0 KECCAK256 SWAP1 PUSH1 0x5 MUL ADD PUSH1 0x4 ADD SLOAD PUSH0 DUP4 DUP2 SLOAD DUP2 LT PUSH2 0x510 JUMPI PUSH2 0x50F PUSH2 0x16B8 JUMP JUMPDEST JUMPDEST SWAP1 PUSH0 MSTORE PUSH1 0x20 PUSH0 KECCAK256 SWAP1 PUSH1 0x5 MUL ADD PUSH1 0x3 ADD SLOAD PUSH2 0x52A SWAP2 SWAP1 PUSH2 0x1712 JUMP JUMPDEST LT ISZERO PUSH2 0x586 JUMPI DUP1 SWAP3 POP PUSH0 DUP2 DUP2 SLOAD DUP2 LT PUSH2 0x546 JUMPI PUSH2 0x545 PUSH2 0x16B8 JUMP JUMPDEST JUMPDEST SWAP1 PUSH0 MSTORE PUSH1 0x20 PUSH0 KECCAK256 SWAP1 PUSH1 0x5 MUL ADD PUSH1 0x4 ADD SLOAD PUSH0 DUP3 DUP2 SLOAD DUP2 LT PUSH2 0x569 JUMPI PUSH2 0x568 PUSH2 0x16B8 JUMP JUMPDEST JUMPDEST SWAP1 PUSH0 MSTORE PUSH1 0x20 PUSH0 KECCAK256 SWAP1 PUSH1 0x5 MUL ADD PUSH1 0x3 ADD SLOAD PUSH2 0x583 SWAP2 SWAP1 PUSH2 0x1712 JUMP JUMPDEST SWAP2 POP JUMPDEST DUP1 DUP1 PUSH1 0x1 ADD SWAP2 POP POP PUSH2 0x4CD JUMP JUMPDEST POP DUP2 SWAP3 POP POP POP JUMPDEST SWAP1 JUMP JUMPDEST PUSH0 DUP2 DUP2 SLOAD DUP2 LT PUSH2 0x5AB JUMPI PUSH0 DUP1 REVERT JUMPDEST SWAP1 PUSH0 MSTORE PUSH1 0x20 PUSH0 KECCAK256 SWAP1 PUSH1 0x5 MUL ADD PUSH0 SWAP2 POP SWAP1 POP DUP1 PUSH0 ADD DUP1 SLOAD PUSH2 0x5CA SWAP1 PUSH2 0x13B4 JUMP JUMPDEST DUP1 PUSH1 0x1F ADD PUSH1 0x20 DUP1 SWAP2 DIV MUL PUSH1 0x20 ADD PUSH1 0x40 MLOAD SWAP1 DUP2 ADD PUSH1 0x40 MSTORE DUP1 SWAP3 SWAP2 SWAP1 DUP2 DUP2 MSTORE PUSH1 0x20 ADD DUP3 DUP1 SLOAD PUSH2 0x5F6 SWAP1 PUSH2 0x13B4 JUMP JUMPDEST DUP1 ISZERO PUSH2 0x641 JUMPI DUP1 PUSH1 0x1F LT PUSH2 0x618 JUMPI PUSH2 0x100 DUP1 DUP4 SLOAD DIV MUL DUP4 MSTORE SWAP2 PUSH1 0x20 ADD SWAP2 PUSH2 0x641 JUMP JUMPDEST DUP3 ADD SWAP2 SWAP1 PUSH0 MSTORE PUSH1 0x20 PUSH0 KECCAK256 SWAP1 JUMPDEST DUP2 SLOAD DUP2 MSTORE SWAP1 PUSH1 0x1 ADD SWAP1 PUSH1 0x20 ADD DUP1 DUP4 GT PUSH2 0x624 JUMPI DUP3 SWAP1 SUB PUSH1 0x1F AND DUP3 ADD SWAP2 JUMPDEST POP POP POP POP POP SWAP1 DUP1 PUSH1 0x3 ADD SLOAD SWAP1 DUP1 PUSH1 0x4 ADD SLOAD SWAP1 POP DUP4 JUMP JUMPDEST DUP2 PUSH0 DUP1 SLOAD SWAP1 POP GT PUSH2 0x69D JUMPI PUSH1 0x40 MLOAD PUSH32 0x8C379A000000000000000000000000000000000000000000000000000000000 DUP2 MSTORE PUSH1 0x4 ADD PUSH2 0x694 SWAP1 PUSH2 0x178F JUMP JUMPDEST PUSH1 0x40 MLOAD DUP1 SWAP2 SUB SWAP1 REVERT JUMPDEST PUSH0 DUP1 DUP4 DUP2 SLOAD DUP2 LT PUSH2 0x6B1 JUMPI PUSH2 0x6B0 PUSH2 0x16B8 JUMP JUMPDEST JUMPDEST SWAP1 PUSH0 MSTORE PUSH1 0x20 PUSH0 KECCAK256 SWAP1 PUSH1 0x5 MUL ADD SWAP1 POP DUP2 ISZERO PUSH2 0x6E3 JUMPI DUP1 PUSH1 0x3 ADD PUSH0 DUP2 SLOAD DUP1 SWAP3 SWAP2 SWAP1 PUSH2 0x6D9 SWAP1 PUSH2 0x17AD JUMP JUMPDEST SWAP2 SWAP1 POP SSTORE POP PUSH2 0x6FD JUMP JUMPDEST DUP1 PUSH1 0x4 ADD PUSH0 DUP2 SLOAD DUP1 SWAP3 SWAP2 SWAP1 PUSH2 0x6F7 SWAP1 PUSH2 0x17AD JUMP JUMPDEST SWAP2 SWAP1 POP SSTORE POP JUMPDEST PUSH1 0x5 DUP2 PUSH1 0x4 ADD SLOAD DUP3 PUSH1 0x3 ADD SLOAD PUSH2 0x713 SWAP2 SWAP1 PUSH2 0x1712 JUMP JUMPDEST SUB PUSH2 0x826 JUMPI PUSH0 PUSH1 0x1 PUSH0 DUP1 SLOAD SWAP1 POP PUSH2 0x72A SWAP2 SWAP1 PUSH2 0x17F4 JUMP JUMPDEST SWAP1 POP PUSH0 DUP2 DUP2 SLOAD DUP2 LT PUSH2 0x73F JUMPI PUSH2 0x73E PUSH2 0x16B8 JUMP JUMPDEST JUMPDEST SWAP1 PUSH0 MSTORE PUSH1 0x20 PUSH0 KECCAK256 SWAP1 PUSH1 0x5 MUL ADD PUSH0 DUP6 DUP2 SLOAD DUP2 LT PUSH2 0x75E JUMPI PUSH2 0x75D PUSH2 0x16B8 JUMP JUMPDEST JUMPDEST SWAP1 PUSH0 MSTORE PUSH1 0x20 PUSH0 KECCAK256 SWAP1 PUSH1 0x5 MUL ADD PUSH0 DUP3 ADD DUP2 PUSH0 ADD SWAP1 DUP2 PUSH2 0x77C SWAP2 SWAP1 PUSH2 0x183C JUMP JUMPDEST POP PUSH1 0x1 DUP3 ADD DUP2 PUSH1 0x1 ADD SWAP1 DUP1 SLOAD PUSH2 0x793 SWAP3 SWAP2 SWAP1 PUSH2 0x982 JUMP JUMPDEST POP PUSH1 0x2 DUP3 ADD DUP2 PUSH1 0x2 ADD SWAP1 DUP1 SLOAD PUSH2 0x7AA SWAP3 SWAP2 SWAP1 PUSH2 0x9DB JUMP JUMPDEST POP PUSH1 0x3 DUP3 ADD SLOAD DUP2 PUSH1 0x3 ADD SSTORE PUSH1 0x4 DUP3 ADD SLOAD DUP2 PUSH1 0x4 ADD SSTORE SWAP1 POP POP PUSH0 DUP1 SLOAD DUP1 PUSH2 0x7D3 JUMPI PUSH2 0x7D2 PUSH2 0x1921 JUMP JUMPDEST JUMPDEST PUSH1 0x1 SWAP1 SUB DUP2 DUP2 SWAP1 PUSH0 MSTORE PUSH1 0x20 PUSH0 KECCAK256 SWAP1 PUSH1 0x5 MUL ADD PUSH0 DUP1 DUP3 ADD PUSH0 PUSH2 0x7F4 SWAP2 SWAP1 PUSH2 0xA29 JUMP JUMPDEST PUSH1 0x1 DUP3 ADD PUSH0 PUSH2 0x803 SWAP2 SWAP1 PUSH2 0xA66 JUMP JUMPDEST PUSH1 0x2 DUP3 ADD PUSH0 PUSH2 0x812 SWAP2 SWAP1 PUSH2 0xA84 JUMP JUMPDEST PUSH1 0x3 DUP3 ADD PUSH0 SWAP1 SSTORE PUSH1 0x4 DUP3 ADD PUSH0 SWAP1 SSTORE POP POP SWAP1 SSTORE POP JUMPDEST POP POP POP JUMP JUMPDEST PUSH0 DUP1 DUP3 SWAP1 POP PUSH0 JUMPDEST PUSH0 DUP1 SLOAD SWAP1 POP DUP2 LT ISZERO PUSH2 0x899 JUMPI DUP2 DUP1 MLOAD SWAP1 PUSH1 0x20 ADD KECCAK256 PUSH0 DUP3 DUP2 SLOAD DUP2 LT PUSH2 0x859 JUMPI PUSH2 0x858 PUSH2 0x16B8 JUMP JUMPDEST JUMPDEST SWAP1 PUSH0 MSTORE PUSH1 0x20 PUSH0 KECCAK256 SWAP1 PUSH1 0x5 MUL ADD PUSH0 ADD PUSH1 0x40 MLOAD PUSH2 0x874 SWAP2 SWAP1 PUSH2 0x19EA JUMP JUMPDEST PUSH1 0x40 MLOAD DUP1 SWAP2 SUB SWAP1 KECCAK256 SUB PUSH2 0x88C JUMPI PUSH1 0x1 SWAP3 POP POP POP PUSH2 0x89F JUMP JUMPDEST DUP1 DUP1 PUSH1 0x1 ADD SWAP2 POP POP PUSH2 0x832 JUMP JUMPDEST POP PUSH0 SWAP2 POP POP JUMPDEST SWAP2 SWAP1 POP JUMP JUMPDEST DUP3 DUP1 SLOAD DUP3 DUP3 SSTORE SWAP1 PUSH0 MSTORE PUSH1 0x20 PUSH0 KECCAK256 SWAP1 DUP2 ADD SWAP3 DUP3 ISZERO PUSH2 0x8EA JUMPI SWAP2 PUSH1 0x20 MUL DUP3 ADD JUMPDEST DUP3 DUP2 GT ISZERO PUSH2 0x8E9 JUMPI DUP3 MLOAD DUP3 SWAP1 DUP2 PUSH2 0x8D9 SWAP2 SWAP1 PUSH2 0x15E9 JUMP JUMPDEST POP SWAP2 PUSH1 0x20 ADD SWAP2 SWAP1 PUSH1 0x1 ADD SWAP1 PUSH2 0x8C2 JUMP JUMPDEST JUMPDEST POP SWAP1 POP PUSH2 0x8F7 SWAP2 SWAP1 PUSH2 0xAA2 JUMP JUMPDEST POP SWAP1 JUMP JUMPDEST DUP3 DUP1 SLOAD DUP3 DUP3 SSTORE SWAP1 PUSH0 MSTORE PUSH1 0x20 PUSH0 KECCAK256 SWAP1 DUP2 ADD SWAP3 DUP3 ISZERO PUSH2 0x971 JUMPI SWAP2 PUSH1 0x20 MUL DUP3 ADD JUMPDEST DUP3 DUP2 GT ISZERO PUSH2 0x970 JUMPI DUP3 MLOAD DUP3 PUSH0 PUSH2 0x100 EXP DUP2 SLOAD DUP2 PUSH20 0xFFFFFFFFFFFFFFFFFFFFFFFFFFFFFFFFFFFFFFFF MUL NOT AND SWAP1 DUP4 PUSH20 0xFFFFFFFFFFFFFFFFFFFFFFFFFFFFFFFFFFFFFFFF AND MUL OR SWAP1 SSTORE POP SWAP2 PUSH1 0x20 ADD SWAP2 SWAP1 PUSH1 0x1 ADD SWAP1 PUSH2 0x919 JUMP JUMPDEST JUMPDEST POP SWAP1 POP PUSH2 0x97E SWAP2 SWAP1 PUSH2 0xAC5 JUMP JUMPDEST POP SWAP1 JUMP JUMPDEST DUP3 DUP1 SLOAD DUP3 DUP3 SSTORE SWAP1 PUSH0 MSTORE PUSH1 0x20 PUSH0 KECCAK256 SWAP1 DUP2 ADD SWAP3 DUP3 ISZERO PUSH2 0x9CA JUMPI PUSH0 MSTORE PUSH1 0x20 PUSH0 KECCAK256 SWAP2 DUP3 ADD JUMPDEST DUP3 DUP2 GT ISZERO PUSH2 0x9C9 JUMPI DUP3 DUP3 SWAP1 DUP2 PUSH2 0x9B9 SWAP2 SWAP1 PUSH2 0x183C JUMP JUMPDEST POP SWAP2 PUSH1 0x1 ADD SWAP2 SWAP1 PUSH1 0x1 ADD SWAP1 PUSH2 0x9A3 JUMP JUMPDEST JUMPDEST POP SWAP1 POP PUSH2 0x9D7 SWAP2 SWAP1 PUSH2 0xAA2 JUMP JUMPDEST POP SWAP1 JUMP JUMPDEST DUP3 DUP1 SLOAD DUP3 DUP3 SSTORE SWAP1 PUSH0 MSTORE PUSH1 0x20 PUSH0 KECCAK256 SWAP1 DUP2 ADD SWAP3 DUP3 ISZERO PUSH2 0xA18 JUMPI PUSH0 MSTORE PUSH1 0x20 PUSH0 KECCAK256 SWAP2 DUP3 ADD JUMPDEST DUP3 DUP2 GT ISZERO PUSH2 0xA17 JUMPI DUP3 SLOAD DUP3 SSTORE SWAP2 PUSH1 0x1 ADD SWAP2 SWAP1 PUSH1 0x1 ADD SWAP1 PUSH2 0x9FC JUMP JUMPDEST JUMPDEST POP SWAP1 POP PUSH2 0xA25 SWAP2 SWAP1 PUSH2 0xAC5 JUMP JUMPDEST POP SWAP1 JUMP JUMPDEST POP DUP1 SLOAD PUSH2 0xA35 SWAP1 PUSH2 0x13B4 JUMP JUMPDEST PUSH0 DUP3 SSTORE DUP1 PUSH1 0x1F LT PUSH2 0xA46 JUMPI POP PUSH2 0xA63 JUMP JUMPDEST PUSH1 0x1F ADD PUSH1 0x20 SWAP1 DIV SWAP1 PUSH0 MSTORE PUSH1 0x20 PUSH0 KECCAK256 SWAP1 DUP2 ADD SWAP1 PUSH2 0xA62 SWAP2 SWAP1 PUSH2 0xAC5 JUMP JUMPDEST JUMPDEST POP JUMP JUMPDEST POP DUP1 SLOAD PUSH0 DUP3 SSTORE SWAP1 PUSH0 MSTORE PUSH1 0x20 PUSH0 KECCAK256 SWAP1 DUP2 ADD SWAP1 PUSH2 0xA81 SWAP2 SWAP1 PUSH2 0xAA2 JUMP JUMPDEST POP JUMP JUMPDEST POP DUP1 SLOAD PUSH0 DUP3 SSTORE SWAP1 PUSH0 MSTORE PUSH1 0x20 PUSH0 KECCAK256 SWAP1 DUP2 ADD SWAP1 PUSH2 0xA9F SWAP2 SWAP1 PUSH2 0xAC5 JUMP JUMPDEST POP JUMP JUMPDEST JUMPDEST DUP1 DUP3 GT ISZERO PUSH2 0xAC1 JUMPI PUSH0 DUP2 DUP2 PUSH2 0xAB8 SWAP2 SWAP1 PUSH2 0xA29 JUMP JUMPDEST POP PUSH1 0x1 ADD PUSH2 0xAA3 JUMP JUMPDEST POP SWAP1 JUMP JUMPDEST JUMPDEST DUP1 DUP3 GT ISZERO PUSH2 0xADC JUMPI PUSH0 DUP2 PUSH0 SWAP1 SSTORE POP PUSH1 0x1 ADD PUSH2 0xAC6 JUMP JUMPDEST POP SWAP1 JUMP JUMPDEST PUSH0 DUP2 MLOAD SWAP1 POP SWAP2 SWAP1 POP JUMP JUMPDEST PUSH0 DUP3 DUP3 MSTORE PUSH1 0x20 DUP3 ADD SWAP1 POP SWAP3 SWAP2 POP POP JUMP JUMPDEST PUSH0 DUP2 SWAP1 POP PUSH1 0x20 DUP3 ADD SWAP1 POP SWAP2 SWAP1 POP JUMP JUMPDEST PUSH0 DUP2 MLOAD SWAP1 POP SWAP2 SWAP1 POP JUMP JUMPDEST PUSH0 DUP3 DUP3 MSTORE PUSH1 0x20 DUP3 ADD SWAP1 POP SWAP3 SWAP2 POP POP JUMP JUMPDEST DUP3 DUP2 DUP4 MCOPY PUSH0 DUP4 DUP4 ADD MSTORE POP POP POP JUMP JUMPDEST PUSH0 PUSH1 0x1F NOT PUSH1 0x1F DUP4 ADD AND SWAP1 POP SWAP2 SWAP1 POP JUMP JUMPDEST PUSH0 PUSH2 0xB4B DUP3 PUSH2 0xB09 JUMP JUMPDEST PUSH2 0xB55 DUP2 DUP6 PUSH2 0xB13 JUMP JUMPDEST SWAP4 POP PUSH2 0xB65 DUP2 DUP6 PUSH1 0x20 DUP7 ADD PUSH2 0xB23 JUMP JUMPDEST PUSH2 0xB6E DUP2 PUSH2 0xB31 JUMP JUMPDEST DUP5 ADD SWAP2 POP POP SWAP3 SWAP2 POP POP JUMP JUMPDEST PUSH0 DUP2 MLOAD SWAP1 POP SWAP2 SWAP1 POP JUMP JUMPDEST PUSH0 DUP3 DUP3 MSTORE PUSH1 0x20 DUP3 ADD SWAP1 POP SWAP3 SWAP2 POP POP JUMP JUMPDEST PUSH0 DUP2 SWAP1 POP PUSH1 0x20 DUP3 ADD SWAP1 POP SWAP2 SWAP1 POP JUMP JUMPDEST PUSH0 PUSH2 0xBAD DUP4 DUP4 PUSH2 0xB41 JUMP JUMPDEST SWAP1 POP SWAP3 SWAP2 POP POP JUMP JUMPDEST PUSH0 PUSH1 0x20 DUP3 ADD SWAP1 POP SWAP2 SWAP1 POP JUMP JUMPDEST PUSH0 PUSH2 0xBCB DUP3 PUSH2 0xB79 JUMP JUMPDEST PUSH2 0xBD5 DUP2 DUP6 PUSH2 0xB83 JUMP JUMPDEST SWAP4 POP DUP4 PUSH1 0x20 DUP3 MUL DUP6 ADD PUSH2 0xBE7 DUP6 PUSH2 0xB93 JUMP JUMPDEST DUP1 PUSH0 JUMPDEST DUP6 DUP2 LT ISZERO PUSH2 0xC22 JUMPI DUP5 DUP5 SUB DUP10 MSTORE DUP2 MLOAD PUSH2 0xC03 DUP6 DUP3 PUSH2 0xBA2 JUMP JUMPDEST SWAP5 POP PUSH2 0xC0E DUP4 PUSH2 0xBB5 JUMP JUMPDEST SWAP3 POP PUSH1 0x20 DUP11 ADD SWAP10 POP POP PUSH1 0x1 DUP2 ADD SWAP1 POP PUSH2 0xBEA JUMP JUMPDEST POP DUP3 SWAP8 POP DUP8 SWAP6 POP POP POP POP POP POP SWAP3 SWAP2 POP POP JUMP JUMPDEST PUSH0 DUP2 MLOAD SWAP1 POP SWAP2 SWAP1 POP JUMP JUMPDEST PUSH0 DUP3 DUP3 MSTORE PUSH1 0x20 DUP3 ADD SWAP1 POP SWAP3 SWAP2 POP POP JUMP JUMPDEST PUSH0 DUP2 SWAP1 POP PUSH1 0x20 DUP3 ADD SWAP1 POP SWAP2 SWAP1 POP JUMP JUMPDEST PUSH0 PUSH20 0xFFFFFFFFFFFFFFFFFFFFFFFFFFFFFFFFFFFFFFFF DUP3 AND SWAP1 POP SWAP2 SWAP1 POP JUMP JUMPDEST PUSH0 PUSH2 0xC86 DUP3 PUSH2 0xC5D JUMP JUMPDEST SWAP1 POP SWAP2 SWAP1 POP JUMP JUMPDEST PUSH2 0xC96 DUP2 PUSH2 0xC7C JUMP JUMPDEST DUP3 MSTORE POP POP JUMP JUMPDEST PUSH0 PUSH2 0xCA7 DUP4 DUP4 PUSH2 0xC8D JUMP JUMPDEST PUSH1 0x20 DUP4 ADD SWAP1 POP SWAP3 SWAP2 POP POP JUMP JUMPDEST PUSH0 PUSH1 0x20 DUP3 ADD SWAP1 POP SWAP2 SWAP1 POP JUMP JUMPDEST PUSH0 PUSH2 0xCC9 DUP3 PUSH2 0xC34 JUMP JUMPDEST PUSH2 0xCD3 DUP2 DUP6 PUSH2 0xC3E JUMP JUMPDEST SWAP4 POP PUSH2 0xCDE DUP4 PUSH2 0xC4E JUMP JUMPDEST DUP1 PUSH0 JUMPDEST DUP4 DUP2 LT ISZERO PUSH2 0xD0E JUMPI DUP2 MLOAD PUSH2 0xCF5 DUP9 DUP3 PUSH2 0xC9C JUMP JUMPDEST SWAP8 POP PUSH2 0xD00 DUP4 PUSH2 0xCB3 JUMP JUMPDEST SWAP3 POP POP PUSH1 0x1 DUP2 ADD SWAP1 POP PUSH2 0xCE1 JUMP JUMPDEST POP DUP6 SWAP4 POP POP POP POP SWAP3 SWAP2 POP POP JUMP JUMPDEST PUSH0 DUP2 SWAP1 POP SWAP2 SWAP1 POP JUMP JUMPDEST PUSH2 0xD2D DUP2 PUSH2 0xD1B JUMP JUMPDEST DUP3 MSTORE POP POP JUMP JUMPDEST PUSH0 PUSH1 0xA0 DUP4 ADD PUSH0 DUP4 ADD MLOAD DUP5 DUP3 SUB PUSH0 DUP7 ADD MSTORE PUSH2 0xD4D DUP3 DUP3 PUSH2 0xB41 JUMP JUMPDEST SWAP2 POP POP PUSH1 0x20 DUP4 ADD MLOAD DUP5 DUP3 SUB PUSH1 0x20 DUP7 ADD MSTORE PUSH2 0xD67 DUP3 DUP3 PUSH2 0xBC1 JUMP JUMPDEST SWAP2 POP POP PUSH1 0x40 DUP4 ADD MLOAD DUP5 DUP3 SUB PUSH1 0x40 DUP7 ADD MSTORE PUSH2 0xD81 DUP3 DUP3 PUSH2 0xCBF JUMP JUMPDEST SWAP2 POP POP PUSH1 0x60 DUP4 ADD MLOAD PUSH2 0xD96 PUSH1 0x60 DUP7 ADD DUP3 PUSH2 0xD24 JUMP JUMPDEST POP PUSH1 0x80 DUP4 ADD MLOAD PUSH2 0xDA9 PUSH1 0x80 DUP7 ADD DUP3 PUSH2 0xD24 JUMP JUMPDEST POP DUP1 SWAP2 POP POP SWAP3 SWAP2 POP POP JUMP JUMPDEST PUSH0 PUSH2 0xDBF DUP4 DUP4 PUSH2 0xD33 JUMP JUMPDEST SWAP1 POP SWAP3 SWAP2 POP POP JUMP JUMPDEST PUSH0 PUSH1 0x20 DUP3 ADD SWAP1 POP SWAP2 SWAP1 POP JUMP JUMPDEST PUSH0 PUSH2 0xDDD DUP3 PUSH2 0xAE0 JUMP JUMPDEST PUSH2 0xDE7 DUP2 DUP6 PUSH2 0xAEA JUMP JUMPDEST SWAP4 POP DUP4 PUSH1 0x20 DUP3 MUL DUP6 ADD PUSH2 0xDF9 DUP6 PUSH2 0xAFA JUMP JUMPDEST DUP1 PUSH0 JUMPDEST DUP6 DUP2 LT ISZERO PUSH2 0xE34 JUMPI DUP5 DUP5 SUB DUP10 MSTORE DUP2 MLOAD PUSH2 0xE15 DUP6 DUP3 PUSH2 0xDB4 JUMP JUMPDEST SWAP5 POP PUSH2 0xE20 DUP4 PUSH2 0xDC7 JUMP JUMPDEST SWAP3 POP PUSH1 0x20 DUP11 ADD SWAP10 POP POP PUSH1 0x1 DUP2 ADD SWAP1 POP PUSH2 0xDFC JUMP JUMPDEST POP DUP3 SWAP8 POP DUP8 SWAP6 POP POP POP POP POP POP SWAP3 SWAP2 POP POP JUMP JUMPDEST PUSH0 PUSH1 0x20 DUP3 ADD SWAP1 POP DUP2 DUP2 SUB PUSH0 DUP4 ADD MSTORE PUSH2 0xE5E DUP2 DUP5 PUSH2 0xDD3 JUMP JUMPDEST SWAP1 POP SWAP3 SWAP2 POP POP JUMP JUMPDEST PUSH0 PUSH1 0x40 MLOAD SWAP1 POP SWAP1 JUMP JUMPDEST PUSH0 DUP1 REVERT JUMPDEST PUSH0 DUP1 REVERT JUMPDEST PUSH0 DUP1 REVERT JUMPDEST PUSH0 DUP1 REVERT JUMPDEST PUSH32 0x4E487B7100000000000000000000000000000000000000000000000000000000 PUSH0 MSTORE PUSH1 0x41 PUSH1 0x4 MSTORE PUSH1 0x24 PUSH0 REVERT JUMPDEST PUSH2 0xEB5 DUP3 PUSH2 0xB31 JUMP JUMPDEST DUP2 ADD DUP2 DUP2 LT PUSH8 0xFFFFFFFFFFFFFFFF DUP3 GT OR ISZERO PUSH2 0xED4 JUMPI PUSH2 0xED3 PUSH2 0xE7F JUMP JUMPDEST JUMPDEST DUP1 PUSH1 0x40 MSTORE POP POP POP JUMP JUMPDEST PUSH0 PUSH2 0xEE6 PUSH2 0xE66 JUMP JUMPDEST SWAP1 POP PUSH2 0xEF2 DUP3 DUP3 PUSH2 0xEAC JUMP JUMPDEST SWAP2 SWAP1 POP JUMP JUMPDEST PUSH0 PUSH8 0xFFFFFFFFFFFFFFFF DUP3 GT ISZERO PUSH2 0xF11 JUMPI PUSH2 0xF10 PUSH2 0xE7F JUMP JUMPDEST JUMPDEST PUSH2 0xF1A DUP3 PUSH2 0xB31 JUMP JUMPDEST SWAP1 POP PUSH1 0x20 DUP2 ADD SWAP1 POP SWAP2 SWAP1 POP JUMP JUMPDEST DUP3 DUP2 DUP4 CALLDATACOPY PUSH0 DUP4 DUP4 ADD MSTORE POP POP POP JUMP JUMPDEST PUSH0 PUSH2 0xF47 PUSH2 0xF42 DUP5 PUSH2 0xEF7 JUMP JUMPDEST PUSH2 0xEDD JUMP JUMPDEST SWAP1 POP DUP3 DUP2 MSTORE PUSH1 0x20 DUP2 ADD DUP5 DUP5 DUP5 ADD GT ISZERO PUSH2 0xF63 JUMPI PUSH2 0xF62 PUSH2 0xE7B JUMP JUMPDEST JUMPDEST PUSH2 0xF6E DUP5 DUP3 DUP6 PUSH2 0xF27 JUMP JUMPDEST POP SWAP4 SWAP3 POP POP POP JUMP JUMPDEST PUSH0 DUP3 PUSH1 0x1F DUP4 ADD SLT PUSH2 0xF8A JUMPI PUSH2 0xF89 PUSH2 0xE77 JUMP JUMPDEST JUMPDEST DUP2 CALLDATALOAD PUSH2 0xF9A DUP5 DUP3 PUSH1 0x20 DUP7 ADD PUSH2 0xF35 JUMP JUMPDEST SWAP2 POP POP SWAP3 SWAP2 POP POP JUMP JUMPDEST PUSH0 PUSH8 0xFFFFFFFFFFFFFFFF DUP3 GT ISZERO PUSH2 0xFBD JUMPI PUSH2 0xFBC PUSH2 0xE7F JUMP JUMPDEST JUMPDEST PUSH1 0x20 DUP3 MUL SWAP1 POP PUSH1 0x20 DUP2 ADD SWAP1 POP SWAP2 SWAP1 POP JUMP JUMPDEST PUSH0 DUP1 REVERT JUMPDEST PUSH0 PUSH2 0xFE4 PUSH2 0xFDF DUP5 PUSH2 0xFA3 JUMP JUMPDEST PUSH2 0xEDD JUMP JUMPDEST SWAP1 POP DUP1 DUP4 DUP3 MSTORE PUSH1 0x20 DUP3 ADD SWAP1 POP PUSH1 0x20 DUP5 MUL DUP4 ADD DUP6 DUP2 GT ISZERO PUSH2 0x1007 JUMPI PUSH2 0x1006 PUSH2 0xFCE JUMP JUMPDEST JUMPDEST DUP4 JUMPDEST DUP2 DUP2 LT ISZERO PUSH2 0x104E JUMPI DUP1 CALLDATALOAD PUSH8 0xFFFFFFFFFFFFFFFF DUP2 GT ISZERO PUSH2 0x102C JUMPI PUSH2 0x102B PUSH2 0xE77 JUMP JUMPDEST JUMPDEST DUP1 DUP7 ADD PUSH2 0x1039 DUP10 DUP3 PUSH2 0xF76 JUMP JUMPDEST DUP6 MSTORE PUSH1 0x20 DUP6 ADD SWAP5 POP POP POP PUSH1 0x20 DUP2 ADD SWAP1 POP PUSH2 0x1009 JUMP JUMPDEST POP POP POP SWAP4 SWAP3 POP POP POP JUMP JUMPDEST PUSH0 DUP3 PUSH1 0x1F DUP4 ADD SLT PUSH2 0x106C JUMPI PUSH2 0x106B PUSH2 0xE77 JUMP JUMPDEST JUMPDEST DUP2 CALLDATALOAD PUSH2 0x107C DUP5 DUP3 PUSH1 0x20 DUP7 ADD PUSH2 0xFD2 JUMP JUMPDEST SWAP2 POP POP SWAP3 SWAP2 POP POP JUMP JUMPDEST PUSH0 PUSH8 0xFFFFFFFFFFFFFFFF DUP3 GT ISZERO PUSH2 0x109F JUMPI PUSH2 0x109E PUSH2 0xE7F JUMP JUMPDEST JUMPDEST PUSH1 0x20 DUP3 MUL SWAP1 POP PUSH1 0x20 DUP2 ADD SWAP1 POP SWAP2 SWAP1 POP JUMP JUMPDEST PUSH2 0x10B9 DUP2 PUSH2 0xC7C JUMP JUMPDEST DUP2 EQ PUSH2 0x10C3 JUMPI PUSH0 DUP1 REVERT JUMPDEST POP JUMP JUMPDEST PUSH0 DUP2 CALLDATALOAD SWAP1 POP PUSH2 0x10D4 DUP2 PUSH2 0x10B0 JUMP JUMPDEST SWAP3 SWAP2 POP POP JUMP JUMPDEST PUSH0 PUSH2 0x10EC PUSH2 0x10E7 DUP5 PUSH2 0x1085 JUMP JUMPDEST PUSH2 0xEDD JUMP JUMPDEST SWAP1 POP DUP1 DUP4 DUP3 MSTORE PUSH1 0x20 DUP3 ADD SWAP1 POP PUSH1 0x20 DUP5 MUL DUP4 ADD DUP6 DUP2 GT ISZERO PUSH2 0x110F JUMPI PUSH2 0x110E PUSH2 0xFCE JUMP JUMPDEST JUMPDEST DUP4 JUMPDEST DUP2 DUP2 LT ISZERO PUSH2 0x1138 JUMPI DUP1 PUSH2 0x1124 DUP9 DUP3 PUSH2 0x10C6 JUMP JUMPDEST DUP5 MSTORE PUSH1 0x20 DUP5 ADD SWAP4 POP POP PUSH1 0x20 DUP2 ADD SWAP1 POP PUSH2 0x1111 JUMP JUMPDEST POP POP POP SWAP4 SWAP3 POP POP POP JUMP JUMPDEST PUSH0 DUP3 PUSH1 0x1F DUP4 ADD SLT PUSH2 0x1156 JUMPI PUSH2 0x1155 PUSH2 0xE77 JUMP JUMPDEST JUMPDEST DUP2 CALLDATALOAD PUSH2 0x1166 DUP5 DUP3 PUSH1 0x20 DUP7 ADD PUSH2 0x10DA JUMP JUMPDEST SWAP2 POP POP SWAP3 SWAP2 POP POP JUMP JUMPDEST PUSH0 DUP1 PUSH0 PUSH1 0x60 DUP5 DUP7 SUB SLT ISZERO PUSH2 0x1186 JUMPI PUSH2 0x1185 PUSH2 0xE6F JUMP JUMPDEST JUMPDEST PUSH0 DUP5 ADD CALLDATALOAD PUSH8 0xFFFFFFFFFFFFFFFF DUP2 GT ISZERO PUSH2 0x11A3 JUMPI PUSH2 0x11A2 PUSH2 0xE73 JUMP JUMPDEST JUMPDEST PUSH2 0x11AF DUP7 DUP3 DUP8 ADD PUSH2 0xF76 JUMP JUMPDEST SWAP4 POP POP PUSH1 0x20 DUP5 ADD CALLDATALOAD PUSH8 0xFFFFFFFFFFFFFFFF DUP2 GT ISZERO PUSH2 0x11D0 JUMPI PUSH2 0x11CF PUSH2 0xE73 JUMP JUMPDEST JUMPDEST PUSH2 0x11DC DUP7 DUP3 DUP8 ADD PUSH2 0x1058 JUMP JUMPDEST SWAP3 POP POP PUSH1 0x40 DUP5 ADD CALLDATALOAD PUSH8 0xFFFFFFFFFFFFFFFF DUP2 GT ISZERO PUSH2 0x11FD JUMPI PUSH2 0x11FC PUSH2 0xE73 JUMP JUMPDEST JUMPDEST PUSH2 0x1209 DUP7 DUP3 DUP8 ADD PUSH2 0x1142 JUMP JUMPDEST SWAP2 POP POP SWAP3 POP SWAP3 POP SWAP3 JUMP JUMPDEST PUSH2 0x121C DUP2 PUSH2 0xD1B JUMP JUMPDEST DUP3 MSTORE POP POP JUMP JUMPDEST PUSH0 PUSH1 0x20 DUP3 ADD SWAP1 POP PUSH2 0x1235 PUSH0 DUP4 ADD DUP5 PUSH2 0x1213 JUMP JUMPDEST SWAP3 SWAP2 POP POP JUMP JUMPDEST PUSH2 0x1244 DUP2 PUSH2 0xD1B JUMP JUMPDEST DUP2 EQ PUSH2 0x124E JUMPI PUSH0 DUP1 REVERT JUMPDEST POP JUMP JUMPDEST PUSH0 DUP2 CALLDATALOAD SWAP1 POP PUSH2 0x125F DUP2 PUSH2 0x123B JUMP JUMPDEST SWAP3 SWAP2 POP POP JUMP JUMPDEST PUSH0 PUSH1 0x20 DUP3 DUP5 SUB SLT ISZERO PUSH2 0x127A JUMPI PUSH2 0x1279 PUSH2 0xE6F JUMP JUMPDEST JUMPDEST PUSH0 PUSH2 0x1287 DUP5 DUP3 DUP6 ADD PUSH2 0x1251 JUMP JUMPDEST SWAP2 POP POP SWAP3 SWAP2 POP POP JUMP JUMPDEST PUSH0 DUP3 DUP3 MSTORE PUSH1 0x20 DUP3 ADD SWAP1 POP SWAP3 SWAP2 POP POP JUMP JUMPDEST PUSH0 PUSH2 0x12AA DUP3 PUSH2 0xB09 JUMP JUMPDEST PUSH2 0x12B4 DUP2 DUP6 PUSH2 0x1290 JUMP JUMPDEST SWAP4 POP PUSH2 0x12C4 DUP2 DUP6 PUSH1 0x20 DUP7 ADD PUSH2 0xB23 JUMP JUMPDEST PUSH2 0x12CD DUP2 PUSH2 0xB31 JUMP JUMPDEST DUP5 ADD SWAP2 POP POP SWAP3 SWAP2 POP POP JUMP JUMPDEST PUSH0 PUSH1 0x60 DUP3 ADD SWAP1 POP DUP2 DUP2 SUB PUSH0 DUP4 ADD MSTORE PUSH2 0x12F0 DUP2 DUP7 PUSH2 0x12A0 JUMP JUMPDEST SWAP1 POP PUSH2 0x12FF PUSH1 0x20 DUP4 ADD DUP6 PUSH2 0x1213 JUMP JUMPDEST PUSH2 0x130C PUSH1 0x40 DUP4 ADD DUP5 PUSH2 0x1213 JUMP JUMPDEST SWAP5 SWAP4 POP POP POP POP JUMP JUMPDEST PUSH0 DUP2 ISZERO ISZERO SWAP1 POP SWAP2 SWAP1 POP JUMP JUMPDEST PUSH2 0x1328 DUP2 PUSH2 0x1314 JUMP JUMPDEST DUP2 EQ PUSH2 0x1332 JUMPI PUSH0 DUP1 REVERT JUMPDEST POP JUMP JUMPDEST PUSH0 DUP2 CALLDATALOAD SWAP1 POP PUSH2 0x1343 DUP2 PUSH2 0x131F JUMP JUMPDEST SWAP3 SWAP2 POP POP JUMP JUMPDEST PUSH0 DUP1 PUSH1 0x40 DUP4 DUP6 SUB SLT ISZERO PUSH2 0x135F JUMPI PUSH2 0x135E PUSH2 0xE6F JUMP JUMPDEST JUMPDEST PUSH0 PUSH2 0x136C DUP6 DUP3 DUP7 ADD PUSH2 0x1251 JUMP JUMPDEST SWAP3 POP POP PUSH1 0x20 PUSH2 0x137D DUP6 DUP3 DUP7 ADD PUSH2 0x1335 JUMP JUMPDEST SWAP2 POP POP SWAP3 POP SWAP3 SWAP1 POP JUMP JUMPDEST PUSH32 0x4E487B7100000000000000000000000000000000000000000000000000000000 PUSH0 MSTORE PUSH1 0x22 PUSH1 0x4 MSTORE PUSH1 0x24 PUSH0 REVERT JUMPDEST PUSH0 PUSH1 0x2 DUP3 DIV SWAP1 POP PUSH1 0x1 DUP3 AND DUP1 PUSH2 0x13CB JUMPI PUSH1 0x7F DUP3 AND SWAP2 POP JUMPDEST PUSH1 0x20 DUP3 LT DUP2 SUB PUSH2 0x13DE JUMPI PUSH2 0x13DD PUSH2 0x1387 JUMP JUMPDEST JUMPDEST POP SWAP2 SWAP1 POP JUMP JUMPDEST PUSH32 0x456E747279204944206D75737420626520756E69717565000000000000000000 PUSH0 DUP3 ADD MSTORE POP JUMP JUMPDEST PUSH0 PUSH2 0x1418 PUSH1 0x17 DUP4 PUSH2 0x1290 JUMP JUMPDEST SWAP2 POP PUSH2 0x1423 DUP3 PUSH2 0x13E4 JUMP JUMPDEST PUSH1 0x20 DUP3 ADD SWAP1 POP SWAP2 SWAP1 POP JUMP JUMPDEST PUSH0 PUSH1 0x20 DUP3 ADD SWAP1 POP DUP2 DUP2 SUB PUSH0 DUP4 ADD MSTORE PUSH2 0x1445 DUP2 PUSH2 0x140C JUMP JUMPDEST SWAP1 POP SWAP2 SWAP1 POP JUMP JUMPDEST PUSH0 DUP2 SWAP1 POP DUP2 PUSH0 MSTORE PUSH1 0x20 PUSH0 KECCAK256 SWAP1 POP SWAP2 SWAP1 POP JUMP JUMPDEST PUSH0 PUSH1 0x20 PUSH1 0x1F DUP4 ADD DIV SWAP1 POP SWAP2 SWAP1 POP JUMP JUMPDEST PUSH0 DUP3 DUP3 SHL SWAP1 POP SWAP3 SWAP2 POP POP JUMP JUMPDEST PUSH0 PUSH1 0x8 DUP4 MUL PUSH2 0x14A8 PUSH32 0xFFFFFFFFFFFFFFFFFFFFFFFFFFFFFFFFFFFFFFFFFFFFFFFFFFFFFFFFFFFFFFFF DUP3 PUSH2 0x146D JUMP JUMPDEST PUSH2 0x14B2 DUP7 DUP4 PUSH2 0x146D JUMP JUMPDEST SWAP6 POP DUP1 NOT DUP5 AND SWAP4 POP DUP1 DUP7 AND DUP5 OR SWAP3 POP POP POP SWAP4 SWAP3 POP POP POP JUMP JUMPDEST PUSH0 DUP2 SWAP1 POP SWAP2 SWAP1 POP JUMP JUMPDEST PUSH0 PUSH2 0x14ED PUSH2 0x14E8 PUSH2 0x14E3 DUP5 PUSH2 0xD1B JUMP JUMPDEST PUSH2 0x14CA JUMP JUMPDEST PUSH2 0xD1B JUMP JUMPDEST SWAP1 POP SWAP2 SWAP1 POP JUMP JUMPDEST PUSH0 DUP2 SWAP1 POP SWAP2 SWAP1 POP JUMP JUMPDEST PUSH2 0x1506 DUP4 PUSH2 0x14D3 JUMP JUMPDEST PUSH2 0x151A PUSH2 0x1512 DUP3 PUSH2 0x14F4 JUMP JUMPDEST DUP5 DUP5 SLOAD PUSH2 0x1479 JUMP JUMPDEST DUP3 SSTORE POP POP POP POP JUMP JUMPDEST PUSH0 SWAP1 JUMP JUMPDEST PUSH2 0x152E PUSH2 0x1522 JUMP JUMPDEST PUSH2 0x1539 DUP2 DUP5 DUP5 PUSH2 0x14FD JUMP JUMPDEST POP POP POP JUMP JUMPDEST JUMPDEST DUP2 DUP2 LT ISZERO PUSH2 0x155C JUMPI PUSH2 0x1551 PUSH0 DUP3 PUSH2 0x1526 JUMP JUMPDEST PUSH1 0x1 DUP2 ADD SWAP1 POP PUSH2 0x153F JUMP JUMPDEST POP POP JUMP JUMPDEST PUSH1 0x1F DUP3 GT ISZERO PUSH2 0x15A1 JUMPI PUSH2 0x1572 DUP2 PUSH2 0x144C JUMP JUMPDEST PUSH2 0x157B DUP5 PUSH2 0x145E JUMP JUMPDEST DUP2 ADD PUSH1 0x20 DUP6 LT ISZERO PUSH2 0x158A JUMPI DUP2 SWAP1 POP JUMPDEST PUSH2 0x159E PUSH2 0x1596 DUP6 PUSH2 0x145E JUMP JUMPDEST DUP4 ADD DUP3 PUSH2 0x153E JUMP JUMPDEST POP POP JUMPDEST POP POP POP JUMP JUMPDEST PUSH0 DUP3 DUP3 SHR SWAP1 POP SWAP3 SWAP2 POP POP JUMP JUMPDEST PUSH0 PUSH2 0x15C1 PUSH0 NOT DUP5 PUSH1 0x8 MUL PUSH2 0x15A6 JUMP JUMPDEST NOT DUP1 DUP4 AND SWAP2 POP POP SWAP3 SWAP2 POP POP JUMP JUMPDEST PUSH0 PUSH2 0x15D9 DUP4 DUP4 PUSH2 0x15B2 JUMP JUMPDEST SWAP2 POP DUP3 PUSH1 0x2 MUL DUP3 OR SWAP1 POP SWAP3 SWAP2 POP POP JUMP JUMPDEST PUSH2 0x15F2 DUP3 PUSH2 0xB09 JUMP JUMPDEST PUSH8 0xFFFFFFFFFFFFFFFF DUP2 GT ISZERO PUSH2 0x160B JUMPI PUSH2 0x160A PUSH2 0xE7F JUMP JUMPDEST JUMPDEST PUSH2 0x1615 DUP3 SLOAD PUSH2 0x13B4 JUMP JUMPDEST PUSH2 0x1620 DUP3 DUP3 DUP6 PUSH2 0x1560 JUMP JUMPDEST PUSH0 PUSH1 0x20 SWAP1 POP PUSH1 0x1F DUP4 GT PUSH1 0x1 DUP2 EQ PUSH2 0x1651 JUMPI PUSH0 DUP5 ISZERO PUSH2 0x163F JUMPI DUP3 DUP8 ADD MLOAD SWAP1 POP JUMPDEST PUSH2 0x1649 DUP6 DUP3 PUSH2 0x15CE JUMP JUMPDEST DUP7 SSTORE POP PUSH2 0x16B0 JUMP JUMPDEST PUSH1 0x1F NOT DUP5 AND PUSH2 0x165F DUP7 PUSH2 0x144C JUMP JUMPDEST PUSH0 JUMPDEST DUP3 DUP2 LT ISZERO PUSH2 0x1686 JUMPI DUP5 DUP10 ADD MLOAD DUP3 SSTORE PUSH1 0x1 DUP3 ADD SWAP2 POP PUSH1 0x20 DUP6 ADD SWAP5 POP PUSH1 0x20 DUP2 ADD SWAP1 POP PUSH2 0x1661 JUMP JUMPDEST DUP7 DUP4 LT ISZERO PUSH2 0x16A3 JUMPI DUP5 DUP10 ADD MLOAD PUSH2 0x169F PUSH1 0x1F DUP10 AND DUP3 PUSH2 0x15B2 JUMP JUMPDEST DUP4 SSTORE POP JUMPDEST PUSH1 0x1 PUSH1 0x2 DUP9 MUL ADD DUP9 SSTORE POP POP POP JUMPDEST POP POP POP POP POP POP JUMP JUMPDEST PUSH32 0x4E487B7100000000000000000000000000000000000000000000000000000000 PUSH0 MSTORE PUSH1 0x32 PUSH1 0x4 MSTORE PUSH1 0x24 PUSH0 REVERT JUMPDEST PUSH32 0x4E487B7100000000000000000000000000000000000000000000000000000000 PUSH0 MSTORE PUSH1 0x11 PUSH1 0x4 MSTORE PUSH1 0x24 PUSH0 REVERT JUMPDEST PUSH0 PUSH2 0x171C DUP3 PUSH2 0xD1B JUMP JUMPDEST SWAP2 POP PUSH2 0x1727 DUP4 PUSH2 0xD1B JUMP JUMPDEST SWAP3 POP DUP3 DUP3 ADD SWAP1 POP DUP1 DUP3 GT ISZERO PUSH2 0x173F JUMPI PUSH2 0x173E PUSH2 0x16E5 JUMP JUMPDEST JUMPDEST SWAP3 SWAP2 POP POP JUMP JUMPDEST PUSH32 0x456E74727920646F6573206E6F74206578697374000000000000000000000000 PUSH0 DUP3 ADD MSTORE POP JUMP JUMPDEST PUSH0 PUSH2 0x1779 PUSH1 0x14 DUP4 PUSH2 0x1290 JUMP JUMPDEST SWAP2 POP PUSH2 0x1784 DUP3 PUSH2 0x1745 JUMP JUMPDEST PUSH1 0x20 DUP3 ADD SWAP1 POP SWAP2 SWAP1 POP JUMP JUMPDEST PUSH0 PUSH1 0x20 DUP3 ADD SWAP1 POP DUP2 DUP2 SUB PUSH0 DUP4 ADD MSTORE PUSH2 0x17A6 DUP2 PUSH2 0x176D JUMP JUMPDEST SWAP1 POP SWAP2 SWAP1 POP JUMP JUMPDEST PUSH0 PUSH2 0x17B7 DUP3 PUSH2 0xD1B JUMP JUMPDEST SWAP2 POP PUSH32 0xFFFFFFFFFFFFFFFFFFFFFFFFFFFFFFFFFFFFFFFFFFFFFFFFFFFFFFFFFFFFFFFF DUP3 SUB PUSH2 0x17E9 JUMPI PUSH2 0x17E8 PUSH2 0x16E5 JUMP JUMPDEST JUMPDEST PUSH1 0x1 DUP3 ADD SWAP1 POP SWAP2 SWAP1 POP JUMP JUMPDEST PUSH0 PUSH2 0x17FE DUP3 PUSH2 0xD1B JUMP JUMPDEST SWAP2 POP PUSH2 0x1809 DUP4 PUSH2 0xD1B JUMP JUMPDEST SWAP3 POP DUP3 DUP3 SUB SWAP1 POP DUP2 DUP2 GT ISZERO PUSH2 0x1821 JUMPI PUSH2 0x1820 PUSH2 0x16E5 JUMP JUMPDEST JUMPDEST SWAP3 SWAP2 POP POP JUMP JUMPDEST PUSH0 DUP2 SLOAD SWAP1 POP PUSH2 0x1835 DUP2 PUSH2 0x13B4 JUMP JUMPDEST SWAP1 POP SWAP2 SWAP1 POP JUMP JUMPDEST DUP2 DUP2 SUB PUSH2 0x184A JUMPI POP POP PUSH2 0x191F JUMP JUMPDEST PUSH2 0x1853 DUP3 PUSH2 0x1827 JUMP JUMPDEST PUSH8 0xFFFFFFFFFFFFFFFF DUP2 GT ISZERO PUSH2 0x186C JUMPI PUSH2 0x186B PUSH2 0xE7F JUMP JUMPDEST JUMPDEST PUSH2 0x1876 DUP3 SLOAD PUSH2 0x13B4 JUMP JUMPDEST PUSH2 0x1881 DUP3 DUP3 DUP6 PUSH2 0x1560 JUMP JUMPDEST PUSH0 PUSH1 0x1F DUP4 GT PUSH1 0x1 DUP2 EQ PUSH2 0x18AE JUMPI PUSH0 DUP5 ISZERO PUSH2 0x189C JUMPI DUP3 DUP8 ADD SLOAD SWAP1 POP JUMPDEST PUSH2 0x18A6 DUP6 DUP3 PUSH2 0x15CE JUMP JUMPDEST DUP7 SSTORE POP PUSH2 0x1918 JUMP JUMPDEST PUSH1 0x1F NOT DUP5 AND PUSH2 0x18BC DUP8 PUSH2 0x144C JUMP JUMPDEST SWAP7 POP PUSH2 0x18C7 DUP7 PUSH2 0x144C JUMP JUMPDEST PUSH0 JUMPDEST DUP3 DUP2 LT ISZERO PUSH2 0x18EE JUMPI DUP5 DUP10 ADD SLOAD DUP3 SSTORE PUSH1 0x1 DUP3 ADD SWAP2 POP PUSH1 0x1 DUP6 ADD SWAP5 POP PUSH1 0x20 DUP2 ADD SWAP1 POP PUSH2 0x18C9 JUMP JUMPDEST DUP7 DUP4 LT ISZERO PUSH2 0x190B JUMPI DUP5 DUP10 ADD SLOAD PUSH2 0x1907 PUSH1 0x1F DUP10 AND DUP3 PUSH2 0x15B2 JUMP JUMPDEST DUP4 SSTORE POP JUMPDEST PUSH1 0x1 PUSH1 0x2 DUP9 MUL ADD DUP9 SSTORE POP POP POP JUMPDEST POP POP POP POP POP POP JUMPDEST JUMP JUMPDEST PUSH32 0x4E487B7100000000000000000000000000000000000000000000000000000000 PUSH0 MSTORE PUSH1 0x31 PUSH1 0x4 MSTORE PUSH1 0x24 PUSH0 REVERT JUMPDEST PUSH0 DUP2 SWAP1 POP SWAP3 SWAP2 POP POP JUMP JUMPDEST PUSH0 DUP2 SWAP1 POP DUP2 PUSH0 MSTORE PUSH1 0x20 PUSH0 KECCAK256 SWAP1 POP SWAP2 SWAP1 POP JUMP JUMPDEST PUSH0 DUP2 SLOAD PUSH2 0x1976 DUP2 PUSH2 0x13B4 JUMP JUMPDEST PUSH2 0x1980 DUP2 DUP7 PUSH2 0x194E JUMP JUMPDEST SWAP5 POP PUSH1 0x1 DUP3 AND PUSH0 DUP2 EQ PUSH2 0x199A JUMPI PUSH1 0x1 DUP2 EQ PUSH2 0x19AF JUMPI PUSH2 0x19E1 JUMP JUMPDEST PUSH1 0xFF NOT DUP4 AND DUP7 MSTORE DUP2 ISZERO ISZERO DUP3 MUL DUP7 ADD SWAP4 POP PUSH2 0x19E1 JUMP JUMPDEST PUSH2 0x19B8 DUP6 PUSH2 0x1958 JUMP JUMPDEST PUSH0 JUMPDEST DUP4 DUP2 LT ISZERO PUSH2 0x19D9 JUMPI DUP2 SLOAD DUP2 DUP10 ADD MSTORE PUSH1 0x1 DUP3 ADD SWAP2 POP PUSH1 0x20 DUP2 ADD SWAP1 POP PUSH2 0x19BA JUMP JUMPDEST DUP4 DUP9 ADD SWAP6 POP POP POP JUMPDEST POP POP POP SWAP3 SWAP2 POP POP JUMP JUMPDEST PUSH0 PUSH2 0x19F5 DUP3 DUP5 PUSH2 0x196A JUMP JUMPDEST SWAP2 POP DUP2 SWAP1 POP SWAP3 SWAP2 POP POP JUMP INVALID LOG2 PUSH5 0x6970667358 0x22 SLT KECCAK256 REVERT DUP14 OR JUMPI 0xEB 0xE4 0x27 0xE4 0xE9 0xDA 0xCD PUSH29 0x213B4F05560C1F3F60E31F65CF305337CB20050064736F6C6343000819 STOP CALLER "
		},
		"gasEstimates": {
			"creation": {
				"codeDepositCost": "1342000",
				"executionCost": "1395",
				"totalCost": "1343395"
			},
			"external": {
				"addEntry(string,string[],address[])": "infinite",
				"entries(uint256)": "infinite",
				"getEntries()": "infinite",
				"getLeastVotedEntryId()": "infinite",
				"vote(uint256,bool)": "infinite"
			},
			"internal": {
				"entryExists(string memory)": "infinite"
			}
		},
		"methodIdentifiers": {
			"addEntry(string,string[],address[])": "22fae27d",
			"entries(uint256)": "b30906d4",
			"getEntries()": "17be85c3",
			"getLeastVotedEntryId()": "a0a0a815",
			"vote(uint256,bool)": "c9d27afe"
		}
	},
	"abi": [
		{
			"inputs": [
				{
					"internalType": "string",
					"name": "id",
					"type": "string"
				},
				{
					"internalType": "string[]",
					"name": "citations",
					"type": "string[]"
				},
				{
					"internalType": "address[]",
					"name": "addresses",
					"type": "address[]"
				}
			],
			"name": "addEntry",
			"outputs": [],
			"stateMutability": "nonpayable",
			"type": "function"
		},
		{
			"inputs": [
				{
					"internalType": "uint256",
					"name": "",
					"type": "uint256"
				}
			],
			"name": "entries",
			"outputs": [
				{
					"internalType": "string",
					"name": "id",
					"type": "string"
				},
				{
					"internalType": "uint256",
					"name": "upvotes",
					"type": "uint256"
				},
				{
					"internalType": "uint256",
					"name": "downvotes",
					"type": "uint256"
				}
			],
			"stateMutability": "view",
			"type": "function"
		},
		{
			"inputs": [],
			"name": "getEntries",
			"outputs": [
				{
					"components": [
						{
							"internalType": "string",
							"name": "id",
							"type": "string"
						},
						{
							"internalType": "string[]",
							"name": "citations",
							"type": "string[]"
						},
						{
							"internalType": "address[]",
							"name": "addresses",
							"type": "address[]"
						},
						{
							"internalType": "uint256",
							"name": "upvotes",
							"type": "uint256"
						},
						{
							"internalType": "uint256",
							"name": "downvotes",
							"type": "uint256"
						}
					],
					"internalType": "struct ApprovalQueue.Entry[]",
					"name": "",
					"type": "tuple[]"
				}
			],
			"stateMutability": "view",
			"type": "function"
		},
		{
			"inputs": [],
			"name": "getLeastVotedEntryId",
			"outputs": [
				{
					"internalType": "uint256",
					"name": "",
					"type": "uint256"
				}
			],
			"stateMutability": "view",
			"type": "function"
		},
		{
			"inputs": [
				{
					"internalType": "uint256",
					"name": "id",
					"type": "uint256"
				},
				{
					"internalType": "bool",
					"name": "upvote",
					"type": "bool"
				}
			],
			"name": "vote",
			"outputs": [],
			"stateMutability": "nonpayable",
			"type": "function"
		}
	]
}