{
	"data": {
		"bytecode": {
			"linkReferences": {},
			"object": "6080604052348015600e575f80fd5b50335f806101000a81548173ffffffffffffffffffffffffffffffffffffffff021916908373ffffffffffffffffffffffffffffffffffffffff160217905550611ffa8061005b5f395ff3fe608060405260043610610094575f3560e01c8063972a223911610058578063972a2239146101e6578063ab4b583914610210578063b69ef8a81461023a578063fb93210814610264578063fd3cbf951461028c576100ec565b806312065fe0146100f05780632e1a7d4d1461011a57806369071c701461014257806374883bf3146101805780638da5cb5b146101bc576100ec565b366100ec573460015f8282546100aa9190610f00565b925050819055507f88a5966d370b9919b20f3e2c13ff65706f196a4e32cc2c12bf57088f8852587433346040516100e2929190610f81565b60405180910390a1005b5f80fd5b3480156100fb575f80fd5b506101046102b4565b6040516101119190610fa8565b60405180910390f35b348015610125575f80fd5b50610140600480360381019061013b9190610ffc565b6102bb565b005b34801561014d575f80fd5b5061016860048036038101906101639190611163565b610461565b6040516101779392919061120a565b60405180910390f35b34801561018b575f80fd5b506101a660048036038101906101a19190611163565b610525565b6040516101b39190611490565b60405180910390f35b3480156101c7575f80fd5b506101d06107c9565b6040516101dd91906114b0565b60405180910390f35b3480156101f1575f80fd5b506101fa6107ec565b6040516102079190611605565b60405180910390f35b34801561021b575f80fd5b50610224610ad2565b6040516102319190610fa8565b60405180910390f35b348015610245575f80fd5b5061024e610ade565b60405161025b9190610fa8565b60405180910390f35b34801561026f575f80fd5b5061028a60048036038101906102859190611660565b610ae4565b005b348015610297575f80fd5b506102b260048036038101906102ad919061186a565b610bc2565b005b5f47905090565b5f8054906101000a900473ffffffffffffffffffffffffffffffffffffffff1673ffffffffffffffffffffffffffffffffffffffff163373ffffffffffffffffffffffffffffffffffffffff1614610348576040517f08c379a000000000000000000000000000000000000000000000000000000000815260040161033f90611958565b60405180910390fd5b8047101561038b576040517f08c379a0000000000000000000000000000000000000000000000000000000008152600401610382906119e6565b60405180910390fd5b5f8054906101000a900473ffffffffffffffffffffffffffffffffffffffff1673ffffffffffffffffffffffffffffffffffffffff166108fc8290811502906040515f60405180830381858888f193505050501580156103ed573d5f803e3d5ffd5b508060015f8282546103ff9190611a04565b925050819055507f7084f5476618d8e60b11ef0d7d3f06914655adb8793e28ff7f018d4c76d505d55f8054906101000a900473ffffffffffffffffffffffffffffffffffffffff1682604051610456929190610f81565b60405180910390a150565b6002818051602081018201805184825260208301602085012081835280955050505050505f91509050805f01805461049890611a64565b80601f01602080910402602001604051908101604052809291908181526020018280546104c490611a64565b801561050f5780601f106104e65761010080835404028352916020019161050f565b820191905f5260205f20905b8154815290600101906020018083116104f257829003601f168201915b5050505050908060030154908060040154905083565b61052d610d44565b60038260405161053d9190611ace565b90815260200160405180910390205f9054906101000a900460ff16610597576040517f08c379a000000000000000000000000000000000000000000000000000000000815260040161058e90611b2e565b60405180910390fd5b6002826040516105a79190611ace565b90815260200160405180910390206040518060a00160405290815f820180546105cf90611a64565b80601f01602080910402602001604051908101604052809291908181526020018280546105fb90611a64565b80156106465780601f1061061d57610100808354040283529160200191610646565b820191905f5260205f20905b81548152906001019060200180831161062957829003601f168201915b5050505050815260200160018201805480602002602001604051908101604052809291908181526020015f905b8282101561071b578382905f5260205f2001805461069090611a64565b80601f01602080910402602001604051908101604052809291908181526020018280546106bc90611a64565b80156107075780601f106106de57610100808354040283529160200191610707565b820191905f5260205f20905b8154815290600101906020018083116106ea57829003601f168201915b505050505081526020019060010190610673565b505050508152602001600282018054806020026020016040519081016040528092919081815260200182805480156107a557602002820191905f5260205f20905b815f9054906101000a900473ffffffffffffffffffffffffffffffffffffffff1673ffffffffffffffffffffffffffffffffffffffff168152602001906001019080831161075c575b50505050508152602001600382015481526020016004820154815250509050919050565b5f8054906101000a900473ffffffffffffffffffffffffffffffffffffffff1681565b60605f60048054905067ffffffffffffffff81111561080e5761080d61103f565b5b60405190808252806020026020018201604052801561084757816020015b610834610d44565b81526020019060019003908161082c5790505b5090505f5b600480549050811015610aca5760026004828154811061086f5761086e611b4c565b5b905f5260205f20016040516108849190611c0b565b90815260200160405180910390206040518060a00160405290815f820180546108ac90611a64565b80601f01602080910402602001604051908101604052809291908181526020018280546108d890611a64565b80156109235780601f106108fa57610100808354040283529160200191610923565b820191905f5260205f20905b81548152906001019060200180831161090657829003601f168201915b5050505050815260200160018201805480602002602001604051908101604052809291908181526020015f905b828210156109f8578382905f5260205f2001805461096d90611a64565b80601f016020809104026020016040519081016040528092919081815260200182805461099990611a64565b80156109e45780601f106109bb576101008083540402835291602001916109e4565b820191905f5260205f20905b8154815290600101906020018083116109c757829003601f168201915b505050505081526020019060010190610950565b50505050815260200160028201805480602002602001604051908101604052809291908181526020018280548015610a8257602002820191905f5260205f20905b815f9054906101000a900473ffffffffffffffffffffffffffffffffffffffff1673ffffffffffffffffffffffffffffffffffffffff1681526020019060010190808311610a39575b5050505050815260200160038201548152602001600482015481525050828281518110610ab257610ab1611b4c565b5b6020026020010181905250808060010191505061084c565b508091505090565b5f600480549050905090565b60015481565b806001541015610b29576040517f08c379a0000000000000000000000000000000000000000000000000000000008152600401610b2090611c6b565b60405180910390fd5b8173ffffffffffffffffffffffffffffffffffffffff166108fc8290811502906040515f60405180830381858888f19350505050158015610b6c573d5f803e3d5ffd5b508060015f828254610b7e9190611a04565b925050819055507fb649c98f58055c520df0dcb5709eff2e931217ff2fb1e21376130d31bbb1c0af8282604051610bb6929190611ce4565b60405180910390a15050565b600383604051610bd29190611ace565b90815260200160405180910390205f9054906101000a900460ff1615610c2d576040517f08c379a0000000000000000000000000000000000000000000000000000000008152600401610c2490611d55565b60405180910390fd5b6040518060a001604052808481526020018381526020018281526020015f81526020015f815250600284604051610c649190611ace565b90815260200160405180910390205f820151815f019081610c859190611ef5565b506020820151816001019080519060200190610ca2929190610d71565b506040820151816002019080519060200190610cbf929190610dc8565b5060608201518160030155608082015181600401559050506001600384604051610ce99190611ace565b90815260200160405180910390205f6101000a81548160ff021916908315150217905550600483908060018154018082558091505060019003905f5260205f20015f909190919091509081610d3e9190611ef5565b50505050565b6040518060a001604052806060815260200160608152602001606081526020015f81526020015f81525090565b828054828255905f5260205f20908101928215610db7579160200282015b82811115610db6578251829081610da69190611ef5565b5091602001919060010190610d8f565b5b509050610dc49190610e4f565b5090565b828054828255905f5260205f20908101928215610e3e579160200282015b82811115610e3d578251825f6101000a81548173ffffffffffffffffffffffffffffffffffffffff021916908373ffffffffffffffffffffffffffffffffffffffff16021790555091602001919060010190610de6565b5b509050610e4b9190610e72565b5090565b5b80821115610e6e575f8181610e659190610e8d565b50600101610e50565b5090565b5b80821115610e89575f815f905550600101610e73565b5090565b508054610e9990611a64565b5f825580601f10610eaa5750610ec7565b601f0160209004905f5260205f2090810190610ec69190610e72565b5b50565b5f819050919050565b7f4e487b71000000000000000000000000000000000000000000000000000000005f52601160045260245ffd5b5f610f0a82610eca565b9150610f1583610eca565b9250828201905080821115610f2d57610f2c610ed3565b5b92915050565b5f73ffffffffffffffffffffffffffffffffffffffff82169050919050565b5f610f5c82610f33565b9050919050565b610f6c81610f52565b82525050565b610f7b81610eca565b82525050565b5f604082019050610f945f830185610f63565b610fa16020830184610f72565b9392505050565b5f602082019050610fbb5f830184610f72565b92915050565b5f604051905090565b5f80fd5b5f80fd5b610fdb81610eca565b8114610fe5575f80fd5b50565b5f81359050610ff681610fd2565b92915050565b5f6020828403121561101157611010610fca565b5b5f61101e84828501610fe8565b91505092915050565b5f80fd5b5f80fd5b5f601f19601f8301169050919050565b7f4e487b71000000000000000000000000000000000000000000000000000000005f52604160045260245ffd5b6110758261102f565b810181811067ffffffffffffffff821117156110945761109361103f565b5b80604052505050565b5f6110a6610fc1565b90506110b2828261106c565b919050565b5f67ffffffffffffffff8211156110d1576110d061103f565b5b6110da8261102f565b9050602081019050919050565b828183375f83830152505050565b5f611107611102846110b7565b61109d565b9050828152602081018484840111156111235761112261102b565b5b61112e8482856110e7565b509392505050565b5f82601f83011261114a57611149611027565b5b813561115a8482602086016110f5565b91505092915050565b5f6020828403121561117857611177610fca565b5b5f82013567ffffffffffffffff81111561119557611194610fce565b5b6111a184828501611136565b91505092915050565b5f81519050919050565b5f82825260208201905092915050565b8281835e5f83830152505050565b5f6111dc826111aa565b6111e681856111b4565b93506111f68185602086016111c4565b6111ff8161102f565b840191505092915050565b5f6060820190508181035f83015261122281866111d2565b90506112316020830185610f72565b61123e6040830184610f72565b949350505050565b5f82825260208201905092915050565b5f611260826111aa565b61126a8185611246565b935061127a8185602086016111c4565b6112838161102f565b840191505092915050565b5f81519050919050565b5f82825260208201905092915050565b5f819050602082019050919050565b5f6112c28383611256565b905092915050565b5f602082019050919050565b5f6112e08261128e565b6112ea8185611298565b9350836020820285016112fc856112a8565b805f5b85811015611337578484038952815161131885826112b7565b9450611323836112ca565b925060208a019950506001810190506112ff565b50829750879550505050505092915050565b5f81519050919050565b5f82825260208201905092915050565b5f819050602082019050919050565b61137b81610f52565b82525050565b5f61138c8383611372565b60208301905092915050565b5f602082019050919050565b5f6113ae82611349565b6113b88185611353565b93506113c383611363565b805f5b838110156113f35781516113da8882611381565b97506113e583611398565b9250506001810190506113c6565b5085935050505092915050565b61140981610eca565b82525050565b5f60a083015f8301518482035f8601526114298282611256565b9150506020830151848203602086015261144382826112d6565b9150506040830151848203604086015261145d82826113a4565b91505060608301516114726060860182611400565b5060808301516114856080860182611400565b508091505092915050565b5f6020820190508181035f8301526114a8818461140f565b905092915050565b5f6020820190506114c35f830184610f63565b92915050565b5f81519050919050565b5f82825260208201905092915050565b5f819050602082019050919050565b5f60a083015f8301518482035f86015261150c8282611256565b9150506020830151848203602086015261152682826112d6565b9150506040830151848203604086015261154082826113a4565b91505060608301516115556060860182611400565b5060808301516115686080860182611400565b508091505092915050565b5f61157e83836114f2565b905092915050565b5f602082019050919050565b5f61159c826114c9565b6115a681856114d3565b9350836020820285016115b8856114e3565b805f5b858110156115f357848403895281516115d48582611573565b94506115df83611586565b925060208a019950506001810190506115bb565b50829750879550505050505092915050565b5f6020820190508181035f83015261161d8184611592565b905092915050565b5f61162f82610f33565b9050919050565b61163f81611625565b8114611649575f80fd5b50565b5f8135905061165a81611636565b92915050565b5f806040838503121561167657611675610fca565b5b5f6116838582860161164c565b925050602061169485828601610fe8565b9150509250929050565b5f67ffffffffffffffff8211156116b8576116b761103f565b5b602082029050602081019050919050565b5f80fd5b5f6116df6116da8461169e565b61109d565b90508083825260208201905060208402830185811115611702576117016116c9565b5b835b8181101561174957803567ffffffffffffffff81111561172757611726611027565b5b8086016117348982611136565b85526020850194505050602081019050611704565b5050509392505050565b5f82601f83011261176757611766611027565b5b81356117778482602086016116cd565b91505092915050565b5f67ffffffffffffffff82111561179a5761179961103f565b5b602082029050602081019050919050565b6117b481610f52565b81146117be575f80fd5b50565b5f813590506117cf816117ab565b92915050565b5f6117e76117e284611780565b61109d565b9050808382526020820190506020840283018581111561180a576118096116c9565b5b835b81811015611833578061181f88826117c1565b84526020840193505060208101905061180c565b5050509392505050565b5f82601f83011261185157611850611027565b5b81356118618482602086016117d5565b91505092915050565b5f805f6060848603121561188157611880610fca565b5b5f84013567ffffffffffffffff81111561189e5761189d610fce565b5b6118aa86828701611136565b935050602084013567ffffffffffffffff8111156118cb576118ca610fce565b5b6118d786828701611753565b925050604084013567ffffffffffffffff8111156118f8576118f7610fce565b5b6119048682870161183d565b9150509250925092565b7f596f7520617265206e6f7420746865206f776e65722e000000000000000000005f82015250565b5f6119426016836111b4565b915061194d8261190e565b602082019050919050565b5f6020820190508181035f83015261196f81611936565b9050919050565b7f496e73756666696369656e742062616c616e636520696e20636f6e74726163745f8201527f2e00000000000000000000000000000000000000000000000000000000000000602082015250565b5f6119d06021836111b4565b91506119db82611976565b604082019050919050565b5f6020820190508181035f8301526119fd816119c4565b9050919050565b5f611a0e82610eca565b9150611a1983610eca565b9250828203905081811115611a3157611a30610ed3565b5b92915050565b7f4e487b71000000000000000000000000000000000000000000000000000000005f52602260045260245ffd5b5f6002820490506001821680611a7b57607f821691505b602082108103611a8e57611a8d611a37565b5b50919050565b5f81905092915050565b5f611aa8826111aa565b611ab28185611a94565b9350611ac28185602086016111c4565b80840191505092915050565b5f611ad98284611a9e565b915081905092915050565b7f746865207061706572206d7573742065786973740000000000000000000000005f82015250565b5f611b186014836111b4565b9150611b2382611ae4565b602082019050919050565b5f6020820190508181035f830152611b4581611b0c565b9050919050565b7f4e487b71000000000000000000000000000000000000000000000000000000005f52603260045260245ffd5b5f819050815f5260205f209050919050565b5f8154611b9781611a64565b611ba18186611a94565b9450600182165f8114611bbb5760018114611bd057611c02565b60ff1983168652811515820286019350611c02565b611bd985611b79565b5f5b83811015611bfa57815481890152600182019150602081019050611bdb565b838801955050505b50505092915050565b5f611c168284611b8b565b915081905092915050565b7f496e73756666696369656e742062616c616e63652e00000000000000000000005f82015250565b5f611c556015836111b4565b9150611c6082611c21565b602082019050919050565b5f6020820190508181035f830152611c8281611c49565b9050919050565b5f819050919050565b5f611cac611ca7611ca284610f33565b611c89565b610f33565b9050919050565b5f611cbd82611c92565b9050919050565b5f611cce82611cb3565b9050919050565b611cde81611cc4565b82525050565b5f604082019050611cf75f830185611cd5565b611d046020830184610f72565b9392505050565b7f456e747279204944206d75737420626520756e697175652e00000000000000005f82015250565b5f611d3f6018836111b4565b9150611d4a82611d0b565b602082019050919050565b5f6020820190508181035f830152611d6c81611d33565b9050919050565b5f6020601f8301049050919050565b5f82821b905092915050565b5f60088302611dbd7fffffffffffffffffffffffffffffffffffffffffffffffffffffffffffffffff82611d82565b611dc78683611d82565b95508019841693508086168417925050509392505050565b5f611df9611df4611def84610eca565b611c89565b610eca565b9050919050565b5f819050919050565b611e1283611ddf565b611e26611e1e82611e00565b848454611d8e565b825550505050565b5f90565b611e3a611e2e565b611e45818484611e09565b505050565b5b81811015611e6857611e5d5f82611e32565b600181019050611e4b565b5050565b601f821115611ead57611e7e81611b79565b611e8784611d73565b81016020851015611e96578190505b611eaa611ea285611d73565b830182611e4a565b50505b505050565b5f82821c905092915050565b5f611ecd5f1984600802611eb2565b1980831691505092915050565b5f611ee58383611ebe565b9150826002028217905092915050565b611efe826111aa565b67ffffffffffffffff811115611f1757611f1661103f565b5b611f218254611a64565b611f2c828285611e6c565b5f60209050601f831160018114611f5d575f8415611f4b578287015190505b611f558582611eda565b865550611fbc565b601f198416611f6b86611b79565b5f5b82811015611f9257848901518255600182019150602085019450602081019050611f6d565b86831015611faf5784890151611fab601f891682611ebe565b8355505b6001600288020188555050505b50505050505056fea26469706673582212208b138497c7616c37303170e45109e6d882911f1c6045904167e9c42f6eaaab3d64736f6c63430008190033",
			"opcodes": "PUSH1 0x80 PUSH1 0x40 MSTORE CALLVALUE DUP1 ISZERO PUSH1 0xE JUMPI PUSH0 DUP1 REVERT JUMPDEST POP CALLER PUSH0 DUP1 PUSH2 0x100 EXP DUP2 SLOAD DUP2 PUSH20 0xFFFFFFFFFFFFFFFFFFFFFFFFFFFFFFFFFFFFFFFF MUL NOT AND SWAP1 DUP4 PUSH20 0xFFFFFFFFFFFFFFFFFFFFFFFFFFFFFFFFFFFFFFFF AND MUL OR SWAP1 SSTORE POP PUSH2 0x1FFA DUP1 PUSH2 0x5B PUSH0 CODECOPY PUSH0 RETURN INVALID PUSH1 0x80 PUSH1 0x40 MSTORE PUSH1 0x4 CALLDATASIZE LT PUSH2 0x94 JUMPI PUSH0 CALLDATALOAD PUSH1 0xE0 SHR DUP1 PUSH4 0x972A2239 GT PUSH2 0x58 JUMPI DUP1 PUSH4 0x972A2239 EQ PUSH2 0x1E6 JUMPI DUP1 PUSH4 0xAB4B5839 EQ PUSH2 0x210 JUMPI DUP1 PUSH4 0xB69EF8A8 EQ PUSH2 0x23A JUMPI DUP1 PUSH4 0xFB932108 EQ PUSH2 0x264 JUMPI DUP1 PUSH4 0xFD3CBF95 EQ PUSH2 0x28C JUMPI PUSH2 0xEC JUMP JUMPDEST DUP1 PUSH4 0x12065FE0 EQ PUSH2 0xF0 JUMPI DUP1 PUSH4 0x2E1A7D4D EQ PUSH2 0x11A JUMPI DUP1 PUSH4 0x69071C70 EQ PUSH2 0x142 JUMPI DUP1 PUSH4 0x74883BF3 EQ PUSH2 0x180 JUMPI DUP1 PUSH4 0x8DA5CB5B EQ PUSH2 0x1BC JUMPI PUSH2 0xEC JUMP JUMPDEST CALLDATASIZE PUSH2 0xEC JUMPI CALLVALUE PUSH1 0x1 PUSH0 DUP3 DUP3 SLOAD PUSH2 0xAA SWAP2 SWAP1 PUSH2 0xF00 JUMP JUMPDEST SWAP3 POP POP DUP2 SWAP1 SSTORE POP PUSH32 0x88A5966D370B9919B20F3E2C13FF65706F196A4E32CC2C12BF57088F88525874 CALLER CALLVALUE PUSH1 0x40 MLOAD PUSH2 0xE2 SWAP3 SWAP2 SWAP1 PUSH2 0xF81 JUMP JUMPDEST PUSH1 0x40 MLOAD DUP1 SWAP2 SUB SWAP1 LOG1 STOP JUMPDEST PUSH0 DUP1 REVERT JUMPDEST CALLVALUE DUP1 ISZERO PUSH2 0xFB JUMPI PUSH0 DUP1 REVERT JUMPDEST POP PUSH2 0x104 PUSH2 0x2B4 JUMP JUMPDEST PUSH1 0x40 MLOAD PUSH2 0x111 SWAP2 SWAP1 PUSH2 0xFA8 JUMP JUMPDEST PUSH1 0x40 MLOAD DUP1 SWAP2 SUB SWAP1 RETURN JUMPDEST CALLVALUE DUP1 ISZERO PUSH2 0x125 JUMPI PUSH0 DUP1 REVERT JUMPDEST POP PUSH2 0x140 PUSH1 0x4 DUP1 CALLDATASIZE SUB DUP2 ADD SWAP1 PUSH2 0x13B SWAP2 SWAP1 PUSH2 0xFFC JUMP JUMPDEST PUSH2 0x2BB JUMP JUMPDEST STOP JUMPDEST CALLVALUE DUP1 ISZERO PUSH2 0x14D JUMPI PUSH0 DUP1 REVERT JUMPDEST POP PUSH2 0x168 PUSH1 0x4 DUP1 CALLDATASIZE SUB DUP2 ADD SWAP1 PUSH2 0x163 SWAP2 SWAP1 PUSH2 0x1163 JUMP JUMPDEST PUSH2 0x461 JUMP JUMPDEST PUSH1 0x40 MLOAD PUSH2 0x177 SWAP4 SWAP3 SWAP2 SWAP1 PUSH2 0x120A JUMP JUMPDEST PUSH1 0x40 MLOAD DUP1 SWAP2 SUB SWAP1 RETURN JUMPDEST CALLVALUE DUP1 ISZERO PUSH2 0x18B JUMPI PUSH0 DUP1 REVERT JUMPDEST POP PUSH2 0x1A6 PUSH1 0x4 DUP1 CALLDATASIZE SUB DUP2 ADD SWAP1 PUSH2 0x1A1 SWAP2 SWAP1 PUSH2 0x1163 JUMP JUMPDEST PUSH2 0x525 JUMP JUMPDEST PUSH1 0x40 MLOAD PUSH2 0x1B3 SWAP2 SWAP1 PUSH2 0x1490 JUMP JUMPDEST PUSH1 0x40 MLOAD DUP1 SWAP2 SUB SWAP1 RETURN JUMPDEST CALLVALUE DUP1 ISZERO PUSH2 0x1C7 JUMPI PUSH0 DUP1 REVERT JUMPDEST POP PUSH2 0x1D0 PUSH2 0x7C9 JUMP JUMPDEST PUSH1 0x40 MLOAD PUSH2 0x1DD SWAP2 SWAP1 PUSH2 0x14B0 JUMP JUMPDEST PUSH1 0x40 MLOAD DUP1 SWAP2 SUB SWAP1 RETURN JUMPDEST CALLVALUE DUP1 ISZERO PUSH2 0x1F1 JUMPI PUSH0 DUP1 REVERT JUMPDEST POP PUSH2 0x1FA PUSH2 0x7EC JUMP JUMPDEST PUSH1 0x40 MLOAD PUSH2 0x207 SWAP2 SWAP1 PUSH2 0x1605 JUMP JUMPDEST PUSH1 0x40 MLOAD DUP1 SWAP2 SUB SWAP1 RETURN JUMPDEST CALLVALUE DUP1 ISZERO PUSH2 0x21B JUMPI PUSH0 DUP1 REVERT JUMPDEST POP PUSH2 0x224 PUSH2 0xAD2 JUMP JUMPDEST PUSH1 0x40 MLOAD PUSH2 0x231 SWAP2 SWAP1 PUSH2 0xFA8 JUMP JUMPDEST PUSH1 0x40 MLOAD DUP1 SWAP2 SUB SWAP1 RETURN JUMPDEST CALLVALUE DUP1 ISZERO PUSH2 0x245 JUMPI PUSH0 DUP1 REVERT JUMPDEST POP PUSH2 0x24E PUSH2 0xADE JUMP JUMPDEST PUSH1 0x40 MLOAD PUSH2 0x25B SWAP2 SWAP1 PUSH2 0xFA8 JUMP JUMPDEST PUSH1 0x40 MLOAD DUP1 SWAP2 SUB SWAP1 RETURN JUMPDEST CALLVALUE DUP1 ISZERO PUSH2 0x26F JUMPI PUSH0 DUP1 REVERT JUMPDEST POP PUSH2 0x28A PUSH1 0x4 DUP1 CALLDATASIZE SUB DUP2 ADD SWAP1 PUSH2 0x285 SWAP2 SWAP1 PUSH2 0x1660 JUMP JUMPDEST PUSH2 0xAE4 JUMP JUMPDEST STOP JUMPDEST CALLVALUE DUP1 ISZERO PUSH2 0x297 JUMPI PUSH0 DUP1 REVERT JUMPDEST POP PUSH2 0x2B2 PUSH1 0x4 DUP1 CALLDATASIZE SUB DUP2 ADD SWAP1 PUSH2 0x2AD SWAP2 SWAP1 PUSH2 0x186A JUMP JUMPDEST PUSH2 0xBC2 JUMP JUMPDEST STOP JUMPDEST PUSH0 SELFBALANCE SWAP1 POP SWAP1 JUMP JUMPDEST PUSH0 DUP1 SLOAD SWAP1 PUSH2 0x100 EXP SWAP1 DIV PUSH20 0xFFFFFFFFFFFFFFFFFFFFFFFFFFFFFFFFFFFFFFFF AND PUSH20 0xFFFFFFFFFFFFFFFFFFFFFFFFFFFFFFFFFFFFFFFF AND CALLER PUSH20 0xFFFFFFFFFFFFFFFFFFFFFFFFFFFFFFFFFFFFFFFF AND EQ PUSH2 0x348 JUMPI PUSH1 0x40 MLOAD PUSH32 0x8C379A000000000000000000000000000000000000000000000000000000000 DUP2 MSTORE PUSH1 0x4 ADD PUSH2 0x33F SWAP1 PUSH2 0x1958 JUMP JUMPDEST PUSH1 0x40 MLOAD DUP1 SWAP2 SUB SWAP1 REVERT JUMPDEST DUP1 SELFBALANCE LT ISZERO PUSH2 0x38B JUMPI PUSH1 0x40 MLOAD PUSH32 0x8C379A000000000000000000000000000000000000000000000000000000000 DUP2 MSTORE PUSH1 0x4 ADD PUSH2 0x382 SWAP1 PUSH2 0x19E6 JUMP JUMPDEST PUSH1 0x40 MLOAD DUP1 SWAP2 SUB SWAP1 REVERT JUMPDEST PUSH0 DUP1 SLOAD SWAP1 PUSH2 0x100 EXP SWAP1 DIV PUSH20 0xFFFFFFFFFFFFFFFFFFFFFFFFFFFFFFFFFFFFFFFF AND PUSH20 0xFFFFFFFFFFFFFFFFFFFFFFFFFFFFFFFFFFFFFFFF AND PUSH2 0x8FC DUP3 SWAP1 DUP2 ISZERO MUL SWAP1 PUSH1 0x40 MLOAD PUSH0 PUSH1 0x40 MLOAD DUP1 DUP4 SUB DUP2 DUP6 DUP9 DUP9 CALL SWAP4 POP POP POP POP ISZERO DUP1 ISZERO PUSH2 0x3ED JUMPI RETURNDATASIZE PUSH0 DUP1 RETURNDATACOPY RETURNDATASIZE PUSH0 REVERT JUMPDEST POP DUP1 PUSH1 0x1 PUSH0 DUP3 DUP3 SLOAD PUSH2 0x3FF SWAP2 SWAP1 PUSH2 0x1A04 JUMP JUMPDEST SWAP3 POP POP DUP2 SWAP1 SSTORE POP PUSH32 0x7084F5476618D8E60B11EF0D7D3F06914655ADB8793E28FF7F018D4C76D505D5 PUSH0 DUP1 SLOAD SWAP1 PUSH2 0x100 EXP SWAP1 DIV PUSH20 0xFFFFFFFFFFFFFFFFFFFFFFFFFFFFFFFFFFFFFFFF AND DUP3 PUSH1 0x40 MLOAD PUSH2 0x456 SWAP3 SWAP2 SWAP1 PUSH2 0xF81 JUMP JUMPDEST PUSH1 0x40 MLOAD DUP1 SWAP2 SUB SWAP1 LOG1 POP JUMP JUMPDEST PUSH1 0x2 DUP2 DUP1 MLOAD PUSH1 0x20 DUP2 ADD DUP3 ADD DUP1 MLOAD DUP5 DUP3 MSTORE PUSH1 0x20 DUP4 ADD PUSH1 0x20 DUP6 ADD KECCAK256 DUP2 DUP4 MSTORE DUP1 SWAP6 POP POP POP POP POP POP PUSH0 SWAP2 POP SWAP1 POP DUP1 PUSH0 ADD DUP1 SLOAD PUSH2 0x498 SWAP1 PUSH2 0x1A64 JUMP JUMPDEST DUP1 PUSH1 0x1F ADD PUSH1 0x20 DUP1 SWAP2 DIV MUL PUSH1 0x20 ADD PUSH1 0x40 MLOAD SWAP1 DUP2 ADD PUSH1 0x40 MSTORE DUP1 SWAP3 SWAP2 SWAP1 DUP2 DUP2 MSTORE PUSH1 0x20 ADD DUP3 DUP1 SLOAD PUSH2 0x4C4 SWAP1 PUSH2 0x1A64 JUMP JUMPDEST DUP1 ISZERO PUSH2 0x50F JUMPI DUP1 PUSH1 0x1F LT PUSH2 0x4E6 JUMPI PUSH2 0x100 DUP1 DUP4 SLOAD DIV MUL DUP4 MSTORE SWAP2 PUSH1 0x20 ADD SWAP2 PUSH2 0x50F JUMP JUMPDEST DUP3 ADD SWAP2 SWAP1 PUSH0 MSTORE PUSH1 0x20 PUSH0 KECCAK256 SWAP1 JUMPDEST DUP2 SLOAD DUP2 MSTORE SWAP1 PUSH1 0x1 ADD SWAP1 PUSH1 0x20 ADD DUP1 DUP4 GT PUSH2 0x4F2 JUMPI DUP3 SWAP1 SUB PUSH1 0x1F AND DUP3 ADD SWAP2 JUMPDEST POP POP POP POP POP SWAP1 DUP1 PUSH1 0x3 ADD SLOAD SWAP1 DUP1 PUSH1 0x4 ADD SLOAD SWAP1 POP DUP4 JUMP JUMPDEST PUSH2 0x52D PUSH2 0xD44 JUMP JUMPDEST PUSH1 0x3 DUP3 PUSH1 0x40 MLOAD PUSH2 0x53D SWAP2 SWAP1 PUSH2 0x1ACE JUMP JUMPDEST SWAP1 DUP2 MSTORE PUSH1 0x20 ADD PUSH1 0x40 MLOAD DUP1 SWAP2 SUB SWAP1 KECCAK256 PUSH0 SWAP1 SLOAD SWAP1 PUSH2 0x100 EXP SWAP1 DIV PUSH1 0xFF AND PUSH2 0x597 JUMPI PUSH1 0x40 MLOAD PUSH32 0x8C379A000000000000000000000000000000000000000000000000000000000 DUP2 MSTORE PUSH1 0x4 ADD PUSH2 0x58E SWAP1 PUSH2 0x1B2E JUMP JUMPDEST PUSH1 0x40 MLOAD DUP1 SWAP2 SUB SWAP1 REVERT JUMPDEST PUSH1 0x2 DUP3 PUSH1 0x40 MLOAD PUSH2 0x5A7 SWAP2 SWAP1 PUSH2 0x1ACE JUMP JUMPDEST SWAP1 DUP2 MSTORE PUSH1 0x20 ADD PUSH1 0x40 MLOAD DUP1 SWAP2 SUB SWAP1 KECCAK256 PUSH1 0x40 MLOAD DUP1 PUSH1 0xA0 ADD PUSH1 0x40 MSTORE SWAP1 DUP2 PUSH0 DUP3 ADD DUP1 SLOAD PUSH2 0x5CF SWAP1 PUSH2 0x1A64 JUMP JUMPDEST DUP1 PUSH1 0x1F ADD PUSH1 0x20 DUP1 SWAP2 DIV MUL PUSH1 0x20 ADD PUSH1 0x40 MLOAD SWAP1 DUP2 ADD PUSH1 0x40 MSTORE DUP1 SWAP3 SWAP2 SWAP1 DUP2 DUP2 MSTORE PUSH1 0x20 ADD DUP3 DUP1 SLOAD PUSH2 0x5FB SWAP1 PUSH2 0x1A64 JUMP JUMPDEST DUP1 ISZERO PUSH2 0x646 JUMPI DUP1 PUSH1 0x1F LT PUSH2 0x61D JUMPI PUSH2 0x100 DUP1 DUP4 SLOAD DIV MUL DUP4 MSTORE SWAP2 PUSH1 0x20 ADD SWAP2 PUSH2 0x646 JUMP JUMPDEST DUP3 ADD SWAP2 SWAP1 PUSH0 MSTORE PUSH1 0x20 PUSH0 KECCAK256 SWAP1 JUMPDEST DUP2 SLOAD DUP2 MSTORE SWAP1 PUSH1 0x1 ADD SWAP1 PUSH1 0x20 ADD DUP1 DUP4 GT PUSH2 0x629 JUMPI DUP3 SWAP1 SUB PUSH1 0x1F AND DUP3 ADD SWAP2 JUMPDEST POP POP POP POP POP DUP2 MSTORE PUSH1 0x20 ADD PUSH1 0x1 DUP3 ADD DUP1 SLOAD DUP1 PUSH1 0x20 MUL PUSH1 0x20 ADD PUSH1 0x40 MLOAD SWAP1 DUP2 ADD PUSH1 0x40 MSTORE DUP1 SWAP3 SWAP2 SWAP1 DUP2 DUP2 MSTORE PUSH1 0x20 ADD PUSH0 SWAP1 JUMPDEST DUP3 DUP3 LT ISZERO PUSH2 0x71B JUMPI DUP4 DUP3 SWAP1 PUSH0 MSTORE PUSH1 0x20 PUSH0 KECCAK256 ADD DUP1 SLOAD PUSH2 0x690 SWAP1 PUSH2 0x1A64 JUMP JUMPDEST DUP1 PUSH1 0x1F ADD PUSH1 0x20 DUP1 SWAP2 DIV MUL PUSH1 0x20 ADD PUSH1 0x40 MLOAD SWAP1 DUP2 ADD PUSH1 0x40 MSTORE DUP1 SWAP3 SWAP2 SWAP1 DUP2 DUP2 MSTORE PUSH1 0x20 ADD DUP3 DUP1 SLOAD PUSH2 0x6BC SWAP1 PUSH2 0x1A64 JUMP JUMPDEST DUP1 ISZERO PUSH2 0x707 JUMPI DUP1 PUSH1 0x1F LT PUSH2 0x6DE JUMPI PUSH2 0x100 DUP1 DUP4 SLOAD DIV MUL DUP4 MSTORE SWAP2 PUSH1 0x20 ADD SWAP2 PUSH2 0x707 JUMP JUMPDEST DUP3 ADD SWAP2 SWAP1 PUSH0 MSTORE PUSH1 0x20 PUSH0 KECCAK256 SWAP1 JUMPDEST DUP2 SLOAD DUP2 MSTORE SWAP1 PUSH1 0x1 ADD SWAP1 PUSH1 0x20 ADD DUP1 DUP4 GT PUSH2 0x6EA JUMPI DUP3 SWAP1 SUB PUSH1 0x1F AND DUP3 ADD SWAP2 JUMPDEST POP POP POP POP POP DUP2 MSTORE PUSH1 0x20 ADD SWAP1 PUSH1 0x1 ADD SWAP1 PUSH2 0x673 JUMP JUMPDEST POP POP POP POP DUP2 MSTORE PUSH1 0x20 ADD PUSH1 0x2 DUP3 ADD DUP1 SLOAD DUP1 PUSH1 0x20 MUL PUSH1 0x20 ADD PUSH1 0x40 MLOAD SWAP1 DUP2 ADD PUSH1 0x40 MSTORE DUP1 SWAP3 SWAP2 SWAP1 DUP2 DUP2 MSTORE PUSH1 0x20 ADD DUP3 DUP1 SLOAD DUP1 ISZERO PUSH2 0x7A5 JUMPI PUSH1 0x20 MUL DUP3 ADD SWAP2 SWAP1 PUSH0 MSTORE PUSH1 0x20 PUSH0 KECCAK256 SWAP1 JUMPDEST DUP2 PUSH0 SWAP1 SLOAD SWAP1 PUSH2 0x100 EXP SWAP1 DIV PUSH20 0xFFFFFFFFFFFFFFFFFFFFFFFFFFFFFFFFFFFFFFFF AND PUSH20 0xFFFFFFFFFFFFFFFFFFFFFFFFFFFFFFFFFFFFFFFF AND DUP2 MSTORE PUSH1 0x20 ADD SWAP1 PUSH1 0x1 ADD SWAP1 DUP1 DUP4 GT PUSH2 0x75C JUMPI JUMPDEST POP POP POP POP POP DUP2 MSTORE PUSH1 0x20 ADD PUSH1 0x3 DUP3 ADD SLOAD DUP2 MSTORE PUSH1 0x20 ADD PUSH1 0x4 DUP3 ADD SLOAD DUP2 MSTORE POP POP SWAP1 POP SWAP2 SWAP1 POP JUMP JUMPDEST PUSH0 DUP1 SLOAD SWAP1 PUSH2 0x100 EXP SWAP1 DIV PUSH20 0xFFFFFFFFFFFFFFFFFFFFFFFFFFFFFFFFFFFFFFFF AND DUP2 JUMP JUMPDEST PUSH1 0x60 PUSH0 PUSH1 0x4 DUP1 SLOAD SWAP1 POP PUSH8 0xFFFFFFFFFFFFFFFF DUP2 GT ISZERO PUSH2 0x80E JUMPI PUSH2 0x80D PUSH2 0x103F JUMP JUMPDEST JUMPDEST PUSH1 0x40 MLOAD SWAP1 DUP1 DUP3 MSTORE DUP1 PUSH1 0x20 MUL PUSH1 0x20 ADD DUP3 ADD PUSH1 0x40 MSTORE DUP1 ISZERO PUSH2 0x847 JUMPI DUP2 PUSH1 0x20 ADD JUMPDEST PUSH2 0x834 PUSH2 0xD44 JUMP JUMPDEST DUP2 MSTORE PUSH1 0x20 ADD SWAP1 PUSH1 0x1 SWAP1 SUB SWAP1 DUP2 PUSH2 0x82C JUMPI SWAP1 POP JUMPDEST POP SWAP1 POP PUSH0 JUMPDEST PUSH1 0x4 DUP1 SLOAD SWAP1 POP DUP2 LT ISZERO PUSH2 0xACA JUMPI PUSH1 0x2 PUSH1 0x4 DUP3 DUP2 SLOAD DUP2 LT PUSH2 0x86F JUMPI PUSH2 0x86E PUSH2 0x1B4C JUMP JUMPDEST JUMPDEST SWAP1 PUSH0 MSTORE PUSH1 0x20 PUSH0 KECCAK256 ADD PUSH1 0x40 MLOAD PUSH2 0x884 SWAP2 SWAP1 PUSH2 0x1C0B JUMP JUMPDEST SWAP1 DUP2 MSTORE PUSH1 0x20 ADD PUSH1 0x40 MLOAD DUP1 SWAP2 SUB SWAP1 KECCAK256 PUSH1 0x40 MLOAD DUP1 PUSH1 0xA0 ADD PUSH1 0x40 MSTORE SWAP1 DUP2 PUSH0 DUP3 ADD DUP1 SLOAD PUSH2 0x8AC SWAP1 PUSH2 0x1A64 JUMP JUMPDEST DUP1 PUSH1 0x1F ADD PUSH1 0x20 DUP1 SWAP2 DIV MUL PUSH1 0x20 ADD PUSH1 0x40 MLOAD SWAP1 DUP2 ADD PUSH1 0x40 MSTORE DUP1 SWAP3 SWAP2 SWAP1 DUP2 DUP2 MSTORE PUSH1 0x20 ADD DUP3 DUP1 SLOAD PUSH2 0x8D8 SWAP1 PUSH2 0x1A64 JUMP JUMPDEST DUP1 ISZERO PUSH2 0x923 JUMPI DUP1 PUSH1 0x1F LT PUSH2 0x8FA JUMPI PUSH2 0x100 DUP1 DUP4 SLOAD DIV MUL DUP4 MSTORE SWAP2 PUSH1 0x20 ADD SWAP2 PUSH2 0x923 JUMP JUMPDEST DUP3 ADD SWAP2 SWAP1 PUSH0 MSTORE PUSH1 0x20 PUSH0 KECCAK256 SWAP1 JUMPDEST DUP2 SLOAD DUP2 MSTORE SWAP1 PUSH1 0x1 ADD SWAP1 PUSH1 0x20 ADD DUP1 DUP4 GT PUSH2 0x906 JUMPI DUP3 SWAP1 SUB PUSH1 0x1F AND DUP3 ADD SWAP2 JUMPDEST POP POP POP POP POP DUP2 MSTORE PUSH1 0x20 ADD PUSH1 0x1 DUP3 ADD DUP1 SLOAD DUP1 PUSH1 0x20 MUL PUSH1 0x20 ADD PUSH1 0x40 MLOAD SWAP1 DUP2 ADD PUSH1 0x40 MSTORE DUP1 SWAP3 SWAP2 SWAP1 DUP2 DUP2 MSTORE PUSH1 0x20 ADD PUSH0 SWAP1 JUMPDEST DUP3 DUP3 LT ISZERO PUSH2 0x9F8 JUMPI DUP4 DUP3 SWAP1 PUSH0 MSTORE PUSH1 0x20 PUSH0 KECCAK256 ADD DUP1 SLOAD PUSH2 0x96D SWAP1 PUSH2 0x1A64 JUMP JUMPDEST DUP1 PUSH1 0x1F ADD PUSH1 0x20 DUP1 SWAP2 DIV MUL PUSH1 0x20 ADD PUSH1 0x40 MLOAD SWAP1 DUP2 ADD PUSH1 0x40 MSTORE DUP1 SWAP3 SWAP2 SWAP1 DUP2 DUP2 MSTORE PUSH1 0x20 ADD DUP3 DUP1 SLOAD PUSH2 0x999 SWAP1 PUSH2 0x1A64 JUMP JUMPDEST DUP1 ISZERO PUSH2 0x9E4 JUMPI DUP1 PUSH1 0x1F LT PUSH2 0x9BB JUMPI PUSH2 0x100 DUP1 DUP4 SLOAD DIV MUL DUP4 MSTORE SWAP2 PUSH1 0x20 ADD SWAP2 PUSH2 0x9E4 JUMP JUMPDEST DUP3 ADD SWAP2 SWAP1 PUSH0 MSTORE PUSH1 0x20 PUSH0 KECCAK256 SWAP1 JUMPDEST DUP2 SLOAD DUP2 MSTORE SWAP1 PUSH1 0x1 ADD SWAP1 PUSH1 0x20 ADD DUP1 DUP4 GT PUSH2 0x9C7 JUMPI DUP3 SWAP1 SUB PUSH1 0x1F AND DUP3 ADD SWAP2 JUMPDEST POP POP POP POP POP DUP2 MSTORE PUSH1 0x20 ADD SWAP1 PUSH1 0x1 ADD SWAP1 PUSH2 0x950 JUMP JUMPDEST POP POP POP POP DUP2 MSTORE PUSH1 0x20 ADD PUSH1 0x2 DUP3 ADD DUP1 SLOAD DUP1 PUSH1 0x20 MUL PUSH1 0x20 ADD PUSH1 0x40 MLOAD SWAP1 DUP2 ADD PUSH1 0x40 MSTORE DUP1 SWAP3 SWAP2 SWAP1 DUP2 DUP2 MSTORE PUSH1 0x20 ADD DUP3 DUP1 SLOAD DUP1 ISZERO PUSH2 0xA82 JUMPI PUSH1 0x20 MUL DUP3 ADD SWAP2 SWAP1 PUSH0 MSTORE PUSH1 0x20 PUSH0 KECCAK256 SWAP1 JUMPDEST DUP2 PUSH0 SWAP1 SLOAD SWAP1 PUSH2 0x100 EXP SWAP1 DIV PUSH20 0xFFFFFFFFFFFFFFFFFFFFFFFFFFFFFFFFFFFFFFFF AND PUSH20 0xFFFFFFFFFFFFFFFFFFFFFFFFFFFFFFFFFFFFFFFF AND DUP2 MSTORE PUSH1 0x20 ADD SWAP1 PUSH1 0x1 ADD SWAP1 DUP1 DUP4 GT PUSH2 0xA39 JUMPI JUMPDEST POP POP POP POP POP DUP2 MSTORE PUSH1 0x20 ADD PUSH1 0x3 DUP3 ADD SLOAD DUP2 MSTORE PUSH1 0x20 ADD PUSH1 0x4 DUP3 ADD SLOAD DUP2 MSTORE POP POP DUP3 DUP3 DUP2 MLOAD DUP2 LT PUSH2 0xAB2 JUMPI PUSH2 0xAB1 PUSH2 0x1B4C JUMP JUMPDEST JUMPDEST PUSH1 0x20 MUL PUSH1 0x20 ADD ADD DUP2 SWAP1 MSTORE POP DUP1 DUP1 PUSH1 0x1 ADD SWAP2 POP POP PUSH2 0x84C JUMP JUMPDEST POP DUP1 SWAP2 POP POP SWAP1 JUMP JUMPDEST PUSH0 PUSH1 0x4 DUP1 SLOAD SWAP1 POP SWAP1 POP SWAP1 JUMP JUMPDEST PUSH1 0x1 SLOAD DUP2 JUMP JUMPDEST DUP1 PUSH1 0x1 SLOAD LT ISZERO PUSH2 0xB29 JUMPI PUSH1 0x40 MLOAD PUSH32 0x8C379A000000000000000000000000000000000000000000000000000000000 DUP2 MSTORE PUSH1 0x4 ADD PUSH2 0xB20 SWAP1 PUSH2 0x1C6B JUMP JUMPDEST PUSH1 0x40 MLOAD DUP1 SWAP2 SUB SWAP1 REVERT JUMPDEST DUP2 PUSH20 0xFFFFFFFFFFFFFFFFFFFFFFFFFFFFFFFFFFFFFFFF AND PUSH2 0x8FC DUP3 SWAP1 DUP2 ISZERO MUL SWAP1 PUSH1 0x40 MLOAD PUSH0 PUSH1 0x40 MLOAD DUP1 DUP4 SUB DUP2 DUP6 DUP9 DUP9 CALL SWAP4 POP POP POP POP ISZERO DUP1 ISZERO PUSH2 0xB6C JUMPI RETURNDATASIZE PUSH0 DUP1 RETURNDATACOPY RETURNDATASIZE PUSH0 REVERT JUMPDEST POP DUP1 PUSH1 0x1 PUSH0 DUP3 DUP3 SLOAD PUSH2 0xB7E SWAP2 SWAP1 PUSH2 0x1A04 JUMP JUMPDEST SWAP3 POP POP DUP2 SWAP1 SSTORE POP PUSH32 0xB649C98F58055C520DF0DCB5709EFF2E931217FF2FB1E21376130D31BBB1C0AF DUP3 DUP3 PUSH1 0x40 MLOAD PUSH2 0xBB6 SWAP3 SWAP2 SWAP1 PUSH2 0x1CE4 JUMP JUMPDEST PUSH1 0x40 MLOAD DUP1 SWAP2 SUB SWAP1 LOG1 POP POP JUMP JUMPDEST PUSH1 0x3 DUP4 PUSH1 0x40 MLOAD PUSH2 0xBD2 SWAP2 SWAP1 PUSH2 0x1ACE JUMP JUMPDEST SWAP1 DUP2 MSTORE PUSH1 0x20 ADD PUSH1 0x40 MLOAD DUP1 SWAP2 SUB SWAP1 KECCAK256 PUSH0 SWAP1 SLOAD SWAP1 PUSH2 0x100 EXP SWAP1 DIV PUSH1 0xFF AND ISZERO PUSH2 0xC2D JUMPI PUSH1 0x40 MLOAD PUSH32 0x8C379A000000000000000000000000000000000000000000000000000000000 DUP2 MSTORE PUSH1 0x4 ADD PUSH2 0xC24 SWAP1 PUSH2 0x1D55 JUMP JUMPDEST PUSH1 0x40 MLOAD DUP1 SWAP2 SUB SWAP1 REVERT JUMPDEST PUSH1 0x40 MLOAD DUP1 PUSH1 0xA0 ADD PUSH1 0x40 MSTORE DUP1 DUP5 DUP2 MSTORE PUSH1 0x20 ADD DUP4 DUP2 MSTORE PUSH1 0x20 ADD DUP3 DUP2 MSTORE PUSH1 0x20 ADD PUSH0 DUP2 MSTORE PUSH1 0x20 ADD PUSH0 DUP2 MSTORE POP PUSH1 0x2 DUP5 PUSH1 0x40 MLOAD PUSH2 0xC64 SWAP2 SWAP1 PUSH2 0x1ACE JUMP JUMPDEST SWAP1 DUP2 MSTORE PUSH1 0x20 ADD PUSH1 0x40 MLOAD DUP1 SWAP2 SUB SWAP1 KECCAK256 PUSH0 DUP3 ADD MLOAD DUP2 PUSH0 ADD SWAP1 DUP2 PUSH2 0xC85 SWAP2 SWAP1 PUSH2 0x1EF5 JUMP JUMPDEST POP PUSH1 0x20 DUP3 ADD MLOAD DUP2 PUSH1 0x1 ADD SWAP1 DUP1 MLOAD SWAP1 PUSH1 0x20 ADD SWAP1 PUSH2 0xCA2 SWAP3 SWAP2 SWAP1 PUSH2 0xD71 JUMP JUMPDEST POP PUSH1 0x40 DUP3 ADD MLOAD DUP2 PUSH1 0x2 ADD SWAP1 DUP1 MLOAD SWAP1 PUSH1 0x20 ADD SWAP1 PUSH2 0xCBF SWAP3 SWAP2 SWAP1 PUSH2 0xDC8 JUMP JUMPDEST POP PUSH1 0x60 DUP3 ADD MLOAD DUP2 PUSH1 0x3 ADD SSTORE PUSH1 0x80 DUP3 ADD MLOAD DUP2 PUSH1 0x4 ADD SSTORE SWAP1 POP POP PUSH1 0x1 PUSH1 0x3 DUP5 PUSH1 0x40 MLOAD PUSH2 0xCE9 SWAP2 SWAP1 PUSH2 0x1ACE JUMP JUMPDEST SWAP1 DUP2 MSTORE PUSH1 0x20 ADD PUSH1 0x40 MLOAD DUP1 SWAP2 SUB SWAP1 KECCAK256 PUSH0 PUSH2 0x100 EXP DUP2 SLOAD DUP2 PUSH1 0xFF MUL NOT AND SWAP1 DUP4 ISZERO ISZERO MUL OR SWAP1 SSTORE POP PUSH1 0x4 DUP4 SWAP1 DUP1 PUSH1 0x1 DUP2 SLOAD ADD DUP1 DUP3 SSTORE DUP1 SWAP2 POP POP PUSH1 0x1 SWAP1 SUB SWAP1 PUSH0 MSTORE PUSH1 0x20 PUSH0 KECCAK256 ADD PUSH0 SWAP1 SWAP2 SWAP1 SWAP2 SWAP1 SWAP2 POP SWAP1 DUP2 PUSH2 0xD3E SWAP2 SWAP1 PUSH2 0x1EF5 JUMP JUMPDEST POP POP POP POP JUMP JUMPDEST PUSH1 0x40 MLOAD DUP1 PUSH1 0xA0 ADD PUSH1 0x40 MSTORE DUP1 PUSH1 0x60 DUP2 MSTORE PUSH1 0x20 ADD PUSH1 0x60 DUP2 MSTORE PUSH1 0x20 ADD PUSH1 0x60 DUP2 MSTORE PUSH1 0x20 ADD PUSH0 DUP2 MSTORE PUSH1 0x20 ADD PUSH0 DUP2 MSTORE POP SWAP1 JUMP JUMPDEST DUP3 DUP1 SLOAD DUP3 DUP3 SSTORE SWAP1 PUSH0 MSTORE PUSH1 0x20 PUSH0 KECCAK256 SWAP1 DUP2 ADD SWAP3 DUP3 ISZERO PUSH2 0xDB7 JUMPI SWAP2 PUSH1 0x20 MUL DUP3 ADD JUMPDEST DUP3 DUP2 GT ISZERO PUSH2 0xDB6 JUMPI DUP3 MLOAD DUP3 SWAP1 DUP2 PUSH2 0xDA6 SWAP2 SWAP1 PUSH2 0x1EF5 JUMP JUMPDEST POP SWAP2 PUSH1 0x20 ADD SWAP2 SWAP1 PUSH1 0x1 ADD SWAP1 PUSH2 0xD8F JUMP JUMPDEST JUMPDEST POP SWAP1 POP PUSH2 0xDC4 SWAP2 SWAP1 PUSH2 0xE4F JUMP JUMPDEST POP SWAP1 JUMP JUMPDEST DUP3 DUP1 SLOAD DUP3 DUP3 SSTORE SWAP1 PUSH0 MSTORE PUSH1 0x20 PUSH0 KECCAK256 SWAP1 DUP2 ADD SWAP3 DUP3 ISZERO PUSH2 0xE3E JUMPI SWAP2 PUSH1 0x20 MUL DUP3 ADD JUMPDEST DUP3 DUP2 GT ISZERO PUSH2 0xE3D JUMPI DUP3 MLOAD DUP3 PUSH0 PUSH2 0x100 EXP DUP2 SLOAD DUP2 PUSH20 0xFFFFFFFFFFFFFFFFFFFFFFFFFFFFFFFFFFFFFFFF MUL NOT AND SWAP1 DUP4 PUSH20 0xFFFFFFFFFFFFFFFFFFFFFFFFFFFFFFFFFFFFFFFF AND MUL OR SWAP1 SSTORE POP SWAP2 PUSH1 0x20 ADD SWAP2 SWAP1 PUSH1 0x1 ADD SWAP1 PUSH2 0xDE6 JUMP JUMPDEST JUMPDEST POP SWAP1 POP PUSH2 0xE4B SWAP2 SWAP1 PUSH2 0xE72 JUMP JUMPDEST POP SWAP1 JUMP JUMPDEST JUMPDEST DUP1 DUP3 GT ISZERO PUSH2 0xE6E JUMPI PUSH0 DUP2 DUP2 PUSH2 0xE65 SWAP2 SWAP1 PUSH2 0xE8D JUMP JUMPDEST POP PUSH1 0x1 ADD PUSH2 0xE50 JUMP JUMPDEST POP SWAP1 JUMP JUMPDEST JUMPDEST DUP1 DUP3 GT ISZERO PUSH2 0xE89 JUMPI PUSH0 DUP2 PUSH0 SWAP1 SSTORE POP PUSH1 0x1 ADD PUSH2 0xE73 JUMP JUMPDEST POP SWAP1 JUMP JUMPDEST POP DUP1 SLOAD PUSH2 0xE99 SWAP1 PUSH2 0x1A64 JUMP JUMPDEST PUSH0 DUP3 SSTORE DUP1 PUSH1 0x1F LT PUSH2 0xEAA JUMPI POP PUSH2 0xEC7 JUMP JUMPDEST PUSH1 0x1F ADD PUSH1 0x20 SWAP1 DIV SWAP1 PUSH0 MSTORE PUSH1 0x20 PUSH0 KECCAK256 SWAP1 DUP2 ADD SWAP1 PUSH2 0xEC6 SWAP2 SWAP1 PUSH2 0xE72 JUMP JUMPDEST JUMPDEST POP JUMP JUMPDEST PUSH0 DUP2 SWAP1 POP SWAP2 SWAP1 POP JUMP JUMPDEST PUSH32 0x4E487B7100000000000000000000000000000000000000000000000000000000 PUSH0 MSTORE PUSH1 0x11 PUSH1 0x4 MSTORE PUSH1 0x24 PUSH0 REVERT JUMPDEST PUSH0 PUSH2 0xF0A DUP3 PUSH2 0xECA JUMP JUMPDEST SWAP2 POP PUSH2 0xF15 DUP4 PUSH2 0xECA JUMP JUMPDEST SWAP3 POP DUP3 DUP3 ADD SWAP1 POP DUP1 DUP3 GT ISZERO PUSH2 0xF2D JUMPI PUSH2 0xF2C PUSH2 0xED3 JUMP JUMPDEST JUMPDEST SWAP3 SWAP2 POP POP JUMP JUMPDEST PUSH0 PUSH20 0xFFFFFFFFFFFFFFFFFFFFFFFFFFFFFFFFFFFFFFFF DUP3 AND SWAP1 POP SWAP2 SWAP1 POP JUMP JUMPDEST PUSH0 PUSH2 0xF5C DUP3 PUSH2 0xF33 JUMP JUMPDEST SWAP1 POP SWAP2 SWAP1 POP JUMP JUMPDEST PUSH2 0xF6C DUP2 PUSH2 0xF52 JUMP JUMPDEST DUP3 MSTORE POP POP JUMP JUMPDEST PUSH2 0xF7B DUP2 PUSH2 0xECA JUMP JUMPDEST DUP3 MSTORE POP POP JUMP JUMPDEST PUSH0 PUSH1 0x40 DUP3 ADD SWAP1 POP PUSH2 0xF94 PUSH0 DUP4 ADD DUP6 PUSH2 0xF63 JUMP JUMPDEST PUSH2 0xFA1 PUSH1 0x20 DUP4 ADD DUP5 PUSH2 0xF72 JUMP JUMPDEST SWAP4 SWAP3 POP POP POP JUMP JUMPDEST PUSH0 PUSH1 0x20 DUP3 ADD SWAP1 POP PUSH2 0xFBB PUSH0 DUP4 ADD DUP5 PUSH2 0xF72 JUMP JUMPDEST SWAP3 SWAP2 POP POP JUMP JUMPDEST PUSH0 PUSH1 0x40 MLOAD SWAP1 POP SWAP1 JUMP JUMPDEST PUSH0 DUP1 REVERT JUMPDEST PUSH0 DUP1 REVERT JUMPDEST PUSH2 0xFDB DUP2 PUSH2 0xECA JUMP JUMPDEST DUP2 EQ PUSH2 0xFE5 JUMPI PUSH0 DUP1 REVERT JUMPDEST POP JUMP JUMPDEST PUSH0 DUP2 CALLDATALOAD SWAP1 POP PUSH2 0xFF6 DUP2 PUSH2 0xFD2 JUMP JUMPDEST SWAP3 SWAP2 POP POP JUMP JUMPDEST PUSH0 PUSH1 0x20 DUP3 DUP5 SUB SLT ISZERO PUSH2 0x1011 JUMPI PUSH2 0x1010 PUSH2 0xFCA JUMP JUMPDEST JUMPDEST PUSH0 PUSH2 0x101E DUP5 DUP3 DUP6 ADD PUSH2 0xFE8 JUMP JUMPDEST SWAP2 POP POP SWAP3 SWAP2 POP POP JUMP JUMPDEST PUSH0 DUP1 REVERT JUMPDEST PUSH0 DUP1 REVERT JUMPDEST PUSH0 PUSH1 0x1F NOT PUSH1 0x1F DUP4 ADD AND SWAP1 POP SWAP2 SWAP1 POP JUMP JUMPDEST PUSH32 0x4E487B7100000000000000000000000000000000000000000000000000000000 PUSH0 MSTORE PUSH1 0x41 PUSH1 0x4 MSTORE PUSH1 0x24 PUSH0 REVERT JUMPDEST PUSH2 0x1075 DUP3 PUSH2 0x102F JUMP JUMPDEST DUP2 ADD DUP2 DUP2 LT PUSH8 0xFFFFFFFFFFFFFFFF DUP3 GT OR ISZERO PUSH2 0x1094 JUMPI PUSH2 0x1093 PUSH2 0x103F JUMP JUMPDEST JUMPDEST DUP1 PUSH1 0x40 MSTORE POP POP POP JUMP JUMPDEST PUSH0 PUSH2 0x10A6 PUSH2 0xFC1 JUMP JUMPDEST SWAP1 POP PUSH2 0x10B2 DUP3 DUP3 PUSH2 0x106C JUMP JUMPDEST SWAP2 SWAP1 POP JUMP JUMPDEST PUSH0 PUSH8 0xFFFFFFFFFFFFFFFF DUP3 GT ISZERO PUSH2 0x10D1 JUMPI PUSH2 0x10D0 PUSH2 0x103F JUMP JUMPDEST JUMPDEST PUSH2 0x10DA DUP3 PUSH2 0x102F JUMP JUMPDEST SWAP1 POP PUSH1 0x20 DUP2 ADD SWAP1 POP SWAP2 SWAP1 POP JUMP JUMPDEST DUP3 DUP2 DUP4 CALLDATACOPY PUSH0 DUP4 DUP4 ADD MSTORE POP POP POP JUMP JUMPDEST PUSH0 PUSH2 0x1107 PUSH2 0x1102 DUP5 PUSH2 0x10B7 JUMP JUMPDEST PUSH2 0x109D JUMP JUMPDEST SWAP1 POP DUP3 DUP2 MSTORE PUSH1 0x20 DUP2 ADD DUP5 DUP5 DUP5 ADD GT ISZERO PUSH2 0x1123 JUMPI PUSH2 0x1122 PUSH2 0x102B JUMP JUMPDEST JUMPDEST PUSH2 0x112E DUP5 DUP3 DUP6 PUSH2 0x10E7 JUMP JUMPDEST POP SWAP4 SWAP3 POP POP POP JUMP JUMPDEST PUSH0 DUP3 PUSH1 0x1F DUP4 ADD SLT PUSH2 0x114A JUMPI PUSH2 0x1149 PUSH2 0x1027 JUMP JUMPDEST JUMPDEST DUP2 CALLDATALOAD PUSH2 0x115A DUP5 DUP3 PUSH1 0x20 DUP7 ADD PUSH2 0x10F5 JUMP JUMPDEST SWAP2 POP POP SWAP3 SWAP2 POP POP JUMP JUMPDEST PUSH0 PUSH1 0x20 DUP3 DUP5 SUB SLT ISZERO PUSH2 0x1178 JUMPI PUSH2 0x1177 PUSH2 0xFCA JUMP JUMPDEST JUMPDEST PUSH0 DUP3 ADD CALLDATALOAD PUSH8 0xFFFFFFFFFFFFFFFF DUP2 GT ISZERO PUSH2 0x1195 JUMPI PUSH2 0x1194 PUSH2 0xFCE JUMP JUMPDEST JUMPDEST PUSH2 0x11A1 DUP5 DUP3 DUP6 ADD PUSH2 0x1136 JUMP JUMPDEST SWAP2 POP POP SWAP3 SWAP2 POP POP JUMP JUMPDEST PUSH0 DUP2 MLOAD SWAP1 POP SWAP2 SWAP1 POP JUMP JUMPDEST PUSH0 DUP3 DUP3 MSTORE PUSH1 0x20 DUP3 ADD SWAP1 POP SWAP3 SWAP2 POP POP JUMP JUMPDEST DUP3 DUP2 DUP4 MCOPY PUSH0 DUP4 DUP4 ADD MSTORE POP POP POP JUMP JUMPDEST PUSH0 PUSH2 0x11DC DUP3 PUSH2 0x11AA JUMP JUMPDEST PUSH2 0x11E6 DUP2 DUP6 PUSH2 0x11B4 JUMP JUMPDEST SWAP4 POP PUSH2 0x11F6 DUP2 DUP6 PUSH1 0x20 DUP7 ADD PUSH2 0x11C4 JUMP JUMPDEST PUSH2 0x11FF DUP2 PUSH2 0x102F JUMP JUMPDEST DUP5 ADD SWAP2 POP POP SWAP3 SWAP2 POP POP JUMP JUMPDEST PUSH0 PUSH1 0x60 DUP3 ADD SWAP1 POP DUP2 DUP2 SUB PUSH0 DUP4 ADD MSTORE PUSH2 0x1222 DUP2 DUP7 PUSH2 0x11D2 JUMP JUMPDEST SWAP1 POP PUSH2 0x1231 PUSH1 0x20 DUP4 ADD DUP6 PUSH2 0xF72 JUMP JUMPDEST PUSH2 0x123E PUSH1 0x40 DUP4 ADD DUP5 PUSH2 0xF72 JUMP JUMPDEST SWAP5 SWAP4 POP POP POP POP JUMP JUMPDEST PUSH0 DUP3 DUP3 MSTORE PUSH1 0x20 DUP3 ADD SWAP1 POP SWAP3 SWAP2 POP POP JUMP JUMPDEST PUSH0 PUSH2 0x1260 DUP3 PUSH2 0x11AA JUMP JUMPDEST PUSH2 0x126A DUP2 DUP6 PUSH2 0x1246 JUMP JUMPDEST SWAP4 POP PUSH2 0x127A DUP2 DUP6 PUSH1 0x20 DUP7 ADD PUSH2 0x11C4 JUMP JUMPDEST PUSH2 0x1283 DUP2 PUSH2 0x102F JUMP JUMPDEST DUP5 ADD SWAP2 POP POP SWAP3 SWAP2 POP POP JUMP JUMPDEST PUSH0 DUP2 MLOAD SWAP1 POP SWAP2 SWAP1 POP JUMP JUMPDEST PUSH0 DUP3 DUP3 MSTORE PUSH1 0x20 DUP3 ADD SWAP1 POP SWAP3 SWAP2 POP POP JUMP JUMPDEST PUSH0 DUP2 SWAP1 POP PUSH1 0x20 DUP3 ADD SWAP1 POP SWAP2 SWAP1 POP JUMP JUMPDEST PUSH0 PUSH2 0x12C2 DUP4 DUP4 PUSH2 0x1256 JUMP JUMPDEST SWAP1 POP SWAP3 SWAP2 POP POP JUMP JUMPDEST PUSH0 PUSH1 0x20 DUP3 ADD SWAP1 POP SWAP2 SWAP1 POP JUMP JUMPDEST PUSH0 PUSH2 0x12E0 DUP3 PUSH2 0x128E JUMP JUMPDEST PUSH2 0x12EA DUP2 DUP6 PUSH2 0x1298 JUMP JUMPDEST SWAP4 POP DUP4 PUSH1 0x20 DUP3 MUL DUP6 ADD PUSH2 0x12FC DUP6 PUSH2 0x12A8 JUMP JUMPDEST DUP1 PUSH0 JUMPDEST DUP6 DUP2 LT ISZERO PUSH2 0x1337 JUMPI DUP5 DUP5 SUB DUP10 MSTORE DUP2 MLOAD PUSH2 0x1318 DUP6 DUP3 PUSH2 0x12B7 JUMP JUMPDEST SWAP5 POP PUSH2 0x1323 DUP4 PUSH2 0x12CA JUMP JUMPDEST SWAP3 POP PUSH1 0x20 DUP11 ADD SWAP10 POP POP PUSH1 0x1 DUP2 ADD SWAP1 POP PUSH2 0x12FF JUMP JUMPDEST POP DUP3 SWAP8 POP DUP8 SWAP6 POP POP POP POP POP POP SWAP3 SWAP2 POP POP JUMP JUMPDEST PUSH0 DUP2 MLOAD SWAP1 POP SWAP2 SWAP1 POP JUMP JUMPDEST PUSH0 DUP3 DUP3 MSTORE PUSH1 0x20 DUP3 ADD SWAP1 POP SWAP3 SWAP2 POP POP JUMP JUMPDEST PUSH0 DUP2 SWAP1 POP PUSH1 0x20 DUP3 ADD SWAP1 POP SWAP2 SWAP1 POP JUMP JUMPDEST PUSH2 0x137B DUP2 PUSH2 0xF52 JUMP JUMPDEST DUP3 MSTORE POP POP JUMP JUMPDEST PUSH0 PUSH2 0x138C DUP4 DUP4 PUSH2 0x1372 JUMP JUMPDEST PUSH1 0x20 DUP4 ADD SWAP1 POP SWAP3 SWAP2 POP POP JUMP JUMPDEST PUSH0 PUSH1 0x20 DUP3 ADD SWAP1 POP SWAP2 SWAP1 POP JUMP JUMPDEST PUSH0 PUSH2 0x13AE DUP3 PUSH2 0x1349 JUMP JUMPDEST PUSH2 0x13B8 DUP2 DUP6 PUSH2 0x1353 JUMP JUMPDEST SWAP4 POP PUSH2 0x13C3 DUP4 PUSH2 0x1363 JUMP JUMPDEST DUP1 PUSH0 JUMPDEST DUP4 DUP2 LT ISZERO PUSH2 0x13F3 JUMPI DUP2 MLOAD PUSH2 0x13DA DUP9 DUP3 PUSH2 0x1381 JUMP JUMPDEST SWAP8 POP PUSH2 0x13E5 DUP4 PUSH2 0x1398 JUMP JUMPDEST SWAP3 POP POP PUSH1 0x1 DUP2 ADD SWAP1 POP PUSH2 0x13C6 JUMP JUMPDEST POP DUP6 SWAP4 POP POP POP POP SWAP3 SWAP2 POP POP JUMP JUMPDEST PUSH2 0x1409 DUP2 PUSH2 0xECA JUMP JUMPDEST DUP3 MSTORE POP POP JUMP JUMPDEST PUSH0 PUSH1 0xA0 DUP4 ADD PUSH0 DUP4 ADD MLOAD DUP5 DUP3 SUB PUSH0 DUP7 ADD MSTORE PUSH2 0x1429 DUP3 DUP3 PUSH2 0x1256 JUMP JUMPDEST SWAP2 POP POP PUSH1 0x20 DUP4 ADD MLOAD DUP5 DUP3 SUB PUSH1 0x20 DUP7 ADD MSTORE PUSH2 0x1443 DUP3 DUP3 PUSH2 0x12D6 JUMP JUMPDEST SWAP2 POP POP PUSH1 0x40 DUP4 ADD MLOAD DUP5 DUP3 SUB PUSH1 0x40 DUP7 ADD MSTORE PUSH2 0x145D DUP3 DUP3 PUSH2 0x13A4 JUMP JUMPDEST SWAP2 POP POP PUSH1 0x60 DUP4 ADD MLOAD PUSH2 0x1472 PUSH1 0x60 DUP7 ADD DUP3 PUSH2 0x1400 JUMP JUMPDEST POP PUSH1 0x80 DUP4 ADD MLOAD PUSH2 0x1485 PUSH1 0x80 DUP7 ADD DUP3 PUSH2 0x1400 JUMP JUMPDEST POP DUP1 SWAP2 POP POP SWAP3 SWAP2 POP POP JUMP JUMPDEST PUSH0 PUSH1 0x20 DUP3 ADD SWAP1 POP DUP2 DUP2 SUB PUSH0 DUP4 ADD MSTORE PUSH2 0x14A8 DUP2 DUP5 PUSH2 0x140F JUMP JUMPDEST SWAP1 POP SWAP3 SWAP2 POP POP JUMP JUMPDEST PUSH0 PUSH1 0x20 DUP3 ADD SWAP1 POP PUSH2 0x14C3 PUSH0 DUP4 ADD DUP5 PUSH2 0xF63 JUMP JUMPDEST SWAP3 SWAP2 POP POP JUMP JUMPDEST PUSH0 DUP2 MLOAD SWAP1 POP SWAP2 SWAP1 POP JUMP JUMPDEST PUSH0 DUP3 DUP3 MSTORE PUSH1 0x20 DUP3 ADD SWAP1 POP SWAP3 SWAP2 POP POP JUMP JUMPDEST PUSH0 DUP2 SWAP1 POP PUSH1 0x20 DUP3 ADD SWAP1 POP SWAP2 SWAP1 POP JUMP JUMPDEST PUSH0 PUSH1 0xA0 DUP4 ADD PUSH0 DUP4 ADD MLOAD DUP5 DUP3 SUB PUSH0 DUP7 ADD MSTORE PUSH2 0x150C DUP3 DUP3 PUSH2 0x1256 JUMP JUMPDEST SWAP2 POP POP PUSH1 0x20 DUP4 ADD MLOAD DUP5 DUP3 SUB PUSH1 0x20 DUP7 ADD MSTORE PUSH2 0x1526 DUP3 DUP3 PUSH2 0x12D6 JUMP JUMPDEST SWAP2 POP POP PUSH1 0x40 DUP4 ADD MLOAD DUP5 DUP3 SUB PUSH1 0x40 DUP7 ADD MSTORE PUSH2 0x1540 DUP3 DUP3 PUSH2 0x13A4 JUMP JUMPDEST SWAP2 POP POP PUSH1 0x60 DUP4 ADD MLOAD PUSH2 0x1555 PUSH1 0x60 DUP7 ADD DUP3 PUSH2 0x1400 JUMP JUMPDEST POP PUSH1 0x80 DUP4 ADD MLOAD PUSH2 0x1568 PUSH1 0x80 DUP7 ADD DUP3 PUSH2 0x1400 JUMP JUMPDEST POP DUP1 SWAP2 POP POP SWAP3 SWAP2 POP POP JUMP JUMPDEST PUSH0 PUSH2 0x157E DUP4 DUP4 PUSH2 0x14F2 JUMP JUMPDEST SWAP1 POP SWAP3 SWAP2 POP POP JUMP JUMPDEST PUSH0 PUSH1 0x20 DUP3 ADD SWAP1 POP SWAP2 SWAP1 POP JUMP JUMPDEST PUSH0 PUSH2 0x159C DUP3 PUSH2 0x14C9 JUMP JUMPDEST PUSH2 0x15A6 DUP2 DUP6 PUSH2 0x14D3 JUMP JUMPDEST SWAP4 POP DUP4 PUSH1 0x20 DUP3 MUL DUP6 ADD PUSH2 0x15B8 DUP6 PUSH2 0x14E3 JUMP JUMPDEST DUP1 PUSH0 JUMPDEST DUP6 DUP2 LT ISZERO PUSH2 0x15F3 JUMPI DUP5 DUP5 SUB DUP10 MSTORE DUP2 MLOAD PUSH2 0x15D4 DUP6 DUP3 PUSH2 0x1573 JUMP JUMPDEST SWAP5 POP PUSH2 0x15DF DUP4 PUSH2 0x1586 JUMP JUMPDEST SWAP3 POP PUSH1 0x20 DUP11 ADD SWAP10 POP POP PUSH1 0x1 DUP2 ADD SWAP1 POP PUSH2 0x15BB JUMP JUMPDEST POP DUP3 SWAP8 POP DUP8 SWAP6 POP POP POP POP POP POP SWAP3 SWAP2 POP POP JUMP JUMPDEST PUSH0 PUSH1 0x20 DUP3 ADD SWAP1 POP DUP2 DUP2 SUB PUSH0 DUP4 ADD MSTORE PUSH2 0x161D DUP2 DUP5 PUSH2 0x1592 JUMP JUMPDEST SWAP1 POP SWAP3 SWAP2 POP POP JUMP JUMPDEST PUSH0 PUSH2 0x162F DUP3 PUSH2 0xF33 JUMP JUMPDEST SWAP1 POP SWAP2 SWAP1 POP JUMP JUMPDEST PUSH2 0x163F DUP2 PUSH2 0x1625 JUMP JUMPDEST DUP2 EQ PUSH2 0x1649 JUMPI PUSH0 DUP1 REVERT JUMPDEST POP JUMP JUMPDEST PUSH0 DUP2 CALLDATALOAD SWAP1 POP PUSH2 0x165A DUP2 PUSH2 0x1636 JUMP JUMPDEST SWAP3 SWAP2 POP POP JUMP JUMPDEST PUSH0 DUP1 PUSH1 0x40 DUP4 DUP6 SUB SLT ISZERO PUSH2 0x1676 JUMPI PUSH2 0x1675 PUSH2 0xFCA JUMP JUMPDEST JUMPDEST PUSH0 PUSH2 0x1683 DUP6 DUP3 DUP7 ADD PUSH2 0x164C JUMP JUMPDEST SWAP3 POP POP PUSH1 0x20 PUSH2 0x1694 DUP6 DUP3 DUP7 ADD PUSH2 0xFE8 JUMP JUMPDEST SWAP2 POP POP SWAP3 POP SWAP3 SWAP1 POP JUMP JUMPDEST PUSH0 PUSH8 0xFFFFFFFFFFFFFFFF DUP3 GT ISZERO PUSH2 0x16B8 JUMPI PUSH2 0x16B7 PUSH2 0x103F JUMP JUMPDEST JUMPDEST PUSH1 0x20 DUP3 MUL SWAP1 POP PUSH1 0x20 DUP2 ADD SWAP1 POP SWAP2 SWAP1 POP JUMP JUMPDEST PUSH0 DUP1 REVERT JUMPDEST PUSH0 PUSH2 0x16DF PUSH2 0x16DA DUP5 PUSH2 0x169E JUMP JUMPDEST PUSH2 0x109D JUMP JUMPDEST SWAP1 POP DUP1 DUP4 DUP3 MSTORE PUSH1 0x20 DUP3 ADD SWAP1 POP PUSH1 0x20 DUP5 MUL DUP4 ADD DUP6 DUP2 GT ISZERO PUSH2 0x1702 JUMPI PUSH2 0x1701 PUSH2 0x16C9 JUMP JUMPDEST JUMPDEST DUP4 JUMPDEST DUP2 DUP2 LT ISZERO PUSH2 0x1749 JUMPI DUP1 CALLDATALOAD PUSH8 0xFFFFFFFFFFFFFFFF DUP2 GT ISZERO PUSH2 0x1727 JUMPI PUSH2 0x1726 PUSH2 0x1027 JUMP JUMPDEST JUMPDEST DUP1 DUP7 ADD PUSH2 0x1734 DUP10 DUP3 PUSH2 0x1136 JUMP JUMPDEST DUP6 MSTORE PUSH1 0x20 DUP6 ADD SWAP5 POP POP POP PUSH1 0x20 DUP2 ADD SWAP1 POP PUSH2 0x1704 JUMP JUMPDEST POP POP POP SWAP4 SWAP3 POP POP POP JUMP JUMPDEST PUSH0 DUP3 PUSH1 0x1F DUP4 ADD SLT PUSH2 0x1767 JUMPI PUSH2 0x1766 PUSH2 0x1027 JUMP JUMPDEST JUMPDEST DUP2 CALLDATALOAD PUSH2 0x1777 DUP5 DUP3 PUSH1 0x20 DUP7 ADD PUSH2 0x16CD JUMP JUMPDEST SWAP2 POP POP SWAP3 SWAP2 POP POP JUMP JUMPDEST PUSH0 PUSH8 0xFFFFFFFFFFFFFFFF DUP3 GT ISZERO PUSH2 0x179A JUMPI PUSH2 0x1799 PUSH2 0x103F JUMP JUMPDEST JUMPDEST PUSH1 0x20 DUP3 MUL SWAP1 POP PUSH1 0x20 DUP2 ADD SWAP1 POP SWAP2 SWAP1 POP JUMP JUMPDEST PUSH2 0x17B4 DUP2 PUSH2 0xF52 JUMP JUMPDEST DUP2 EQ PUSH2 0x17BE JUMPI PUSH0 DUP1 REVERT JUMPDEST POP JUMP JUMPDEST PUSH0 DUP2 CALLDATALOAD SWAP1 POP PUSH2 0x17CF DUP2 PUSH2 0x17AB JUMP JUMPDEST SWAP3 SWAP2 POP POP JUMP JUMPDEST PUSH0 PUSH2 0x17E7 PUSH2 0x17E2 DUP5 PUSH2 0x1780 JUMP JUMPDEST PUSH2 0x109D JUMP JUMPDEST SWAP1 POP DUP1 DUP4 DUP3 MSTORE PUSH1 0x20 DUP3 ADD SWAP1 POP PUSH1 0x20 DUP5 MUL DUP4 ADD DUP6 DUP2 GT ISZERO PUSH2 0x180A JUMPI PUSH2 0x1809 PUSH2 0x16C9 JUMP JUMPDEST JUMPDEST DUP4 JUMPDEST DUP2 DUP2 LT ISZERO PUSH2 0x1833 JUMPI DUP1 PUSH2 0x181F DUP9 DUP3 PUSH2 0x17C1 JUMP JUMPDEST DUP5 MSTORE PUSH1 0x20 DUP5 ADD SWAP4 POP POP PUSH1 0x20 DUP2 ADD SWAP1 POP PUSH2 0x180C JUMP JUMPDEST POP POP POP SWAP4 SWAP3 POP POP POP JUMP JUMPDEST PUSH0 DUP3 PUSH1 0x1F DUP4 ADD SLT PUSH2 0x1851 JUMPI PUSH2 0x1850 PUSH2 0x1027 JUMP JUMPDEST JUMPDEST DUP2 CALLDATALOAD PUSH2 0x1861 DUP5 DUP3 PUSH1 0x20 DUP7 ADD PUSH2 0x17D5 JUMP JUMPDEST SWAP2 POP POP SWAP3 SWAP2 POP POP JUMP JUMPDEST PUSH0 DUP1 PUSH0 PUSH1 0x60 DUP5 DUP7 SUB SLT ISZERO PUSH2 0x1881 JUMPI PUSH2 0x1880 PUSH2 0xFCA JUMP JUMPDEST JUMPDEST PUSH0 DUP5 ADD CALLDATALOAD PUSH8 0xFFFFFFFFFFFFFFFF DUP2 GT ISZERO PUSH2 0x189E JUMPI PUSH2 0x189D PUSH2 0xFCE JUMP JUMPDEST JUMPDEST PUSH2 0x18AA DUP7 DUP3 DUP8 ADD PUSH2 0x1136 JUMP JUMPDEST SWAP4 POP POP PUSH1 0x20 DUP5 ADD CALLDATALOAD PUSH8 0xFFFFFFFFFFFFFFFF DUP2 GT ISZERO PUSH2 0x18CB JUMPI PUSH2 0x18CA PUSH2 0xFCE JUMP JUMPDEST JUMPDEST PUSH2 0x18D7 DUP7 DUP3 DUP8 ADD PUSH2 0x1753 JUMP JUMPDEST SWAP3 POP POP PUSH1 0x40 DUP5 ADD CALLDATALOAD PUSH8 0xFFFFFFFFFFFFFFFF DUP2 GT ISZERO PUSH2 0x18F8 JUMPI PUSH2 0x18F7 PUSH2 0xFCE JUMP JUMPDEST JUMPDEST PUSH2 0x1904 DUP7 DUP3 DUP8 ADD PUSH2 0x183D JUMP JUMPDEST SWAP2 POP POP SWAP3 POP SWAP3 POP SWAP3 JUMP JUMPDEST PUSH32 0x596F7520617265206E6F7420746865206F776E65722E00000000000000000000 PUSH0 DUP3 ADD MSTORE POP JUMP JUMPDEST PUSH0 PUSH2 0x1942 PUSH1 0x16 DUP4 PUSH2 0x11B4 JUMP JUMPDEST SWAP2 POP PUSH2 0x194D DUP3 PUSH2 0x190E JUMP JUMPDEST PUSH1 0x20 DUP3 ADD SWAP1 POP SWAP2 SWAP1 POP JUMP JUMPDEST PUSH0 PUSH1 0x20 DUP3 ADD SWAP1 POP DUP2 DUP2 SUB PUSH0 DUP4 ADD MSTORE PUSH2 0x196F DUP2 PUSH2 0x1936 JUMP JUMPDEST SWAP1 POP SWAP2 SWAP1 POP JUMP JUMPDEST PUSH32 0x496E73756666696369656E742062616C616E636520696E20636F6E7472616374 PUSH0 DUP3 ADD MSTORE PUSH32 0x2E00000000000000000000000000000000000000000000000000000000000000 PUSH1 0x20 DUP3 ADD MSTORE POP JUMP JUMPDEST PUSH0 PUSH2 0x19D0 PUSH1 0x21 DUP4 PUSH2 0x11B4 JUMP JUMPDEST SWAP2 POP PUSH2 0x19DB DUP3 PUSH2 0x1976 JUMP JUMPDEST PUSH1 0x40 DUP3 ADD SWAP1 POP SWAP2 SWAP1 POP JUMP JUMPDEST PUSH0 PUSH1 0x20 DUP3 ADD SWAP1 POP DUP2 DUP2 SUB PUSH0 DUP4 ADD MSTORE PUSH2 0x19FD DUP2 PUSH2 0x19C4 JUMP JUMPDEST SWAP1 POP SWAP2 SWAP1 POP JUMP JUMPDEST PUSH0 PUSH2 0x1A0E DUP3 PUSH2 0xECA JUMP JUMPDEST SWAP2 POP PUSH2 0x1A19 DUP4 PUSH2 0xECA JUMP JUMPDEST SWAP3 POP DUP3 DUP3 SUB SWAP1 POP DUP2 DUP2 GT ISZERO PUSH2 0x1A31 JUMPI PUSH2 0x1A30 PUSH2 0xED3 JUMP JUMPDEST JUMPDEST SWAP3 SWAP2 POP POP JUMP JUMPDEST PUSH32 0x4E487B7100000000000000000000000000000000000000000000000000000000 PUSH0 MSTORE PUSH1 0x22 PUSH1 0x4 MSTORE PUSH1 0x24 PUSH0 REVERT JUMPDEST PUSH0 PUSH1 0x2 DUP3 DIV SWAP1 POP PUSH1 0x1 DUP3 AND DUP1 PUSH2 0x1A7B JUMPI PUSH1 0x7F DUP3 AND SWAP2 POP JUMPDEST PUSH1 0x20 DUP3 LT DUP2 SUB PUSH2 0x1A8E JUMPI PUSH2 0x1A8D PUSH2 0x1A37 JUMP JUMPDEST JUMPDEST POP SWAP2 SWAP1 POP JUMP JUMPDEST PUSH0 DUP2 SWAP1 POP SWAP3 SWAP2 POP POP JUMP JUMPDEST PUSH0 PUSH2 0x1AA8 DUP3 PUSH2 0x11AA JUMP JUMPDEST PUSH2 0x1AB2 DUP2 DUP6 PUSH2 0x1A94 JUMP JUMPDEST SWAP4 POP PUSH2 0x1AC2 DUP2 DUP6 PUSH1 0x20 DUP7 ADD PUSH2 0x11C4 JUMP JUMPDEST DUP1 DUP5 ADD SWAP2 POP POP SWAP3 SWAP2 POP POP JUMP JUMPDEST PUSH0 PUSH2 0x1AD9 DUP3 DUP5 PUSH2 0x1A9E JUMP JUMPDEST SWAP2 POP DUP2 SWAP1 POP SWAP3 SWAP2 POP POP JUMP JUMPDEST PUSH32 0x746865207061706572206D757374206578697374000000000000000000000000 PUSH0 DUP3 ADD MSTORE POP JUMP JUMPDEST PUSH0 PUSH2 0x1B18 PUSH1 0x14 DUP4 PUSH2 0x11B4 JUMP JUMPDEST SWAP2 POP PUSH2 0x1B23 DUP3 PUSH2 0x1AE4 JUMP JUMPDEST PUSH1 0x20 DUP3 ADD SWAP1 POP SWAP2 SWAP1 POP JUMP JUMPDEST PUSH0 PUSH1 0x20 DUP3 ADD SWAP1 POP DUP2 DUP2 SUB PUSH0 DUP4 ADD MSTORE PUSH2 0x1B45 DUP2 PUSH2 0x1B0C JUMP JUMPDEST SWAP1 POP SWAP2 SWAP1 POP JUMP JUMPDEST PUSH32 0x4E487B7100000000000000000000000000000000000000000000000000000000 PUSH0 MSTORE PUSH1 0x32 PUSH1 0x4 MSTORE PUSH1 0x24 PUSH0 REVERT JUMPDEST PUSH0 DUP2 SWAP1 POP DUP2 PUSH0 MSTORE PUSH1 0x20 PUSH0 KECCAK256 SWAP1 POP SWAP2 SWAP1 POP JUMP JUMPDEST PUSH0 DUP2 SLOAD PUSH2 0x1B97 DUP2 PUSH2 0x1A64 JUMP JUMPDEST PUSH2 0x1BA1 DUP2 DUP7 PUSH2 0x1A94 JUMP JUMPDEST SWAP5 POP PUSH1 0x1 DUP3 AND PUSH0 DUP2 EQ PUSH2 0x1BBB JUMPI PUSH1 0x1 DUP2 EQ PUSH2 0x1BD0 JUMPI PUSH2 0x1C02 JUMP JUMPDEST PUSH1 0xFF NOT DUP4 AND DUP7 MSTORE DUP2 ISZERO ISZERO DUP3 MUL DUP7 ADD SWAP4 POP PUSH2 0x1C02 JUMP JUMPDEST PUSH2 0x1BD9 DUP6 PUSH2 0x1B79 JUMP JUMPDEST PUSH0 JUMPDEST DUP4 DUP2 LT ISZERO PUSH2 0x1BFA JUMPI DUP2 SLOAD DUP2 DUP10 ADD MSTORE PUSH1 0x1 DUP3 ADD SWAP2 POP PUSH1 0x20 DUP2 ADD SWAP1 POP PUSH2 0x1BDB JUMP JUMPDEST DUP4 DUP9 ADD SWAP6 POP POP POP JUMPDEST POP POP POP SWAP3 SWAP2 POP POP JUMP JUMPDEST PUSH0 PUSH2 0x1C16 DUP3 DUP5 PUSH2 0x1B8B JUMP JUMPDEST SWAP2 POP DUP2 SWAP1 POP SWAP3 SWAP2 POP POP JUMP JUMPDEST PUSH32 0x496E73756666696369656E742062616C616E63652E0000000000000000000000 PUSH0 DUP3 ADD MSTORE POP JUMP JUMPDEST PUSH0 PUSH2 0x1C55 PUSH1 0x15 DUP4 PUSH2 0x11B4 JUMP JUMPDEST SWAP2 POP PUSH2 0x1C60 DUP3 PUSH2 0x1C21 JUMP JUMPDEST PUSH1 0x20 DUP3 ADD SWAP1 POP SWAP2 SWAP1 POP JUMP JUMPDEST PUSH0 PUSH1 0x20 DUP3 ADD SWAP1 POP DUP2 DUP2 SUB PUSH0 DUP4 ADD MSTORE PUSH2 0x1C82 DUP2 PUSH2 0x1C49 JUMP JUMPDEST SWAP1 POP SWAP2 SWAP1 POP JUMP JUMPDEST PUSH0 DUP2 SWAP1 POP SWAP2 SWAP1 POP JUMP JUMPDEST PUSH0 PUSH2 0x1CAC PUSH2 0x1CA7 PUSH2 0x1CA2 DUP5 PUSH2 0xF33 JUMP JUMPDEST PUSH2 0x1C89 JUMP JUMPDEST PUSH2 0xF33 JUMP JUMPDEST SWAP1 POP SWAP2 SWAP1 POP JUMP JUMPDEST PUSH0 PUSH2 0x1CBD DUP3 PUSH2 0x1C92 JUMP JUMPDEST SWAP1 POP SWAP2 SWAP1 POP JUMP JUMPDEST PUSH0 PUSH2 0x1CCE DUP3 PUSH2 0x1CB3 JUMP JUMPDEST SWAP1 POP SWAP2 SWAP1 POP JUMP JUMPDEST PUSH2 0x1CDE DUP2 PUSH2 0x1CC4 JUMP JUMPDEST DUP3 MSTORE POP POP JUMP JUMPDEST PUSH0 PUSH1 0x40 DUP3 ADD SWAP1 POP PUSH2 0x1CF7 PUSH0 DUP4 ADD DUP6 PUSH2 0x1CD5 JUMP JUMPDEST PUSH2 0x1D04 PUSH1 0x20 DUP4 ADD DUP5 PUSH2 0xF72 JUMP JUMPDEST SWAP4 SWAP3 POP POP POP JUMP JUMPDEST PUSH32 0x456E747279204944206D75737420626520756E697175652E0000000000000000 PUSH0 DUP3 ADD MSTORE POP JUMP JUMPDEST PUSH0 PUSH2 0x1D3F PUSH1 0x18 DUP4 PUSH2 0x11B4 JUMP JUMPDEST SWAP2 POP PUSH2 0x1D4A DUP3 PUSH2 0x1D0B JUMP JUMPDEST PUSH1 0x20 DUP3 ADD SWAP1 POP SWAP2 SWAP1 POP JUMP JUMPDEST PUSH0 PUSH1 0x20 DUP3 ADD SWAP1 POP DUP2 DUP2 SUB PUSH0 DUP4 ADD MSTORE PUSH2 0x1D6C DUP2 PUSH2 0x1D33 JUMP JUMPDEST SWAP1 POP SWAP2 SWAP1 POP JUMP JUMPDEST PUSH0 PUSH1 0x20 PUSH1 0x1F DUP4 ADD DIV SWAP1 POP SWAP2 SWAP1 POP JUMP JUMPDEST PUSH0 DUP3 DUP3 SHL SWAP1 POP SWAP3 SWAP2 POP POP JUMP JUMPDEST PUSH0 PUSH1 0x8 DUP4 MUL PUSH2 0x1DBD PUSH32 0xFFFFFFFFFFFFFFFFFFFFFFFFFFFFFFFFFFFFFFFFFFFFFFFFFFFFFFFFFFFFFFFF DUP3 PUSH2 0x1D82 JUMP JUMPDEST PUSH2 0x1DC7 DUP7 DUP4 PUSH2 0x1D82 JUMP JUMPDEST SWAP6 POP DUP1 NOT DUP5 AND SWAP4 POP DUP1 DUP7 AND DUP5 OR SWAP3 POP POP POP SWAP4 SWAP3 POP POP POP JUMP JUMPDEST PUSH0 PUSH2 0x1DF9 PUSH2 0x1DF4 PUSH2 0x1DEF DUP5 PUSH2 0xECA JUMP JUMPDEST PUSH2 0x1C89 JUMP JUMPDEST PUSH2 0xECA JUMP JUMPDEST SWAP1 POP SWAP2 SWAP1 POP JUMP JUMPDEST PUSH0 DUP2 SWAP1 POP SWAP2 SWAP1 POP JUMP JUMPDEST PUSH2 0x1E12 DUP4 PUSH2 0x1DDF JUMP JUMPDEST PUSH2 0x1E26 PUSH2 0x1E1E DUP3 PUSH2 0x1E00 JUMP JUMPDEST DUP5 DUP5 SLOAD PUSH2 0x1D8E JUMP JUMPDEST DUP3 SSTORE POP POP POP POP JUMP JUMPDEST PUSH0 SWAP1 JUMP JUMPDEST PUSH2 0x1E3A PUSH2 0x1E2E JUMP JUMPDEST PUSH2 0x1E45 DUP2 DUP5 DUP5 PUSH2 0x1E09 JUMP JUMPDEST POP POP POP JUMP JUMPDEST JUMPDEST DUP2 DUP2 LT ISZERO PUSH2 0x1E68 JUMPI PUSH2 0x1E5D PUSH0 DUP3 PUSH2 0x1E32 JUMP JUMPDEST PUSH1 0x1 DUP2 ADD SWAP1 POP PUSH2 0x1E4B JUMP JUMPDEST POP POP JUMP JUMPDEST PUSH1 0x1F DUP3 GT ISZERO PUSH2 0x1EAD JUMPI PUSH2 0x1E7E DUP2 PUSH2 0x1B79 JUMP JUMPDEST PUSH2 0x1E87 DUP5 PUSH2 0x1D73 JUMP JUMPDEST DUP2 ADD PUSH1 0x20 DUP6 LT ISZERO PUSH2 0x1E96 JUMPI DUP2 SWAP1 POP JUMPDEST PUSH2 0x1EAA PUSH2 0x1EA2 DUP6 PUSH2 0x1D73 JUMP JUMPDEST DUP4 ADD DUP3 PUSH2 0x1E4A JUMP JUMPDEST POP POP JUMPDEST POP POP POP JUMP JUMPDEST PUSH0 DUP3 DUP3 SHR SWAP1 POP SWAP3 SWAP2 POP POP JUMP JUMPDEST PUSH0 PUSH2 0x1ECD PUSH0 NOT DUP5 PUSH1 0x8 MUL PUSH2 0x1EB2 JUMP JUMPDEST NOT DUP1 DUP4 AND SWAP2 POP POP SWAP3 SWAP2 POP POP JUMP JUMPDEST PUSH0 PUSH2 0x1EE5 DUP4 DUP4 PUSH2 0x1EBE JUMP JUMPDEST SWAP2 POP DUP3 PUSH1 0x2 MUL DUP3 OR SWAP1 POP SWAP3 SWAP2 POP POP JUMP JUMPDEST PUSH2 0x1EFE DUP3 PUSH2 0x11AA JUMP JUMPDEST PUSH8 0xFFFFFFFFFFFFFFFF DUP2 GT ISZERO PUSH2 0x1F17 JUMPI PUSH2 0x1F16 PUSH2 0x103F JUMP JUMPDEST JUMPDEST PUSH2 0x1F21 DUP3 SLOAD PUSH2 0x1A64 JUMP JUMPDEST PUSH2 0x1F2C DUP3 DUP3 DUP6 PUSH2 0x1E6C JUMP JUMPDEST PUSH0 PUSH1 0x20 SWAP1 POP PUSH1 0x1F DUP4 GT PUSH1 0x1 DUP2 EQ PUSH2 0x1F5D JUMPI PUSH0 DUP5 ISZERO PUSH2 0x1F4B JUMPI DUP3 DUP8 ADD MLOAD SWAP1 POP JUMPDEST PUSH2 0x1F55 DUP6 DUP3 PUSH2 0x1EDA JUMP JUMPDEST DUP7 SSTORE POP PUSH2 0x1FBC JUMP JUMPDEST PUSH1 0x1F NOT DUP5 AND PUSH2 0x1F6B DUP7 PUSH2 0x1B79 JUMP JUMPDEST PUSH0 JUMPDEST DUP3 DUP2 LT ISZERO PUSH2 0x1F92 JUMPI DUP5 DUP10 ADD MLOAD DUP3 SSTORE PUSH1 0x1 DUP3 ADD SWAP2 POP PUSH1 0x20 DUP6 ADD SWAP5 POP PUSH1 0x20 DUP2 ADD SWAP1 POP PUSH2 0x1F6D JUMP JUMPDEST DUP7 DUP4 LT ISZERO PUSH2 0x1FAF JUMPI DUP5 DUP10 ADD MLOAD PUSH2 0x1FAB PUSH1 0x1F DUP10 AND DUP3 PUSH2 0x1EBE JUMP JUMPDEST DUP4 SSTORE POP JUMPDEST PUSH1 0x1 PUSH1 0x2 DUP9 MUL ADD DUP9 SSTORE POP POP POP JUMPDEST POP POP POP POP POP POP JUMP INVALID LOG2 PUSH5 0x6970667358 0x22 SLT KECCAK256 DUP12 SGT DUP5 SWAP8 0xC7 PUSH2 0x6C37 ADDRESS BALANCE PUSH17 0xE45109E6D882911F1C6045904167E9C42F PUSH15 0xAAAB3D64736F6C6343000819003300 "
		},
		"gasEstimates": {
			"creation": {
				"codeDepositCost": "1637200",
				"executionCost": "25978",
				"totalCost": "1663178"
			},
			"external": {
				"addPaper(string,string[],address[])": "infinite",
				"balance()": "2469",
				"distribute(address,uint256)": "infinite",
				"getBalance()": "335",
				"getNumberOfPapers()": "2462",
				"getPaperDetails(string)": "infinite",
				"getPapers()": "infinite",
				"owner()": "2594",
				"papers(string)": "infinite",
				"withdraw(uint256)": "infinite"
			}
		},
		"methodIdentifiers": {
			"addPaper(string,string[],address[])": "fd3cbf95",
			"balance()": "b69ef8a8",
			"distribute(address,uint256)": "fb932108",
			"getBalance()": "12065fe0",
			"getNumberOfPapers()": "ab4b5839",
			"getPaperDetails(string)": "74883bf3",
			"getPapers()": "972a2239",
			"owner()": "8da5cb5b",
			"papers(string)": "69071c70",
			"withdraw(uint256)": "2e1a7d4d"
		}
	},
	"abi": [
		{
			"inputs": [],
			"stateMutability": "nonpayable",
			"type": "constructor"
		},
		{
			"anonymous": false,
			"inputs": [
				{
					"indexed": false,
					"internalType": "address",
					"name": "",
					"type": "address"
				},
				{
					"indexed": false,
					"internalType": "uint256",
					"name": "",
					"type": "uint256"
				}
			],
			"name": "Distributed",
			"type": "event"
		},
		{
			"anonymous": false,
			"inputs": [
				{
					"indexed": false,
					"internalType": "address",
					"name": "",
					"type": "address"
				},
				{
					"indexed": false,
					"internalType": "uint256",
					"name": "",
					"type": "uint256"
				}
			],
			"name": "Received",
			"type": "event"
		},
		{
			"anonymous": false,
			"inputs": [
				{
					"indexed": false,
					"internalType": "address",
					"name": "",
					"type": "address"
				},
				{
					"indexed": false,
					"internalType": "uint256",
					"name": "",
					"type": "uint256"
				}
			],
			"name": "Withdrawn",
			"type": "event"
		},
		{
			"inputs": [
				{
					"internalType": "string",
					"name": "id",
					"type": "string"
				},
				{
					"internalType": "string[]",
					"name": "citations",
					"type": "string[]"
				},
				{
					"internalType": "address[]",
					"name": "addresses",
					"type": "address[]"
				}
			],
			"name": "addPaper",
			"outputs": [],
			"stateMutability": "nonpayable",
			"type": "function"
		},
		{
			"inputs": [],
			"name": "balance",
			"outputs": [
				{
					"internalType": "uint256",
					"name": "",
					"type": "uint256"
				}
			],
			"stateMutability": "view",
			"type": "function"
		},
		{
			"inputs": [
				{
					"internalType": "address payable",
					"name": "_to",
					"type": "address"
				},
				{
					"internalType": "uint256",
					"name": "_amount",
					"type": "uint256"
				}
			],
			"name": "distribute",
			"outputs": [],
			"stateMutability": "nonpayable",
			"type": "function"
		},
		{
			"inputs": [],
			"name": "getBalance",
			"outputs": [
				{
					"internalType": "uint256",
					"name": "",
					"type": "uint256"
				}
			],
			"stateMutability": "view",
			"type": "function"
		},
		{
			"inputs": [],
			"name": "getNumberOfPapers",
			"outputs": [
				{
					"internalType": "uint256",
					"name": "",
					"type": "uint256"
				}
			],
			"stateMutability": "view",
			"type": "function"
		},
		{
			"inputs": [
				{
					"internalType": "string",
					"name": "id",
					"type": "string"
				}
			],
			"name": "getPaperDetails",
			"outputs": [
				{
					"components": [
						{
							"internalType": "string",
							"name": "id",
							"type": "string"
						},
						{
							"internalType": "string[]",
							"name": "citations",
							"type": "string[]"
						},
						{
							"internalType": "address[]",
							"name": "addresses",
							"type": "address[]"
						},
						{
							"internalType": "uint256",
							"name": "cited_total",
							"type": "uint256"
						},
						{
							"internalType": "uint256",
							"name": "cited_payout",
							"type": "uint256"
						}
					],
					"internalType": "struct ApprovalQueue.paper",
					"name": "",
					"type": "tuple"
				}
			],
			"stateMutability": "view",
			"type": "function"
		},
		{
			"inputs": [],
			"name": "getPapers",
			"outputs": [
				{
					"components": [
						{
							"internalType": "string",
							"name": "id",
							"type": "string"
						},
						{
							"internalType": "string[]",
							"name": "citations",
							"type": "string[]"
						},
						{
							"internalType": "address[]",
							"name": "addresses",
							"type": "address[]"
						},
						{
							"internalType": "uint256",
							"name": "cited_total",
							"type": "uint256"
						},
						{
							"internalType": "uint256",
							"name": "cited_payout",
							"type": "uint256"
						}
					],
					"internalType": "struct ApprovalQueue.paper[]",
					"name": "",
					"type": "tuple[]"
				}
			],
			"stateMutability": "view",
			"type": "function"
		},
		{
			"inputs": [],
			"name": "owner",
			"outputs": [
				{
					"internalType": "address",
					"name": "",
					"type": "address"
				}
			],
			"stateMutability": "view",
			"type": "function"
		},
		{
			"inputs": [
				{
					"internalType": "string",
					"name": "",
					"type": "string"
				}
			],
			"name": "papers",
			"outputs": [
				{
					"internalType": "string",
					"name": "id",
					"type": "string"
				},
				{
					"internalType": "uint256",
					"name": "cited_total",
					"type": "uint256"
				},
				{
					"internalType": "uint256",
					"name": "cited_payout",
					"type": "uint256"
				}
			],
			"stateMutability": "view",
			"type": "function"
		},
		{
			"inputs": [
				{
					"internalType": "uint256",
					"name": "_amount",
					"type": "uint256"
				}
			],
			"name": "withdraw",
			"outputs": [],
			"stateMutability": "nonpayable",
			"type": "function"
		},
		{
			"stateMutability": "payable",
			"type": "receive"
		}
	]
}